:020000040800F2
:10000000501700202D0200086D090008F9080008AB
:1000100069090008D9070008AB1D000800000000AE
:10002000000000000000000000000000351800087B
:10003000DD07000800000000BB0200085519000899
:10004000470200084702000847020008470200086C
:10005000470200084702000847020008470200085C
:10006000470200084702000847020008470200084C
:10007000470200084702000847020008470200083C
:10008000470200084702000847020008470200082C
:10009000470200084702000847020008470200081C
:1000A000470200084702000847020008470200080C
:1000B0004702000847020008D1190008470200085B
:1000C00047020008470200084702000847020008EC
:1000D00047020008811B0008470200084702000889
:1000E00047020008470200084702000847020008CC
:1000F00047020008470200084702000847020008BC
:1001000047020008470200084702000847020008AB
:10011000470200084702000847020008470200089B
:10012000470200084702000847020008470200088B
:1001300000F002F800F06BF80AA090E8000C82448E
:100140008344AAF10107DA4501D100F060F8AFF26B
:10015000090EBAE80F0013F0010F18BFFB1A43F0A5
:100160000103184714320000343200000A444FF0F3
:10017000000C10F8013B13F0070408BF10F8014B06
:100180001D1108BF10F8015B641E05D010F8016B4B
:10019000641E01F8016BF9D113F0080F1EBF10F8AF
:1001A000014BAD1C0C1B09D16D1E58BF01F801CBD2
:1001B000FAD505E014F8016B01F8016B6D1EF9D555
:1001C0009142D6D37047000000230024002500266A
:1001D000103A28BF78C1FBD8520728BF30C148BFAA
:1001E0000B607047642900F0F980752900F0F680F3
:1001F000782900F02F81632900F08382732900F0B1
:100200008882002070471FB51FBD10B510BD00F0DB
:10021000B3FA1146FFF7F7FF01F09AFE00F0D1FAAA
:1002200003B4FFF7F2FF03BC01F0C8FD09488047A3
:1002300009480047FEE7FEE7FEE7FEE7FEE7FEE7C8
:10024000FEE7FEE7FEE7FEE704480549054A064BE0
:10025000704700007119000831010008501100209A
:10026000501700205013002050130020EFF310808F
:1002700072B6704780F310887047204C204D25607F
:100280004FF0000484F309881E4C4FF001052570DF
:100290001D4C4FF08055256062B6FEE730B41A4C15
:1002A0004FF08055256030BC704730B4164C4FF08D
:1002B0008055256030BC704700BF72B6EFF30980EF
:1002C00028B1203880E8F00F10490968086000B5AF
:1002D0000F4880475DF804EB0E480F490A7802701A
:1002E0000A480E490A680260106890E8F00F203052
:1002F00080F309884EF0040E62B6704720ED00E0EE
:100300000000FFFF5E00002004ED00E0640000201C
:10031000B10F000853000020540000206C000020A2
:10032000704700000FB4044910B503AA029800F00A
:10033000F5F910BC5DF814FB1C00002070B50446F4
:1003400085690068C10601D5302600E02026C00777
:1003500007D070BDD4E9012130469047206A401C87
:1003600020626D1EF6D570BD70B5044685690078B3
:10037000C00707D170BDD4E9012120209047206A31
:10038000401C20626D1EF6D570BD70B50C4605464A
:10039000012A05D02878800600D5EA69002302E00A
:1003A000012305E05B1C934202D2E05C0028F9D1F6
:1003B000A869E618C01AA861286A18442862284665
:1003C000FFF7BCFF04E0D5E9012114F8010B9047C9
:1003D000B442F8D32846FFF7C7FF70BD2DE9F041BE
:1003E0000646002410687529314616A510D0AFF3D3
:1003F0000080002802DA404213A507E031688A072E
:1004000001D512A502E0490704D511A5012401E098
:10041000AFF3008000210A2206F1240709E0B0FBB7
:10042000F2FCB0FBF2F302FB1C00303078541846AB
:10043000491C0028F3D123462A463046BDE8F04146
:1004400000F0FCB8000000002D0000002B000000B0
:100450002000000070B504460D4621461068AFF339
:1004600000802188090502D50F4A7A4402E00E4A2D
:100470007A440E32002104F1240305E000F00F0657
:100480000009965D5E54491C0028F7D120780023AE
:10049000000704D5702D02D009B102231132204685
:1004A000BDE8704000F0CAB8522E00002DE9F05FA0
:1004B000894604464FF0000ADFF874B1FB44C0F8E7
:1004C00020A02046E1688847002874D0252806D05F
:1004D000D4E901219047206A401C2062F1E7002600
:1004E0005F462046E16888472028054607DB312D16
:1004F00005D2781910F8200C08B10643F1E7B007CF
:1005000001D526F00406C4F81CA00027C4F818A0E2
:100510002A2D09D0284601F04AFC38B304EB87089D
:10052000303DC8F8185019E059F8041B204604EB78
:1005300087029161E1688847012F054618D1E0697B
:10054000002820DA26F020061DE0D8F8180000EB7D
:10055000800005EB40003038C8F818002046E168FC
:100560008847054601F023FC0028EED1012F0AD070
:100570002E2D08D12046E16888477F1C0546022FB2
:1005800046F02006C4DBA069002803DA404246F0AA
:100590000106A061F00701D026F010066C2D0BD0EB
:1005A000682D09D04C2D39D06A2D35D0742D35D019
:1005B0007A2D33D016E038E0E1682F462046884790
:1005C000B842054609D16C2F26D04FF48060E1680F
:1005D000064320468847054604E06C2F1AD04FF4A6
:1005E000807006430DB3A5F14100192802D82035CB
:1005F00046F400664A462946204626604E46FFF7E6
:10060000F1FD80B101280BD0F61D26F0070000F1A6
:10061000080956E74020E4E78020D8E70020D6E725
:1006200006F104094DE7284652E7206ABDE8F09F2D
:10063000282E000070477047704770472DE9F0473B
:100640000D4699469246044600F124080168880642
:1006500004D5E06921F01001216000E00120A842EA
:1006600001DD471B00E00027A1697A1902EB0900B0
:10067000081AA0612078C00602D42046FFF75EFE6B
:10068000002608E0D4E901211AF806009047206A04
:10069000401C761C20624E45F4DB2078C0060AD54B
:1006A0002046FFF74BFE06E0D4E9012130209047B9
:1006B000206A401C2062381EA7F10107F4DC07E025
:1006C000D4E9012118F805009047206A401C2062F7
:1006D000281EA5F10105F3DC2046FFF745FE207832
:1006E000000602D50220BDE8F0870120FBE710B527
:1006F000436913B1AFF3008001E0FFF746FE01202C
:1007000010BD127800F124010A7000224A70012203
:10071000EDE711684FF0FF32E9E70000074B70B5D5
:100720000D467B4400F011F80446284600F020F8FE
:1007300010B14FF0FF3070BD204670BD671700004C
:1007400001694A1C02610878704700B58FB0CDE995
:1007500001310021059105497944CDE90310114685
:100760006846FFF7A3FE0FB000BD0000E5FFFFFFE6
:10077000007B00F080007047754600F029F8AE4617
:1007800005006946534620F00700854618B020B59D
:10079000FFF75AFDBDE820404FF000064FF000077C
:1007A0004FF000084FF0000B21F00701AC46ACE819
:1007B000C009ACE8C009ACE8C009ACE8C0098D4686
:1007C00070470446AFF300802046FFF729FD000084
:1007D00000487047F010002000BFFEE770472DE989
:1007E000F0410246002500260020002300240027B7
:1007F00091F803C00CF00F0591F803C00CF0100C39
:10080000BCF1000F03D091F802C04CEA050591F845
:1008100000C0BCF1000F31D0146800202BE04FF075
:10082000010C0CFA00F3B1F800C00CEA03069E427A
:1008300020D183004FF00F0C0CFA03F7BC4305FAEC
:1008400003FC4CEA040491F803C0BCF1280F06D164
:100850004FF0010C0CFA00FCC2F814C00AE091F849
:1008600003C0BCF1480F05D14FF0010C0CFA00FC9D
:10087000C2F810C0401C0828D1D31460B1F800C0E1
:10088000BCF1FF0F34DD546800202EE000F1080CAD
:100890004FF0010808FA0CF3B1F800C00CEA0306A7
:1008A0009E4221D183004FF00F0C0CFA03F7BC439A
:1008B00005FA03FC4CEA040491F803C0BCF1280FCC
:1008C00005D100F1080C08FA0CF8C2F8148091F870
:1008D00003C0BCF1480F07D100F1080C4FF001082C
:1008E00008FA0CF8C2F81080401C0828CED35460D7
:1008F000BDE8F0810161704700BFFEE708B5012146
:100900004C2000F01DFF2020ADF8000010208DF8D5
:10091000030003208DF8020069461048FFF75FFFCF
:1009200020210E48FFF7E6FF2020ADF800006946C1
:100930000B48FFF754FF20210948FFF7DBFF4FF476
:100940008050ADF8000069460648FFF748FF4FF4B5
:1009500080510448FFF7CEFF08BD0000000C0140A5
:10096000001801400008014000BFFEE7704700008A
:1009700070B5002100230F22C47804B3154C2468FD
:1009800004F4E064C4F5E064210AC1F10403CA4040
:10099000447804FA03F184781440214309010E4C91
:1009A0000678A155047804F01F050124AC400578B1
:1009B0006D11AD0005F1E025C5F8004109E00478AE
:1009C00004F01F050124AC40044D0678761145F86B
:1009D000264070BD0CED00E000E400E080E100E0A6
:1009E00002490143024A1160704700000000FA0505
:1009F0000CED00E010B500F013F800F015FC00F06D
:100A00003DFC00F05DFC00F0E5FB00F0B7FB00F002
:100A1000F1FC00F095FC00F0BBFC00F002F810BD0A
:100A20007047704706480078012808D105480078CB
:100A3000FF2804D203480078401C02490870704720
:100A40005E0000205100002010B500241A480078F4
:100A5000012830D1FFF70AFC04461848007820B17D
:100A600016480078401E1549087014480078F8B9F7
:100A700013480078E0B900F01FFD124812490978C8
:100A800050F82100114908600F4800781049097892
:100A900088420DD00D480068806B401C0B490968E6
:100AA00088630C480068401C0A490860FFF7FDFB9A
:100AB0002046FFF7DFFB10BD5E0000205100002044
:100AC00052000020880B0020540000206C00002001
:100AD000530000203800002010B500240B48007897
:100AE000012811D1FFF7C2FB04460948007840B93C
:100AF00008480078FF2804D206480078401C0549C1
:100B000008702046FFF7B6FB10BD00005E00002015
:100B1000510000205200002010B500241348007836
:100B2000012821D1FFF7A2FB044611480078C0B18B
:100B30000F480078401E0E4908700846007860B9DA
:100B40000C48007828B92046FFF794FB00F07AFCA7
:100B50000AE02046FFF78EFB06E02046FFF78AFBFF
:100B600002E02046FFF786FB10BD00005E0000207B
:100B7000520000205100002010B50B48007890B9B9
:100B800000F09AFC094800780949087009480749AB
:100B9000097850F8210008490860084600680749AC
:100BA0000860FFF76AFB10BD5E00002054000020C3
:100BB00053000020880B00206C00002064000020FF
:100BC00010B50024022000F0F5F9FFF74FFB0446B2
:100BD00000200B4908602046FFF74CFB142000F072
:100BE000E9F9FFF743FB044605480068054908603A
:100BF0000120054908702046FFF73CFB10BD0000AE
:100C000060000020480000205000002070470000D5
:100C10002DE9FE4F06460F4690461C464FF0000950
:100C2000FFF724FB81461F48007828B14846FFF7AC
:100C300021FB3C20BDE8FE8F1B4850F8240060BB20
:100C40000120194941F824004846FFF713FB00230F
:100C500042463946304600F009F9824600200090AD
:100C600001900346024651460290204600F03AFCAD
:100C7000054635B90D48007801280CD100F0E2FB9B
:100C800009E0FFF7F3FA81460020074941F8240004
:100C90004846FFF7EFFA2846CCE74846FFF7EAFA5E
:100CA0002820C7E751000020880B00205E000020AC
:100CB0002DE9F04F85B081468A4693461C46DDE912
:100CC0000F78129D00200390FFF7D0FA039023487D
:100CD000007830B10398FFF7CDFA3C2005B0BDE8AD
:100CE000F08F1F4850F8240088BB01201C4941F8B0
:100CF00024000398FFF7BEFA2A464146384600F022
:100D000001FD2B465A465146484600F0AFF8049084
:100D10001198CDE9008002953A4620460E9B049931
:100D200000F0E0FB064636B90E48007801280CD1E9
:100D300000F088FB09E0FFF799FA039000200849CA
:100D400041F824000398FFF795FA3046C6E7FFE71D
:100D50000398FFF78FFA2820C0E700005100002019
:100D6000880B00205E000020704770472DE9F0419D
:100D700006460F4614464FF000081548007818B193
:100D800012202070BDE8F081FFF770FA8046FF2E38
:100D900003D11048006890F832600F4850F8265090
:100DA0002DB94046FFF766FA43202070EAE7012D8F
:100DB00005D14046FFF75EFA43202070E2E7EF647A
:100DC0004046FFF757FA0020207000BFDAE7000026
:100DD0005100002064000020880B002070470000B4
:100DE0002DE9F04707460D464FF0000A0020286025
:100DF0006860FFF73BFA8246FF2F03D1194800686D
:100E000090F83270184850F827402CB95046FFF738
:100E100031FA4320BDE8F087012C04D15046FFF79A
:100E200029FA4320F6E7207C00F0010020B9504663
:100E3000FFF720FA4520EDE70026D4F80C90D4F80F
:100E400008805046FFF716FA00E0761C58F8041B9D
:100E50000029FAD0B0002860A9EB06008000686085
:100E60000020D7E764000020880B002070B50446FE
:100E700010464FF080750560051F28462C606FF006
:100E80000106051F28462E604FF01236051F284622
:100E90002E604FF00336051F28462E604FF00236B5
:100EA000051F28462E607610051F28462E60051F58
:100EB000284629604FF01136051F28462E604FF056
:100EC0001036051F28462E604FF00936051F2846AC
:100ED0002E604FF00836051F28462E604FF007366B
:100EE000051F28462E604FF00636051F28462E6047
:100EF0004FF00536051F28462E604FF00436051FBB
:100F000028462E6070BD00002DE9F04105464FF0E7
:100F10000008FFF7ABF98046FF2D05D12048006897
:100F200090F83250012608E01D48006890F8320021
:100F3000A84201D1012600E000261A4850F82540B9
:100F40002CB94046FFF796F94820BDE8F081012C06
:100F500004D14046FFF78EF94320F6E794F8347049
:100F60001148C05D94F8351088430F49C8550846AC
:100F7000C05D30B994F836100C48007888430B49AE
:100F8000087094F8300040F0080084F830004046C3
:100F9000FFF770F9012E01D100F054FA0020D4E7D8
:100FA00064000020880B002056000020550000201F
:100FB0007047000070B5054600261748007800B15C
:100FC00070BD1648007800B1FAE71DB3FFF74EF97F
:100FD00006461348006890F834401248005D1049F6
:100FE000096891F8351088430E4908550846005D98
:100FF00040B90B48006890F836100B4800788843D9
:101000000949087006480068C5623046FFF732F9A2
:1010100000F018FA00BFD3E7510000205200002072
:101020006400002056000020550000202DE9F0410A
:1010300004460D4616461F461248007810B155204A
:10104000BDE8F0811048007808B13220F8E7B81CFC
:10105000C82148434FF47A71B0FBF1F14FF461605D
:101060006043C5EB051200EB8200304400EBC00288
:1010700002EB001001EBC0084046FFF79BFF002089
:10108000DEE70000510000205200002070B500266D
:1010900000F072F8FFF7EAF8064631480068401C95
:1010A0002F4908603046FFF7E5F82E480078012800
:1010B00053D12D48007820B1012804D0022809D14D
:1010C00003E001250BE0002509E001250120264968
:1010D000087004E0012500202349087000BF00BF0C
:1010E00005B970BD2148046833E0FFF7BFF8064634
:1010F000E06A50B3E06A401EE062E06A28BB94F800
:10110000300000F0370040B114F8300F00F0C80094
:10111000207001206070303C02E0002084F8310033
:1011200094F8300000F0080078B93434A078104901
:10113000097808430E49087020780E49085C6178E8
:10114000084314F834190B4A505464693046FFF7C9
:1011500091F894F832003F28C7D100BFC1E70000E2
:101160007C0000205E000020740000207000002041
:101170005500002056000020704700002DE9F04186
:101180005021114800F02CF900250DE0681C86B2B2
:101190000D4800EB051400EB061700202070676077
:1011A0000AA0E060681C85B2042DEFD3064800EB6E
:1011B000051400202070606004A0E060024804492B
:1011C0000860BDE8F0810000380700203F00000003
:1011D0004000002070B5C821114800F001F900233B
:1011E0000FE0581C85B203EB83000D4901EB80042E
:1011F00005EB850001EB8006002020706660581C1E
:1012000083B2092BEDD303EB8300054901EB800486
:1012100000202070606008460249086070BD000030
:10122000700600203C00002000200A4908600A499E
:1012300008700A4908700A4908700A4908700A4982
:1012400008600A4908600A4908600A4908600A49B2
:10125000087070477C0000205100002052000020E0
:101260005F0000205E0000203800002060000020A9
:101270004C000020480000205000002000210A4AB5
:101280001170002004E00021084A1154411CC8B22A
:101290000828F8D30021064A1170064A1170064A40
:1012A0001160064A1160704755000020560000206A
:1012B00053000020540000206C0000206400002037
:1012C00070B54FF47C71194800F08AF84FF48071C2
:1012D000174800F085F8002413E0601CC5B2C4EB89
:1012E000C40000EB4000114901EB8003C5EBC500D1
:1012F00000EB400001EB80065E610EA0D864601C2C
:10130000C4B20B2CE9D3C4EBC40000EB4000074986
:1013100001EB80030020586106A0D8640020064934
:10132000086002480549086070BD0000880C002074
:10133000880B00203F0000007000002068000020A3
:1013400000B587B00320002180220A4BCDE901328D
:10135000CDE903104FF6FF703F23074A009007487E
:10136000FFF7A6FC06AA06A13F20FFF7FFFC07B087
:1013700000BD000088090020840B00201916000819
:1013800075432F4F532D49492049646C6500000077
:1013900000B587B00320002180220A4BCDE901323D
:1013A000CDE903104FF6FE703E23074A0090074830
:1013B000FFF77EFC06AA06A13E20FFF7D7FC07B088
:1013C00000BD0000880700208409002041160008A5
:1013D00075432F4F532D4949205374617400000009
:1013E00004E0002200F8012B4A1E91B20029F8D136
:1013F000704700002DE9F04178211048FFF7F0FF19
:1014000000240DE0601C86B204EB44000B4901EBA4
:10141000C00506EB460001EBC0072F60601C84B2DC
:10142000042CEFD304EB4400044901EBC005002079
:101430002860084602490860BDE8F0817810002065
:101440007800002010B50024FEF710FF0446134872
:101450000078F8B912480078E0B900F02DF811488A
:101460001149097850F82100104908600E480078A9
:101470000F49097888420DD00C480068806B401CE9
:101480000A49096888630B480068401C09490860DC
:10149000FEF704FF2046FEF7EDFE10BD51000020D0
:1014A00052000020880B0020540000206C00002017
:1014B00053000020380000200649074A1278885C53
:1014C0000649095C034A515C01EBC001044A1170F2
:1014D00070470000C0310008550000205600002071
:1014E000540000202DE9F84F05460F4690469946D6
:1014F000DDE90AAB00200090FEF7B8FE00903F48FF
:101500000468002C74D0183454F8040C3B4908606B
:101510000098FEF7AFFE44F8187CA57600202076F0
:101520006076606144F814BC44F80CAC44F8108C4C
:101530000C9824F8080C24F8069C0020E077E810AA
:10154000207705F00700E076217F01208840A07712
:10155000E17E01208840607700206060E060A0604C
:101560002062A0626062E062206325A06063183C94
:10157000002606E0002104F1500040F82610701CFF
:10158000C6B2002EF6D02046FFF740FB2046FFF7FC
:10159000EBFBFEF76BFE00901A4840F825401A4816
:1015A000006860610020A0611748006810B116480B
:1015B00000688461144804603434A07813490978C1
:1015C00008431249087020781149085C6178084383
:1015D00014F834190E4A50540E480078401C0D4936
:1015E00008700098FEF746FE0020BDE8F88FFFE780
:1015F0000098FEF73FFE4220F7E700006800002059
:101600003F000000880B00207000002055000020E3
:10161000560000205F000020002400BF00BFFEF73E
:1016200025FE044605480068401C04490860204621
:10163000FEF720FEFFF799FBF1E7000060000020B5
:10164000002400BF02E02820FFF7B4FC194800780E
:101650000028F8D0184800686421B0FBF1F0164962
:1016600008600846006828B9002014490870FF2067
:10167000FFF74AFC00BFFEF7F9FD0446104800687A
:101680001049086000200E4908602046FEF7F2FD70
:101690000C48006808490968B0FBF1F0C0F164002B
:1016A00006490870FFF79AFB00F00EF81420FFF7C8
:1016B00081FCE0E7500000204800002044000020AA
:1016C000600000204C0000207CB5002514E0694635
:1016D0002846FFF785FB064666B9094850F82540BD
:1016E00044B1012C06D0D4E9020100EB8100606412
:1016F0000198A064681CC5B23F2DE8D97CBD0000EC
:10170000880B002002F0010343B102F002032BB169
:1017100002E0491E002308C00029FAD170470000EA
:1017200029B1064AD2690243044BDA6104E0034A54
:10173000D2698243014BDA61704700000010024019
:1017400029B1064A92690243044B9A6104E0034AB4
:1017500092698243014B9A61704700000010024079
:1017600030B500210022002400232D4D6D6805F0C6
:101770000C0121B1042905D0082923D105E0294D08
:10178000056022E0274D05601FE0254D6D6805F4DA
:101790007012234D6D6805F48034022505EB9242EA
:1017A0001CB9214D554305600BE01D4D6D6805F4D6
:1017B00000351DB11C4D5543056002E0194D5543E0
:1017C000056002E0174D056000BF00BF144D6D6855
:1017D00005F0F0010909154D6B5C0568DD404560B9
:1017E0000F4D6D6805F4E061090A104D6B5C4568AA
:1017F000DD4085600A4D6D6805F46051C90A0B4DE6
:101800006B5C4568DD40C560054D6D6805F4404181
:10181000890B074D6B5CC568B5FBF3F5056130BD01
:101820000010024000127A0000093D002400002050
:1018300034000020704710B500F002F810BD000021
:101840000CB50020019000903348006840F48030CF
:101850003149086000BF3048006800F40030009053
:101860000198401C0190009818B90198B0F5A06F3C
:10187000F1D12948006800F4003010B10120009037
:1018800001E0002000900098012843D1234800681F
:1018900040F01000214908600846006820F003006D
:1018A00008600846006840F0020008601A48406876
:1018B000194948600846406848600846406840F456
:1018C000806048600846406820F47C104860084604
:1018D000406840F4E81048600846006840F08070B6
:1018E000086000BF0C48006800F000700028F9D0C4
:1018F0000948406820F003000749486008464068EE
:1019000040F00200486000BF0348406800F00C004F
:101910000828F9D10CBD0000001002400020024050
:10192000014908707047000020000020042808D1F9
:101930004FF0E021096941F004014FF0E02211610C
:1019400007E04FF0E021096921F004014FF0E022A7
:101950001161704710B505480078012805D1FFF7DF
:1019600061F8FFF793FBFFF76FF810BD5E000020F2
:1019700010B51348006840F001001149086008469E
:101980004068104908400E494860084600680E4902
:1019900008400B4908600846006820F48020086071
:1019A0000846406820F4FE0048604FF41F0088603D
:1019B000FFF741FF4FF000600449086010BD0000D0
:1019C000001002400000FFF8FFFFF6FE08ED00E007
:1019D00010B501210A4800F035F801280AD109495B
:1019E000086980470021064800F048F8642104484F
:1019F00000F042F80121024800F009F810BD000093
:101A000000080040B4000020CA4302827047CA4365
:101A10000282704721B1028842F00102028004E094
:101A200002884FF6FE731A40028070470146888C88
:101A3000704702460020138A0B400BB1012000E0E2
:101A40000020704730B50246002000230024158A8C
:101A500005EA0103958905EA010413B10CB10120DF
:101A600000E0002030BD1AB183890B43838102E07E
:101A700083898B4383817047818570478184704758
:101A8000002202881D4B98420ED01D4B98420BD06D
:101A9000B0F1804F08D01B4B984205D01A4B9842AA
:101AA00002D01A4B984204D14FF68F731A404B88DC
:101AB0001A43174B984207D0164B984204D04FF662
:101AC000FF431A40CB881A4302808B8883850B889A
:101AD00003850A4B98420BD0094B984208D00E4B15
:101AE000984205D00D4B984202D00D4B984201D13F
:101AF0000B7A03860123838270470000002C01408B
:101B0000003401400004004000080040000C004088
:101B1000001000400014004000400140004401401B
:101B2000004801407FB505460C4601210420FFF71F
:101B3000F7FDADF80850ADF804400020ADF80A00FC
:101B4000ADF8060001A90D48FFF79AFF01224121D7
:101B50000A48FFF788FF1E208DF8000003208DF84B
:101B600001008DF8020001208DF803006846FEF7A1
:101B7000FFFE01210148FFF74DFF7FBD0008004037
:101B800010B5FEF74FFF40F225511E4800F04CF80B
:101B900010B31C4800F004F9C4B21B48008800F4DC
:101BA0000040C8B91848008800F4804060B10A2C91
:101BB00003D000201449088020E01348008840F436
:101BC00000401149088019E00D2C06D10E4800880C
:101BD00040F480400C49088010E00B480088C0F3B6
:101BE0000D000A490C5408480088401C064908802A
:101BF00008460088C72801DD00200880FEF724FF82
:101C000010BD00000038014022000020A80500207F
:101C100021B1828942F40052828104E082894DF62A
:101C2000FF731A408281704770B50246002400237A
:101C30000025002040F66A16B14200D100BFC1F372
:101C4000421501F01F03012606FA03F3012D02D10C
:101C50009689334006E0022D02D1168A334001E016
:101C6000968A33400C12012606FA04F41688344092
:101C700013B10CB1012000E0002070BDF0B50346A7
:101C8000002400260025002040F66A17B94200D142
:101C900000BF1846C1F3421401F01F06012707FADE
:101CA00006F5012C01D10C3004E0022C01D11030DA
:101CB00000E014301AB107682F43076002E007689C
:101CC000AF430760F0BD00002DE9F04786B0054640
:101CD0000E460024A24600BFA1460027B08900B1ED
:101CE00000BF2F462C8A4CF6FF700440F088044356
:101CF0002C82AC894EF6F3100440B0883189084339
:101D0000718908430443AC81AC8A4FF6FF4004401C
:101D1000B0890443AC8201A8FFF722FD1F48874227
:101D200002D1DDF810A001E0DDF80CA0A88900F4D4
:101D3000004040B10AEBCA0000EB0A1031684900CC
:101D4000B0FBF1F807E00AEBCA0000EB0A103168BB
:101D50008900B0FBF1F86420B8FBF0F00401200921
:101D6000642101FB1089A88900F4004040B13220B1
:101D700000EBC900B0FBF1F000F00700044308E0FD
:101D8000322000EB09106421B0FBF1F000F00F00ED
:101D900004432C8106B0BDE8F08700000038014004
:101DA00001468888C0F30800704700BFFEE730385E
:101DB0000A2801D20120704700207047014600BF69
:101DC0007047000010B56FF00400FFF7AFFD10483A
:101DD00000681049B0FBF1F00F4908700C4800682A
:101DE0000C49B0FBF1F441F28830444305200B4923
:101DF00008804FF0E020006940F002004FF0E02141
:101E0000086108464461006940F00100086110BDA6
:101E10000000002000127A00180000201A000020A4
:101E200010B5FEF759FE10BD10B5FEF775FE10BDDA
:101E30002DE9F047074600264FF0E020D0F8149037
:101E40001148007807FB00F800BFFFF7E9FF4FF0EB
:101E5000E020856911E04FF0E0208469AC420CD0AD
:101E6000AC4202D2281B064403E0A9EB040028443C
:101E700006442546464500D300E0ECE700BFFFF7E7
:101E8000D3FFBDE8F0870000180000202DE9F041E5
:101E90000546884600270026ECB2FEF7E7F907461C
:101EA00000BF164800680028FBD0002013490860D6
:101EB00013480078FFF7BCFF002610E004F0010093
:101EC00018B101200D49086002E000200B490860AC
:101ED0000B480078FFF7ACFF6410701CC6B2082EE8
:101EE000ECDB01200549086005480078FFF7A0FFFA
:101EF0003846FEF7BFF92046BDE8F081B001214227
:101F00002000002000BF07480068C0430649C1F810
:101F100094014FF4FA73002211461046FFF786F839
:101F2000F1E70000948121420080214200BF064871
:101F30000068C0430549C1F89401002302221946F4
:101F40001846FFF773F8F2E794012342000023429A
:101F500010B5FFF737FF4FF4A060FEF741FD4FF4D7
:101F6000E13000F061F80948416848208847FEF7F1
:101F7000C5FCFEF73FFD0A23054A00210548FEF790
:101F800047FEFEF7F9FD002010BD0000B400002060
:101F9000A4020020CD1F000800BF084801680068A7
:101FA000401C064B186006A0FEF7BCF94FF4FA730C
:101FB000002211461046FFF739F8EEE71400002022
:101FC00025642C00014608687047000070B504467F
:101FD000002500BFFEF7F4FDFEF748F9054609238A
:101FE0000B4A00210B48FEF713FE08230A4A002182
:101FF0000A48FEF70DFE0623094A00210948FEF7AC
:1020000007FE0A20FEF780FF2846FEF733F970BD71
:10201000A4030020051F0008A40400202D1F0008B1
:10202000A4050020991F000810B586B004460121C0
:1020300044F20400FFF784FB4FF40070ADF8140085
:1020400003208DF8160018208DF8170005A91C48EC
:10205000FEF7C5FB4FF48060ADF8140004208DF846
:10206000170005A91648FEF7BAFB25208DF80000D9
:1020700003208DF801008DF8020001208DF8030087
:102080006846FEF775FC01940020ADF80800ADF835
:102090000A00ADF80C00ADF810000C20ADF80E00F1
:1020A00001A90848FFF710FE012240F2255105481A
:1020B000FFF7E4FD01210348FFF7AAFD06B010BDBC
:1020C000000801400038014030B595B0054613AB1B
:1020D00012AA09A9284600F039FA044614B120468C
:1020E00015B030BD0020149026E0224909689DF803
:1020F000502001EBC20113AB11AA486801A900F0FE
:1021000025FA04460CB12046EAE709A901A800F027
:10211000BBFC60B99DF844009DF84810884201DD81
:102120000220DDE79DF85000124988750AE09DF80D
:102130005000401CC0B214900E48007D9DF8501015
:102140008842D2DC00BF0B48007D9DF850108842C9
:1021500001D10420C4E714A9284600F0D7FA0446A8
:102160000CB12046BCE79DF850000249487500209C
:10217000B6E70000B40000202DE9F0419AB09C4879
:10218000847D007DA04202DC1AB0BDE8F081984950
:10219000096801EBC40106AB07AA486808A900F06A
:1021A000D5F908A993A0FEF7BDF8002644E09048B1
:1021B000008B0121B1400840D8B122218FA0FEF749
:1021C000B1F8304600F028FB8949243147183946D8
:1021D0008BA0FEF7A7F8222188A0FEF7A3F83046CF
:1021E00000F01AFB82492431084410A941F8260066
:1021F00018E0304600F010FB7D492431085810A942
:1022000041F826007A48C07D30B910A850F8261051
:102210007CA0FEF787F805E010A850F826107AA0F9
:10222000FEF780F89DF81C00401EB04202D078A056
:10223000FEF778F8701CC6B29DF81C008642B6DB2B
:1022400074A0FEF76FF800F039FB6948407D0B2859
:102250000DD2DFE800F0060D151E27323F4E5F72EB
:1022600087006349096851F834008047054690E0CB
:102270005F4A126852F8341010988847054688E083
:102280005B4B1B6853F83420DDE91001904705468D
:102290007FE0574F3F6857F8343010A807C8984779
:1022A000054676E0DFF848C1DCF800C05CF8347021
:1022B00010A80FC8B84705466BE01498DFF830C186
:1022C0000090DCF800C05CF8347010A80FC8B84764
:1022D00005465EE0DDE91401DFF814C1CDE9000137
:1022E000DCF800C05CF8347010A80FC8B847054689
:1022F0004FE0DDE914121698DFF8F4C0CDE90012C2
:102300000290DCF800C05CF8347010A80FC8B84721
:1023100005463EE0DDE91423DDE91610DFF8D0C004
:10232000CDE90023CDE90210DCF800C05CF8347080
:1023300010A80FC8B84705462BE0DDE91523DDE9F5
:102340001710CDE90123CDE903101498DFF8A0C0E0
:102350000090DCF800C05CF8347010A80FC8B847D3
:10236000054616E0DDE91623DDE91810CDE9022364
:10237000CDE90410DDE91401DFF874C0CDE90001F6
:10238000DCF800C05CF8347010A80FC8B8470546E8
:1023900000BF00BF00F050FA9DF8180001280CD1D2
:1023A0001348C07D20B929461BA0FDF7BBFF07E0FD
:1023B00029461BA0FDF7B6FF02E018A0FDF7B2FF0B
:1023C0000B4890F8EC0088B10948D0F8F0000A21D9
:1023D000B0FBF1F201FB12070548D0F8F000B0FBAA
:1023E000F1F83A46414611A0FDF79CFF00BFCBE64D
:1023F000B40000200D0A25732800000025630000AA
:1024000025730000256C7500305825580000000029
:102410002C000000290000003D256C753B0D0A00D2
:102420003D305825583B0D0A0000000046756E638C
:1024300074696F6E2052756E2054696D653A25641B
:102440002E2531646D730D0A00000000F0B50346BF
:102450001546002000220026002455E01F782C2F6E
:1024600001D104B901221F78292F01D01F780FB99B
:1024700004B94AE0002E34D11F78302F02DB1F78D8
:10248000392F11DD1F78612F02DB1F78662F0BDDDE
:102490001F78412F02DB1F78462F05DD1F78582F4C
:1024A00002D01F78782F0CD102B12EE01F78612F57
:1024B00003DB1F78203F0F7001E01F780F70491C6D
:1024C0001FE01F78222F04D102B11EE00126012453
:1024D00017E01F78202F14D01F782C2F11D0FF2643
:1024E00013E01F78222F00D1002402B10DE044B187
:1024F0001F785C2F02D15B1C471CF8B21F780F704D
:10250000491C471CF8B25B1CA8E700BF00270F70EE
:102510002E70F0BD10B50446002010700BE020783E
:102520000870641C491C1078401C10701078984288
:1025300001DB012010BD2078202802D0207800285F
:10254000EDD10020087000BFF4E700002DE9FF4F37
:1025500085B0804689460027002004900390012022
:1025600002904FF0000B002544461DE02078202803
:1025700016D005F07F00052812DA0DB945F0800568
:1025800005F07F00042803D120782A2800D00EE02F
:10259000207805F07F010DF80100681CC5B202E04B
:1025A000852D00D103E0641C20780028DED100BF17
:1025B0008DB1002005F07F010DF8010051A16846A2
:1025C00000F062FA18B900210898017002E00121B8
:1025D0000898017000254FF0000A444614E0641C7E
:1025E0000AF1010000F0FF0A2078202802D02078AC
:1025F0002A2809D1204600F0D7F90646282E03D014
:102600002A2E01D0CDF810A02078282802D02078DA
:102610000028E4D14446049810B10498401C0444B6
:102620004FF0000A002654E0207810B94FF0010A5C
:1026300050E02078282803D116B9781CC7B213E0DF
:102640002078292808D13EB917B1781EC7B201E019
:102650004FF0010A47B93DE02078222804D10EB995
:10266000012000E00020064647B9207820282FD01E
:10267000207889F8000009F1010929E020782C2848
:1026800004D101200290681CC5B214E020782028F3
:1026900011D0207828280ED04DB9BBF1050F06DAED
:1026A00020780DF80B000BF1010000F0FF0B0298F1
:1026B000401CC0B20290012F0AD10298022807D113
:1026C0000298401CC0B202900398401CC0B2039014
:1026D000641CA9E700BF0398012809D100200DF868
:1026E0000B0008A1684600F0CFF908B9002003905C
:1026F000079903980870002089F80000504609B037
:10270000BDE8F08F766F6964000000002DE9F043AA
:10271000B5B005460F460024002604E000213D48E0
:102720008155701CC6B20A2EF8DB06E06D1C2878B5
:1027300018B9012035B0BDE8F08328782828F5D1F4
:102740006D1C61E034AA69462846FFF77FFE064605
:1027500035449DF8D00020B1012827D0FF284CD166
:1027600049E09DF8000000B333A9684600F027F95E
:1027700006460EB10220DDE7204600F04DF825495F
:102780000A31339A0A50A1F12400008B0121A140A3
:10279000884320491A39088304211E480155601CCA
:1027A000C4B20A2C01DD0320C4E726E0684600F02D
:1027B00087F9401C00F0FF08204600F02DF815496D
:1027C0000A3100EB01094946684600F06EF91148EC
:1027D0001A38018B0120A040014388B20D491A39F3
:1027E00008830C4800F80480601CC4B20A2C01DD88
:1027F00003209FE701E002209CE700BF28782928FA
:1028000001D0287800B900E09CE700BF3C700020B0
:1028100090E70000CE00002002460020002105E0E5
:10282000044B5B5C0344D8B24B1CD9B29142F7DB3A
:1028300070470000CE00002010B501210D48FFF7C1
:10284000F8F8012808D10C48D0F8F0004FF6FF71D5
:1028500008440949C1F8F0000648FFF7E7F80649BF
:10286000D1F8F01008440449C1F8F0000846D0F847
:10287000F00010BD00080040B400002010B5044670
:1028800004EBC40000EB04100122C2EB800081B213
:102890004FF47A70FFF746F901200149C87510BD61
:1028A000B400002010B50246012000E050430B00A8
:1028B000A1F10104E1B2F9D110BD000010B5012170
:1028C0000848FFF7A1F84FF6FF710648FFF7D4F864
:1028D00000210448FFF7D2F800200349C1F8F000B6
:1028E00010BD000000080040B400002070B51D4875
:1028F000008800F40040002833D01A4805780020F2
:1029000019494855194881681748884704461CB931
:102910001649C868804721E0134800F0DDF80546F5
:10292000012D00D02C46CCB1012C06D0022C08D0B1
:10293000032C0AD0042C10D10BE00DA0FDF7F2FC03
:102940000BE00EA0FDF7EEFC07E00FA0FDF7EAFCA0
:1029500003E010A0FDF7E6FC00BF00BF0020014926
:10296000088070BD22000020A8050020B4000020CF
:10297000BAAFCAFDB4EDCEF3210D0A00B2CECAFD46
:10298000B4EDCEF3210D0A00B2CECAFDCCABB6E059
:10299000210D0A00CEB4D5D2B5BDC6A5C5E4B5C4D7
:1029A000BAAFCAFD210D0A000146491C00E0491CCE
:1029B0000878202801D10029F9D1087870472DE93D
:1029C000F04307460E4600254FF00A083C4600201B
:1029D00030601FE02078392802DC207830280ADABD
:1029E0002078462802DC2078412804DA207858280C
:1029F00009D1012D07D12078412801DB4FF01008C3
:102A0000681CC5B205E0207800B904E00120BDE8EB
:102A1000F083641CDEE700BF3C46B8F1100F0FD115
:102A2000032D01DA0220F2E72078302806D1607801
:102A3000582803D1A41CA81EC5B204E00320E6E771
:102A40000DB90420E3E71BE00DB1681EC5B2207884
:102A5000392806DC2078302803DB2078A0F1300903
:102A600002E02078A0F1370929464046FFF71AFF17
:102A7000316809FB00103060641C207800B900E068
:102A8000E2E700BF0020C2E702460AE010780B78B8
:102A9000984201D001207047107800B902E0521C22
:102AA000491CF3E700BF0020F5E706E002780A7052
:102AB000027802B902E0401C491CF7E700BF7047EA
:102AC0000146002005E00A7802B903E0421CD0B2BA
:102AD000491CF8E700BF704710B58CB004461E23B0
:102AE0000BAA03A92046FFF715FD0090009810B12E
:102AF00001200CB010BD9DF82C00044400200B9068
:102B00000EE040489DF82C2050F8221003A8FFF753
:102B1000BBFF00B908E09DF82C00401CC0B20B9030
:102B20009DF82C000728ECD300BF9DF82C00072847
:102B300063D2DFE800F004053C5E6564630000BF1B
:102B400031A0FDF7EFFB31A0FDF7ECFB3FA0FDF757
:102B5000E9FB4EA0FDF7E6FB5CA0FDF7E3FB6BA0F5
:102B6000FDF7E0FB79A0FDF7DDFB86A0FDF7DAFBC2
:102B70008BA0FDF7D7FB90A0FDF7D4FB94A0FDF749
:102B8000D1FB99A0FDF7CEFB9EA0FDF7CBFBA4A047
:102B9000FDF7C8FBB0A0FDF7C5FBBDA0FDF7C2FB6C
:102BA000C8A0FDF7BFFBD4A0FDF7BCFB9AE216A0BE
:102BB000FDF7B8FBE0A0FDF7B5FB00200B900EE0A1
:102BC000ED4800689DF82C2000EBC2004168EBA0A6
:102BD000FDF7A8FB9DF82C00401CC0B20B90E64806
:102BE000007D9DF82C108842EADC07A0FDF79AFBD7
:102BF00078E205A0FDF796FBC4E171E245E219E237
:102C0000ECE10000800000200D0A00002D2D2D2D8C
:102C10002D2D2D2D2D2D2D2D2D2D2D2D2D2D2D2DE4
:102C20002D2D2D2D55534D4152542056332E312DDF
:102C30002D2D2D2D2D2D2D2D2D2D2D2D2D2D2D2DC4
:102C40002D2D2D2D2D2D2D200D0A00002020202092
:102C500055534D415254CAC7D3C9414C49454E54AE
:102C6000454BBFAAB7A2B5C4D2BBB8F6C1E9C7C924
:102C7000B5C4B4AEBFDAB5F7CAD4BBA5BDBBD7E9FE
:102C8000BCFE2CCDA8B9FD200D0A0000CBFC2CC445
:102C9000E3BFC9D2D4CDA8B9FDB4AEBFDAD6FACA63
:102CA000D6B5F7D3C3B3CCD0F2C0EFC3E6B5C4C832
:102CB000CEBACEBAAFCAFD2CB2A2D6B4D0D02ED2E4
:102CC000F2B4CB2CC4E3BFC90D0A0000D2D4CBE6CA
:102CD000D2E2B8FCB8C4BAAFCAFDB5C4CAE4C8EB06
:102CE000B2CECAFD28D6A7B3D6CAFDD7D628313072
:102CF0002F3136BDF8D6C629A1A2D7D6B7FBB4AEC0
:102D0000A1A2BAAFCAFDC8EB0D0A0000BFDAB5D860
:102D1000D6B7B5C8D7F7CEAAB2CECAFD292CB5A56D
:102D2000B8F6BAAFCAFDD7EEB6E0D6A7B3D6313003
:102D3000B8F6CAE4C8EBB2CECAFD2CB2A2D6A7B38D
:102D4000D6BAAFCAFDB7B5200D0A0000BBD8D6B5BC
:102D5000CFD4CABE2ED0C2D4F6B2CECAFDCFD4CA0A
:102D6000BEBDF8D6C6C9E8D6C3B9A6C4DC2CD0C24D
:102D7000D4F6BDF8D6C6D7AABBBBB9A6C4DC2E0D07
:102D80000A000000BCBCCAF5D6A7B3D63A7777775D
:102D90002E6F70656E6564762E636F6D0D0A000090
:102DA00055534D415254D3D037B8F6CFB5CDB3C3F8
:102DB000FCC1EE3A0D0A00003F3A202020202020DE
:102DC000BBF1C8A1B0EFD6FAD0C5CFA20D0A000062
:102DD00068656C703A202020BBF1C8A1B0EFD6FA2C
:102DE000D0C5CFA20D0A00006C6973743A20202070
:102DF000BFC9D3C3B5C4BAAFCAFDC1D0B1ED0D0AC6
:102E00000A00000069643A2020202020BFC9D3C3F3
:102E1000BAAFCAFDB5C44944C1D0B1ED0D0A0A002C
:102E20006865783A20202020B2CECAFD3136BDF840
:102E3000D6C6CFD4CABE2CBAF3B8FABFD5B8F12BD8
:102E4000CAFDD7D6BCB4D6B4D0D0BDF8D6C6D7AAA2
:102E5000BBBB0D0A0A0000006465633A20202020F5
:102E6000B2CECAFD3130BDF8D6C6CFD4CABE2CBA58
:102E7000F3B8FABFD5B8F12BCAFDD7D6BCB4D6B4D7
:102E8000D0D0BDF8D6C6D7AABBBB0D0A0A00000039
:102E900072756E74696D653A312CBFAAC6F4BAAF0B
:102EA000CAFDD4CBD0D0BCC6CAB13B302CB9D8B146
:102EB000D5BAAFCAFDD4CBD0D0BCC6CAB13B0D0A7F
:102EC0000A000000C7EBB0B4D5D5B3CCD0F2B1E066
:102ED000D0B4B8F1CABDCAE4C8EBBAAFCAFDC3FBEF
:102EE000BCB0B2CECAFDB2A2D2D4BBD8B3B5BCFC82
:102EF000BDE1CAF82E0D0A002D2D2D2D2D2D2D2DC5
:102F00002D2D2D2D2D2D2D2D2D2D2D2D2D2D2D2DF1
:102F10002D2D414C49454E54454B2D2D2D2D2D2DFC
:102F20002D2D2D2D2D2D2D2D2D2D2D2D2D2D2D2DD1
:102F30002D2D2D200D0A00002D2D2D2D2D2D2D2D6B
:102F40002D2D2D2D2D2D2D2D2D2D2D2D2D2D2D2DB1
:102F50002DBAAFCAFDC7E5B5A52D2D2D2D2D2D2DD3
:102F60002D2D2D2D2D2D2D2D2D2D2D2D2D2D2D2D91
:102F70002D2D2D2D200D0A00B400002025730D0AE3
:102F80000000000059A0FDF7CDF900200B901AE0D9
:102F9000664909689DF82C2001EBC20101AB02AA29
:102FA000486803A9FFF7D2FA604800689DF82C1022
:102FB00050F8312003A95EA0FDF7B4F99DF82C006C
:102FC000401CC0B20B905948007D9DF82C108842DF
:102FD000DEDCAFF2CC30FDF7A5F983E0AFF2D830FC
:102FE000FDF7A0F90BAA03A92046FFF72FFA9DF8D9
:102FF0002C00C8B9694603A8FFF7E1FC0B909DF8C7
:103000002C0020B94FA00099FDF78CF90EE09DF837
:103010002C00042801D002206BE54DA0FDF782F9B9
:1030200001204249C87501E0022062E547A0FDF792
:1030300079F957E045A0FDF775F90BAA03A92046D9
:10304000FFF704FA9DF82C00C8B9694603A8FFF7FA
:10305000B6FC0B909DF82C0020B942A00099FDF71A
:1030600061F90EE09DF82C00042801D0022040E513
:103070003FA0FDF757F900202C49C87501E0022058
:1030800037E532A0FDF74EF92CE030A0FDF74AF904
:103090000BAA03A92046FFF7D9F99DF82C00C8B95F
:1030A000694603A8FFF78BFC0B909DF82C0078B9BC
:1030B0001E49009881F8EC00084690F8EC0018B121
:1030C00030A0FDF72FF907E035A0FDF72BF903E05D
:1030D00002200EE502200CE51CA0FDF723F901E01B
:1030E000012006E500BF002003E500002D2D2D2D59
:1030F0002D2D2D2D2D2D2D2D2D2D2D2D2D2D2D2D00
:103100002D2D2D2D2DBAAFCAFD204944202D2D2D5A
:103110002D2D2D2D2D2D2D2D2D2D2D2D2D2D2D2DDF
:103120002D2D2D2D2D2D2D2D200D0A00B40000202C
:1031300025732069642069733A0D0A3058253038A8
:10314000580D0A004845583A305825580D0A0000D5
:103150003136BDF8D6C6B2CECAFDCFD4CABE210D17
:103160000A0000004445433A256C750D0A00000032
:103170003130BDF8D6C6B2CECAFDCFD4CABE210DFD
:103180000A00000052756E2054696D652043616C21
:1031900063756C6174696F6E204F4E0D0A000000FC
:1031A00052756E2054696D652043616C63756C6166
:1031B00074696F6E204F46460D0A0000016070472B
:1031C00000000100020001000300010002000100F4
:1031D00004000100020001000300010002000100E0
:1031E00005000100020001000300010002000100CF
:1031F00004000100020001000300010002000100C0
:1032000006000100020001000300010002000100AD
:10321000040001000200010003000100020001009F
:10322000050001000200010003000100020001008E
:10323000040001000200010003000100020001007F
:10324000070001000200010003000100020001006C
:10325000040001000200010003000100020001005F
:10326000050001000200010003000100020001004E
:10327000040001000200010003000100020001003F
:10328000060001000200010003000100020001002D
:10329000040001000200010003000100020001001F
:1032A000050001000200010003000100020001000E
:1032B00004000100020001000300010002000100FF
:1032C000303132333435363738394142434445465C
:1032D0004030580030313233343536373839616256
:1032E0006364656640307800040000080000000058
:1032F0000000000200010000100000003F0000007C
:10330000646563006964000072756E74696D6500C0
:1033100068656C70000000006C6973740000000048
:1033200068657800766F69642053657454696D65CB
:10333000287538206254696D65290000766F6964CC
:103340002077726974655F61646472287533322016
:10335000616464722C7533322076616C2900000040
:1033600075333220726561645F61646472287533FD
:103370003220616464722900983300080000002044
:10338000A80100006C010008F8330008A801002023
:10339000A8150000C80100081184A24A04C0090150
:1033A000020304060708099A681C692005480204FC
:1033B000060813FC32140810331B0818041A0404FE
:1033C0001A20041119041A080413C51F1B086008E9
:1033D00013BD311B083C081321191B082408229C2B
:1033E00014207D281408C920140879211B08ED0C2D
:0833F0001A03A301DC00000038
:040000050800022DC0
:00000001FF
