:020000040800F2
:10000000784E0020990200084D380008C9280008E1
:100010004938000865210008C74E000800000000AC
:10002000000000000000000000000000C9480008B7
:10003000112400080000000027030008DD49000823
:10004000B3020008B3020008B3020008B3020008BC
:10005000B3020008B3020008B3020008B3020008AC
:10006000B3020008B3020008B3020008B30200089C
:10007000B3020008B3020008B3020008B30200088C
:10008000B3020008B3020008B3020008B30200087C
:10009000B3020008B3020008B3020008B30200086C
:1000A000B3020008B3020008B3020008B30200085C
:1000B000B3020008594A0008B3020008B30200085E
:1000C000B3020008B3020008B3020008B30200083C
:1000D000B30200084D4C0008554C0008574C00086E
:1000E000B3020008B3020008B3020008B30200081C
:1000F000B3020008B3020008B3020008B30200080C
:10010000B3020008B3020008B3020008B3020008FB
:10011000F14B0008F94B0008B3020008B3020008D5
:10012000B3020008B3020008B3020008B3020008DB
:1001300000F002F800F0A0F80AA090E8000C824459
:100140008344AAF10107DA4501D100F095F8AFF236
:10015000090EBAE80F0013F0010F18BFFB1A43F0A5
:10016000010318472C7A00004C7A00000A4410F86A
:10017000014B14F00F0508BF10F8015B240908BFFC
:1001800010F8014B6D1E05D010F8013B6D1E01F8F3
:10019000013BF9D1641E03D0641E01F8015BFBD161
:1001A0009142E4D37047000000230024002500267C
:1001B000103A28BF78C1FBD8520728BF30C148BFCA
:1001C0000B6070476E2900F0EC83702900F02F85DA
:1001D000662906F0E184652906F0DE84672906F0C9
:1001E000DB84612906F0DA8403681B0A28BF41F02A
:1001F0008001692900F0F480642900F0F1807529FC
:1002000000F0EE806F2900F0BD84782900F0FB84B7
:10021000E92900F05784E42900F05484F52900F01E
:100220005184EF2900F0BA84F82900F0FA840368B9
:10023000DB0928BF41F08001632901F02181732986
:1002400001F02681E32901F03181F32901F03681A3
:10025000002070471FB501F0C9F9040000200021FB
:1002600006F06EFC401C60600020002106F07EFC61
:10027000E0601FBD10B510BD01F093F91146FFF706
:10028000E9FF06F0ABF801F071FA03B4FFF7F2FFF3
:1002900003BC05F0B6F8000009488047094800474C
:1002A000FEE7FEE7FEE7FEE7FEE7FEE7FEE7FEE726
:1002B000FEE7FEE704480549054A064B7047000083
:1002C000F94900083101000878480020784E0020E4
:1002D000784A0020784A0020EFF3108072B6704709
:1002E00080F310887047204C204D25604FF00004AB
:1002F00084F309881E4C4FF0010525701D4C4FF00A
:100300008055256062B6FEE730B41A4C4FF0805538
:10031000256030BC704730B4164C4FF080552560D6
:1003200030BC704700BF72B6EFF3098028B12038A7
:1003300080E8F00F10490968086000B50F48804751
:100340005DF804EB0E480F490A7802700A480E491E
:100350000A680260106890E8F00F203080F3098886
:100360004EF0040E62B6704720ED00E00000FFFF83
:10037000B201002004ED00E0B8010020913E000829
:10038000A7010020A8010020C00100207047000044
:100390001CB50C46064B7B4469460090204600F095
:1003A0001AFB04460020694600F028FB20461CBDCD
:1003B000630600000FB41CB5084B06AA7B446946CF
:1003C0000090059800F007FB04460020694600F005
:1003D00015FB20461CBC5DF814FB00003D06000028
:1003E0002DE9F0410646002410687529314616A50E
:1003F00010D000F042FA002802DA404213A507E0CC
:1004000031688A0701D512A502E0490704D511A574
:10041000012401E000F03AFA00210A2206F1240743
:1004200009E0B0FBF2FCB0FBF2F302FB1C00303041
:1004300078541846491C0028F3D123462A463046F2
:10044000BDE8F04100F054BA000000002D000000AB
:100450002B000000200000002DE9F05F89460446D3
:100460004FF0000ADFF874B1FB44C0F820A020462A
:10047000E1688847002874D0252806D0D4E90121F6
:100480009047206A401C2062F1E700265F46204624
:10049000E16888472028054607DB312D05D2781909
:1004A00010F8200C08B10643F1E7B00701D526F09B
:1004B0000406C4F81CA00027C4F818A02A2D09D0EF
:1004C000284604F097FF38B304EB8708303DC8F89E
:1004D000185019E059F8041B204604EB870291617B
:1004E000E1688847012F054618D1E069002820DA25
:1004F00026F020061DE0D8F8180000EB800005EB80
:1005000040003038C8F818002046E16888470546A2
:1005100004F070FF0028EED1012F0AD02E2D08D153
:100520002046E16888477F1C0546022F46F02006DA
:10053000C4DBA069002803DA404246F00106A0614E
:10054000F00701D026F010066C2D0BD0682D09D0D5
:100550004C2D39D06A2D35D0742D35D07A2D33D02D
:1005600016E038E0E1682F4620468847B842054645
:1005700009D16C2F26D04FF48060E16806432046F5
:100580008847054604E06C2F1AD04FF4807006436C
:100590000DB3A5F14100192802D8203546F40066B4
:1005A0004A462946204626604E46FFF70BFE80B19C
:1005B00001280BD0F61D26F0070000F1080956E7C8
:1005C0004020E4E78020D8E70020D6E706F10409C0
:1005D0004DE7284652E7206ABDE8F09F26760000E6
:1005E00070B5064600F01EF90468054630460A223A
:1005F000002100F027FB2C6070BD30B505460B468E
:100600002A4613F8014B12F8010B08B1A042F8D0AA
:100610001CB1002802D06D1CF1E7284630BD40EA2D
:100620000103024630B59B0710D14FF0013400E0C2
:1006300008C208C91D1B9D4315EAC41FF8D013F05A
:10064000FF0102F8011B0DD01B0AF8E711F8013B6E
:10065000002B02F8013B05D011F8013B002B02F8FA
:10066000013BF3D130BD10B5431C02E010F8011B73
:1006700071B18107FAD14FF0013202C88C1A8C4354
:1006800014EAC211F9D0C01A0A0603D0C01E10BD68
:10069000C01A10BD0A0401D0801E10BD0902FCD092
:1006A000401E10BD10B5203AC0F00B80B1E81850C4
:1006B000203AA0E81850B1E81850A0E81850BFF44C
:1006C000F5AF5FEA027C24BFB1E81850A0E81850EB
:1006D00044BF18C918C0BDE810405FEA827C24BF3F
:1006E00051F8043B40F8043B08BF7047D20728BFCD
:1006F00031F8023B48BF11F8012B28BF20F8023B1C
:1007000048BF00F8012B70474FF000020429C0F0E9
:10071000128010F0030C00F01B80CCF1040CBCF133
:10072000020F18BF00F8012BA8BF20F8022BA1EB85
:100730000C0100F00DB85FEAC17C24BF00F8012B6A
:1007400000F8012B48BF00F8012B70474FF0000262
:1007500000B5134694469646203922BFA0E80C50B7
:10076000A0E80C50B1F12001BFF4F7AF090728BF92
:10077000A0E80C5048BF0CC05DF804EB890028BF0E
:1007800040F8042B08BF704748BF20F8022B11F037
:10079000804F18BF00F8012B704700004FF0013C5C
:1007A00050F8042B51F8043B9A4221D1A2EB0C03E0
:1007B000934313EACC1317D150F8042B51F8043BA0
:1007C0009A4215D1A2EB0C03934313EACC130BD13D
:1007D00050F8042B51F8043B9A4209D1A2EB0C03C8
:1007E000934313EACC13DBD04FF00000704700BFF7
:1007F000D01A01BAB1FA81F101F0180122FA01F020
:10080000CB40C1F12001DBB2C0B2C01A2CFA01F317
:10081000D11A914311EAC311E6D17047704770476E
:1008200070477047004870471848002070B504466C
:1008300085690068C10601D5302600E02026C00782
:1008400007D070BDD4E9012130469047206A401C92
:1008500020626D1EF6D570BD70B5044685690078BE
:10086000C00707D170BDD4E9012120209047206A3C
:10087000401C20626D1EF6D570BD09684A0501D581
:1008800040B27047C905FCD500B2704709684A05F7
:1008900001D5C0B27047C905FCD580B2704770B5AC
:1008A0000C460546012A05D02878800600D5EA695D
:1008B000002302E0012305E05B1C934202D2E05CCE
:1008C0000028F9D1A869E618C01AA861286A184456
:1008D00028622846FFF7AAFF04E0D5E9012114F8B1
:1008E000010B9047B442F8D32846FFF7B5FF70BD1F
:1008F0002DE9F0470D4699469246044600F124083A
:100900000168880604D5E06921F01001216000E04B
:100910000120A84201DD471B00E00027A1697A19E8
:1009200002EB0900081AA0612078C00602D4204614
:10093000FFF77CFF002608E0D4E901211AF8060041
:100940009047206A401C761C20624E45F4DB2078DC
:10095000C0060AD52046FFF769FF06E0D4E9012169
:1009600030209047206A401C2062381EA7F1010702
:10097000F4DC07E0D4E9012118F805009047206A6B
:10098000401C2062281EA5F10105F3DC2046FFF77C
:1009900063FF2078000602D50220BDE8F087012021
:1009A000FBE711680268006A530501D508700AE088
:1009B000D30501D5088006E0130603D5C217C1E9A7
:1009C000000200E0086001207047000001694A1C35
:1009D00002610878704700B58FB0CDE90131002180
:1009E000059105497944CDE9031011466846FFF7A2
:1009F00033FD0FB000BD0000E5FFFFFF0A6802F8FD
:100A0000010B0A60704700002DE9FF5F15468A461A
:100A10000446DFF8AC80F8440027D8E900103E46D1
:100A2000CDE9001010E03AF816106A4602A800F06E
:100A300098FD411C07D02178890603D5E269391851
:100A400091420DD80744761C2078800602D5E069D3
:100A5000B84205DDAE42E6DB3AF816000028E2D1E6
:100A6000A069C01BA0612046FFF7E0FED8E9001096
:100A7000CDE90010002017E03AF818106A4602A8E5
:100A800000F06FFDB0F1FF3F81460BD000250DF166
:100A9000080B05E0D4E901211BF8050090476D1C07
:100AA0004D45F7D308F10100B0428046E4DB206AEF
:100AB000384420622046FFF7CFFEBDE8FF9F0000CC
:100AC0008A7000002DE9F0418046D21D22F0070215
:100AD0000025D2E90002F52915A614D0011E72F1F5
:100AE000000106DA0023D0EB030063EB020211A63B
:100AF00008E0D8F800108B0701D50FA602E04907DF
:100B000001D50EA601251146002408F1240704E0B2
:100B100000F0DCF830323A55641C50EA0102F7D19B
:100B20002B46324621464046BDE8F041FFF7E0BE85
:100B3000000000002D0000002B000000200000003D
:100B400030B4002100F1240408E002F00705D208C7
:100B5000303542EA4372DB086554491C52EA03050A
:100B6000F3D10468002310A2250708D504F020045F
:100B70000C4304D0C46901230CA2641EC46130BCC0
:100B8000FFF7B6BE10B5044621461068FFF77EFE9B
:100B900002462046BDE810400023D1E7D21D22F0D6
:100BA0000701D1E90023CBE700000000300000007E
:100BB000F0B40D460188090502D5214C7C4402E0C1
:100BC0001F4C7C440E34002100F1240608E002F0A2
:100BD0000F071209E75D42EA03721B097754491CAB
:100BE00052EA0307F3D102780023120704D5702DCF
:100BF00006D009B1022311342246F0BCFFF778BEBB
:100C000001231034F8E770B504460D4621461068FC
:100C1000FFF73CFE024629462046BDE8704000230F
:100C2000C6E7D21D22F00703D3E90023C0E703681B
:100C3000126843F0200303600823C3610023B7E771
:100C4000EC6E00002DE9F04791460F4680460446C1
:100C5000002614F8015B2DB100F030F80068405D0B
:100C6000C007F6D12B2D02D02D2D18D0641E4A4678
:100C70003946204600F026FC27B13968A14201D14F
:100C8000C7F800804FF0020471050BD540420028E0
:100C900003DDFFF7C7FD0460A007BDE8F08746F459
:100CA0008066E4E70028F8DAFFF7BCFD04606FF027
:100CB0000040F2E7004870471848002010B500F0E7
:100CC00095FC001D10BD00BF795E000030B5B0F18D
:100CD0000A024FEA900E71F100034EEA817EB0EBFA
:100CE0000E0061EB91014FEA101E4EEA017E10EBFF
:100CF0000E0041EB11114FEA102E4EEA016E10EB7F
:100D00000E0041EB11214FEA104E4EEA014E10EB5E
:100D10000E0041EB1141401841F100014FEAD000B3
:100D200040EA41704FEAD10110EB80054FEA81049F
:100D300044EA907444EB01046D1944EB0404521B23
:100D4000A3414FF0000348BF0A3200D530BD401C1C
:100D500041F1000130BD70472DE9FF4F0C461E46A2
:100D60004FF0FF378BB0D2E90001DDF860800A90C8
:100D70008A46C1F30A5505B93D46002108464FF0A1
:100D80000000BAF1000F00F4400005DA00EB80002B
:100D90004FF4400101EA50004FEA9059B9F1010FB8
:100DA00000DDB9460A9850EA4A000ED044F61050C9
:100DB000A5F2FF3545432F14B8F1000F1ED0754240
:100DC000291E1EDDC9F100021CE0B8F1010F4FF031
:100DD000000001D0302103E0F24305E02154401C23
:100DE000B042FBDB30460022002121540B99C1F8B0
:100DF0000880C1E900200FB0BDE8F08FBD1B6D1C5D
:100E0000DEE74A4600DA694206A800F041FC06AB7C
:100E100093E8070003AB83E8070050460A9900F007
:100E2000ABFC8DE80700A0F500501F380090039838
:100E3000002D09DD42F21F014A46084403A9039030
:100E4000684600F00AFF08E0A0F500504A461F3847
:100E500003A90390684600F014FF8DE80700000422
:100E6000000C03D04FF0FF30410800E01046B8F10D
:100E7000000F03D00022009215461EE0751E05D417
:100E8000FFF724FF303262556D1EF9D5B3460122BB
:100E9000084302D000227F1C04E02078302801D1D2
:100EA00000227F1E002A099786D01DE0112D07DA47
:100EB000FFF70CFF303262556D1C50EA0102F5D18C
:100EC000084302D00098C8B10EE00021681E05E07A
:100ED000235C625C63542254401E491C8142F7DB50
:100EE000AB46A81B401E0990002004F80B000B988D
:100EF000099AC0F80880C0E9002B7CE711264FF062
:100F0000000859E72DE9F04F88460446D21D22F02B
:100F1000070191B0D1E90001CDE90A0104F056FAC8
:100F200002460B98C00F01D02D2007E020688107F2
:100F300001D52B2002E0202101EAC000032A0990FC
:100F400001D0072A05DB03464146204600F052FB4C
:100F50000BE12078800601D5E06900E00620B8F1B9
:100F6000650F814606D0B8F1660F18D0B8F1670F4B
:100F700070D131E00020B9F1110F009001DB112395
:100F800001E009F101030AAA01A90CA8FFF7E4FE98
:100F9000DDE90C70002609F10105834647E00120D8
:100FA0004B4600904FF000470AAA01A90CA8FFF792
:100FB000D3FEDDE90DB00C995D46002610B909F1AC
:100FC00001000D18B9EB050003D4C0F1FF3609F19B
:100FD0000105A5EB09002BE0B9F1010F01DA4FF093
:100FE00001090020B9F1110F0090484601DD1123DD
:100FF00000E003460AAA01A90CA8FFF7ADFEDDE94F
:101000000C704D4600268346207800070AD4AB4575
:1010100000DA5D4601A8012D04DD411911F8011C1B
:10102000302907D04F4502DA17F1040F04DA012006
:1010300082460FE06D1EEEE7002F02DCED1B3E4402
:1010400003E0781CA84200DD7D1CB81B00F1010AFA
:101050004FF000472078000703D4AA4501DB4FF08A
:10106000FF3A0021B7F1004F0DF143088DF843100E
:1010700024D002202B23002F01DA7F422D230A21C6
:10108000021EA0F1010000DC5FB197FBF1FC97FBB1
:10109000F1F201FB1C7C17460CF1300C08F801CD75
:1010A000EEE7A8F1010003702188090501D545216B
:1010B00000E06521A0F1010800F8011C09980FA9C2
:1010C000A1EB0807FF1D00B10120411901EBEA70F7
:1010D000A1693844081A401EA0612078C00602D4D5
:1010E0002046FFF7A3FB099828B1D4E901219047D6
:1010F000206A401C20622078C00622D52046FFF7D7
:1011000095FB1EE0002E04DBB34502DD01A8805DE7
:1011100000E03020D4E901219047206A401C206281
:10112000761CAAF101005FEA000A0AD100F05EFA1B
:10113000C0680168405CD4E901219047206A401CE6
:101140002062281EA5F10105DCDC07E0D4E90121BD
:1011500018F8010B9047206A401C2062381EA7F146
:101160000107F3DC2046FFF777FB032011B043E6CD
:101170002DE9F04F04460D46D21D22F0070089B03C
:10118000D0E9009248461746394604F01FF9024656
:10119000F80F01D02D2307E02068810701D52B230C
:1011A00002E0202101EAC0038DF820300BB10120BC
:1011B00000E00020032A824601D0072A04DB2946EA
:1011C000204600F017FA3DE12078800601D40D2575
:1011D00000E0E569C7F30A560D2D49DA00214FEA10
:1011E000175B08464FF00000002F00F4400007DABC
:1011F00000EB80004FF4400100EBD07001EA60008A
:101200008115012901DD4FF0FF3100224FEA850CE5
:10121000BCF1180F06D31346ACF118004FF0805202
:10122000C24003E04FF4801323FA0CF30CF10C0CD2
:10123000BCF1200F04D3ACF1200C09FA0CF001E052
:1012400007FA0CF000294FF0004801DD18B90FE053
:101250000ED140450CD319EB02095F4121B940453D
:1012600002D19F4329EA0209BBEB175F00D0761C2D
:101270002088000502D57B48784402E0794878440C
:10128000193808AA302302F80A30037C0AF1010158
:10129000002E0AF1020A53546A4602DC4FF0300174
:1012A00001E04FF031014FF001088DF8001002D03D
:1012B000A6F2FF3603E059EA470100D06A4E002D3E
:1012C00002DC2178090704D54FF002082E218DF8A1
:1012D0000110C44600210BE0C7F303433F01C35C88
:1012E000491C6D1E02F80830052908F1010801DAD1
:1012F000002DF1DC00210CE000EB1973491C1B7878
:101300006D1E082902F808304FEA091908F1010892
:1013100001DA002DF0DC2178890602D514E0A8F16D
:101320000108E04505DD02EB080111F8011C302938
:10133000F5D0B8F1000F07DD02EB080111F8011C30
:101340002E2901D1A8F10108002D05DD3E2102F86A
:1013500008106D1E08F10108407C002E02F80800FC
:1013600008F1010804DA2D20764202F8080002E0B4
:101370002B2002F808000A214FF47A70864208F107
:1013800001080BDB96FBF0F3303302F8083096FBD4
:10139000F0F308F1010800FB136601E0642E0CDB9A
:1013A000642096FBF0F3303302F8083096FBF0F33C
:1013B00008F1010800FB136601E00A2E06DB96FB2C
:1013C000F1F0303002F8080008F1010896FBF1F066
:1013D00001FB1060303002F80800A16908F1010833
:1013E00008EB050202EB0A00081AA0612078C0068B
:1013F00002D42046FFF71AFA216A08AE01EB0A0070
:10140000206204E0D4E9012116F8010B9047BAF1FB
:10141000010AF7D22078C00602D52046FFF706FA67
:101420006E4609E016F8010B3E280FD0D4E90121E1
:101430009047206A401C2062B8F10108F2D2204691
:10144000FFF70AFA09B00320BDE8F08F206A2844AC
:10145000206203E0D4E90121302090476D1EEBD3D8
:10146000F8E700006B68000002FCFFFF10B543695D
:1014700013B1AFF3008001E0FFF711FA012010BDB6
:10148000127800F124010A7000224A700122EDE76F
:1014900011684FF0FF32E9E710B5436913B1AFF3BC
:1014A000008001E0FFF7B0FA012010BD128800F1C2
:1014B000240182840022C2840122EDE711684FF0EA
:1014C000FF32E9E72DE9F05F824615468B4600279B
:1014D0000AF10104B9460078302801D09DB113E02B
:1014E00014F8010B0127782803D0582801D045B102
:1014F0000AE00DB1102D07D1002714F8010B1025BB
:1015000002E0082500E00A250026B0460EE005FBB3
:10151000080005FB06F101271FFA80F801EB1046D1
:10152000B6F5803F00D3B94614F8010B294600F008
:10153000A1F80028EBDABBF1000F05D00FB1641E53
:1015400000E05446CBF80040B9F1000F06D0FFF799
:1015500069F902210160C81EBDE8F09F48EA064013
:10156000FAE770B516460C460546FFF7A7FB036879
:1015700093F80101012806D0FF2C0FD8185D68B13F
:1015800001202C7070BDD3F807013246214603F2CA
:10159000071303442846BDE8704018474FF0FF305A
:1015A00070BD7546FFF786FBAE460500694653469B
:1015B00020F00700854618B020B5FEF77BFEBDE899
:1015C00020404FF000064FF000074FF000084FF0AA
:1015D000000B21F00701AC46ACE8C009ACE8C0093B
:1015E000ACE8C009ACE8C0098D46704700487047B8
:1015F000384800202DE9F0411F46044603260168C3
:10160000072A01F4006004DB08B116A505E016A561
:1016100003E008B115A500E015A521F01000206039
:10162000A069C01EA0610FB1401EA0612046FFF757
:10163000FDF84FB1D4E9012138469047206A401C9B
:101640002062C01C206206E0206AFAE7D4E901218A
:1016500015F8010B9047761EF8D22046FFF7FCF8EC
:10166000BDE8F0814E414E006E616E00494E46006D
:10167000696E66003A2800D2303820F02002412AF4
:1016800001D3A2F13700884201D34FF0FF307047F9
:101690002DE9F047814616468AB0334878440DC894
:1016A0008DE80D0030487844801C03AC0DC884E8F8
:1016B0000D0041F69B300844372190FBF1F290FB7E
:1016C000F1F5A5F1800501FB12041B3C02D5644233
:1016D000012000E00020DFF890A080460027FA44B7
:1016E000AAF1BE0A0DE0E00709D03246684607EBD2
:1016F00047010AEB810100F0C4FA8DE8070064108D
:101700007F1C002CEFD1184F7F44AC3F18E0E80756
:1017100014D007EB04100DF1180A90E80E008AE8C7
:101720000E00C068F04201D198190890324606A90F
:1017300003A800F0A6FA03AB83E807006D10641C51
:10174000002DE4D132466946B8F1000F03A802D05B
:1017500000F083FA01E000F094FAC9E90001C9F849
:1017600008200AB0BDE8F087D86400000446AFF353
:1017700000802046FEF789FD5FEA400C08BF91F02B
:10178000000F4FEA8C234FEAC12243EA51514FEA3E
:101790001C5018BF00F5F0404FEA300018BF41F070
:1017A00000415FEA6C5C00F02980BCF1FF3F08BF9C
:1017B00040F080407047130C06BF12044FF0100C2D
:1017C0004FF0000C130E04BF12020CF1080C130FA3
:1017D00004BF12010CF1040C930F04BF92000CF132
:1017E000020CD30F04BF52000CF1010C11464FF054
:1017F0000002A0F11F00A0EB0C00704711F0004F99
:1018000008BF704731F000413FF4D5AF0B0C06BF65
:1018100009044FF0100C4FF0000C0B0E04BF09022E
:101820000CF1080C0B0F04BF09010CF1040C8B0F19
:1018300004BF89000CF1020CCB0F04BF49000CF16E
:10184000010CCCF12003A0EB0C0022FA03F302FA06
:101850000CF241EA030100F10100704720F07F4CD7
:1018600080EA030023F07F47ACEB070303F57C53CA
:1018700000F0004003F1FF032DE980494FEA154BCA
:1018800009B44FEA144325EA0B4E24EA03480FF249
:10189000042606EB132749083E785FEA320203FB71
:1018A0000667C7F5000707FB06F64FEA54374FEA0D
:1018B000D64606F1020607FB066CCCF1005C4FEA47
:1018C0001C472CEA074C07FB06F40CFB06F504EB5F
:1018D00015464FEA961634BF00204FF000404FEAFD
:1018E000D13706FB07FC4FEA1C4C0CFB0BF7D21B55
:1018F00003FB0CF761EB07010CFB0EF7B0EB0740A5
:1019000072EB17420CFB08F734BFA2EB0742B2EBB5
:10191000074261EB17414FEA0C444FEA910706FB7F
:1019200007FC4FEA1C4C0CFB0BF7B0EBC74072EB0B
:10193000573203FB0CF734BFA2EBC742B2EBC742EE
:1019400061EB57310CFB0EF7B0EBC70072EB57722F
:101950000CFB08F734BFA2EBC702B2EBC70261EB86
:101960005771039F4FEA816141EA921104EBCC0465
:101970004FEAD1374FEA826206FB07FC42EA901237
:101980004FEA80604FEA1C4C0CFB0BF7D21B03FBA9
:101990000CF761EB07010CFB0EF7B0EB074072EBA5
:1019A00017420CFB08F734BFA2EB0742B2EB074229
:1019B00061EB17414FEA8C554FEA910704EB9C24E9
:1019C00006FB07FC4FEA1C4C0CFB0BF7B0EBC740C7
:1019D00072EB573203FB0CF734BFA2EBC742B2EBFA
:1019E000C74261EB57310CFB0EF7B0EBC70072EB4F
:1019F00057720CFB08F734BFA2EBC702B2EBC70269
:101A000061EB577115EB4C254FEA816141EA921168
:101A10004FEA82624FEAD13742EA901206FB07FC96
:101A200044F100044FEA80604FEA1C4C0CFB0BF7BA
:101A3000D21B03FB0CF761EB07010CFB0EF7B0EBBD
:101A4000074072EB17420CFB08F734BFA2EB0742CA
:101A5000B2EB074261EB174115EB1C154FEA8131E0
:101A600041EA92414FEA823242EA90424FEA8030A4
:101A70004FEA0C7644F1000448EA03434EEA0B486F
:101A80004FF0000EB2EB080C71EB030724BF624667
:101A900039464EEB0E0E4FF0000B001852414941F3
:101AA0004BEB0B0BB2EB080C71EB03077BF1000B5C
:101AB00024BF624639464EEB0E0E4FF0000B001865
:101AC000524149414BEB0B0BB2EB080C71EB030796
:101AD0007BF1000B24BF624639464EEB0E0E51EAF5
:101AE000020718BF46F0010616EB0E7655F100020C
:101AF00054F1000103D5BDE88901BDE80088BDE8C7
:101B00008901BDE80048B619524141EB0101A3F13A
:101B10000103704780807F7E7D7C7B7A7978777641
:101B200076757473727171706F6E6E6D6C6C6B6ABA
:101B30006A69686867666665646463636261616058
:101B4000605F5F5E5E5D5D5C5C5B5B5A5A595958D5
:101B5000585757565655555554545353525252513F
:101B6000515050504F4F4F4E4E4D4D4D4C4C4C4B95
:101B70004B4B4A4A4A4949494848484747474746DC
:101B80004646454545444444444343434342424218
:101B900042414141002B26D4770021D01CB54FEAA9
:101BA000370703B44FF010004FF010014FF0000062
:101BB0000FBCBDE810400BF1010BBBF1010F08BFDA
:101BC0005FEA170722BF12F1010211F101014FF084
:101BD000004143F1000300F0004043EA0000704779
:101BE000F9D35708DAE746EA064613F1400F4FEA01
:101BF00016461FDD13F1200FDFBF16430A460021F2
:101C000020335B42C8D0C3F1200746EA064602FAF9
:101C100007F74FEA164646EA0706C3F1200722FAFD
:101C200003F201FA07F721FA03F14FF0000342EA49
:101C30000702B1E746EA020646EA06464FEA1646BA
:101C400046EA0106BCBF46EA0646360C4FF00003E2
:101C50004FF000024FF000019EE72DE9C048934687
:101C600030B491E8380007C831EA400C48BF34EA84
:101C7000430C03D5FFF7F2FDFFF78CFFF0BCBDE886
:101C800000882DE9C048934630B491E8380007C871
:101C900010F0804F08BF13F0804F03D100F005F81B
:101CA000FFF778FFF0BCBDE8008820F07F4780EAAE
:101CB000030023F07F4C07EB0C03A3F57C5300F0EB
:101CC0000040A3F1FE0392F0000F00F0B38095F006
:101CD000000F00F077802DE901494FEA11404FEAEB
:101CE000144621EA004800FB06FC24EA064708FBEC
:101CF00006F607FB08F800FB07F718EB06484CEB65
:101D0000164C4FEA124B18EB07484FEA15464CEBBE
:101D1000174022EA0B4E0BFB06FC25EA06470EFB9A
:101D200006F607FB0EFE0BFB07F71EEB064E4CEB11
:101D3000164C4FF000061EEB074E4CEB174B18EB02
:101D40000B0840F1000018EB0E0B58EB000840F1B7
:101D500000008F1A4FF000013CBFC943661B14BF3F
:101D6000B5EB040C00213CBFC943F61B4FEA1744F6
:101D70004EEA8E0E27EA04454FEA1C4704FB076231
:101D80002CEA074C05FB07F70CFB05F604FB0CFCE3
:101D900016EB074642EB174216EB0C4642EB1C4291
:101DA0001BEB060658EB0202414146EA9E0601D5AE
:101DB000BDE80189B619524141EB0101A3F10103CC
:101DC000BDE801894FEA14454FEA114724EA054668
:101DD00021EA074C05FB07F406FB07F70CFB06F1AD
:101DE00005FB0CFC11EB074144EB17444FEA12478B
:101DF00011EB0C4144EB1C4422EA074C05FB07F2B3
:101E000006FB07F70CFB06F605FB0CFC16EB07467A
:101E100042EB174216EB0C4642EB1C456A1854F194
:101E2000000148BF7047B619524141EB0101A3F1CF
:101E30000103704795F0000F37D04FEA11424FEA87
:101E4000144721EA024624EA074C02FB07F106FB8D
:101E500007F70CFB06F402FB0CFC14EB074441EB08
:101E600017414FEA154714EB0C4441EB1C4125EA9E
:101E7000074C02FB07F506FB07F70CFB06F602FB17
:101E80000CFC16EB074645EB174516EB0C4645EBED
:101E90001C42121951F1000148BF7047B619524156
:101EA00041EB0101A3F1010370474FEA14454FEAEA
:101EB000114724EA054621EA074C05FB07F106FB1A
:101EC00007F70CFB06F24FF0000605FB0CFC12EBCB
:101ED000074241EB174112EB0C4251EB1C4148BF4A
:101EE0007047921841EB0101A3F10103704721B142
:101EF000826842F00102826003E0826822F00102FF
:101F00008260704710B504461248844208D101210E
:101F1000401502F0B1FB0021601502F0ADFB17E0A7
:101F20000D48844208D10121001502F0A5FB0021D3
:101F3000201502F0A1FB0BE00848844208D10121E2
:101F4000C80302F099FB00214FF4004002F094FB1B
:101F500010BD00000024014000280140003C014069
:101F6000014600208A6802F004020AB1012000E064
:101F7000002070470146C86C80B2704702460020BE
:101F800013680B400BB1012000E0002070470146B0
:101F900000208A6802F008020AB1012000E0002057
:101FA0007047000030B502460020002350680F4CF7
:101FB00020400D790C6844EA052420435060906865
:101FC0000B4C2040D1E902542C434D7944EA45049E
:101FD00020439060D06A20F470000C7C641EE4B250
:101FE000234340EA0350D06230BD0000FFFEF0FF03
:101FF000FDF7F1FFF0B504460D4600200021092D44
:1020000011DDE068A5F10A0606EB4607072606FA89
:1020100007F18843A5F10A0606EB460603FA06F126
:102020000843E0600CE0206905EB4507072606FA47
:1020300007F1884305EB450603FA06F108432061E2
:10204000072A0FDA606B561E06EB86071F2606FA74
:1020500007F18843561E06EB860605FA06F108438B
:10206000606322E00D2A0FDA206BD61F06EB86078D
:102070001F2606FA07F18843D61F06EB860605FAE7
:1020800006F10843206310E0E06AA2F10D0606EBBA
:1020900086071F2606FA07F18843A2F10D0606EB14
:1020A000860605FA06F10843E062F0BD816841F05A
:1020B00008018160704721B1826842F4A002826009
:1020C00003E0826822F4A00282607047816841F0D8
:1020D000040181607047000000B587B001214FF412
:1020E000047002F0B9FA4FF4004002F089FA0120BE
:1020F000ADF8040000208DF8070001A9174800F092
:1021000088F91748FFF7FEFE002002908DF80C00BA
:102110008DF80D004FF46020049000200590012000
:102120008DF8180002A90E48FFF73CFF01210C486A
:10213000FFF7DDFE0A48FFF7B9FF00BF0848FFF7C9
:1021400026FF0028FAD10648FFF7C0FF00BF044869
:10215000FFF706FF0028FAD107B000BD00100140CC
:102160000024014000BFFEE730B502460B464FF6A3
:10217000FF70002111E0555C684000240AE000F087
:102180000105002D04DD40104AF20105684000E021
:102190004010641C082CF2DB491C9942EBDB30BD7B
:1021A0002DE9F047ADF5BD6D07460D464FF4A96228
:1021B000474928A8FEF776FA982102A8FEF7C6FA42
:1021C0004FF00009CA4677208DF8080061208DF88D
:1021D00009006E208DF80A0067208DF80B00022F91
:1021E00000DD00279FB9082D00DD002570208DF847
:1021F0000C00A846C8EB081101EB810128AA02EBEC
:102200004100FEF730FAC6B24FF0000A1EE0012F7F
:102210000DD171208DF80C008DF80400072D00DD24
:1022200003258DF8055002264FF0010A0EE0022F1B
:102230000CD172208DF80C008DF80400032D00DD08
:1022400001258DF8055002264FF0010AF01DC0B29D
:102250008DF80D00002425E0BAF1000F0AD001A886
:10226000015DE01D02AA115401A8005D484400F080
:10227000FF0915E0C8EB081000EB800028A901EB6E
:102280004000015DE01D02AA1154C8EB081000EBEC
:10229000800028A901EB4000005D484400F0FF09E0
:1022A000601CC4B2B442D7DB0021F01D02AA115455
:1022B00009F15500C0B28DF80E00F11D02A800F022
:1022C0007BF80120034908700DF5BD6DBDE8F0876E
:1022D000A06B00081400002010B540F225511B48E7
:1022E00002F02DFD28B3194802F0E4FDC4B21848ED
:1022F000B0F80004C0F30E0040F2FF31884219DA52
:102300000020144908601248B0F8000410B90120F8
:10231000114908700E49B1F80014C1F30E00411CB8
:102320000B4AB2F8002461F30E020949A1F8002417
:102330000C5409E00648B0F8000420F4004000F511
:1023400000400349A1F8000410BD0000003801401E
:10235000D41C00201800002015000020124800782E
:10236000E8B11248006820B91148006800680F49B8
:1023700008600F48006800680C490968401A142872
:1023800010D10C48B0F8000420F4004000F50040E3
:102390000849A1F8000400200349087002E0002069
:1023A0000249086070470000150000201800002056
:1023B00074010020D41C002070B504460E460EA007
:1023C00002F074FE21460FA002F070FE00250CE022
:1023D000615D0D4802F073FD00BF40210A4802F024
:1023E000A1FC0028F9D0681C85B2B542F0DB07A03B
:1023F00002F05CFE70BD000044313135352053657C
:102400006E643A0025730000003801400D0A000098
:1024100070472DE9F04102460025002600200023E8
:102420000024002791F803C00CF00F0591F803C0B9
:102430000CF0100CBCF1000F03D091F802C04CEA74
:10244000050591F800C0BCF1000F31D014680020E0
:102450002BE04FF0010C0CFA00F3B1F800C00CEACD
:1024600003069E4220D183004FF00F0C0CFA03F7B5
:10247000BC4305FA03FC4CEA040491F803C0BCF128
:10248000280F06D14FF0010C0CFA00FCC2F814C062
:102490000AE091F803C0BCF1480F05D14FF0010CE0
:1024A0000CFA00FCC2F810C0401C0828D1D31460FC
:1024B000B1F800C0BCF1FF0F34DD546800202EE0FD
:1024C00000F1080C4FF0010808FA0CF3B1F800C055
:1024D0000CEA03069E4221D183004FF00F0C0CFA48
:1024E00003F7BC4305FA03FC4CEA040491F803C06B
:1024F000BCF1280F05D100F1080C08FA0CF8C2F85D
:10250000148091F803C0BCF1480F07D100F1080C0A
:102510004FF0010808FA0CF8C2F81080401C082897
:10252000CED35460BDE8F081F0B50A460023002404
:102530000021002500F00046B6F1004F02D11D4EEB
:10254000F16901E01B4E7168C0F3034583B200F4EA
:102550004016B6F5401F08D121F07061154E76681F
:1025600026F07066134F7E6012E000F48016B6F518
:10257000801F06D1032606FA05F4A14341F07061DD
:1025800006E0460D360103FA06F6B14341F07061EC
:1025900022B1460D360103FA06F6314300F000463B
:1025A000B6F1004F02D1034EF16101E0014E7160BE
:1025B000F0BD0000000001400161704701460120AC
:1025C000182901DD05200CE0122901DD042008E0B6
:1025D0000B2901DD032004E0052901DD022000E0D4
:1025E0000120704710B504460723012221460948FF
:1025F000FFF700FD01210748FFF75DFD00BF022145
:102600000448FFF7BBFC0028F9D00248FFF7B2FCF2
:1026100010BD0000002401402DE9F04107460C46A2
:102620000025002608E03846FFF7DCFF05440520BA
:1026300003F00AFC701CC6B2A642F4DBB5FBF4F052
:1026400080B2BDE8F08109B1042902DD00234370A6
:1026500000E04270017070470146002004E0064A25
:10266000125C0A54421CD0B20928F8DB024A453AEF
:1026700092F86C200A547047A50000207CB50546EE
:102680000020009001900026AA208DF8000055201F
:102690008DF8010003208DF8020084208DF80300DE
:1026A0008DF8045000208DF80500002406E0E01CA1
:1026B0001DF800003044C6B2601C84B29DF80200D0
:1026C000A042F4DCF0B28DF806000721684600F065
:1026D000CBF87CBDF0B585B005460E4614216846A2
:1026E000FEF734F80027AA208DF8000055208DF859
:1026F00001008DF80350902D09D103208DF80200C0
:1027000030788DF8040070788DF8050024E0912D64
:1027100011D10B208DF80200002405E0315D201D51
:102720000DF80010601C84B2092CF7DB315D201D10
:102730000DF8001010E0922D06D102208DF8020055
:1027400000208DF8040007E0C42D05D102208DF88B
:10275000020000208DF80400002406E0E01C1DF8B3
:1027600000003844C7B2601C84B29DF80200A04249
:10277000F4DCF9B2E01C0DF80010201D81B26846AF
:1027800000F072F805B0F0BD10B540F225511B48BD
:1027900002F0D5FA28B3194802F08CFBC4B21848ED
:1027A000B0F80004C0F30E0040F2FF31884219DA9D
:1027B0000020144908601248B0F8000410B9012044
:1027C000114908700E49B1F80014C1F30E00411C04
:1027D0000B4AB2F8002461F30E020949A1F8002463
:1027E0000C5409E00648B0F8000420F4004000F55D
:1027F00000400349A1F8000410BD0000004800405B
:10280000E4200020200000201C0000201248007856
:10281000E8B11248006820B91148006800680F4903
:1028200008600F48006800680C490968401A1428BD
:1028300010D10C48B0F8000420F4004000F500402E
:102840000849A1F8000400200349087002E00020B4
:1028500002490860704700001C0000202000002092
:1028600074010020E420002070B505460E460EA03D
:1028700002F01CFC002410E0295D0F4802F01FFB51
:1028800000BF40210C4802F04DFA0028F9D0295D24
:102890000AA002F00BFC601C84B2B442ECDB09A07D
:1028A00002F004FC70BD000048616E64506965630D
:1028B000652053656E643A00004800402530327848
:1028C000200000000D0A000000BFFEE74CF6CC40DF
:1028D00001490860704700000030004010B500F06A
:1028E00013F810BD70B505460C4645F2555000F082
:1028F0001FF8284600F010F8204600F013F800F00A
:1029000003F8FFF7E3FF70BD4AF6AA20014908600B
:1029100070470000003000400149486070470000E7
:1029200000300040014988607047000000300040DE
:1029300001490860704700000030004008B50121DF
:10294000092001F089FE01210648FFF7EDFD08206E
:10295000ADF8000048208DF8030069460248FFF7F3
:1029600058FD08BD00023000000C014010B588B0D1
:102970001EA2D2E901311068D268CDE90531079273
:1029800004901EA3D3E90020D3E9021301AC0BC4C9
:102990000092002408E01DA000F0E4FE4FF4FA705D
:1029A00003F052FA601CC4B2032CF4DB19A000F04F
:1029B000D9FE40F6B83003F047FA002408E013A02F
:1029C00000F0D0FE4FF4FA7003F03EFA601CC4B27F
:1029D000032CF4DB0020134981F82A006A4604A97D
:1029E0000D2000F021F808B010BD00000102031610
:1029F000040517060F07141500000000010102016D
:102A000001030E040505010D0000000041540D0AEC
:102A10000000000041542B4346554E3D31350D0A10
:102A2000000000002C000020F0B503460C461D4EAF
:102A300096F82A0000251C4E3678E6B101E0461CC7
:102A4000F0B2184E365C002EF9D1054600200FE09A
:102A50004619F1B21D2902DDA1F11E06F1B2265C74
:102A6000104F7E54175C0F4E14367754461CF0B24C
:102A70009842EDDB10E0002008E0265C094F3E5450
:102A8000175C084E14363754461CF0B29842F4DBFB
:102A90000026044F87F82A600326024F87F8286033
:102AA000F0BD00002C000020250000200B4890F80D
:102AB000310090B10A480088401C09490880074845
:102AC000808D0988884208D10120064908700020BD
:102AD00003490880014981F8310070472C0000202B
:102AE00026000020240000202DE9F84F0025A946EB
:102AF000AA46AB460027A846F648B0F80004C00B2B
:102B000000287DD0F44890F8310018B10020F24937
:102B100081F831000020EF49B1F80014C1F30E0133
:102B2000EC4A5054EC4890F83300012845D1EA496A
:102B300091F82A201431895C01EB8101E74A02EB0C
:102B40008100E7A1FDF759FD18B10120E5490870A2
:102B500011E0E14991F82A201431895C01EB8101EF
:102B6000DE4A02EB8100E0A1FDF747FD18B140F617
:102B7000B730D9498885D84991F82A201431895C21
:102B800001EB8101D54A02EB810002F0CFFD054641
:102B90003DB10120D04981F83000002081F8330098
:102BA00003E00020CC4981F830000120CA4981F8B7
:102BB0002F00002081F82E00C5E2C74890F83300AE
:102BC00002282FD1CBA1C348FDF717FDC8A1009063
:102BD000FDF713FD461C3046FDF702FDC7B2BD49A7
:102BE000C6A002F063FA1F2F10DCC84890F821003D
:102BF000B84204D0C54880F821704FF0A10B00E026
:102C0000A6E20120B44981F8300003E00020B24977
:102C100081F830000120B04981F82F00002081F8B0
:102C20002E0090E2AC4890F83300032817D1AB484F
:102C3000A03002F07BFD05463DB1A649B448FDF742
:102C4000EEFCB349B3A002F031FA0120A24981F8A9
:102C5000300081F82F00002081F82E0073E29E489A
:102C600090F8330004280BD19C48143002F05EFD2C
:102C70000546002DA0D00120974981F8330062E27B
:102C8000954890F83300052828D197A19148FDF781
:102C9000B4FC97A10090FDF7B0FC461C3046FDF750
:102CA0009FFC00F0FF098B4994A002F0FFF9B9F1F5
:102CB000000F06D0884890F82A00401C864981F809
:102CC0002A0041F26F7084498885012081F8300024
:102CD00081F82F00002081F82E0034E27E4890F821
:102CE000330006282ED18EA17A48FDF786FC80A1FC
:102CF0000090FDF782FC461C3046FDF771FC00F0A9
:102D0000FF0A74497DA002F0D1F9BAF1010F0AD08F
:102D1000012086490872704890F82A00401C6E49CC
:102D200081F82A0002E00020804908724FF0A20BCF
:102D30000120694981F8300081F82F00002081F8D6
:102D40002E0000E2644890F83300072822D178482A
:102D500002F0ECFC05469DB1002608E05D4906F155
:102D60000900095C6948401C8155701CC6B20F2ED1
:102D7000F4DB6649491C6FA002F098F94FF0A30BF1
:102D80000120554981F8300081F82F00002081F89A
:102D90002E00D8E16AA002F0C9FC0546002D71D0D2
:102DA0006AA14C48FDF729FC6CA10090FDF725FCB9
:102DB000461C3046FDF714FC1FFA80F8002407E09B
:102DC000444904F11100085C51490855601C84B263
:102DD0004445F5DB4E4800784C4991F85E10884236
:102DE000AFD1A8F101004A49085C484991F869103F
:102DF0008842A6D14648C178807801EB0020584926
:102E0000488043488179407901EB0020544988800B
:102E100000203F49487188715148408800F10A01FB
:102E20003B48FFF7A1F94E498988884289D1384843
:102E300040784B4908703648007948703448C0796A
:102E40008871002408E0324904F10900095C444813
:102E500008300155601C84B241484088A042F2DC31
:102E60003F480078652831D00DDC11282FD004DCD4
:102E7000022811D004282BD1A4E0132829D05028EF
:102E8000F9D138E15DE177287CD081287BD0832897
:102E90007AD09028EFD14CE132A002F007F9304807
:102EA000007A90B90120194981F82000002408E037
:102EB0002B480830611C415C144810300155601CDF
:102EC00084B2082CF4DB002467E07AE019E180E0AA
:102ED00035E107E1F42400202C000020667800088A
:102EE0003E0000002A0000202B4D495043414C4C2D
:102EF0003A0000002B4353513A0000004C36313069
:102F0000205265633A25730D0A000000600000201E
:102F10005A290020446174613D0D0A25730D0A0091
:102F20002B4D49504F50454E3A000000E6240020FA
:102F30006A790008494D4549203A2025730D0A0059
:102F40002B4D4950525443503A0000002B4D4950EC
:102F5000525443503A20312C000000002C00000055
:102F6000D40000204C363130205265632030783058
:102F700032202C4C6F67696E205265706C792E0D73
:102F80000A000000C3E0C8E0CDE07C4804F109017C
:102F9000415C7B480155601C84B2042CF5DB0024A5
:102FA00008E0764804F10D01415C7548001D0155AB
:102FB000601C84B2122CF4DB72A002F077F84FF0A0
:102FC000020BBDE074A002F071F801207A4988710B
:102FD000B6E00026002406E06848015D6848163027
:102FE0000155601C84B2042CF6DB6548223890F849
:102FF000380001066248223890F8390001EB0041A0
:103000005F48223890F83A0001EB00215C482238F2
:1030100090F83B0008445A4922390867002407E029
:103020005648211D415C56482C300155601C84B225
:10303000102CF5DB002408E0504804F11401415C39
:103040004F481A300155601C84B2092CF4DB4B4800
:10305000083890F8250001064848083890F82600FE
:1030600001EB00414548083890F8270001EB0021AA
:103070004248083890F82800084441492239C86677
:103080000846C16E4DA002F011F800240AE03C4849
:103090001A30015D0930005D814201D1701CC6B259
:1030A000601C84B2092CF2DB092E17DA002406E03A
:1030B00033481A30015D09300155601C84B2092C77
:1030C000F6DB09224FF440012D48233002F0C4F80A
:1030D00042A001F0EBFF4FF0110B02E045A001F020
:1030E000E5FF2DE025480838417C48A001F0DEFFCF
:1030F0004FF0130B24E04EA001F0D8FF4FF0500B1F
:103100001EE050A001F0D2FF4FF0650B18E052A076
:1031100001F0CCFF4FF0770B12E054A001F0C6FF96
:103120004FF0810B0CE056A001F0C0FF4FF0830B75
:1031300006E058A001F0BAFF4FF0900B00E000BF8E
:1031400001E04FF0000B00205749A1F8000411E006
:10315000564890F82E0068B1544890F8310048B9AC
:103160005348007830B90120504981F831000020DF
:10317000504908805846BDE8F88F0000DC00002068
:10318000820000204C6F67696E205375636365731E
:10319000732E0D0A000000004C363130205265635A
:1031A0002030783034202C4C6F67696E204368657E
:1031B000636B2E0D0A000000E62400204C363130EF
:1031C000205265632030783131202C4F7264657253
:1031D000204E756D203D2025640D0A005265632048
:1031E0004F6E65204E6577204F726465722E200DFC
:1031F0000A000000526563204475706C6963617455
:1032000065204F726465722E200D0A004C363130F5
:10321000205265632030783133202C4F7264657200
:10322000205374617465203D20253032580D0A000A
:103230004C363130205265632030783530202E0DE9
:103240000A0000004C363130205265632030783659
:1032500035202E0D0A0000004C36313020526563B7
:103260002030783737202E0D0A0000004C363130E0
:10327000205265632030783831202E0D0A0000007E
:103280004C363130205265632030783833202E0D93
:103290000A0000004C363130205265632030783906
:1032A00030202E0D0A000000F42400202C00002005
:1032B000240000202600002010B5164800780028C1
:1032C00027D015A001F0F2FE0020174981F8300048
:1032D000032081F82800002081F8320081F83300B3
:1032E00081F8310081F82E0081F82F00002408E0D9
:1032F00000200D49085500210B4814300155601C71
:10330000C4B2142CF4DB00200249087001200749E4
:10331000487210BD240000200D0AD5FDD4DAD6D89D
:10332000C6F40D0A000000002C000020E624002056
:1033300010B52E4890F82E00002855D12B4890F853
:103340002F0090B3294890F8300050B1274890F8EA
:103350002A00401C254981F82A00032081F8280012
:1033600017E0224890F82A002049085C282805D157
:10337000084690F82A00401E81F82A001B4890F861
:103380002800401E194981F828004FF47A7002F095
:103390005BFD0020154981F8330081F82F0081F88A
:1033A00031001349A1F800041EE0FFE70F4890F830
:1033B0002A000E49085C70B1084690F8280018B938
:1033C00001200C4908700FE0002000F039F80120BE
:1033D0000949087008E0054890F82A000349085C8C
:1033E00010B900200449087010BD00002C00002016
:1033F000F4240020240000202500002070B504469D
:103400000D4600200949A1F800040948007840B1A0
:1034100000200749087007480188204600F072F92B
:1034200003E0214604A000F09DF970BDF4240020C3
:103430002A0000202800002025730D0A000000004B
:1034400070B50546424890F82A0041490C5C282C8A
:1034500008DA04EB84013F4A02EB01102946FFF72A
:10346000CDFF0EE0282C05D10E2429463A48FFF75F
:10347000C5FF06E0292C04D1122429463748FFF75E
:10348000BDFF0120324981F82E0004EB8401314A4E
:1034900002EB011032A1FDF7B0F820B102202C4957
:1034A00081F8330052E004EB84012A4A02EB011058
:1034B0002DA1FDF7A2F820B10320254981F83300A2
:1034C00044E004EB8401234A02EB011029A1FDF73B
:1034D00094F840B904EB84011E4A02EB011028A1C4
:1034E000FDF78BF820B10420194981F833002DE055
:1034F00004EB8401174A02EB011025A1FDF77DF8CA
:1035000020B10520124981F833001FE004EB84014B
:10351000104A02EB011021A1FDF76FF820B106203F
:103520000B4981F8330011E004EB8401094A02EBF6
:1035300001101DA1FDF761F820B10720044981F8B1
:10354000330003E00120024981F8330070BD000020
:103550002C000020E6700008F62800204001002022
:1035600041542B435351000041542B485454505262
:103570004541440041542B485454504143543D006C
:1035800041542B4D49504F50454E3D3100000000F5
:1035900041542B4D495043414C4C3F0041542B4D1D
:1035A00049504F50454E3F0041542B47534E3F002A
:1035B0007CB506460C460EA0006801900DA0006880
:1035C000009022460CA11048FCF7F4FE002504E010
:1035D000705D0E494855681C85B2A542F8DB0C4861
:1035E00004806A4601A90320FFF71EFA7CBD000093
:1035F00029280000060B000041542B4D495053452B
:103600004E443D312C25640040010020F628002066
:10361000280000207CB504460D4606A000680190F5
:1036200005A0006800906A4601A90320FFF7FCF995
:103630007CBD000010110000010A000010B540F22E
:1036400025511B4801F07BFB28B3194801F032FCDF
:10365000C4B21848B0F80004C0F30E0040F2FF31C5
:10366000884219DA0020144908701248B0F80004A2
:1036700010B90120114908700E49B1F80014C1F3C6
:103680000E00411C0B4AB2F8002461F30E020949F6
:10369000A1F800240C5409E00648B0F8000420F416
:1036A000004000F500400349A1F8000410BD0000EF
:1036B00000500040F42400205F0100205E01002043
:1036C0000D480078B8B10D480078401C0B490870CF
:1036D000084600780A280ED10948B0F8000420F402
:1036E000004000F500400649A1F80004002003490D
:1036F00008700149087070475E0100205F010020DA
:10370000F424002070B505460E460EA001F0CEFC54
:10371000002410E0295D0F4801F0D1FB00BF4021DB
:103720000C4801F0FFFA0028F9D0295D0AA001F049
:10373000BDFC601C84B2B442ECDB09A001F0B6FC15
:1037400070BD00004C3631302053656E643A0D0A6E
:1037500000000000005000402530327800000000DA
:103760000D0A00000FB438B505A800901148009A62
:103770000499FCF70DFE002000900E48FCF773FF43
:1037800085B20C490CA001F091FC00240DE000BFB3
:1037900040210D4801F0C6FA0028F9D00548015D26
:1037A000094801F08CFB601C84B2AC42EFDB38BCF2
:1037B0005DF814FBBE2900204C3631302053656E75
:1037C000643A25730D0A0000005000401CB506A0A5
:1037D0000068019005A0006800906A4601A90220D7
:1037E000FFF722F91CBD00000500000003000000E7
:1037F0001CB506A00068019005A0006800906A460C
:1038000001A90220FFF710F91CBD00001000000004
:103810000100000008B50121102000F01DFF10205C
:103820008DF8030003208DF802000820ADF8000099
:1038300069460448FEF7EDFD08210248FEF7BCFE8C
:1038400008BD00000010014000BFFEE77047000007
:1038500070B5002100230F22C47804B3154C2468EE
:1038600004F4E064C4F5E064210AC1F10403CA4031
:10387000447804FA03F184781440214309010E4C82
:103880000678A155047804F01F050124AC400578A2
:103890006D11AD0005F1E025C5F8004109E004789F
:1038A00004F01F050124AC40044D0678761145F85C
:1038B000264070BD0CED00E000E400E080E100E097
:1038C00002490143024A1160704700000000FA05F6
:1038D0000CED00E010B500F013F800F015FC00F05E
:1038E0003DFC00F05DFC00F0E5FB00F0B7FB00F0F4
:1038F000F1FC00F095FC00F0BBFC00F002F810BDFC
:103900007047704706480078012808D105480078BC
:10391000FF2804D203480078401C02490870704711
:10392000B2010020A501002010B500241A4800783B
:10393000012830D1FCF7D0FC04461848007820B1AB
:1039400016480078401E1549087014480078F8B9E8
:1039500013480078E0B900F01FFD124812490978B9
:1039600050F82100114908600F4800781049097883
:1039700088420DD00D480068806B401C0B490968D7
:1039800088630C480068401C0A490860FCF7C3FCC7
:103990002046FCF7A5FC10BDB2010020A5010020C7
:1039A000A6010020B0420020A8010020C001002094
:1039B000A70100208C01002010B500240B480078DE
:1039C000012811D1FCF788FC04460948007840B969
:1039D00008480078FF2804D206480078401C0549B2
:1039E00008702046FCF77CFC10BD0000B2010020EE
:1039F000A5010020A601002010B50024134800787E
:103A0000012821D1FCF768FC044611480078C0B1B8
:103A10000F480078401E0E4908700846007860B9CB
:103A20000C48007828B92046FCF75AFC00F07AFCD4
:103A30000AE02046FCF754FC06E02046FCF750FC68
:103A400002E02046FCF74CFC10BD0000B201002053
:103A5000A6010020A501002010B50B48007890B900
:103A600000F09AFC0948007809490870094807499C
:103A7000097850F82100084908600846006807499D
:103A80000860FCF730FC10BDB2010020A801002046
:103A9000A7010020B0420020C0010020B801002092
:103AA00010B50024022000F0F5F9FCF715FC0446DF
:103AB00000200B4908602046FCF712FC142000F09F
:103AC000E9F9FCF709FC0446054800680549086067
:103AD0000120054908702046FCF702FC10BD0000DB
:103AE000B40100209C010020A401002070470000C8
:103AF0002DE9FE4F06460F4690461C464FF0000942
:103B0000FCF7EAFB81461F48007828B14846FCF7DD
:103B1000E7FB3C20BDE8FE8F1B4850F8240060BB4B
:103B20000120194941F824004846FCF7D9FB00233D
:103B300042463946304600F009F98246002000909E
:103B400001900346024651460290204600F03AFC9E
:103B5000054635B90D48007801280CD100F0E2FB8C
:103B600009E0FCF7B9FB81460020074941F8240031
:103B70004846FCF7B5FB2846CCE74846FCF7B0FBC7
:103B80002820C7E7A5010020B0420020B201002094
:103B90002DE9F04F85B081468A4693461C46DDE903
:103BA0000F78129D00200390FCF796FB03902348AA
:103BB000007830B10398FCF793FB3C2005B0BDE8DA
:103BC000F08F1F4850F8240088BB01201C4941F8A1
:103BD00024000398FCF784FB2A464146384600F04F
:103BE00001FD2B465A465146484600F0AFF8049076
:103BF0001198CDE9008002953A4620460E9B049923
:103C000000F0E0FB064636B90E48007801280CD1DA
:103C100000F088FB09E0FCF75FFB039000200849F7
:103C200041F824000398FCF75BFB3046C6E7FFE74A
:103C30000398FCF755FB2820C0E70000A5010020F1
:103C4000B0420020B2010020704770472DE9F041DA
:103C500006460F4614464FF000081548007818B184
:103C600012202070BDE8F081FCF736FB8046FF2E65
:103C700003D11048006890F832600F4850F8265081
:103C80002DB94046FCF72CFB43202070EAE7012DBC
:103C900005D14046FCF724FB43202070E2E7EF64A7
:103CA0004046FCF71DFB0020207000BFDAE7000053
:103CB000A5010020B8010020B0420020704700009C
:103CC0002DE9F04707460D464FF0000A0020286016
:103CD0006860FCF701FB8246FF2F03D1194800689A
:103CE00090F83270184850F827402CB95046FCF72D
:103CF000F7FA4320BDE8F087012C04D15046FCF7C9
:103D0000EFFA4320F6E7207C00F0010020B950468E
:103D1000FCF7E6FA4520EDE70026D4F80C90D4F83D
:103D200008805046FCF7DCFA00E0761C58F8041BCB
:103D30000029FAD0B0002860A9EB06008000686076
:103D40000020D7E7B8010020B042002070B504463B
:103D500010464FF080750560051F28462C606FF0F7
:103D60000106051F28462E604FF01236051F284613
:103D70002E604FF00336051F28462E604FF00236A6
:103D8000051F28462E607610051F28462E60051F49
:103D9000284629604FF01136051F28462E604FF047
:103DA0001036051F28462E604FF00936051F28469D
:103DB0002E604FF00836051F28462E604FF007365C
:103DC000051F28462E604FF00636051F28462E6038
:103DD0004FF00536051F28462E604FF00436051FAC
:103DE00028462E6070BD00002DE9F04105464FF0D9
:103DF0000008FCF771FA8046FF2D05D120480068C5
:103E000090F83250012608E01D48006890F8320012
:103E1000A84201D1012600E000261A4850F82540AA
:103E20002CB94046FCF75CFA4820BDE8F081012C33
:103E300004D14046FCF754FA4320F6E794F8347076
:103E40001148C05D94F8351088430F49C85508469D
:103E5000C05D30B994F836100C48007888430B499F
:103E6000087094F8300040F0080084F830004046B4
:103E7000FCF736FA012E01D100F054FA0020D4E705
:103E8000B8010020B0420020AA010020A9010020B2
:103E90007047000070B5054600261748007800B14D
:103EA00070BD1648007800B1FAE71DB3FCF714FAAC
:103EB00006461348006890F834401248005D1049E7
:103EC000096891F8351088430E4908550846005D89
:103ED00040B90B48006890F836100B4800788843CA
:103EE0000949087006480068C5623046FCF7F8F9D1
:103EF00000F018FA00BFD3E7A5010020A6010020BA
:103F0000B8010020AA010020A90100202DE9F041FC
:103F100004460D4616461F461248007810B155203B
:103F2000BDE8F0811048007808B13220F8E7B81CED
:103F3000C82148434FF47A71B0FBF1F14FF461604E
:103F40006043C5EB051200EB8200304400EBC00279
:103F500002EB001001EBC0084046FFF79BFF00207A
:103F6000DEE70000A5010020A601002070B50026B4
:103F700000F072F8FCF7B0F9064631480068401CC2
:103F80002F4908603046FCF7ABF92E48007801282D
:103F900053D12D48007820B1012804D0022809D13E
:103FA00003E001250BE0002509E001250120264959
:103FB000087004E0012500202349087000BF00BFFD
:103FC00005B970BD2148046833E0FCF785F9064661
:103FD000E06A50B3E06A401EE062E06A28BB94F8F1
:103FE000300000F0370040B114F8300F00F0C80086
:103FF000207001206070303C02E0002084F8310025
:1040000094F8300000F0080078B93434A0781049F2
:10401000097808430E49087020780E49085C6178D9
:10402000084314F834190B4A505464693046FCF7BD
:1040300057F994F832003F28C7D100BFC1E700000C
:10404000D0010020B2010020C8010020C4010020DE
:10405000A9010020AA010020704700002DE9F041CD
:104060005021114800F02CF900250DE0681C86B2A3
:104070000D4800EB051400EB061700202070676068
:104080000AA0E060681C85B2042DEFD3064800EB5F
:10409000051400202070606004A0E060024804491C
:1040A0000860BDE8F0810000603E00203F00000095
:1040B0009401002070B5C821114800F001F90023D7
:1040C0000FE0581C85B203EB83000D4901EB80041F
:1040D00005EB850001EB8006002020706660581C0F
:1040E00083B2092BEDD303EB8300054901EB800478
:1040F00000202070606008460249086070BD000022
:10410000983D00209001002000200A4908600A49DB
:1041100008700A4908700A4908700A4908700A4973
:1041200008600A4908600A4908600A4908600A49A3
:1041300008707047D0010020A5010020A6010020D2
:10414000B3010020B20100208C010020B401002046
:10415000A00100209C010020A401002000210A4AA7
:104160001170002004E00021084A1154411CC8B21B
:104170000828F8D30021064A1170064A1170064A31
:104180001160064A11607047A9010020AA010020B1
:10419000A7010020A8010020C0010020B8010020D4
:1041A00070B54FF47C71194800F08AF84FF48071B3
:1041B000174800F085F8002413E0601CC5B2C4EB7A
:1041C000C40000EB4000114901EB8003C5EBC500C2
:1041D00000EB400001EB80065E610EA0D864601C1D
:1041E000C4B20B2CE9D3C4EBC40000EB4000074978
:1041F00001EB80030020586106A0D8640020064926
:10420000086002480549086070BD0000B043002006
:10421000B04200203F000000C4010020BC0100208B
:1042200000B587B00320002180220A4BCDE901327E
:10423000CDE903104FF6FF703F23074A009007486F
:10424000FFF7A6FC06AA06A13F20FFF7FFFC07B078
:1042500000BD0000B0400020AC420020F94400083E
:1042600075432F4F532D49492049646C6500000068
:1042700000B587B00320002180220A4BCDE901322E
:10428000CDE903104FF6FE703E23074A0090074821
:10429000FFF77EFC06AA06A13E20FFF7D7FC07B079
:1042A00000BD0000B03E0020AC40002021450008C9
:1042B00075432F4F532D49492053746174000000FA
:1042C00004E0002200F8012B4A1E91B20029F8D127
:1042D000704700002DE9F04178211048FFF7F0FF0A
:1042E00000240DE0601C86B204EB44000B4901EB96
:1042F000C00506EB460001EBC0072F60601C84B2CE
:10430000042CEFD304EB4400044901EBC00500206A
:104310002860084602490860BDE8F081A0470020F7
:10432000CC01002010B50024FBF7D6FF044613484B
:104330000078F8B912480078E0B900F02DF811487B
:104340001149097850F82100104908600E4800789A
:104350000F49097888420DD00C480068806B401CDA
:104360000A49096888630B480068401C09490860CD
:10437000FBF7CAFF2046FBF7B3FF10BDA5010020E5
:10438000A6010020B0420020A8010020C0010020AA
:10439000A70100208C0100200649074A1278885C9A
:1043A0000649095C034A515C01EBC001044A1170E3
:1043B0007047000092790008A9010020AA0100209E
:1043C000A80100202DE9F84F05460F469046994672
:1043D000DDE90AAB00200090FBF77EFF00903F482C
:1043E0000468002C74D0183454F8040C3B4908605D
:1043F0000098FBF775FF44F8187CA576002020761E
:104400006076606144F814BC44F80CAC44F8108C3D
:104410000C9824F8080C24F8069C0020E077E8109B
:10442000207705F00700E076217F01208840A07703
:10443000E17E01208840607700206060E060A0603D
:104440002062A0626062E062206325A06063183C85
:10445000002606E0002104F1500040F82610701CF0
:10446000C6B2002EF6D02046FFF740FB2046FFF7ED
:10447000EBFBFBF731FF00901A4840F825401A4843
:10448000006860610020A0611748006810B11648FC
:1044900000688461144804603434A07813490978B2
:1044A00008431249087020781149085C6178084374
:1044B00014F834190E4A50540E480078401C0D4927
:1044C00008700098FBF70CFF0020BDE8F88FFFE7AD
:1044D0000098FBF705FF4220F7E70000BC01002031
:1044E0003F000000B0420020C4010020A9010020CC
:1044F000AA010020B3010020002400BF00BFFBF789
:10450000EBFE044605480068401C0449086020464C
:10451000FBF7E6FEFFF799FBF1E70000B40100208E
:10452000002400BF02E02820FFF7B4FC19480078FF
:104530000028F8D0184800686421B0FBF1F0164953
:1045400008600846006828B9002014490870FF2058
:10455000FFF74AFC00BFFBF7BFFE044610480068A7
:104560001049086000200E4908602046FBF7B8FE9D
:104570000C48006808490968B0FBF1F0C0F164001C
:1045800006490870FFF79AFB00F00EF81420FFF7B9
:1045900081FCE0E7A40100209C010020980100209C
:1045A000B4010020A00100207CB5002514E069467C
:1045B0002846FFF785FB064666B9094850F82540AE
:1045C00044B1012C06D0D4E9020100EB8100606403
:1045D0000198A064681CC5B23F2DE8D97CBD0000DD
:1045E000B042002002F0010343B102F002032BB1FC
:1045F00002E0491E002308C00029FAD170470000DC
:1046000001460020034A506820F4404008435060AF
:10461000704700000010024029B1064AD2690243E7
:10462000044BDA6104E0034AD2698243014BDA6148
:10463000704700000010024029B1064A1269024387
:10464000044B1A6104E0034A12698243014B1A6168
:10465000704700000010024029B1064A92690243E7
:10466000044B9A6104E0034A92698243014B9A61C8
:10467000704700000010024029B1064AD268024388
:10468000044BDA6004E0034AD2688243014BDA60EB
:10469000704700000010024030B5002100220024C5
:1046A00000232D4D6D6805F00C0121B1042905D0C2
:1046B000082923D105E0294D056022E0274D05603A
:1046C0001FE0254D6D6805F47012234D6D6805F4EB
:1046D0008034022505EB92421CB9214D55430560FB
:1046E0000BE01D4D6D6805F400351DB11C4D5543A3
:1046F000056002E0194D5543056002E0174D056065
:1047000000BF00BF144D6D6805F0F0010909154D9B
:104710006B5C0568DD4045600F4D6D6805F4E06138
:10472000090A104D6B5C4568DD4085600A4D6D6877
:1047300005F46051C90A0B4D6B5C4568DD40C560EE
:10474000054D6D6805F44041890B074D6B5CC568EC
:10475000B5FBF3F5056130BD0010024000127A0090
:1047600000093D00780100208801002000B587B0D5
:10477000012141F20400FFF76FFFE020ADF81800BF
:1047800018208DF81B0003208DF81A0006A9184880
:10479000FDF73FFEE0211648FDF70EFF0020ADF8C3
:1047A00004004FF48270ADF806000020ADF8080058
:1047B0000220ADF80A000120ADF80C004002ADF86F
:1047C0000E003820ADF810000020ADF812000720D0
:1047D000ADF8140001A9074800F058F80121054878
:1047E00000F03AF8FF2000F007F807B000BD000025
:1047F000000801400030014010B5044600BF02210E
:104800000A4800F035F80028F9D02146074800F0A2
:104810003BF800BF0121054800F02AF80028F9D034
:10482000024800F02EF8C0B210BD00000030014078
:1048300010B50446074800884FF6C771084005497F
:10484000088008460088204308800121014800F0C4
:1048500003F810BD0030014021B1028842F040024F
:10486000028004E002884FF6BF731A40028070474E
:104870000246002013890B400BB1012000E000200C
:1048800070470146888970478181704710B50022C2
:10489000028802F441520B884C8823438C882343BE
:1048A000CC8823430C8923434C8923438C8923439D
:1048B000CC8923431A430280838B4FF2FF74234039
:1048C00083830B8A038210BD704710B500F002F895
:1048D00010BD00000CB50020019000903348006826
:1048E00040F480303149086000BF3048006800F46F
:1048F000003000900198401C0190009818B9019870
:10490000B0F5A06FF1D12948006800F4003010B173
:104910000120009001E0002000900098012843D180
:104920002348006840F010002149086008460068EC
:1049300020F0030008600846006840F002000860AC
:104940001A48406819494860084640684860084667
:10495000406840F4806048600846406820F47C105D
:1049600048600846406840F4E8104860084600681F
:1049700040F08070086000BF0C48006800F00070D4
:104980000028F9D00948406820F003000749486032
:104990000846406840F00200486000BF0348406895
:1049A00000F00C000828F9D10CBD000000100240F6
:1049B00000200240042808D14FF0E021096941F0AD
:1049C00004014FF0E022116107E04FF0E021096996
:1049D00021F004014FF0E0221161704710B5054845
:1049E0000078012805D1FEF78DFFFFF7BFFAFEF72B
:1049F0009BFF10BDB201002010B51348006840F0C5
:104A000001001149086008464068104908400E49F5
:104A10004860084600680E4908400B49086008468F
:104A2000006820F4802008600846406820F4FE00FA
:104A300048604FF41F008860FFF747FF4FF00060A9
:104A40000449086010BD0000001002400000FFF89B
:104A5000FFFFF6FE08ED00E010B501210C4800F064
:104A60005AF8A0B10B4800680068401C0949096861
:104A70000860FDF773FC00F08DFAFDF7C7FEFEF746
:104A80001FFEFEF713F80121014800F035F810BDB4
:104A900000040040740100207FB505460C4601214A
:104AA0000220FFF7B9FDADF80850ADF80440002032
:104AB000ADF80A00ADF8060001A90E4800F046F86E
:104AC000012211460B4800F037F81D208DF8000038
:104AD00000208DF8010003208DF8020001208DF8E0
:104AE00003006846FEF7B4FE0121024800F007F813
:104AF0007FBD000000040040CA430282704721B11C
:104B0000028842F00102028004E002884FF6FE7340
:104B10001A400280704730B502460020002300246E
:104B2000158A05EA0103958905EA010413B10CB160
:104B3000012000E0002030BD1AB183890B4383813E
:104B400002E083898B438381704700000022028842
:104B50001D4B98420ED01D4B98420BD0B0F1804FA8
:104B600008D01B4B984205D01A4B984202D01A4BE2
:104B7000984204D14FF68F731A404B881A43174B53
:104B8000984207D0164B984204D04FF6FF431A4084
:104B9000CB881A4302808B8883850B8803850A4B58
:104BA00098420BD0094B984208D00E4B984205D042
:104BB0000D4B984202D00D4B984201D10B7A0386DF
:104BC0000123838270470000002C01400034014023
:104BD0000004004000080040000C004000100040AD
:104BE00000140040004001400044014000480140E2
:104BF00010B500F08FF910BD10B5FEF71FFD10BD08
:104C000070B50446002500200F4908602E2001F0F1
:104C100051F900BF0FE004F0010018B101200A496A
:104C2000086002E00020084908602E2001F042F9E7
:104C30006410681CC5B2082DEDDB01200249086034
:104C40002E2001F037F970BDB001214210B5FDF7FB
:104C500043FB10BD704710B5FDF796FD10BD01F484
:104C60000072B2F5007F00D100BFCA4302807047D6
:104C700021B1828942F40052828104E082894DF69A
:104C8000FF731A408281704710B504462048844261
:104C900009D101218803FFF7EFFC00214FF4804088
:104CA000FFF7EAFC32E01B48844209D101214804A5
:104CB000FFF7C2FC00214FF40030FFF7BDFC25E0F8
:104CC0001548844209D101218804FFF7B5FC002171
:104CD0004FF48020FFF7B0FC18E01048844209D15F
:104CE0000121C804FFF7A8FC00214FF40020FFF7C2
:104CF000A3FC0BE00A48844208D101210805FFF714
:104D00009BFC00214FF48010FFF796FC10BD0000C3
:104D1000003801400044004000480040004C004082
:104D20000050004002460020B1F5007F00D100BFD6
:104D300013880B400BB1012000E00020704770B5D4
:104D40000246002400230025002040F66A16B142E6
:104D500000D100BFC1F3421501F01F03012606FA7E
:104D600003F3012D02D19689334006E0022D02D1D2
:104D7000168A334001E0968A33400C12012606FA67
:104D800004F41688344013B10CB1012000E0002077
:104D900070BDF0B50346002400260025002040F633
:104DA0006A17B94200D100BF1846C1F3421401F09E
:104DB0001F06012707FA06F5012C01D10C3004E08B
:104DC000022C01D1103000E014301AB107682F43D3
:104DD000076002E00768AF430760F0BD2DE9F047C8
:104DE00086B005460E460024A24600BFA146002715
:104DF000B08900B100BF2F462C8A4CF6FF700440EA
:104E0000F08804432C82AC894EF6F3100440B0883D
:104E100031890843718908430443AC81AC8A4FF659
:104E2000FF400440B0890443AC8201A8FFF734FC82
:104E30001F48874202D1DDF810A001E0DDF80CA088
:104E4000A88900F4004040B10AEBCA0000EB0A1048
:104E500031684900B0FBF1F807E00AEBCA0000EB4B
:104E60000A1031688900B0FBF1F86420B8FBF0F05B
:104E700004012009642101FB1089A88900F4004085
:104E800040B1322000EBC900B0FBF1F000F00700A8
:104E9000044308E0322000EB09106421B0FBF1F07C
:104EA00000F00F0004432C8106B0BDE8F08700003D
:104EB0000038014001468888C0F308007047C1F3FC
:104EC00008028280704700BFFEE710B50446214605
:104ED000A52000F001F810BD70B505460C467E20F7
:104EE0000849087008464570002088700220C87084
:104EF000201208714C71EF2088710721014800F0E1
:104F000077F870BD862A002010B500211620FFF723
:104F1000E3FF10BD10B540F225511A48FFF70FFF0F
:104F200018B31848FFF7C6FFC4B21748B0F800011D
:104F3000C0F30E00FF2819DA002014490860124857
:104F4000B0F8000110B90120114908700E49B1F8FC
:104F50000011C1F30E00411C0B4AB2F8002161F3AD
:104F60000E020949A1F800210C5409E00648B0F8E6
:104F7000000120F4004000F500400349A1F80001C1
:104F800010BD0000004C0040962A00206401002063
:104F90006201002012480078E8B11248006820B988
:104FA0001148006800680F4908600F4800680068F1
:104FB0000C490968401A142810D10C48B0F80001B7
:104FC00020F4004000F500400849A1F8000100204D
:104FD0000349087002E000200249086070470000A1
:104FE000620100206401002074010020962A002044
:104FF00070B505460E460EA000F058F8002410E0EB
:10500000295D0E48FFF75BFF00BF40210B48FFF70B
:1050100089FE0028F9D0295D09A000F047F8601C3E
:1050200084B2B442ECDB08A000F040F870BD000090
:10503000566F6963652053656E643A00004C00400A
:1050400025303278000000000D0A000010B504463B
:1050500021460620FFF740FF10BD000010B50848AC
:10506000407800280ADD06484078401E0449487010
:10507000497801EB41014800FFF7E8FF10BD00004F
:105080006001002010B50848407805280ADA064873
:105090004078401C04494870497801EB41014800C0
:1050A000FFF7D4FF10BD0000600100200FB438B539
:1050B00005A800900B48009A0499FBF769F90020B5
:1050C00000900848FBF7CFFA85B2002405E00549B7
:1050D000085DFFF795FD601C84B2AC42F7DB38BC7D
:1050E0005DF814FB983C002010B50446240300F042
:1050F0000FF900F0A7F800200B4908602020FFF707
:105100007BFBC4F30740FFF777FBC4F30720FFF7EF
:1051100073FBE0B2FFF770FB01200449C1F8900176
:1051200000F090F810BD00009001214200002142E3
:1051300008B501210420FFF78FFA1020ADF8000018
:105140008DF8030003208DF8020069460948FDF739
:1051500060F910210748FDF72FFA01200649086081
:10516000FFF704FB0020FFF763FB00F031F8034971
:10517000088008BD0008014090012142680100201C
:105180002DE9F04106460C46174600200F490860FD
:105190000320FFF731FBC4F30740FFF72DFBC4F3F7
:1051A0000720FFF729FBE0B2FFF726FB002505E00B
:1051B000FF20FFF721FB7055681C85B2BD42F7DB6D
:1051C000012002490860BDE8F08100009001214201
:1051D00010B5002400200E4908609020FFF70CFB5A
:1051E0000020FFF709FB0020FFF706FB0020FFF778
:1051F00003FBFF20FFF700FB44EA0024FF20FFF73A
:10520000FBFA044301200349C1F89001204610BD78
:10521000900121420000214210B5002400200749DE
:1052200008600520FFF7E8FAFF20FFF7E5FA0446DB
:1052300001200349C1F89001204610BD9001214290
:105240000000214210B500BFFFF7E6FF00F00100AB
:105250000028F9D110BD00002DE9F05F81460F460E
:105260001646DFF8A8B04FEA1738C7F30B0ACAF59D
:105270008054A64200DC344644E04FEA08314FF443
:1052800080525846FFF77CFF002508E00AEB050036
:105290001BF80000FF2800D003E0681C85B2A5427F
:1052A000F4DB00BFA54216DA4046FFF71DFF0025DC
:1052B00007E019F8050005EB0A010BF80100681C6E
:1052C00085B2A542F5DB4FEA08314FF480525846CB
:1052D00000F02EF804E022463946484600F028F84F
:1052E000A64200D10FE008F101084FF0000AA144E6
:1052F0002744301B86B2B6F5805F02DD4FF4805440
:1053000000E03446B9E700BFBDE8F09F982C0020CC
:1053100010B50020044908600620FFF76DFA01204F
:105320000249C1F8900110BD9001214200002142C4
:105330002DE9F04107460E461446F0B2C0F58075DF
:10534000AC4200DC254612E02A463146384600F0E1
:1053500013F8AC4200D10BE02F442E44601B84B202
:10536000B4F5807F02DD4FF4807500E02546EBE761
:1053700000BFBDE8F08100002DE9F04106460C4673
:105380001746FFF7C5FF00200F4908600220FFF70E
:1053900033FAC4F30740FFF72FFAC4F30720FFF7EF
:1053A0002BFAE0B2FFF728FA002504E0705DFFF762
:1053B00023FA681C85B2BD42F8DB0120024908606F
:1053C000FFF740FFBDE8F08190012142490050EA1B
:1053D000C12018BF04204A0D18BF40F0010040F260
:1053E000FF72B2EB515F08BF40F00200012808BF16
:1053F0000520704730380A2801D20120704700206C
:10540000704700BF7047000070B500251F48B0F816
:105410000004C00B002837D000201C49B1F800144C
:10542000C1F30E01194A505419A0FFF73FFE0024A2
:1054300006E01648015D1AA0FFF738FE601CC4B2F2
:105440001248B0F80004C0F30E00A042F1DC16A030
:10545000FFF72CFE1548007850B10C480078AA28B8
:1054600006D1002011490870012511A0FFF71EFE8A
:1054700006480078BB2803D1022514A0FFF716FECA
:1054800000200249A1F80004284670BDD41C002069
:105490004431313535205245563A0D0A000000009E
:1054A00025303258000000000D0A000014000020D2
:1054B0004431313535205465787420526563204677
:1054C000696E697368202E0D0A0000004431313581
:1054D000352054657874205363726F6C6C696E6705
:1054E0002046696E697368202E0D0A0070B500258C
:1054F00000265948B0F80004C00B002874D00020E2
:105500005549B1F80014C1F30E01534A505453A049
:10551000FFF7CCFD002406E04F48015D54A0FFF7E3
:10552000C5FD601C84B24C48B0F80004C0F30E0006
:10553000A042F1DC50A0FFF7B9FD47480078AA2847
:1055400074D1454840785528FAD1002406E04249F4
:10555000E01C085C3044C6B2601C84B23E488078CF
:10556000A042F4DCF1B23C4AE01C105C81426DD1F7
:105570001046C07881280AD01046C078C42806D0CA
:105580001146C878FDF77AF8142000F05DFC324827
:10559000C578C22D29D006DC812D09D0C02D11D0AF
:1055A000C12D51D114E0C32D36D0C42D4CD144E0CF
:1055B00029480079314948700846417830A0FFF702
:1055C00075FD42E02448017935A0FFF76FFD3CE00E
:1055D0002148007900F00800284988700846817841
:1055E00035A0FFF763FD30E034E039A0FFF75EFD42
:1055F00000240BE0201D1849095C2048C01C0155FF
:10560000015D38A0FFF752FD601C84B20A2CF1DB6B
:1056100019A0FFF74BFD18E00F480079022806D1CA
:10562000FFF730FD31A0FFF741FD05E00EE0FFF789
:1056300015FD33A0FFF73AFD07E001200F49087080
:1056400034A0FFF733FD00E000BF00BF0020024997
:10565000A1F80004284670BDE420002048616E6473
:105660005069656365205245563A0D0A00000000F6
:1056700025303258000000000D0A0000D62000201E
:105680005245432048616E645069656365205265E8
:1056900073706F6E6420253032580D0A00000000D0
:1056A00048616E645069656365204572726F72204F
:1056B000253032580D0A00004C6F747465727920E1
:1056C000537461746520253032580D0A00000000C3
:1056D0000D0A4C6F7474657279204F726465723A6A
:1056E000200000002530325820000000566F6C75F5
:1056F0006D654C6576656C202B20310D0A0000002D
:10570000566F6C756D654C6576656C202D20310D7E
:105710000A00000048616E64506965636520526547
:10572000616479204F4B0D0A0000000070B50446FB
:1057300000250BA10B48FBF731F820B10AA109485D
:10574000FBF72CF808B9002070BD064907A0FFF749
:10575000ADFC21460348FAF750FF05462846F3E71B
:105760000D0A0000F4240020000000004C36313007
:10577000205265633A25730D0A0000002DE9F047B9
:105780000027A848B0F80001C00B002875D0002001
:10579000A449B1F80011C1F30E01A24A5054A2A0CD
:1057A000FFF784FC002506E09E48415DA2A0FFF7BC
:1057B0007DFC681C85B29B48B0F80001C0F30E0068
:1057C000A842F1DC9EA0FFF771FC9648B0F80001FA
:1057D000C0F30E00401E9349085CEF2875D10846BF
:1057E000B0F80001C0F30E00801F85B2002619E05A
:1057F0000DB900241AE0701CC6B2082E0EDD002080
:105800008849A1F800010846B0F80001C0F30E0174
:105810008448FAF779FF0020BDE8F087681E85B25A
:10582000681C84B27F48405DEF28E1D100BF7D480D
:10583000005D7E2801D1601C84B27A48075D3F2F4D
:1058400075D010DC0C2F41D006DC012F1BD0022FAD
:1058500020D0062F6AD124E0162F3BD0392F40D01C
:105860003E2FF7D14FE0502F79D007DC422F6BD07D
:10587000432F7ED0492FEDD18FE0D1E0A52F70D0FE
:10588000A62FE7D1B7E06FA0FFF710FC0120724907
:105890000870C0E071A0FFF709FC01206E49087094
:1058A000B9E06049201D095C5E4AE01C105C01EB18
:1058B000002000F0FF0841466EA0FFF7F7FB06202E
:1058C00098FBF0F064494870A5E0A5E06EA0FFF7F2
:1058D000EDFBA0E072A0FFF7E9FB00205E49087035
:1058E00099E05049201D095C4E4AE01C105C01EB18
:1058F000002000F0FF08414670A0FFF7D7FB002012
:105900005549087087E04749201D095C454AE01C5D
:10591000105C01EB002000F0FF0841466FA0FFF78C
:10592000C5FB00204C49087075E000E072E03D497D
:10593000E01C11F80080201D11F800904A464146F5
:105940006EA0FFF7B3FB66E03649201D11F800801A
:10595000B8F1000F06D075A0FFF7A8FB05E029E01D
:1059600007E036E079A0FFF7A1FB3B4880F8008014
:1059700051E02C49201D095C2A4AE01C105C01EB17
:10598000002000F0FF0841467AA0FFF78FFB0620B9
:1059900098FBF0F0304948703DE02249E01C11F8D6
:1059A0000080201D11F800904A46414653A0FFF7A1
:1059B0007DFB30E01B49201D095C1A4AE01C105C8D
:1059C00001EB002000F0FF0841466FA0FFF76EFBDF
:1059D00021E01449201D095C124AE01C105C01EB17
:1059E000002000F0FF0841466EA0FFF75FFB01209A
:1059F000194908700FE00B49201D095C094AE01C99
:105A0000105C01EB002000F0FF0841466CA0FFF79E
:105A10004DFB00E000BF00BF00200249A1F80001DB
:105A20003846F9E6962A0020566F6963652052656C
:105A3000633A0D0A000000002530325820000000B3
:105A40000D0A0000506C6179204E65787420566F05
:105A50006963652E0D0A000060010020506C6179B9
:105A6000204265666F726520566F6963652E0D0A68
:105A70000000000053657420566F6C756D652069D9
:105A8000732025642E0D0A005265737461727420B0
:105A900054686973204465766963652E0D0A0000B9
:105AA000456E64696E6720506C6179204E6F772077
:105AB000566F6963652E0D0A000000004163653270
:105AC00020566F69636520256420506C61792046FB
:105AD000696E6973682E0D0A00000000416365312C
