:020000040800F2
:1000000040CB0020F58D000861040008630400085F
:10001000670400086B0400086F040008000000007B
:100020000000000000000000000000007304000851
:100030007504000800000000770400087904000837
:100040000F8E00080F8E00080F8E00080F8E00081C
:100050000F8E00080F8E00080F8E00080F8E00080C
:100060000F8E00080F8E00080F8E00080F8E0008FC
:100070000F8E00080F8E00080F8E00080F8E0008EC
:100080000F8E00080F8E00080F8E00080F8E0008DC
:100090000F8E00080F8E00080F8E00080F8E0008CC
:1000A0000F8E00080F8E00080F8E00080F8E0008BC
:1000B0000F8E00080F8E000835FC00080F8E000818
:1000C0000F8E00080F8E00080F8E00080F8E00089C
:1000D0000F8E00086B8D00080F8E00080F8E000831
:1000E0000F8E00080F8E00080F8E00080F8E00087C
:1000F0000F8E00080F8E00080F8E00080F8E00086C
:100100000F8E0008712600080F8E00080F8E000861
:100110000F8E00080F8E00080F8E00080F8E00084B
:100120000F8E00080F8E00080F8E00080F8E00083B
:1001300000F002F800F06BF80AA090E8000C82448E
:100140008344AAF10107DA4501D100F060F8AFF26B
:10015000090EBAE80F0013F0010F18BFFB1A43F0A5
:100160000103184794E00100B4E001000A444FF095
:10017000000C10F8013B13F0070408BF10F8014B06
:100180001D1108BF10F8015B641E05D010F8016B4B
:10019000641E01F8016BF9D113F0080F1EBF10F8AF
:1001A000014BAD1C0C1B09D16D1E58BF01F801CBD2
:1001B000FAD505E014F8016B01F8016B6D1EF9D555
:1001C0009142D6D37047000000230024002500266A
:1001D000103A28BF78C1FBD8520728BF30C148BFAA
:1001E0000B607047642911F0BD80752911F0BA8049
:1001F000782911F0F380632911F03984732911F003
:100200003E84002070471FB51FBD10B510BD11F012
:10021000AFFC1146FFF7F7FF00F099F811F0CDFCA5
:1002200003B4FFF7F2FF03BC08F044FD10B58EB035
:10023000282262A104A811F098FA6A4903C9CDE9FD
:10024000020169A0006801904FF47F0013F046F8A6
:1002500012F016FB654813F04DF84FF6FF7013F0DF
:100260003FF863A012F0E0FB644813F043F80A2063
:1002700013F06CF8FF2013F033F882234FF4FA7276
:1002800032214FF4967012F021FD32234FF4FA72AE
:1002900082214FF4967012F019FD002013F01EF821
:1002A0006FF07F4013F01CF8002013F061F8322249
:1002B000D10053A012F040FC042013F059F8422260
:1002C0004FF4C87152A012F037FC022013F050F81E
:1002D00052224FF4C87151A012F02EFC012013F0ED
:1002E00047F862224FF4C87150A012F025FC062096
:1002F00013F03EF872224FF4C8714FA012F01CFCAC
:10030000022013F035F800241DE06FF07F4012F05A
:10031000E7FF02A812F01AFD002012F0E1FF01A889
:10032000035D002202A904A812F020FCBDF8080019
:10033000463000B2ADF80800BDF80C00463000B2FF
:10034000ADF80C00641C032CDFDB0EB010BD08F010
:1003500041FC4FF4A06008F06DFD4FF4E13008F06F
:10036000B8FC3B4841684820884700F077F900F026
:100370009BF903F0FEF807F094FE00F0A5FA0020C8
:100380000BF00FF90121402009F0D7FB12F0B2FD6C
:100390000EF078FC2F49012208682FA10CF001FE15
:1003A0002C49012248682DA10CF0FBFDFFF73EFF10
:1003B00003E013F04DF812F025FAFAE75468697378
:1003C000206578616D706C652064656D6F73747203
:1003D00061746573207465787420777261707069D8
:1003E0006E670000D4950108000201006CD9010875
:1003F00048454C4C4F20574F52442100B4C6010889
:100400004755495F544D5F4E4F524D414C000000DF
:100410004755495F544D5F52455600004755495F67
:10042000544D5F5452414E53000000004755495F00
:10043000544D5F584F5200004755495F454D5F543A
:1004400052414E537C4755495F544D5F52455600CB
:10045000B0010020B0000020303A0000313A000026
:10046000704700BFFEE700BFFEE700BFFEE700BF2A
:10047000FEE7704770477047704700000CB50020DA
:10048000019000906C48006840F480306A49086030
:1004900000BF6948006800F4003000900198401CDB
:1004A0000190009818B90198B0F5A06FF1D1624899
:1004B000006800F4003010B10120009001E000203D
:1004C00000900098012843D15C48006840F010007B
:1004D0005A4908600846006820F003000860084692
:1004E000006840F002000860534840685249486084
:1004F0000846406848600846406840F480604860AC
:100500000846406820F47C1048600846406840F483
:10051000E81048600846006840F08070086000BF3E
:100520004548006800F000700028F9D04248406853
:1005300020F00300404948600846406840F002004F
:10054000486000BF3C48406800F00C000828F9D122
:100550000CBD10B5FFF792FF10BD10B5364800680E
:1005600040F00100344908600846406834490840BA
:100570003149486008460068324908402E49086001
:100580000846006820F4802008600846406820F48F
:10059000FE0048604FF41F008860FFF7DAFF4FF05D
:1005A00000602949086010BD10B50021002000221C
:1005B000214B5B6803F00C0121B1042906D0082906
:1005C00028D107E0214B224C236027E01F4B204C11
:1005D000236023E0184B5B6803F47010164B5B68D4
:1005E00003F48032022303EB904022B9194B4343BA
:1005F000174C23600DE0104B5B6803F4003323B10C
:10060000144B4343124C236003E0104B4343104C04
:10061000236003E00D4B0E4C236000BF00BF064B70
:100620005B68C3F303130C4CE15C094B1B68CB40C4
:10063000074C236010BD0000001002400020024063
:100640000000FFF8FFFFF6FE08ED00E000127A0060
:100650000000002000093D000400002008B5012131
:10066000482009F077FA2020ADF8000010208DF81E
:10067000030003208DF802006946094808F0AEFF28
:100680002021074809F057F82020ADF800006946FE
:10069000044808F0A3FF2021024809F04CF808BDE7
:1006A000000C01400018014008B50121442009F068
:1006B00051FA1820ADF8000048208DF80300694673
:1006C0002C4808F08BFF0120ADF8000028208DF8A1
:1006D00003006946284808F081FF08BD10B50446AC
:1006E00014B10120254908702448007858B310211E
:1006F000204809F006F850B108211E4809F001F819
:1007000028B101211C4808F0FCFF01281BD10A2058
:1007100008F09DFA0020194908701021154808F0CA
:10072000F0FF08B9012010BD0821124808F0E9FFC8
:1007300008B90220F7E701210F4808F0E2FF01287D
:1007400015D10320EFE710210A4808F0DAFF01284D
:100750000DD10821074808F0D4FF012807D1012155
:10076000054808F0CEFF10B90120044908700020A8
:10077000D9E70000001801400008014014000020E3
:1007800070B50546002405E0601CC4B2C82C01DD2C
:10079000002070BD02213A4809F08FFB0028F3D0F9
:1007A0002946374809F036FB002405E0601CC4B236
:1007B000C82C01DD0020ECE70121314809F07DFB68
:1007C0000028F3D02E4809F027FBC0B2E1E700B5BE
:1007D00087B00121082009F0BDF90121880309F043
:1007E000C6F94FF46040ADF8180018208DF81B00D2
:1007F00003208DF81A0006A9224808F0EFFE4FF4F6
:100800006041204808F097FF0020ADF804004FF445
:100810008270ADF806000020ADF808000220ADF8A7
:100820000A000120ADF80C004002ADF80E0038209F
:10083000ADF810000020ADF812000720ADF814004C
:1008400001A90F4809F010FA01210D4809F0B1FA89
:10085000FF20FFF795FF07B000BD10B5044608481C
:1008600000884FF6C771084005490880084600888F
:10087000204308800121024809F09BFA10BD0000C6
:1008800000380040000C014010B500240020D14980
:1008900008609020FFF774FF0020FFF771FF002031
:1008A000FFF76EFF0020FFF76BFFFF20FFF768FFE9
:1008B00044EA0024FF20FFF763FF04430120C649F8
:1008C000C1F8B001204610BD08B50121082009F08B
:1008D00041F94FF48050ADF8000010208DF803006E
:1008E00003208DF802006946BC4808F077FE4FF4FB
:1008F0008051BA4808F01FFF0120B6490860FFF791
:1009000066FF0020FFF7A9FFFFF7BEFFB44908808C
:1009100008BD10B500240020AE4908600520FFF78F
:100920002FFFFF20FFF72CFF04460120AA49C1F842
:10093000B001204610BD10B504460020A54908604E
:100940000120FFF71DFF2046FFF71AFF0120A249F3
:10095000C1F8B00110BD10B500209E490860062006
:10096000FFF70EFF01209C49C1F8B00110BD10B582
:100970000020984908600420FFF702FF01209649F3
:10098000C1F8B00110BD2DE9F04106460C461746EE
:100990000020904908600320FFF7F2FEC4F30740EF
:1009A000FFF7EEFEC4F30720FFF7EAFEE0B2FFF721
:1009B000E7FE002505E0FF20FFF7E2FE7055681C0A
:1009C00085B2BD42F7DB012082490860BDE8F081B5
:1009D00010B500BFFFF79DFF00F001000028F9D11E
:1009E00010BD2DE9F04106460C461746FFF7B3FF50
:1009F0000020784908600220FFF7C2FEC4F30740D8
:100A0000FFF7BEFEC4F30720FFF7BAFEE0B2FFF720
:100A1000B7FE002504E0705DFFF7B2FE681C85B2EA
:100A2000BD42F8DB01206B490860FFF7D1FFBDE84C
:100A3000F0812DE9F04107460E461446F0B2C0F5AC
:100A40008075AC4200DC254612E02A463146384625
:100A5000FFF7C7FFAC4200D10BE02F442E44601BD0
:100A600084B2B4F5807F02DD4FF4807500E0254646
:100A7000EBE700BFBDE8F08110B50446214659A060
:100A800010F014FC2403FFF766FFFFF7A1FF00201E
:100A9000504908602020FFF773FEC4F30740FFF7BA
:100AA0006FFEC4F30720FFF76BFEE0B2FFF768FEAE
:100AB00001204949C1F8B001FFF78AFF10BD2DE9B7
:100AC000F05F81460F461646DFF820B14FEA17382F
:100AD000C7F30B0ACAF58054A64200DC344644E052
:100AE0004FEA08314FF480525846FFF74CFF00257B
:100AF00008E00AEB05001BF80000FF2800D003E027
:100B0000681C85B2A542F4DB00BFA54216DA404658
:100B1000FFF7B2FF002507E019F8050005EB0A0111
:100B20000BF80100681C85B2A542F5DB4FEA0831DD
:100B30004FF480525846FFF77CFF04E022463946C6
:100B40004846FFF776FFA64200D10FE008F1010802
:100B50004FF0000AA1442744301B86B2B6F5805FEF
:100B600002DD4FF4805400E03446B9E700BFBDE831
:100B7000F09F10B5FFF7EFFEFFF72AFF00201549A1
:100B80000860C720FFF7FCFD01201349C1F8B00140
:100B9000FFF71EFF10BD10B500200E490860B920F8
:100BA000FFF7EEFD01200C49C1F8B001032008F069
:100BB0002AF810BD10B5002006490860AB20FFF7E9
:100BC000DFFD01200449C1F8B001032008F01BF843
:100BD00010BD0000B081214200802142000C014084
:100BE0001600002066653A25780D0A001C040020D6
:100BF00001460020012900D011B9FE4B197000E018
:100C0000262070470146FC4A506820F0FF00084348
:100C10005060704770B5044605E0F748456B05F035
:100C2000450000B100E0F8E700BF04200AF053FBE4
:100C300020B104200AF059FB032070BD01200AF006
:100C40004AFB20B101200AF050FB0120F5E7EA48F9
:100C50000069A04201D01020EFE740F2FF50E649C2
:100C600088630846406908210840C0B2E5E72DE9DD
:100C7000FC4107460D46002600240020009001900C
:100C80000820DE490860102048604020886000206D
:100C9000C8604FF48060086108460AF0A5FA102089
:100CA000FFF7B8FF044614B12046BDE8FC81D448E4
:100CB00000880004D14908603720486040208860DF
:100CC0000020C8604FF48060086108460AF08CFA82
:100CD0003720FFF79FFF04460CB12046E5E74FF0B1
:100CE000FF30C84908600820486030208860022032
:100CF000C860002008610120486108460AF09DFA9A
:100D00000020BE49086033204860402088600020F1
:100D1000C8604FF48060086108460AF065FA332025
:100D2000FFF778FF04460CB12046BEE70CE04FF415
:100D300000100AF0D0FA38B10AF0A1FA4DF82600F6
:100D4000761C022E00D306E0AB48406B40F22A61CD
:100D500008400028EBD000BF08200AF0BCFA20B100
:100D600008200AF0C2FA04209FE702200AF0B3FA32
:100D700020B102200AF0B9FA022096E720200AF0FA
:100D8000AAFA20B120200AF0B0FA06208DE74FF42D
:100D900000700AF0A0FA28B14FF400700AF0A5FA2A
:100DA000072082E740F2FF500AF09FFA0098000601
:100DB000009901F47F4140EA0120009901F47F018C
:100DC00040EA1120009940EA11606860019800062D
:100DD000019901F47F4140EA0120019901F47F016A
:100DE00040EA1120019940EA1160286020465CE742
:100DF0007CB50546002400200090019000260DB12E
:100E0000022600E000267C48406900F0007008B12E
:100E10000E207CBD7A49098888B26946FFF727FF12
:100E200004460CB12046F4E7019800F4802060B33A
:100E300073480088000471490860372048604020EA
:100E400088600020C8604FF48060086108460AF09E
:100E5000CBF93720FFF7DEFE04460CB12046D8E779
:100E6000664806600620654948604020886000208A
:100E7000C8604FF48060086108460AF0B5F90620A2
:100E8000FFF7C8FE04462046C3E72520C1E770B53A
:100E9000044600255C480078032801D1272070BD56
:100EA0005948007838B158480078012803D056488E
:100EB0000078022818D1022C01D32720EFE7E0B2F6
:100EC000FFF796FF05467DB94B48406820F4C050B7
:100ED0004949486008464068A1B240EAC1204649F5
:100EE00048600846406848602846D8E710B5044680
:100EF0004248046007204149486040208860002043
:100F0000C8604FF48060086108460AF06DF9072058
:100F1000FFF780FE10BDF0B50146002000223A4BDD
:100F20001B7881F85630364B1B88A1F85430374B6C
:100F30001B681A0E93090B70C2F383034B7002F007
:100F400003038B70314B1B68C3F30742CA702F4BEE
:100F50001B88C3F307220A712C4B1A784A715B680D
:100F60001A0E1301CB80294B5B68C3F30742CB8871
:100F700043EA1213CB8002F00F030B72234B9B88C2
:100F8000C3F30722D3094B72C2F380138B72C2F3EF
:100F90004013CB72C2F300130B7300234B731A4B35
:100FA0001B783BB1184B1B78012B03D0164B1B78D9
:100FB000032B5ED193071B0D0B61144B1A790B6940
:100FC00043EA82030B61114B9B681A0E0B6943EADB
:100FD00092130B61C2F3C2030B7502F007034B754A
:100FE0000A4B9B68C3F3074253098B75C2F3820314
:100FF000CB750DE020000020008001403814002057
:101000001C0000204C140020180000206414002054
:1010100093075B0F0B76F74B1B89C3F307220B7EFD
:1010200043EAD2130B760B695B1C0024C1E912342E
:101030000B7E9B1C012404FA03F3DC17D1E9125642
:10104000A5FB037C06FB03C305FB0433C1E9127354
:101050000C7A0123A3400B650024D1E912650B6DC6
:10106000A6FB037C05FB03C306FB0433C1E9127333
:101070002EE0E14B1B78022B2AD1DE4B1A79930626
:101080009B0A0B61DB4B9B681A0E0B6943EA022338
:101090000B61D84B9B68C3F307420B6913430B6189
:1010A000D44B1B89C3F307220B695B1C4FF40074FC
:1010B000A3FB04464FF480630025A4FB037C06FBDE
:1010C00003C304FB0533C1E912734FF400730B65CE
:1010D000C2F3801301F8193F93065B0E4B70C54BAA
:1010E0001A7A4B7843EAD2134B7002F07F038B706D
:1010F000C04BDB681A0ED309CB70C2F341130B71DE
:10110000C2F382034B7193071B0F8B71B94BDB68E2
:10111000C3F307428B7943EA92138B71C2F34013F6
:10112000CB7100230B7202F001034B72B14B9B8910
:10113000C3F30722D3098B72C2F38013CB72C2F3BD
:1011400040130B73C2F300134B73C2F381038B7311
:1011500002F00303CB73A74B1A7B53080B740123D4
:101160004B74A64B1B681A0ECA741939A34B1B6823
:10117000C3F307421402CC85A04B1B88C3F307229C
:10118000CB8D1343CB859D4B1A7814060C635B689B
:101190001A0E0B6B43EA02440C63984B5B68C3F373
:1011A00007420B6B43EA02240C63944B9B88C3F306
:1011B00007220B6B13430B63904B1A7934235A5459
:1011C0008E4B9B681A0E35235A548C4B9B68C3F385
:1011D000074214068C63894B1B89C3F307228B6B70
:1011E00043EA02448C63854B1A7A8B6B43EA0224F0
:1011F0008C63824BDB681A0E8B6B13438B637F4BC4
:10120000DB68C3F307423C235B5C43EA12143C23D4
:101210005C5413071C0DCC87784B9B89C3F30722C2
:10122000CB8F1343CB87754B1A7B540840235C54F8
:10123000012441235C54F0BD70B500264FF4803585
:1012400005E06F48446B04F0450000B103E028005E
:10125000A5F10105F5D100BF15B104F0040028B1D6
:10126000032604200AF041F8304670BD01200AF040
:1012700032F818B1012601200AF037F840F2FF5089
:101280000AF033F83046F0E72DE9F04105460E4606
:101290004FF0000805E05A48476B07F0450000B1E1
:1012A00000E0F8E700BF04200AF015F828B1042098
:1012B0000AF01BF80320BDE8F08101200AF00BF8CA
:1012C00020B101200AF011F80120F4E74C48006930
:1012D000A84201D01020EEE740F2FF500AF005F8D6
:1012E0004748446904F4604018B9200C30804046F7
:1012F000E1E704F4005008B11320DCE704F4804077
:1013000008B11020D7E704F4004008B10F20D2E75D
:101310004046D0E738B500240120009009F04FFF87
:1013200008B9252038BD34480078042821D0002091
:101330003449086002204860C02088600020C860EE
:101340004FF480600861084609F04EFFFFF774FF14
:1013500004460CB12046E5E7294840692749086062
:101360002748806948602648C06988602448006A28
:10137000C8602148007858B11F480078012807D07C
:101380001D480078062803D01B480078022816D193
:1013900000201C490860032048604020886000202D
:1013A000C8604FF480600861084609F01DFF694677
:1013B0000320FFF769FF04460CB12046B2E70E4850
:1013C0000078032820D1BDF8000000040D49086012
:1013D00003204860402088600020C8604FF480608F
:1013E0000861084609F000FFFFF726FF04465CB1DC
:1013F000204697E764140020180000207414002091
:101400000080014038140020FE480078042827D0CE
:10141000BDF80000FC490860BDF800000004FB496D
:10142000086009204860C02088600020C8604FF430
:1014300080600861084609F0D7FEFFF7FDFE04460C
:101440000CB120466EE7F2484069F2490860F04866
:1014500080694860EE48C0698860ED48006AC860ED
:1014600000205FE710B505E0E948446B04F0450053
:1014700000B100E0F8E700BF042009F02CFF20B124
:10148000042009F032FF032010BD40F2FF5009F0A4
:101490002CFF0020F8E770B500264FF4803505E0FA
:1014A000DB48446B04F0450000B103E02800A5F1DF
:1014B0000105F5D100BF15B104F0040028B10326E1
:1014C000042009F012FF304670BD04F0400018B14E
:1014D0000026402009F009FF3046F5E770B50025E9
:1014E0004FF4803404E0802009F0F5FE00B103E001
:1014F0002000A4F10104F6D100BF0CB9032070BD97
:1015000040F2FF5009F0F1FE2846F8E72DE9F047D8
:101510000027002400260025A046A146B220BE498F
:1015200008750020086048608860C8600861084647
:1015300009F01AFE032009F037FE012009F031FE00
:1015400000BF12E00020B149086048608860C860B0
:101550004FF480600861084609F046FEFFF7BEFFC1
:10156000044604B903E0781CC7B24A2FEADB00BF87
:1015700014B12046BDE8F0874FF4D570A349086048
:1015800008204860402088600020C8604FF48060D8
:101590000861084609F028FEFFF77DFF044624B9DC
:1015A0000120984908704FF0804900209749086051
:1015B00037204860402088600020C8604FF4806079
:1015C0000861084609F010FE3720FFF723FB0446A8
:1015D000002C4BD134E000208C4908603720486053
:1015E000402088600020C8604FF480600861084691
:1015F00009F0FAFD3720FFF70DFB04460CB1204639
:10160000B8E7864849EA0000804908602920486018
:10161000402088600020C8604FF480600861084660
:1016200009F0E2FDFFF71EFF04460CB12046A1E7DA
:1016300077484669012080EAD67080F001086D1C69
:10164000B8F1000F03D14FF6FF708542C3D34FF6B8
:10165000FF70854202D31B2420468BE706F08040B2
:10166000060032D00220674908702EE01CE06C486A
:101670006649086001204860402088600020C860FA
:101680004FF480600861084609F0AEFDFFF7EAFEFE
:1016900004460CB120466DE75D484669012080EAAA
:1016A000D67080F001086D1CB8F1000F03D14FF621
:1016B000FF708542DBD34FF6FF70854202D31B24B7
:1016C000204657E703204F490870204652E77CB573
:1016D000002500240121302008F03CFA012140F2CD
:1016E000024008F02AFA4FF4F850ADF80000182034
:1016F0008DF8030003208DF802006946494807F081
:101700006DFF0420ADF8000018208DF803000320C1
:101710008DF802006946444807F060FF8020ADF86C
:10172000000048208DF8030003208DF80200694670
:101730003D4807F053FF09F009FD31208DF8040002
:1017400000208DF805008DF8060001208DF80700B7
:1017500001A807F074FBFFF7D9FE044614B9FFF7A0
:10176000D9FD04461CB93148FFF7D5FB044634B90E
:101770002E49B1F854100804FFF7B8FB04461CB911
:101780000120FFF784FB04461CB11E4800780328A3
:1017900012D1264890F8560020B1244890F85600FF
:1017A000012801D10A2500E004252846FFF72AFA7E
:1017B0000020FFF71DFA044620467CBD10B500202E
:1017C00009F0F2FC002010BD70B58CB006460C4646
:1017D00015460121022008F0B0F9154809F0A0FDD6
:1017E0000021134809F069FE0948803001900296F3
:1017F0000395A008049000200590802006908000AA
:10180000079017E0180000201C000020381400206A
:10181000008001406414002020140020000010808B
:101820000080FF8000100140001401408814002057
:101830004404024080000890002009904FF40050BA
:101840000A9000200B9001A9FA4809F00BFE002134
:10185000F84809F032FE0CB070BD0146002002E0ED
:101860004910421CD0B20129FAD170472DE9F84F36
:101870008146174698460A9C4FF0000AD3464D46CB
:101880004FF0FF36B9F1000F02D12620BDE8F88FE6
:101890000020E949C862E9480078022805D104021D
:1018A000780A40EAC8574FEA68280020E44988606F
:1018B0004860401E0860012048610020C86008613F
:1018C000084609F0BAFCDC48406900F0007008B135
:1018D0000E20DBE7002C21DDB4F5006F1EDC601E5E
:1018E0002040D8B92046FFF7B8FF0090D5480460E3
:1018F0001020D4494860402088600020C8604FF420
:1019000080600861084609F06FFC1020FFF782F93B
:101910008246BAF1000F03D05046B7E72620B5E75C
:1019200000980001C6498860084644604FF0FF30C7
:101930000860012048610220C86000200861084654
:1019400009F07BFCBF4807601120BE494860402079
:1019500088600020C8604FF480600861084609F084
:1019600043FC1120FFF756F98246BAF1000F01D06F
:1019700050468BE7B448007800285AD107F096F912
:1019800018E04FF4004009F0A6FC78B14FF0000BCE
:1019900006E0A9488030006845F82B000BF1010BE8
:1019A000BBF1080FF5D32035A84E03E00EB9042093
:1019B0006CE7761EA048406B40F22A610840002880
:1019C000DFD0082009F087FC20B1082009F08DFC49
:1019D00004205BE7022009F07EFC20B1022009F020
:1019E00084FC022052E7202009F075FC20B1202061
:1019F00009F07BFC062049E74FF4007009F06BFC0E
:101A000028B14FF4007009F070FC07203EE703E0B6
:101A100009F035FC28602D1D4FF4001009F05BFC27
:101A20000028F5D107F044F940F2FF5009F05DFCC1
:101A300032E08548007801282ED100222146484610
:101A4000FFF7C2FE0020824908708249087082496F
:101A500008707948C06B40F22A3108437649C86360
:101A6000012009F0BEFB00E0761E72484438006891
:101A700000F4005038B97848007820B974480078EC
:101A800008B9002EF0D10EB90420FFE670480078A6
:101A900010B16F4890F800A05046F7E62DE9FF5FBF
:101AA00017469846DDE90E464FF00009CA464FF04A
:101AB000FF356A490098086000205F49C8625F48A6
:101AC0000078022805D10402780A40EAC8574FEA94
:101AD000682800205A4988604860401E086001203C
:101AE00048610020C8600861084609F0A6FB52481A
:101AF000406900F0007018B10E2004B0BDE8F09FFE
:101B0000002C21DDB4F5006F1EDC601E2040D8B92A
:101B10002046FFF7A2FE83464A4804601020494948
:101B20004860402088600020C8604FF480600861F1
:101B3000084609F059FB1020FFF76CF88146B9F10F
:101B4000000F03D04846D8E72620D6E7012E70D9EB
:101B500006FB04F0B0F1007F01D32620CDE74FEA69
:101B60000B103749886006FB04F048604FF0FF30E7
:101B70000860012048610220C86000200861084612
:101B800009F05BFB2F48076012202E494860402077
:101B900088600020C8604FF480600861084609F042
:101BA00023FB1220FFF736F88146B9F1000F01D070
:101BB0004846A2E72448007800287DD107F076F84F
:101BC0001EE04FF4004009F086FBA8B14FF0000A78
:101BD00008E01948803000682049096841F82A0067
:101BE0000AF1010ABAF1080FF3D31C48006820304B
:101BF0001A490860154D03E00DB904207DE76D1EFC
:101C00000D48406B40F22A3108400028D9D0082006
:101C100009F061FB20B1082009F067FB04206CE7A4
:101C2000022009F058FBD8B1022009F05EFB022027
:101C300063E7A4E044040240008001401800002053
:101C40004C1400203814002020000020FFFF7F00EB
:101C5000220000202100002023000020240000207A
:101C6000202009F038FB20B1202009F03EFB06209F
:101C700043E74FF4007009F02EFB28B14FF40070D9
:101C800009F033FB072038E709E009F0F8FAFA49D0
:101C900009680860F8480068001DF74908604FF4BB
:101CA000001009F018FB0028EFD14FF4807009F004
:101CB00012FB20B3F14800E028E0007838B1EF488B
:101CC0000078012803D0ED480078022817D10020C1
:101CD000EB4908600C204860402088600020C86004
:101CE0004FF480600861084609F07EFA0C20FEF788
:101CF00091FF8146B9F1000F01D04846FDE606F09C
:101D0000D7FF40F2FF5009F0F0FA38E0DD480078E4
:101D1000012834D106FB04F100220098FFF754FD9E
:101D20000020D94908700120D84908700020D849FE
:101D30000870D848C06B40F22A310843D549C863BF
:101D40000846C06A40F00800C86200E06D1ED24834
:101D5000006800F4005008B9002DF7D10DB9042037
:101D6000CBE600BFCA48007818B9C74800780028F9
:101D7000F8D0C548007810B1C34890F800904846A4
:101D8000BBE61CB50446002001900090C3480088C3
:101D90000004BB4908600D20486040208860002096
:101DA000C8604FF480600861084609F01DFAB94820
:101DB000406B009002E0B748406B0090009800F044
:101DC00045000028F7D0012009F085FA20B1012054
:101DD00009F08BFA01201CBD042009F07CFA20B127
:101DE000042009F082FA0320F5E7AA4800690D28CB
:101DF00001D01020EFE740F2FF5009F076FAA54835
:101E0000406901900198C0F3432020700020E2E770
:101E10002DE9FF5F86B017469846149D00260020E6
:101E2000059004900024814603908246029001951B
:101E3000DDF818B0DDF818B0BBF1000F03D1262093
:101E40000AB0BDE8F09F00209249C86294498860BA
:101E50004860401E0860012048610020C860086199
:101E6000084609F0EAF98B48406900F0007008B1B3
:101E70000E20E5E781480078022805D10502780A9E
:101E800040EAC8574FEA6828002D1FDDB5F5006FFE
:101E90001CDC681E2840C8B92846FFF7DEFC059008
:101EA000774805601020764948604020886000200F
:101EB000C8604FF480600861084609F095F9102069
:101EC000FEF7A8FE06461EB13046B9E72620B7E762
:101ED0007248008800046A4908600D20486040206C
:101EE00088600020C8604FF480600861084609F0EF
:101EF0007BF90D20FEF78EFE06460EB130469FE7B9
:101F00006448406903904FF0FF341BE0641E63484F
:101F1000008800045A4908600D204860402088600D
:101F20000020C8604FF480600861084609F05CF941
:101F30000D20FEF76FFE06460EB1304680E755488D
:101F400040690390039800F4807008B9002CDDD13B
:101F50000CB9292074E74A480760182048494860AE
:101F6000402088600020C8604FF480600861084607
:101F700009F03AF91820FEF74DFE06460EB130463C
:101F80005EE70020414908700598000144498860D7
:101F9000084645604FF0FF3008600120486100208E
:101FA000C8600861084609F048F94FF0FF34354829
:101FB000007800285FD106F079FE43E04FF48040BE
:101FC00009F089F9C8B30198A0EB0900202821D2B3
:101FD0000198A0EB090000F0030020B90198A0EBE4
:101FE0000900800804E00198A0EB09008008401C6B
:101FF00002904FF0000A09E0DBF8000009F043F915
:102000000AF1010A0BF1040B09F104090298824557
:10201000F2D30FE04FF0000A05E05BF82A0009F068
:1020200032F90AF1010ABAF1080FF6D30BF1200BCD
:1020300009F120096FF0404404E0FFE70CB90420E7
:10204000FEE6641E1348406B40F21A610840002807
:10205000B4D0082009F03FF920B1082009F045F973
:102060000420EDE6022009F036F9D8B1022009F08B
:102070003CF90220E4E630E02400002018000020B3
:102080003814002020000020220000202100002021
:102090002300002000800140000402401C000020BA
:1020A0004C140020102009F016F920B1102009F07E
:1020B0001CF90520C4E64FF4007009F00CF928B1B2
:1020C0004FF4007009F011F90720B9E606F0F0FDB1
:1020D00040F2FF50FC4988633EE0FC48007801284C
:1020E0003AD1102229460698FFF76EFB0020F849E6
:1020F0000870F8490870F8490870F348C06B40F25E
:102100001A310843F049C8630846C06A40F0080025
:10211000C86200E0641EF148006800F4005008B98D
:10212000002CF7D11CB9FFF7D2FA042088E64FF053
:10213000FF3400E0641EE848007820B9E4480078E5
:1021400008B9002CF6D10CB9042079E6E0480078F3
:1021500010B1DF48007873E640F2FF5009F0C5F88F
:1021600004A8FFF70EFE064603E004A8FFF709FEE9
:1021700006463EB99DF810000728F6D09DF81000DD
:102180000628F2D030465BE62DE9FF5F84B0DDE93A
:1021900012470026002003900290002580468146C9
:1021A000019007FB04FBDDF810A0DDF810A0BAF1E8
:1021B000000F03D1262008B0BDE8F09F0020C249DF
:1021C000C862C74988604860401E086001204861B5
:1021D0000020C8600861084609F02FF8BA48406935
:1021E00000F0007008B10E20E5E7BE480078022834
:1021F00008D10402DDE90601400A40EAC150491253
:10220000CDE90601002C1FDDB4F5006F1CDC601E5B
:102210002040C8B92046FFF720FB0390B248046075
:102220001020B1494860402088600020C8604FF409
:1022300080600861084608F0D7FF1020FEF7EAFC2E
:1022400006461EB13046B6E72620B4E7012F6FD907
:1022500007FB04F0B0F1007F01D32620ABE7A148D3
:10226000007838B19F480078012803D09D48007855
:1022700002282DD19D48008800049B490860372022
:102280004860402088600020C8604FF4806008618A
:10229000084608F0A9FF3720FEF7BCFC06460EB141
:1022A000304688E79048076017208F4948604020F3
:1022B00088600020C8604FF480600861084608F01C
:1022C00093FF1720FEF7A6FC06460EB1304672E7D4
:1022D00085490698086019204860402088600020E1
:1022E000C8604FF480600861084608F07DFF19203F
:1022F000FEF790FC06460EB130465CE703980001FD
:102300007749886007FB04F048604FF0FF300860B1
:10231000012048610020C8600861084608F08DFF70
:102320006A480078002871D1451E06F0BFFC40E0E5
:10233000F3E06548406B00F48040A8B3ABEB0800C5
:1023400020281ED2ABEB080000F0030018B9ABEB5D
:102350000800800803E0ABEB08008008401C0190F7
:102360004FF0000909E0DAF8000008F08CFF09F1ED
:1023700001090AF1040A08F1040801988145F2D321
:102380000FE04FF0000905E05AF8290008F07BFF44
:1023900009F10109B9F1080FF6D30AF1200A08F191
:1023A00020086FF0404504E0FFE70DB9042002E784
:1023B0006D1E4548406B40F21A3108400028B8D0E5
:1023C000082008F088FF20B1082008F08EFF0420C4
:1023D000F1E6022008F07FFF20B1022008F085FF1F
:1023E0000220E8E6102008F076FF20B1102008F067
:1023F0007CFF0520DFE64FF4007008F06CFF30B181
:102400004FF4007008F071FF0720D4E62CE04FF481
:10241000807008F060FF00B33248007838B131486E
:102420000078012803D02F480078022815D1002019
:102430002D4908600C204860402088600020C8605A
:102440004FF480600861084608F0CEFE0C20FEF7CD
:10245000E1FB06460EB13046ADE606F029FC40F23F
:10246000FF5008F042FF58E018480078012854D186
:1024700007FB04F110220498FFF7A6F90020144985
:1024800008700120134908700020134908700E4895
:10249000C06B40F21A3108430B49C8630846C06A52
:1024A00040F00800C8624FF0FF3500E06D1E0B4899
:1024B000006800F4005008B9002DF7D1C5B9FFF746
:1024C00006F9042077E6000000800140200000208B
:1024D00022000020210000202300002000040240F0
:1024E0004C14002018000020381400201C0000208C
:1024F0004FF0FF3500E06D1EC248007820B9C24899
:10250000007808B9002DF6D10DB9042053E6BE4875
:10251000007810B1BC4800784DE640F2FF5008F05A
:10252000E4FE02A8FFF72DFC064603E002A8FFF731
:1025300028FC06463EB99DF808000728F6D09DF80D
:1025400008000628F2D0304635E610B5AF48406B9B
:1025500000F4807070B3AE480078012814D10020D8
:10256000AC4908600C204860402088600020C860AA
:102570004FF480600861084608F036FE0C20FEF734
:1025800049FBA149087002E000209F4908709F485C
:10259000806B40F480709D4988630846C06B4CF2A4
:1025A0003A3188439949C863012096490870964892
:1025B000007810BD022008F08EFE68B1022008F0FD
:1025C00094FE9248C06B4CF23A3188438F49C863FD
:1025D00002208D490870ECE7082008F07CFE68B105
:1025E000082008F082FE8948C06B4CF23A318843DB
:1025F0008649C863042084490870DAE7202008F07F
:102600006AFE68B1202008F070FE8048C06B4CF272
:102610003A3188437D49C86306207B490870C8E782
:10262000102008F058FE68B1102008F05EFE7748D0
:10263000C06B4CF23A3188437449C8630520724933
:102640000870B6E74FF4007008F045FE70B14FF423
:10265000007008F04AFE6D48C06B4CF23A31884376
:102660006A49C863072068490870A2E70020A0E70C
:1026700010B5FFF76AFF10BD70B50446002514B908
:102680002625284670BD644800880004614908601A
:102690000D204860402088600020C8604FF48060B2
:1026A0000861084608F0A0FD0D20FEF7B3FA0546C4
:1026B0000DB12846E6E75548406920602846E1E725
:1026C00008B5002000906846FFF7D6FF08B1FF204C
:1026D00008BD0098C0F34320FAE72DE9FE4F83467A
:1026E0000C46914600200290002625462C4670029A
:1026F00040EAD5566D020BF00300F0B14FF0000A2E
:1027000018E04FF4007000904FEA4A20471946EB5A
:10271000E0733A464148FFF7A9F802904FF400727F
:102720003E4958460EF09AFF0BF5007B0AF1010076
:1027300000F0FF0ACA45E4DB16E0B9F1010F09D148
:102740004FF400702A46334600905846FFF78EF843
:10275000029009E04FF400702A463346CDE90009A3
:102760005846FFF79BF902900298BDE8FE8F2DE9CD
:10277000FE4F81460C4692460020029000262546D8
:102780002C46700240EAD5566D0209F00300F0B104
:102790004FF0000B18E04FF4007249461F480EF04E
:1027A0005DFF4FF4007000904FEA4B20471946EB55
:1027B000E0733A461948FFF72BFB029009F50079C0
:1027C0000BF1010000F0FF0BD345E4DB16E0BAF19A
:1027D000010F09D14FF400702A4633460090484655
:1027E000FFF716FB029009E04FF400702A463346CB
:1027F000CDE9000A4846FFF7C7FC02900298BDE801
:10280000FE8F0000230000202200002000800140F5
:1028100021000020381400201C000020E0140020BB
:10282000F74908807047F649891C0880704708B549
:10283000F348801C00880090BDF8000008BDF04AF5
:102840001080921C1180704710B504462046FFF797
:10285000E7FF052006F0D7F9FFF7E9FF10BDE948CB
:102860000089E74908807047E549891C088070475E
:1028700030B5014601F01F04C1F34513CA0AE50251
:1028800005EB43151544A8B230BD00BF0100A0F10F
:102890000102D0B2FAD1704710B503460C46D948B0
:1028A000808849F24131884205D0D648808845F277
:1028B0001031884214D1D3494889FFF7B1FF18126B
:1028C000FFF7B1FFD8B2FFF7AEFFCE498889FFF717
:1028D000A7FF2012FFF7A7FFE0B2FFF7A4FFABE0CE
:1028E000C848808846F6040188421DD1C5488079D1
:1028F000012804D1C3480088401EC01A83B2C149D0
:102900004889FFF78DFF1812FFF78DFFD8B2FFF748
:102910008AFFBC498889FFF783FF2012FFF783FFF6
:10292000E0B2FFF780FF87E0B648808841F6631188
:10293000884247D1B3488079A8B9B2480088401E80
:10294000C01A83B2AF494889FFF76AFF0020FFF73A
:102950006AFF0020FFF767FF1812FFF764FFD8B285
:10296000FFF761FF16E0A7494889FFF759FF1812E2
:10297000FFF759FFD8B2FFF756FFA2490988491E51
:10298000C1F30F20FFF74FFF9E490978491EC8B2D7
:10299000FFF749FF9B498889FFF742FF2012FFF7A5
:1029A00042FFE0B2FFF73FFF96494988491EC1F355
:1029B0000F20FFF738FF93498978491EC8B2FFF707
:1029C00032FF39E08F48808845F21051884220D18B
:1029D0008C494889FFF724FF1812FFF724FF894923
:1029E0004989491C88B2FFF71BFFD8B2FFF71BFFCC
:1029F00084498889FFF714FF2012FFF714FF8149EB
:102A00008989491C88B2FFF70BFFE0B2FFF70BFF83
:102A100012E07C488079012804D17A480088401E61
:102A2000C01A83B2774948891946FFF708FF7549EC
:102A300088892146FFF703FF10BD2DE9F0410546C7
:102A40000E4600240027A0466E480088A84203DDF9
:102A50006C484088B04202DC0020BDE8F08131467D
:102A60002846FFF719FF6748808849F241318842BC
:102A700011D06448808846F6040188420BD0614832
:102A8000808845F21031884205D05E48808841F642
:102A90006311884203D12E20FFF7C2FE0DE0594892
:102AA000808845F21051884204D14FF43850FFF726
:102AB000B7FE02E02220FFF7B3FE5248808849F2B9
:102AC0002031884202D10220FFF7DFFEFFF7AFFE80
:102AD00004464C48808841F66311884201D1204663
:102AE000BBE70220FFF7D1FEFFF7A1FE04464548F1
:102AF000808849F2413188420BD04248808845F2B3
:102B00001031884205D03F48808845F210518842F4
:102B10000AD10220FFF7B9FEFFF789FE8046E7B22F
:102B20004FF6FF7000EA07273648808849F22531C2
:102B3000884216D03348808844F23551884210D0FC
:102B400030488088091F88420BD02E4880884BF27D
:102B50000551884205D02B4880884CF205518842A7
:102B600001D1204679E72748808849F241318842DF
:102B70000BD02448808845F21031884205D0214886
:102B8000808845F21051884207D1E012C002B91284
:102B900040EA411040EAE8205FE72046FFF768FE80
:102BA0005BE700B51748808849F24131884211D06F
:102BB0001448808846F6040188420BD0114880886A
:102BC00045F21031884205D00E48808841F66311E5
:102BD000884203D12920FFF723FE0FE009488088AF
:102BE00045F21051884204D14FF42450FFF718FEEB
:102BF00004E040F273110720FFF721FE00BD000042
:102C0000FE07006CE016002000B5FD48808849F200
:102C10004131884211D0FA48808846F60401884242
:102C20000BD0F748808845F21031884205D0F4482F
:102C3000808841F66311884203D12820FFF7F0FD18
:102C40000EE0EF48808845F21051884204D14FF4DD
:102C50002050FFF7E5FD03E000210720FFF7EFFD1F
:102C600000BD70B5044600230026E54880790128A0
:102C70000BD1E348808846F60401884205D0E0483D
:102C8000808841F66311884208D1DD488079F0B927
:102C9000DB48808841F66311884218D1082C15D290
:102CA000DFE804F00406080A0C0E101206240DE0FA
:102CB00007240BE0042409E0052407E0012405E0D3
:102CC000002403E0032401E0022400BF00BFCC483D
:102CD000808849F24131884217D0C948808846F639
:102CE0000401884211D0C648808845F210318842DC
:102CF0000BD0C348808845F21051884205D0C048A7
:102D0000808841F6631188427ED1082C1CD2DFE80E
:102D100004F00406090C0F12151800BF14E043F06C
:102D2000800311E043F040030EE043F0C0030BE0EA
:102D300043F0200308E043F0600305E043F0A00304
:102D400002E043F0E00300BF00BFAD48808845F2D9
:102D50001051884202D14FF4585600E03626A84858
:102D6000808845F2103188420DD0A548808845F210
:102D70001051884207D0A248808841F663118842EA
:102D800001D043F008039E48808846F6040188423B
:102D900001D143F0020319463046FFF750FD984831
:102DA000808841F6631188421DD003F0200068B18D
:102DB0009348008892494988884214DA90480588E7
:102DC00040888F490880084645800CE08C48008880
:102DD0008B494988884206DD8948058840888849AA
:102DE0000880084645808648808845F21051884210
:102DF00054D183494889FFF713FD0020FFF713FDE5
:102E00007F494989491C00E077E088B2FFF708FD57
:102E10000020FFF708FD7A494989891C88B2FFF72D
:102E2000FFFC77490988491EC1F30F20FFF7FBFC1F
:102E300073494989C91C88B2FFF7F2FC70490978C7
:102E4000491EC8B2FFF7EFFC6D498889FFF7E8FC1F
:102E50000020FFF7E8FC6A498989491C88B2FFF71E
:102E6000DFFC0020FFF7DFFC65498989891C88B2F7
:102E7000FFF7D6FC62494988491EC1F30F20FFF7CE
:102E8000D2FC5F498989C91C88B2FFF7C9FC5C493B
:102E90008978491EC8B2FFF7C6FC55E058494889F1
:102EA000FFF7BEFC0020FFF7BEFC0020FFF7BBFCD5
:102EB00053490988491EC1F30F20FFF7B4FC50495C
:102EC0000978491EC8B2FFF7AEFC4D498889FFF763
:102ED000A7FC0020FFF7A7FC0020FFF7A4FC48494F
:102EE0004988491EC1F30F20FFF79DFC44498978AA
:102EF000491EC8B2FFF797FC26E0082C1CD2DFE879
:102F000004F004070A0D0F12151843F0300313E004
:102F100043F0100310E043F020030DE000BF0BE08E
:102F200043F0380308E043F0280305E043F01803BA
:102F300002E043F0080300BF00BF032643F48053C0
:102F400019463046FFF77BFC70BD30B504460D4690
:102F500029462046FFF7A0FCFFF781FC294800889E
:102F60002949088030BD30B503460C461546244833
:102F7000808849F24131884205D02148808845F255
:102F80001031884214D11E494889FFF749FC1812B4
:102F9000FFF749FCD8B2FFF746FC19498889FFF7CB
:102FA0003FFC2012FFF73FFCE0B2FFF73CFC93E050
:102FB0001348808845F21051884227D1104948892A
:102FC000FFF72EFC1812FFF72EFC0D494989491C0A
:102FD00088B2FFF725FCD8B2FFF725FC084988899D
:102FE000FFF71EFC2012FFF71EFC05498989491CCA
:102FF00088B2FFF715FCE0B2FFF715FC6CE00000AB
:10300000E0160020280000200008006CFC488088A2
:1030100041F66311884228D1F948807920B9F848EF
:103020000088401EC01A83B2F5494889FFF7F8FBB3
:103030001812FFF7F8FBD8B2FFF7F5FB1812FFF7ED
:10304000F2FBD8B2FFF7EFFBED498889FFF7E8FB09
:103050002012FFF7E8FBE0B2FFF7E5FB2012FFF7D5
:10306000E2FBE0B2FFF7DFFB36E0E548808846F69A
:10307000040188421DD1E2488079012804D1E0484A
:103080000088401EC01A83B2DD494889FFF7C8FB9B
:103090001812FFF7C8FBD8B2FFF7C5FBD8498889DB
:1030A000FFF7BEFB2012FFF7BEFBE0B2FFF7BBFB52
:1030B00012E0D3488079012804D1D1480088401E0D
:1030C000C01A83B2CE4948891946FFF7B8FBCC49EC
:1030D00088892146FFF7B3FBC9480089C9490880A0
:1030E000881C058030BD2DE9F0470446BE20FFF75F
:1030F00097FB0520FFF797FB204615F011FC0746CC
:103100004FF06632C04B15F05BFC054615F0C4FB72
:103110001FFA80F94846FFF786FB0120FFF783FB83
:10312000FF20FFF780FB0020FFF77DFB0020FFF76B
:103130007AFBBDE8F08710B50446002C66D1B04993
:103140008871F02008804FF4A0704880084680887D
:1031500049F2413188420BD0A948808846F60401E3
:10316000884205D0A648808845F2103188421AD19D
:103170002C20A34908812A2048812B2088810846D9
:10318000808846F60401884205D09D48808845F233
:103190001031884206D14FF4A070994908804FF44D
:1031A000F0704880A1E09648808845F2105188422E
:1031B00010D14FF43050924908814FF42850488183
:1031C0004FF42C5088814FF4F07008804FF4487011
:1031D00048808AE08A48808841F6631188420DD190
:1031E0002C20874908812B2048812A2088814FF490
:1031F000F07008804FF44870488076E022208049C3
:10320000088120204881212088816EE001207C49AE
:1032100088714FF4A0700880F020488008468088AC
:1032200049F24131884205D07548808845F2103115
:10323000884207D12C20724908812A2048812B20FE
:1032400088813FE06E48808846F60401884207D1B5
:103250002C206B4908812B2048812A20888131E06D
:103260006748808845F21051884210D14FF43050A1
:10327000634908814FF4285048814FF42C508881CD
:103280004FF4487008804FF4F07048801AE05C48B2
:10329000808841F6631188420DD12C20584908815D
:1032A0002A2048812B2088814FF4487008804FF4F1
:1032B000F070488006E02220514908812120488191
:1032C000202088814E48808846F60401884205D037
:1032D0004B48808845F21031884206D14FF4F07097
:1032E000474908804FF4A07048800020FFF7B9FCE0
:1032F00010BD2DE9F04F86B004460D469046994624
:1033000004EB0800401E86B205EB0900401E87B2A0
:103310003B48808849F24131884215D0384880883E
:1033200045F2103188420FD03548808846F60401B6
:10333000884209D032488079012826D130488088D7
:1033400041F66311884220D12D494889FFF768FA78
:103350002012FFF768FAE0B2FFF765FA3012FFF7C4
:1033600062FAF0B2FFF75FFA25498889FFF758FA49
:103370002812FFF758FAE8B2FFF755FA3812FFF7AC
:1033800052FAF8B2FFF74FFABEE01D48808841F6C6
:10339000631188423AD11A480088A0EB0800001B4C
:1033A00084B205EB0900401E1FFA80F914494889D0
:1033B000FFF736FA2012FFF736FAE0B2FFF733FADA
:1033C00004EB0801491EC1F30F20FFF72CFA04EBB0
:1033D0000801491EC8B2FFF726FA09498889FFF794
:1033E0001FFA2812FFF71FFAE8B2FFF71CFA4FEA9C
:1033F0002920FFF718FA09F0FF00FFF714FA83E01D
:10340000E0160020FE07006C66660440FE488088D7
:1034100045F21051884244D1FB494889FFF700FA30
:103420002012FFF700FAF8494989491C88B2FFF7D2
:10343000F7F9E0B2FFF7F7F9F3494989891C88B237
:10344000FFF7EEF93012FFF7EEF9EF494989C91C91
:1034500088B2FFF7E5F9F0B2FFF7E5F9EA498889A4
:10346000FFF7DEF92812FFF7DEF9E7498989491CE1
:1034700088B2FFF7D5F9E8B2FFF7D5F9E2498989B3
:10348000891C88B2FFF7CCF93812FFF7CCF9DE4976
:103490008989C91C88B2FFF7C3F9F8B2FFF7C3F9ED
:1034A00032E0D948807901280ED1AA46BB46D648D9
:1034B0000088801B401E80B20190D3480088001B0A
:1034C000401E80B2009003E0A246B34601950097EB
:1034D00050200590512004905220039053200290D8
:1034E00051460598FFF7ABF959460498FFF7A7F93D
:1034F00001990398FFF7A3F900990298FFF79FF944
:1035000029462046FFF7C8F906B0BDE8F08F70B530
:1035100004460026BC48058840884543BA48808850
:1035200046F60401884216D1B7488079012812D1A5
:103530000020B54988712A2048812B2088810021EC
:103540000846FFF7A9F90120AF4988712B2048816F
:103550002A20888103E000210846FFF79DF9FFF744
:103560007EF9002602E0A9480480761CAE42FAD318
:1035700070BD00B59FB00121080206F0DEFA0121FE
:103580004FF4B47006F0E6FA0120ADF87800102090
:103590008DF87B0003208DF87A001EA99C4806F068
:1035A0001DF84CF23370ADF8780018208DF87B00D0
:1035B00003208DF87A001EA9964806F00FF84FF602
:1035C0008070ADF8780018208DF87B0003208DF80E
:1035D0007A001EA9904806F001F841F20100ADF80A
:1035E000780018208DF87B0003208DF87A001EA942
:1035F0008A4805F0F3FF01200890002009900F2071
:103600000A9000200B900C900D900E90019002906B
:103610000320039000200490059006900790062058
:103620000F90002010901190102012900020139005
:1036300015901490169017904FF480501890002019
:1036400019904FF480401A9000201B9008A81C90FD
:1036500001A81D900FA805F0A7FC0121062005F088
:103660000BFE322005F0F3FA0020FFF7EDF8664973
:10367000888008468088FF280ADB084680884FF645
:10368000FF71884204D060488088B0F5134F7CD128
:10369000D320FFF7C5F8FFF7CAF85B498880FFF72A
:1036A000C6F859498880FFF7C2F85749888008460C
:1036B00080884FF6FF7101EA002053498880FFF7A8
:1036C000B6F85149898808434F4988800846808860
:1036D00049F24131884258D0BF20FFF7A1F8FFF7E7
:1036E000A6F849498880FFF7A2F847498880FFF784
:1036F0009EF845498880FFF79AF843498880084634
:1037000080884FF6FF7101EA00203F498880FFF76B
:103710008EF83D49898808433B498880084680885F
:1037200046F60401884230D0D420FFF779F8FFF73D
:103730007EF835498880FFF77AF833498880FFF7AB
:1037400076F831498880084680884FF6FF7101EA93
:1037500000202D498880FFF76AF82B4989880843A3
:10376000294988800846808845F21031884263D014
:103770004FF45A40FFF754F8FFF759F82249888070
:103780004FF45B40FFF74CF800E055E0FFF74FF8CF
:103790001D498880084680884FF6FF7101EA0020A5
:1037A000194988804FF45C40FFF73AF8FFF73FF87B
:1037B0001549898808431449888008468088B0F5EF
:1037C000004F02D145F2105088800F48808845F2A2
:1037D0001051884230D0A120FFF722F8FFF727F8D8
:1037E00009498880FFF723F80749888008468088C0
:1037F0004FF6FF7101EA002003498880FFF717F8B0
:103800000149898808430BE0E01600200008006C9D
:10381000000C01400014014000180140002001404C
:10382000FE4988800846808845F26171884203D14C
:1038300041F66310F9498880F8488188F8A00DF0B6
:1038400035FDF648808849F2413188427ED1CF204B
:10385000FEF7E6FF0020FEF7E6FFC120FEF7E3FFDC
:103860003020FEF7E0FFED20FEF7DAFF6420FEF7E0
:10387000DAFF0320FEF7D7FF1220FEF7D4FF8120E6
:10388000FEF7D1FFE820FEF7CBFF8520FEF7CBFF48
:103890001020FEF7C8FF7A20FEF7C5FFCB20FEF709
:1038A000BFFF3920FEF7BFFF2C20FEF7BCFF002032
:1038B000FEF7B9FF3420FEF7B6FF0220FEF7B3FF94
:1038C000F720FEF7ADFF2020FEF7ADFFEA20FEF760
:1038D000A7FF0020FEF7A7FF0020FEF7A4FFC020EF
:1038E000FEF79EFF1B20FEF79EFFC120FEF798FF0C
:1038F0000120FEF798FFC520FEF792FF3020FEF76B
:1039000092FF3020FEF78FFFC720FEF789FFB72018
:10391000FEF789FF3620FEF783FF4820FEF783FF7E
:103920003A20FEF77DFF5520FEF77DFFB120FEF720
:1039300077FF0020FEF777FF1A20FEF774FFB6200E
:10394000FEF76EFF0A20FEF76EFF00E097E0A22070
:10395000FEF769FFF220FEF763FF0020FEF763FF2A
:103960002620FEF75DFF0120FEF75DFFE020FEF759
:1039700057FF0F20FEF757FF2A20FEF754FF28209D
:10398000FEF751FF0820FEF74EFF0E20FEF74BFF1B
:103990000820FEF748FF5420FEF745FFA920FEF758
:1039A00042FF4320FEF73FFF0A20FEF73CFF0F20B7
:1039B000FEF739FF0020FEF736FF0020FEF733FF49
:1039C0000020FEF730FF0020FEF72DFFE120FEF77C
:1039D00027FF0020FEF727FF1520FEF724FF172002
:1039E000FEF721FF0720FEF71EFF1120FEF71BFF49
:1039F0000620FEF718FF2B20FEF715FF5620FEF7D6
:103A000012FF3C20FEF70FFF0520FEF70CFF1020F1
:103A1000FEF709FF0F20FEF706FF3F20FEF703FF2A
:103A20003F20FEF700FF0F20FEF7FDFE2B20FEF7E4
:103A3000F7FE0020FEF7F7FE0020FEF7F4FE01205F
:103A4000FEF7F1FE3F20FEF7EEFE2A20FEF7E8FE2D
:103A50000020FEF7E8FE0020FEF7E5FE0020FEF75E
:103A6000E2FEEF20FEF7DFFE1120FEF7D9FE782000
:103A700005F0EDF82920FEF7D3FE03F022B96748E0
:103A8000808846F6040188427ED11120FEF7C8FEE8
:103A9000142005F0DCF8D020FEF7C2FE0720FEF768
:103AA000C2FE4220FEF7BFFE1D20FEF7BCFED12065
:103AB000FEF7B6FE0020FEF7B6FE1A20FEF7B3FEB4
:103AC0000920FEF7B0FED220FEF7AAFE0120FEF785
:103AD000AAFE2220FEF7A7FEC020FEF7A1FE1020BE
:103AE000FEF7A1FE3B20FEF79EFE0020FEF79BFEA8
:103AF0000220FEF798FE1120FEF795FEC520FEF786
:103B00008FFE0320FEF78FFEC820FEF789FE0020FF
:103B1000FEF789FE2520FEF786FE2120FEF783FEB4
:103B20000520FEF780FE0020FEF77DFE0A20FEF74E
:103B30007AFE6520FEF777FE2520FEF774FE7720DB
:103B4000FEF771FE5020FEF76EFE0F20FEF76BFEB3
:103B50000020FEF768FEF820FEF762FE0120FEF767
:103B600062FEFE20FEF75CFE0020FEF75CFE0220F7
:103B7000FEF759FE2020FEF753FE3620FEF750FEDA
:103B80000820FEF750FE00E02AE03A20FEF748FE4B
:103B90005520FEF748FE2B20FEF742FE0020FEF7E0
:103BA00042FE0020FEF73FFE0120FEF73CFE3F20D4
:103BB000FEF739FE2A20FEF733FE0020FEF733FE23
:103BC0000020FEF730FE0120FEF72DFEDF20FEF77D
:103BD0002AFE782005F03BF82920FEF721FE4CE76D
:103BE0000E48808845F21031884240F08487ED20ED
:103BF000FEF716FE0120FEF716FEFE20FEF713FE6E
:103C0000EE20FEF70DFEDE20FEF70DFE2120FEF772
:103C10000AFEF120FEF704FE012009E0E016002074
:103C2000204C43442049443A25780D0A0000000006
:103C3000FEF7F9FDDF20FEF7F3FD1020FEF7F3FDA0
:103C4000C420FEF7EDFD8F20FEF7EDFDC620FEF748
:103C5000E7FD0020FEF7E7FDE220FEF7E4FDE220AD
:103C6000FEF7E1FDE220FEF7DEFDBF20FEF7D8FD06
:103C7000AA20FEF7D8FDB020FEF7D2FD0D20FEF7FA
:103C8000D2FD0020FEF7CFFD0D20FEF7CCFD002079
:103C9000FEF7C9FD1120FEF7C6FD0020FEF7C3FDAB
:103CA0001920FEF7C0FD0020FEF7BDFD2120FEF724
:103CB000BAFD0020FEF7B7FD2D20FEF7B4FD002071
:103CC000FEF7B1FD3D20FEF7AEFD0020FEF7ABFD97
:103CD0005D20FEF7A8FD0020FEF7A5FD5D20FEF7A4
:103CE000A2FD0020FEF79FFDB120FEF799FD802088
:103CF000FEF799FD0020FEF796FD8B20FEF793FD61
:103D00000020FEF790FD9620FEF78DFD0020FEF7C7
:103D10008AFDB220FEF784FD0020FEF784FD00201E
:103D2000FEF781FD0220FEF77EFD0020FEF77BFD01
:103D30000320FEF778FD0020FEF775FDB320FEF7A7
:103D40006FFD0020FEF76FFD0020FEF76CFD0020E8
:103D5000FEF769FD0020FEF766FD0020FEF763FD1B
:103D60000020FEF760FD0020FEF75DFD0020FEF75D
:103D70005AFD0020FEF757FD0020FEF754FD0020FD
:103D8000FEF751FD0020FEF74EFD0020FEF74BFD33
:103D90000020FEF748FD0020FEF745FD0020FEF75D
:103DA00042FD0020FEF73FFD0020FEF73CFD002015
:103DB000FEF739FD0020FEF736FD0020FEF733FD4B
:103DC0000020FEF730FD0020FEF72DFD0020FEF75D
:103DD0002AFDB420FEF724FD8B20FEF724FD0020F1
:103DE000FEF721FD9620FEF71EFD0020FEF71BFDCD
:103DF000A120FEF718FD0020FEF715FDB520FEF707
:103E00000FFD0220FEF70FFD0020FEF70CFD032042
:103E1000FEF709FD0020FEF706FD0420FEF703FD76
:103E20000020FEF700FDB620FEF7FAFC0020FEF7AA
:103E3000FAFC0020FEF7F7FCB720FEF7F1FC0020AB
:103E4000FEF7F1FC0020FEF7EEFC3F20FEF7EBFC56
:103E50000020FEF7E8FC5E20FEF7E5FC0020FEF700
:103E6000E2FC6420FEF7DFFC0020FEF7DCFC8C2087
:103E7000FEF7D9FC0020FEF7D6FCAC20FEF7D3FC01
:103E80000020FEF7D0FCDC20FEF7CDFC0020FEF782
:103E9000CAFC7020FEF7C7FC0020FEF7C4FC90208F
:103EA000FEF7C1FC0020FEF7BEFCEB20FEF7BBFCDA
:103EB0000020FEF7B8FCDC20FEF7B5FC0020FEF782
:103EC000B2FCB820FEF7ACFC0020FEF7ACFC0020F2
:103ED000FEF7A9FC0020FEF7A6FC0020FEF7A3FCDD
:103EE0000020FEF7A0FC0020FEF79DFC0020FEF75E
:103EF0009AFC0020FEF797FCBA20FEF791FC2420E4
:103F0000FEF791FC0020FEF78EFC0020FEF78BFCF4
:103F10000020FEF788FCC120FEF782FC2020FEF77F
:103F200082FC0020FEF77FFC5420FEF77CFC002082
:103F3000FEF779FCFF20FEF776FC0020FEF773FC0D
:103F4000C220FEF76DFC0A20FEF76DFC0020FEF794
:103F50006AFC0420FEF767FC0020FEF764FCC32027
:103F6000FEF75EFC3C20FEF75EFC0020FEF75BFCEB
:103F70003A20FEF758FC0020FEF755FC3920FEF7EA
:103F800052FC0020FEF74FFC3720FEF74CFC0020CF
:103F9000FEF749FC3C20FEF746FC0020FEF743FC00
:103FA0003620FEF740FC0020FEF73DFC3220FEF7F5
:103FB0003AFC0020FEF737FC2F20FEF734FC0020EF
:103FC000FEF731FC2C20FEF72EFC0020FEF72BFC28
:103FD0002920FEF728FC0020FEF725FC2620FEF70E
:103FE00022FC0020FEF71FFC2420FEF71CFC002012
:103FF000FEF719FC2420FEF716FC0020FEF713FC48
:104000002320FEF710FC0020FEF70DFC3C20FEF7FD
:104010000AFC0020FEF707FC3620FEF704FC002017
:10402000FEF701FC3220FEF7FEFB0020FEF7FBFB53
:104030002F20FEF7F8FB0020FEF7F5FB2C20FEF703
:10404000F2FB0020FEF7EFFB2920FEF7ECFB00203F
:10405000FEF7E9FB2620FEF7E6FB0020FEF7E3FB78
:104060002420FEF7E0FB0020FEF7DDFB2420FEF716
:10407000DAFB0020FEF7D7FB2320FEF7D4FB00205D
:10408000FEF7D1FBC420FEF7CBFB6220FEF7CBFB93
:104090000020FEF7C8FB0520FEF7C5FB0020FEF759
:1040A000C2FB8420FEF7BFFB0020FEF7BCFBF02024
:1040B000FEF7B9FB0020FEF7B6FB1820FEF7B3FBB6
:1040C0000020FEF7B0FBA420FEF7ADFB0020FEF7BA
:1040D000AAFB1820FEF7A7FB0020FEF7A4FB502048
:1040E000FEF7A1FB0020FEF79EFB0C20FEF79BFBDA
:1040F0000020FEF798FB1720FEF795FB0020FEF747
:1041000092FB9520FEF78FFB0020FEF78CFBF3203F
:10411000FEF789FB0020FEF786FBE620FEF783FB17
:104120000020FEF780FBC520FEF77AFB3220FEF769
:104130007AFB0020FEF777FB4420FEF774FB00209B
:10414000FEF771FB6520FEF76EFB0020FEF76BFBB0
:104150007620FEF768FB0020FEF765FB8820FEF75F
:1041600062FB0020FEF75FFBC620FEF759FB202014
:10417000FEF759FB0020FEF756FB1720FEF753FB16
:104180000020FEF750FB0120FEF74DFB0020FEF75C
:104190004AFBC720FEF744FB0020FEF744FB00204B
:1041A000FEF741FB0020FEF73EFB0020FEF73BFB45
:1041B000C820FEF735FB0020FEF735FB0020FEF798
:1041C00032FB0020FEF72FFB0020FEF72CFBC9205E
:1041D000FEF726FB0020FEF726FB0020FEF723FB60
:1041E0000020FEF720FB0020FEF71DFB0020FEF75D
:1041F0001AFB0020FEF717FB0020FEF714FB00203F
:10420000FEF711FB0020FEF70EFB0020FEF70BFB74
:104210000020FEF708FB0020FEF705FB0020FEF75C
:1042200002FB0020FEF7FFFA0020FEF7FCFA002058
:10423000FEF7F9FAE020FEF7F3FA1620FEF7F3FA9C
:104240000020FEF7F0FA1C20FEF7EDFA0020FEF742
:10425000EAFA2120FEF7E7FA0020FEF7E4FA36201A
:10426000FEF7E1FA0020FEF7DEFA4620FEF7DBFA61
:104270000020FEF7D8FA5220FEF7D5FA0020FEF70C
:10428000D2FA6420FEF7CFFA0020FEF7CCFA7A20AB
:10429000FEF7C9FA0020FEF7C6FA8B20FEF7C3FA34
:1042A0000020FEF7C0FA9920FEF7BDFA0020FEF7C5
:1042B000BAFAA820FEF7B7FA0020FEF7B4FAB92040
:1042C000FEF7B1FA0020FEF7AEFAC420FEF7ABFA13
:1042D0000020FEF7A8FACA20FEF7A5FA0020FEF794
:1042E000A2FAD220FEF79FFA0020FEF79CFAD9200E
:1042F000FEF799FA0020FEF796FAE020FEF793FA0F
:104300000020FEF790FAF320FEF78DFA0020FEF76A
:104310008AFAE120FEF784FA1620FEF784FA0020DC
:10432000FEF781FA1C20FEF77EFA0020FEF77BFAEA
:104330002220FEF778FA0020FEF775FA3620FEF705
:1043400072FA0020FEF76FFA4520FEF76CFA0020A3
:10435000FEF769FA5220FEF766FA0020FEF763FACC
:104360006420FEF760FA0020FEF75DFA7A20FEF77F
:104370005AFA0020FEF757FA8B20FEF754FA002075
:10438000FEF751FA9920FEF74EFA0020FEF74BFA9D
:10439000A820FEF748FA0020FEF745FAB920FEF7FC
:1043A00042FA0020FEF73FFAC420FEF73CFA002054
:1043B000FEF739FACA20FEF736FA0020FEF733FA84
:1043C000D220FEF730FA0020FEF72DFAD820FEF7B3
:1043D0002AFA0020FEF727FAE020FEF724FA002050
:1043E000FEF721FAF320FEF71EFA0020FEF71BFA73
:1043F000E220FEF715FA0520FEF715FA0020FEF779
:1044000012FA0B20FEF70FFA0020FEF70CFA1B2021
:10441000FEF709FA0020FEF706FA3420FEF703FA49
:104420000020FEF700FA4420FEF7FDF90020FEF719
:10443000FAF94F20FEF7F7F90020FEF7F4F96120B2
:10444000FEF7F1F90020FEF7EEF97920FEF7EBF91F
:104450000020FEF7E8F98820FEF7E5F90020FEF7D6
:10446000E2F99720FEF7DFF90020FEF7DCF9A6203D
:10447000FEF7D9F90020FEF7D6F9B720FEF7D3F9F9
:104480000020FEF7D0F9C220FEF7CDF90020FEF79C
:10449000CAF9C720FEF7C7F90020FEF7C4F9D120FA
:1044A000FEF7C1F90020FEF7BEF9D620FEF7BBF9F2
:1044B0000020FEF7B8F9DD20FEF7B5F90020FEF781
:1044C000B2F9F320FEF7AFF90020FEF7ACF9E320D4
:1044D000FEF7A6F90520FEF7A6F90020FEF7A3F9DE
:1044E0000A20FEF7A0F90020FEF79DF91C20FEF738
:1044F0009AF90020FEF797F93320FEF794F900208F
:10450000FEF791F94420FEF78EF90020FEF78BF9B3
:104510005020FEF788F90020FEF785F96220FEF7AB
:1045200082F90020FEF77FF97820FEF77CF9002061
:10453000FEF779F98820FEF776F90020FEF773F987
:104540009720FEF770F90020FEF76DF9A620FEF720
:104550006AF90020FEF767F9B720FEF764F900203A
:10456000FEF761F9C220FEF75EF90020FEF75BF965
:10457000C720FEF758F90020FEF755F9D120FEF7C5
:1045800052F90020FEF74FF9D520FEF74CF9002034
:10459000FEF749F9DD20FEF746F90020FEF743F962
:1045A000F320FEF740F90020FEF73DF9E420FEF786
:1045B00037F90120FEF737F90020FEF734F9012022
:1045C000FEF731F90020FEF72EF90220FEF72BF955
:1045D0000020FEF728F92A20FEF725F90020FEF733
:1045E00022F93C20FEF71FF90020FEF71CF94B20B2
:1045F000FEF719F90020FEF716F95D20FEF713F912
:104600000020FEF710F97420FEF70DF90020FEF7E8
:104610000AF98420FEF707F90020FEF704F9932039
:10462000FEF701F90020FEF7FEF8A220FEF7FBF8E6
:104630000020FEF7F8F8B320FEF7F5F80020FEF7AB
:10464000F2F8BE20FEF7EFF80020FEF7ECF8C420E9
:10465000FEF7E9F80020FEF7E6F8CD20FEF7E3F8D4
:104660000020FEF7E0F8D320FEF7DDF80020FEF78B
:10467000DAF8DD20FEF7D7F80020FEF7D4F8F320B3
:10468000FEF7D1F80020FEF7CEF8E520FEF7C8F8D7
:104690000020FEF7C8F80020FEF7C5F80020FEF75E
:1046A000C2F80020FEF7BFF80220FEF7BCF8002099
:1046B000FEF7B9F82920FEF7B6F80020FEF7B3F8A8
:1046C0003C20FEF7B0F80020FEF7ADF84B20FEF7D7
:1046D000AAF80020FEF7A7F85D20FEF7A4F8002056
:1046E000FEF7A1F87420FEF79EF80020FEF79BF875
:1046F0008420FEF798F80020FEF795F89320FEF747
:1047000092F80020FEF78FF8A220FEF78CF8002028
:10471000FEF789F8B320FEF786F80020FEF783F84D
:10472000BE20FEF780F80020FEF77DF8C420FEF7DB
:104730007AF80020FEF777F8CD20FEF774F8002015
:10474000FEF771F8D320FEF76EF80020FEF76BF845
:10475000DC20FEF768F80020FEF765F8F320FEF78E
:1047600062F80020FEF75FF8E620FEF759F8112006
:10477000FEF759F80020FEF756F83420FEF753F8FC
:104780000020FEF750F85620FEF74DF80020FEF707
:104790004AF87620FEF747F80020FEF744F8772025
:1047A000FEF741F80020FEF73EF86620FEF73BF8E2
:1047B0000020FEF738F88820FEF735F80020FEF7D5
:1047C00032F89920FEF72FF80020FEF72CF8BB20D6
:1047D000FEF729F80020FEF726F89920FEF723F8C7
:1047E0000020FEF720F86620FEF71DF80020FEF7F7
:1047F0001AF85520FEF717F80020FEF714F8552098
:10480000FEF711F80020FEF70EF84520FEF70BF832
:104810000020FEF708F84320FEF705F80020FEF719
:1048200002F84420FDF7FFFF0020FDF7FCFFE72022
:10483000FDF7F6FF3220FDF7F6FF0020FDF7F3FF4E
:104840005520FDF7F0FF0020FDF7EDFF7620FDF786
:10485000EAFF0020FDF7E7FF6620FDF7E4FF0020F8
:10486000FDF7E1FF6720FDF7DEFF0020FDF7DBFF2E
:104870006720FDF7D8FF0020FDF7D5FF8720FDF763
:10488000D2FF0020FDF7CFFF9920FDF7CCFF0020DD
:10489000FDF7C9FFBB20FDF7C6FF0020FDF7C3FFF2
:1048A0009920FDF7C0FF0020FDF7BDFF7720FDF741
:1048B000BAFF0020FDF7B7FF4420FDF7B4FF00204A
:1048C000FDF7B1FF5620FDF7AEFF0020FDF7ABFF6F
:1048D0002320FDF7A8FF0020FDF7A5FF3320FDF7FB
:1048E000A2FF0020FDF79FFF4520FDF79CFF002061
:1048F000FDF799FFE820FDF793FF0020FDF793FFF8
:104900000020FDF790FF9920FDF78DFF0020FDF7B7
:104910008AFF8720FDF787FF0020FDF784FF8820AE
:10492000FDF781FF0020FDF77EFF7720FDF77BFF7D
:104930000020FDF778FF6620FDF775FF0020FDF7EA
:1049400072FF8820FDF76FFF0020FDF76CFFAA20A3
:10495000FDF769FF0020FDF766FFBB20FDF763FF51
:104960000020FDF760FF9920FDF75DFF0020FDF7B7
:104970005AFF6620FDF757FF0020FDF754FF552032
:10498000FDF751FF0020FDF74EFF5520FDF74BFFCF
:104990000020FDF748FF4420FDF745FF0020FDF70C
:1049A00042FF4420FDF73FFF0020FDF73CFF55206C
:1049B000FDF739FF0020FDF736FFE920FDF730FF56
:1049C000AA20FDF730FF0020FDF72DFF0020FDF7A6
:1049D0002AFF0020FDF727FF0020FDF721FFAA2076
:1049E000FDF721FFCF20FDF71BFF0020FDF71BFF88
:1049F0000020FDF718FF0020FDF715FF0020FDF750
:104A000012FF0020FDF70FFF0020FDF70CFF002034
:104A1000FDF709FF0020FDF706FF0020FDF703FF6B
:104A20000020FDF700FF0020FDF7FDFE0020FDF750
:104A3000FAFE0020FDF7F7FE0020FDF7F4FE00204F
:104A4000FDF7F1FE0020FDF7EEFE0020FDF7EBFE86
:104A5000F020FDF7E5FE0020FDF7E5FE5020FDF714
:104A6000E2FE0020FDF7DFFE0020FDF7DCFE002067
:104A7000FDF7D9FEF320FDF7D3FE0020FDF7D3FEAE
:104A8000F920FDF7CDFE0620FDF7CDFE1020FDF745
:104A9000CAFE2920FDF7C7FE0020FDF7C4FE3A201C
:104AA000FDF7BEFE5520FDF7BEFE1120FDF7B8FE56
:104AB000642004F0CCF82920FDF7B2FE3520FDF784
:104AC000AFFE0020FDF7AFFE5120FDF7A9FEFF204D
:104AD000FDF7A9FE5320FDF7A3FE2C20FDF7A3FE52
:104AE0005520FDF79DFE8220FDF79DFE2C20FDF751
:104AF00097FE02F0E6B8FE48808845F210518842E1
:104B00007ED155214FF47040FDF799FEAA214FF256
:104B10000100FDF794FE52214FF20200FDF78FFED7
:104B200008214FF20300FDF78AFE01214FF2040035
:104B3000FDF785FE0D214FF43040FDF780FE0D217D
:104B40004BF20100FDF77BFE0D214BF20200FDF759
:104B500076FE34214FF43640FDF771FE34214BF2DE
:104B60000160FDF76CFE34214BF20260FDF767FE39
:104B70000D214FF43140FDF762FE0D214BF2011083
:104B8000FDF75DFE0D214BF20210FDF758FE3421BA
:104B90004FF43740FDF753FE34214BF20170FDF71F
:104BA0004EFE34214BF20270FDF749FE00214FF416
:104BB0003240FDF744FE00214BF20120FDF73FFE9D
:104BC00000214BF20220FDF73AFE24214FF4384039
:104BD000FDF735FE24214BF60100FDF730FE2421C0
:104BE0004BF60200FDF72BFE01214FF43F40FDF78D
:104BF00026FE0F214FF43340FDF721FE0F2100E088
:104C0000FEE34BF20130FDF71AFE0F214BF20230AA
:104C1000FDF715FE34214FF43940FDF710FE342125
:104C20004BF60110FDF70BFE34214BF60210FDF799
:104C300006FE08214FF43540FDF701FE08214BF236
:104C40000150FDF7FCFD08214BF20250FDF7F7FD86
:104C500003214FF44240FDF7F2FD24214FF43A4086
:104C6000FDF7EDFD24214BF60120FDF7E8FD2421A1
:104C70004BF60220FDF7E3FD00214FF43C40FDF729
:104C8000DEFD78214BF60140FDF7D9FD00214BF602
:104C90000240FDF7D4FD00214FF43D40FDF7CFFD6C
:104CA00078214BF60150FDF7CAFD00214BF602506A
:104CB000FDF7C5FD00214FF43E40FDF7C0FD642126
:104CC0004BF60160FDF7BBFD00214FF45140FDF7AD
:104CD000B6FD33214DF20110FDF7B1FD00214DF27B
:104CE0000210FDF7ACFD34214DF20310FDF7A7FDD6
:104CF00000214DF20410FDF7A2FD3A214DF20510FE
:104D0000FDF79DFD00214DF20610FDF798FD4A21AB
:104D10004DF20710FDF793FD00214DF20810FDF74D
:104D20008EFD5C214DF20910FDF789FD00214DF249
:104D30000A10FDF784FD81214DF20B10FDF77FFD78
:104D400000214DF20C10FDF77AFDA6214DF20D1059
:104D5000FDF775FD00214DF20E10FDF770FDE52108
:104D60004DF20F10FDF76BFD01214DF21010FDF714
:104D700066FD13214DF21110FDF761FD01214DF289
:104D80001210FDF75CFD54214DF21310FDF757FD95
:104D900001214DF21410FDF752FD82214DF2151044
:104DA000FDF74DFD01214DF21610FDF748FDCA211A
:104DB0004DF21710FDF743FD02214DF21810FDF7DB
:104DC0003EFD00214DF21910FDF739FD02214DF293
:104DD0001A10FDF734FD01214DF21B10FDF72FFDD8
:104DE00002214DF21C10FDF72AFD34214DF21D1059
:104DF000FDF725FD02214DF21E10FDF720FD672174
:104E00004DF21F10FDF71BFD02214DF22010FDF7A2
:104E100016FD84214DF22110FDF711FD02214DF206
:104E20002210FDF70CFDA4214DF22310FDF707FD24
:104E300002214DF22410FDF702FDB7214DF225109D
:104E4000FDF7FDFC02214DF22610FDF7F8FCCF2105
:104E50004DF22710FDF7F3FC02214DF22810FDF76B
:104E6000EEFCDE214DF22910FDF7E9FC02214DF2A6
:104E70002A10FDF7E4FCF2214DF22B10FDF7DFFCC8
:104E800002214DF22C10FDF7DAFCFE214DF22D101F
:104E9000FDF7D5FC03214DF22E10FDF7D0FC1021BB
:104EA0004DF22F10FDF7CBFC03214DF23010FDF732
:104EB000C6FC33214DF23110FDF7C1FC03214DF248
:104EC0003210FDF7BCFC6D214DF23310FDF7B7FC3D
:104ED00000214FF45240FDF7B2FC33214DF2012086
:104EE000FDF7ADFC00214DF20220FDF7A8FC01E02A
:104EF000E016002034214DF20320FDF7A0FC002134
:104F00004DF20420FDF79BFC3A214DF20520FDF700
:104F100096FC00214DF20620FDF791FC4A214DF24E
:104F20000720FDF78CFC00214DF20820FDF787FCDF
:104F30005C214DF20920FDF782FC00214DF20A2090
:104F4000FDF77DFC81214DF20B20FDF778FC00215F
:104F50004DF20C20FDF773FCA6214DF20D20FDF75C
:104F60006EFC00214DF20E20FDF769FCE5214DF2AB
:104F70000F20FDF764FC01214DF21020FDF75FFCCE
:104F800013214DF21120FDF75AFC01214DF21220A0
:104F9000FDF755FC54214DF21320FDF750FC012183
:104FA0004DF21420FDF74BFC82214DF21520FDF748
:104FB00046FC01214DF21620FDF741FCCA214DF2BD
:104FC0001720FDF73CFC02214DF21820FDF737FCBD
:104FD00000214DF21920FDF732FC02214DF21A207A
:104FE000FDF72DFC01214DF21B20FDF728FC0221CD
:104FF0004DF21C20FDF723FC34214DF21D20FDF75E
:105000001EFC02214DF21E20FDF719FC67214DF216
:105010001F20FDF714FC02214DF22020FDF70FFCAC
:1050200084214DF22120FDF70AFC02214DF22220BD
:10503000FDF705FCA4214DF22320FDF700FC022121
:105040004DF22420FDF7FBFBB7214DF22520FDF7A3
:10505000F6FB02214DF22620FDF7F1FBCF214DF2A8
:105060002720FDF7ECFB02214DF22820FDF7E7FB9E
:10507000DE214DF22920FDF7E2FB02214DF22A202C
:10508000FDF7DDFBF2214DF22B20FDF7D8FB0221CD
:105090004DF22C20FDF7D3FBFE214DF22D20FDF724
:1050A000CEFB03214DF22E20FDF7C9FB10214DF25E
:1050B0002F20FDF7C4FB03214DF23020FDF7BFFB8D
:1050C00033214DF23120FDF7BAFB03214DF232209E
:1050D000FDF7B5FB6D214DF23320FDF7B0FB00214C
:1050E0004FF45340FDF7ABFB33214DF20130FDF798
:1050F000A6FB00214DF20230FDF7A1FB34214DF259
:105100000330FDF79CFB00214DF20430FDF797FBC7
:105110003A214DF20530FDF792FB00214DF20630A9
:10512000FDF78DFB4A214DF20730FDF788FB00218A
:105130004DF20830FDF783FB5C214DF20930FDF79D
:105140007EFB00214DF20A30FDF779FB81214DF203
:105150000B30FDF774FB00214DF20C30FDF76FFBB7
:10516000A6214DF20D30FDF76AFB00214DF20E3005
:10517000FDF765FBE5214DF20F30FDF760FB0121E6
:105180004DF21030FDF75BFB13214DF21130FDF7AE
:1051900056FB01214DF21230FDF751FB54214DF227
:1051A0001330FDF74CFB01214DF21430FDF747FBA6
:1051B00082214DF21530FDF742FB01214DF21630F0
:1051C000FDF73DFBCA214DF21730FDF738FB0221F8
:1051D0004DF21830FDF733FB00214DF21930FDF789
:1051E0002EFB02214DF21A30FDF729FB01214DF271
:1051F0001B30FDF724FB02214DF21C30FDF71FFB95
:1052000034214DF21D30FDF71AFB02214DF21E3004
:10521000FDF715FB67214DF21F30FDF710FB022152
:105220004DF22030FDF70BFB84214DF22130FDF7CC
:1052300006FB02214DF22230FDF701FBA4214DF2C5
:105240002330FDF7FCFA02214DF22430FDF7F7FA86
:10525000B7214DF22530FDF7F2FA02214DF226304A
:10526000FDF7EDFACF214DF22730FDF7E8FA0221E4
:105270004DF22830FDF7E3FADE214DF22930FDF73B
:10528000DEFA02214DF22A30FDF7D9FAF2214DF271
:105290002B30FDF7D4FA02214DF22C30FDF7CFFA76
:1052A000FE214DF22D30FDF7CAFA03214DF22E30CA
:1052B000FDF7C5FA10214DF22F30FDF7C0FA03219A
:1052C0004DF23030FDF7BBFA33214DF23130FDF7AE
:1052D000B6FA03214DF23230FDF7B1FA6D214DF2ED
:1052E0003330FDF7ACFA00214FF45440FDF7A7FA34
:1052F00033214DF20140FDF7A2FA00214DF20240A8
:10530000FDF79DFA34214DF20340FDF798FA002194
:105310004DF20440FDF793FA3A214DF20540FDF7B6
:105320008EFA00214DF20640FDF789FA4A214DF22E
:105330000740FDF784FA00214DF20840FDF77FFA9F
:105340005C214DF20940FDF77AFA00214DF20A4046
:10535000FDF775FA81214DF20B40FDF770FA00213F
:105360004DF20C40FDF76BFAA6214DF20D40FDF712
:1053700066FA00214DF20E40FDF761FAE5214DF28B
:105380000F40FDF75CFA01214DF21040FDF757FA8E
:1053900013214DF21140FDF752FA01214DF2124056
:1053A000FDF74DFA54214DF21340FDF748FA012163
:1053B0004DF21440FDF743FA82214DF21540FDF7FE
:1053C0003EFA01214DF21640FDF739FACA214DF29D
:1053D0001740FDF734FA02214DF21840FDF72FFA7D
:1053E00000214DF21940FDF72AFA02214DF21A4030
:1053F000FDF725FA01214DF21B40FDF720FA00E0F0
:1054000004E302214DF21C40FDF719FA34214DF25C
:105410001D40FDF714FA02214DF21E40FDF70FFA70
:1054200067214DF21F40FDF70AFA02214DF220409C
:10543000FDF705FA84214DF22140FDF700FA022123
:105440004DF22240FDF7FBF9A4214DF22340FDF778
:10545000F6F902214DF22440FDF7F1F9B7214DF2A2
:105460002540FDF7ECF902214DF22640FDF7E7F962
:10547000CF214DF22740FDF7E2F902214DF22840FD
:10548000FDF7DDF9DE214DF22940FDF7D8F90221C3
:105490004DF22A40FDF7D3F9F2214DF22B40FDF7F2
:1054A000CEF902214DF22C40FDF7C9F9FE214DF253
:1054B0002D40FDF7C4F903214DF22E40FDF7BFF951
:1054C00010214DF22F40FDF7BAF903214DF2304083
:1054D000FDF7B5F933214DF23140FDF7B0F9032165
:1054E0004DF23240FDF7ABF96D214DF23340FDF73F
:1054F000A6F900214FF45540FDF7A1F933214DF2F3
:105500000150FDF79CF900214DF20250FDF797F98B
:1055100034214DF20350FDF792F900214DF2045071
:10552000FDF78DF93A214DF20550FDF788F900217C
:105530004DF20650FDF783F94A214DF20750FDF771
:105540007EF900214DF20850FDF779F95C214DF20A
:105550000950FDF774F900214DF20A50FDF76FF97B
:1055600081214DF20B50FDF76AF900214DF20C50EC
:10557000FDF765F9A6214DF20D50FDF760F9002108
:105580004DF20E50FDF75BF9E5214DF20F50FDF79E
:1055900056F901214DF21050FDF751F913214DF24A
:1055A0001150FDF74CF901214DF21250FDF747F96A
:1055B00054214DF21350FDF742F901214DF21450E0
:1055C000FDF73DF982214DF21550FDF738F9012123
:1055D0004DF21650FDF733F9CA214DF21750FDF781
:1055E0002EF902214DF21850FDF729F900214DF254
:1055F0001950FDF724F902214DF21A50FDF71FF959
:1056000001214DF21B50FDF71AF902214DF21C50F9
:10561000FDF715F934214DF21D50FDF710F9022167
:105620004DF21E50FDF70BF967214DF21F50FDF7AB
:1056300006F902214DF22050FDF701F984214DF2C7
:105640002150FDF7FCF802214DF22250FDF7F7F84A
:10565000A4214DF22350FDF7F2F802214DF224501F
:10566000FDF7EDF8B7214DF22550FDF7E8F80221DE
:105670004DF22650FDF7E3F8CF214DF22750FDF70C
:10568000DEF802214DF22850FDF7D9F8DE214DF267
:105690002950FDF7D4F802214DF22A50FDF7CFF83A
:1056A000F2214DF22B50FDF7CAF802214DF22C5099
:1056B000FDF7C5F8FE214DF22D50FDF7C0F803218E
:1056C0004DF22E50FDF7BBF810214DF22F50FDF793
:1056D000B6F803214DF23050FDF7B1F833214DF209
:1056E0003150FDF7ACF803214DF23250FDF7A7F829
:1056F0006D214DF23350FDF7A2F800214FF45640D2
:10570000FDF79DF833214DF20160FDF798F8002177
:105710004DF20260FDF793F834214DF20360FDF77E
:105720008EF800214DF20460FDF789F83A214DF220
:105730000560FDF784F800214DF20660FDF77FF863
:105740004A214DF20760FDF77AF800214DF208601A
:10575000FDF775F85C214DF20960FDF770F8002146
:105760004DF20A60FDF76BF881214DF20B60FDF7F9
:1057700066F800214DF20C60FDF761F8A6214DF2AC
:105780000D60FDF75CF800214DF20E60FDF757F853
:10579000E5214DF20F60FDF752F801214DF2106046
:1057A000FDF74DF813214DF21160FDF748F8012186
:1057B0004DF21260FDF743F854214DF21360FDF7EE
:1057C0003EF801214DF21460FDF739F882214DF2C7
:1057D0001560FDF734F801214DF21660FDF72FF842
:1057E000CA214DF21760FDF72AF802214DF2186028
:1057F000FDF725F800214DF21960FDF720F8022190
:105800004DF21A60FDF71BF801214DF21B60FDF708
:1058100016F802214DF21C60FDF711F834214DF20B
:105820001D60FDF70CF802214DF21E60FDF707F830
:1058300067214DF21F60FDF702F802214DF2206052
:10584000FCF7FDFF84214DF22160FCF7F8FF0221F7
:105850004DF22260FCF7F3FFA4214DF22360FCF728
:10586000EEFF02214DF22460FCF7E9FFB7214DF273
:105870002560FCF7E4FF02214DF22660FCF7DFFF14
:10588000CF214DF22760FCF7DAFF02214DF22860AC
:10589000FCF7D5FFDE214DF22960FCF7D0FF022195
:1058A0004DF22A60FCF7CBFFF2214DF22B60FCF7A2
:1058B000C6FF02214DF22C60FCF7C1FFFE214DF224
:1058C0002D60FCF7BCFF03214DF22E60FCF7B7FF03
:1058D00010214DF22F60FCF7B2FF03214DF2306032
:1058E000FCF7ADFF33214DF23160FCF7A8FF032137
:1058F0004DF23260FCF7A3FF6D214DF23360FCF7EF
:105900009EFF55214FF47040FCF799FFAA214FF2FA
:105910000100FCF794FF52214FF20200FCF78FFFC9
:1059200008214FF20300FCF78AFF00214FF2040028
:10593000FCF785FFCC214FF43140FCF780FF0021BC
:105940004BF20110FCF77BFF05214FF43640FCF7CA
:1059500076FF70214FF43740FCF771FF70214BF256
:105960000170FCF76CFF01214FF43840FCF767FF32
:1059700003214BF60100FCF762FF03214BF6020006
:10598000FCF75DFF03214BF60300FCF758FF0221F3
:105990004FF43C40FCF753FF00214BF60140FCF76D
:1059A0004EFF00214BF60240FCF749FFD0214FF497
:1059B0004940FCF744FF02214CF60110FCF73FFF81
:1059C00050214CF60210FCF73AFF50214CF6031020
:1059D000FCF735FF50214CF60410FCF730FF002196
:1059E0004FF45450FCF72BFF55214FF46850FCF74F
:1059F00026FF4FF48850FCF713FF782003F003F9DB
:105A00004FF42450FCF70CFF01F05BB9FE4880888E
:105A100049F2253188427DD147F6F001E520FCF7B7
:105A20000EFF4FF480710120FCF709FF4FF4E06195
:105A30000220FCF704FF41F230010320FCF7FFFED7
:105A400000210420FCF7FBFE40F202210820FCF7B5
:105A5000F6FE00210920FCF7F2FE00210A20FCF7E7
:105A6000EEFE00210C20FCF7EAFE00210D20FCF7E1
:105A7000E6FE00210F20FCF7E2FE00211020FCF7DB
:105A8000DEFE07211120FCF7DAFE00211220FCF7D0
:105A9000D6FE00211320FCF7D2FE00210720FCF7E0
:105AA000CEFE41F290611020FCF7C9FE40F22721A2
:105AB0001120FCF7C4FE9D211220FCF7C0FE4FF41C
:105AC000C8511320FCF7BBFE25212920FCF7B7FEA7
:105AD0000D212B20FCF7B3FE07213020FCF7AFFE91
