:020000040800F2
:1000000028160020D5010008B10600085D0600088A
:10001000AD0600083D050008731800080000000048
:10002000000000000000000000000000B9140008FB
:10003000410500080000000063020008CD1500081B
:10004000EF010008EF010008EF010008EF010008D0
:10005000EF010008EF010008EF010008EF010008C0
:10006000EF010008EF010008EF010008EF010008B0
:10007000EF010008EF010008EF010008EF010008A0
:10008000EF010008EF010008EF010008EF01000890
:10009000EF010008EF010008EF010008EF01000880
:1000A000EF010008EF010008EF010008EF01000870
:1000B000EF010008EF010008EF010008EF01000860
:1000C000EF010008EF010008EF010008EF01000850
:1000D000EF01000849160008EF010008EF010008D1
:1000E000EF010008EF010008EF010008EF01000830
:1000F000EF010008EF010008EF010008EF01000820
:10010000EF010008EF010008EF010008EF0100080F
:10011000EF010008EF010008EF010008EF010008FF
:10012000EF010008EF010008EF010008EF010008EF
:1001300000F002F800F03FF80AA090E8000C8244BA
:100140008344AAF10107DA4501D100F034F8AFF297
:10015000090EBAE80F0013F0010F18BFFB1A43F0A5
:1001600001031847401A0000601A0000103A24BF2B
:1001700078C878C1FAD8520724BF30C830C144BF0C
:1001800004680C607047000000230024002500264E
:10019000103A28BF78C1FBD8520728BF30C148BFEA
:1001A0000B607047642900F0D180002070471FB5B4
:1001B0001FBD10B510BD00F091F91146FFF7F7FF14
:1001C00001F0BEFB00F0AFF903B4FFF7F2FF03BC90
:1001D00001F051FB0948804709480047FEE7FEE768
:1001E000FEE7FEE7FEE7FEE7FEE7FEE7FEE7FEE7E7
:1001F00004480549054A064B70470000E915000808
:1002000031010008281000202816002028120020A4
:1002100028120020EFF3108072B6704780F3108828
:100220007047204C204D25604FF0000484F309886E
:100230001E4C4FF0010525701D4C4FF08055256078
:1002400062B6FEE730B41A4C4FF08055256030BCE2
:10025000704730B4164C4FF08055256030BC704765
:1002600000BF72B6EFF3098028B1203880E8F00FA4
:1002700010490968086000B50F4880475DF804EB35
:100280000E480F490A7802700A480E490A6802604F
:10029000106890E8F00F203080F309884EF0040ECB
:1002A00062B6704720ED00E00000FFFF5E00002016
:1002B00004ED00E064000020550C0008530000200D
:1002C000540000206C000020704700000FB4044967
:1002D00010B503AA029800F0D3F810BC5DF814FB27
:1002E0001C0000202DE9F0410E460446002020624B
:1002F0002046E168884730B3252805D0D4E901219C
:100300009047206A401CF2E7E168204600278847B2
:10031000050018D0A5F14100192802D820354FF466
:1003200000673246294620462760FFF73BFF40B171
:10033000012804D0F61D26F007060836D8E7361D3A
:10034000D6E72846DAE7206ABDE8F0812DE9F041DA
:100350000646002410687529314616A510D0AFF363
:100360000080002802DA404213A507E031688A07BE
:1003700001D512A502E0490704D511A5012401E029
:10038000AFF3008000210A2206F1240709E0B0FB48
:10039000F2FCB0FBF2F302FB1C003030785418463C
:1003A000491C0028F3D123462A463046BDE8F041D7
:1003B00000F00CB8000000002D0000002B00000031
:1003C0002000000070477047704770472DE9F047E4
:1003D0000D4699469246044600F1240801688806B5
:1003E00004D5E06921F01001216000E00120A8425D
:1003F00001DD471B00E00027A1697A1902EB090023
:10040000081AA0612078C00602D42046AFF300800D
:10041000002608E0D4E901211AF806009047206A76
:10042000401C761C20624E45F4DB2078C0060AD5BD
:100430002046AFF3008006E0D4E901213020904748
:10044000206A401C2062381EA7F10107F4DC07E097
:10045000D4E9012118F805009047206A401C206269
:10046000281EA5F10105F3DC2046AFF300802078BB
:10047000000602D50220BDE8F0870120FBE700005E
:10048000074B70B50D467B4400F011F80446284632
:1004900000F020F810B14FF0FF3070BD204670BD65
:1004A0004F14000001694A1C02610878704700B5CA
:1004B0008FB0CDE901310021059105497944CDE99D
:1004C000031011466846FFF70DFF0FB000BD000096
:1004D000E5FFFFFF007B00F080007047754600F0ED
:1004E00029F8AE4605006946534620F007008546C8
:1004F00018B020B5FFF77CFEBDE820404FF00006A5
:100500004FF000074FF000084FF0000B21F00701FB
:10051000AC46ACE8C009ACE8C009ACE8C009ACE83E
:10052000C0098D4670470446AFF300802046FFF7B0
:100530004BFE000000487047C80F002000BFFEE7D8
:1005400070472DE9F04102460025002600200023D7
:100550000024002791F803C00CF00F0591F803C0A8
:100560000CF0100CBCF1000F03D091F802C04CEA63
:10057000050591F800C0BCF1000F31D014680020CF
:100580002BE04FF0010C0CFA00F3B1F800C00CEABC
:1005900003069E4220D183004FF00F0C0CFA03F7A4
:1005A000BC4305FA03FC4CEA040491F803C0BCF117
:1005B000280F06D14FF0010C0CFA00FCC2F814C051
:1005C0000AE091F803C0BCF1480F05D14FF0010CCF
:1005D0000CFA00FCC2F810C0401C0828D1D31460EB
:1005E000B1F800C0BCF1FF0F34DD546800202EE0EC
:1005F00000F1080C4FF0010808FA0CF3B1F800C044
:100600000CEA03069E4221D183004FF00F0C0CFA36
:1006100003F7BC4305FA03FC4CEA040491F803C059
:10062000BCF1280F05D100F1080C08FA0CF8C2F84B
:10063000148091F803C0BCF1480F07D100F1080CF9
:100640004FF0010808FA0CF8C2F81080401C082886
:10065000CED35460BDE8F0810161704700BFFEE772
:1006600008B50121482000F0ADFE2020ADF80000C3
:1006700010208DF8030003208DF802006946094818
:10068000FFF75FFF20210748FFF7E6FF2020ADF8C6
:10069000000069460448FFF754FF20210248FFF795
:1006A000DBFF08BD000C01400018014000BFFEE761
:1006B0007047000070B5002100230F22C47804B3F6
:1006C000154C246804F4E064C4F5E064210AC1F127
:1006D0000403CA40447804FA03F1847814402143A7
:1006E00009010E4C0678A155047804F01F05012479
:1006F000AC4005786D11AD0005F1E025C5F800416D
:1007000009E0047804F01F050124AC40044D06788C
:10071000761145F8264070BD0CED00E000E400E0E5
:1007200080E100E002490143024A11607047000085
:100730000000FA050CED00E010B500F013F800F031
:10074000C5FB00F0EDFB00F00DFC00F095FB00F0A8
:1007500067FB00F0A1FC00F045FC00F06BFC00F032
:1007600002F810BD7047704706480078012808D18C
:1007700005480078FF2804D203480078401C02494D
:10078000087070475E0000205100002010B5002462
:100790001A480078012830D1FFF73CFD044618487C
:1007A000007820B116480078401E1549087014489A
:1007B0000078F8B913480078E0B900F0CFFC12488F
:1007C0001249097850F82100114908600F48007853
:1007D0001049097888420DD00D480068806B401C94
:1007E0000B49096888630C480068401C0A49086086
:1007F000FFF72FFD2046FFF711FD10BD5E00002022
:100800005100002052000020600A00205400002007
:100810006C000020530000203800002010B50B4869
:10082000007890B900F09AFC0948007809490870EE
:1008300009480749097850F8210008490860084626
:10084000006807490860FFF7ECFC10BD5E0000205F
:100850005400002053000020600A00206C0000209B
:100860006400002010B50024022000F0F5F9FFF725
:10087000D1FC044600200B4908602046FFF7CEFC5F
:10088000142000F0E9F9FFF7C5FC044605480068AC
:10089000054908600120054908702046FFF7BEFCA5
:1008A00010BD000060000020480000205000002023
:1008B000704700002DE9FE4F06460F4690461C4645
:1008C0004FF00009FFF7A6FC81461F48007828B1C9
:1008D0004846FFF7A3FC3C20BDE8FE8F1B4850F8BC
:1008E000240060BB0120194941F824004846FFF765
:1008F00095FC002342463946304600F009F982460D
:100900000020009001900346024651460290204686
:1009100000F03AFC054635B90D48007801280CD1A5
:1009200000F0E2FB09E0FFF775FC81460020074973
:1009300041F824004846FFF771FC2846CCE74846BA
:10094000FFF76CFC2820C7E751000020600A002058
:100950005E0000202DE9F04F85B081468A4693461F
:100960001C46DDE90F78129D00200390FFF752FC32
:1009700003902348007830B10398FFF74FFC3C20E8
:1009800005B0BDE8F08F1F4850F8240088BB012057
:100990001C4941F824000398FFF740FC2A464146D1
:1009A000384600F001FD2B465A465146484600F0B5
:1009B000AFF804901198CDE9008002953A462046A0
:1009C0000E9B049900F0E0FB064636B90E4800780D
:1009D00001280CD100F088FB09E0FFF71BFC039015
:1009E0000020084941F824000398FFF717FC30461F
:1009F000C6E7FFE70398FFF711FC2820C0E70000D7
:100A000051000020600A00205E00002070477047FF
:100A10002DE9F04106460F4614464FF000081548F0
:100A2000007818B112202070BDE8F081FFF7F2FBCA
:100A30008046FF2E03D11048006890F832600F48BE
:100A400050F826502DB94046FFF7E8FB43202070B0
:100A5000EAE7012D05D14046FFF7E0FB4320207077
:100A6000E2E7EF644046FFF7D9FB0020207000BFAB
:100A7000DAE700005100002064000020600A002036
:100A8000704700002DE9F04707460D464FF0000A79
:100A9000002028606860FFF7BDFB8246FF2F03D16E
:100AA0001948006890F83270184850F827402CB95F
:100AB0005046FFF7B3FB4320BDE8F087012C04D17B
:100AC0005046FFF7ABFB4320F6E7207C00F0010027
:100AD00020B95046FFF7A2FB4520EDE70026D4F8E9
:100AE0000C90D4F808805046FFF798FB00E0761C85
:100AF00058F8041B0029FAD0B0002860A9EB0600C2
:100B0000800068600020D7E764000020600A0020B1
:100B100070B5044610464FF080750560051F2846E5
:100B20002C606FF00106051F28462E604FF012362C
:100B3000051F28462E604FF00336051F28462E60FD
:100B40004FF00236051F28462E607610051F2846F6
:100B50002E60051F284629604FF01136051F2846D4
:100B60002E604FF01036051F28462E604FF00936D4
:100B7000051F28462E604FF00836051F28462E60B8
:100B80004FF00736051F28462E604FF00636051F2A
:100B900028462E604FF00536051F28462E604FF080
:100BA0000436051F28462E6070BD00002DE9F04177
:100BB00005464FF00008FFF72DFB8046FF2D05D1BD
:100BC0002048006890F83250012608E01D4800686F
:100BD00090F83200A84201D1012600E000261A4810
:100BE00050F825402CB94046FFF718FB4820BDE8D7
:100BF000F081012C04D14046FFF710FB4320F6E7BB
:100C000094F834701148C05D94F8351088430F494A
:100C1000C8550846C05D30B994F836100C480078C5
:100C200088430B49087094F8300040F0080084F8BD
:100C300030004046FFF7F2FA012E01D100F054FADD
:100C40000020D4E764000020600A00205600002045
:100C5000550000207047000070B505460026174873
:100C6000007800B170BD1648007800B1FAE71DB3F6
:100C7000FFF7D0FA06461348006890F8344012484F
:100C8000005D1049096891F8351088430E490855F0
:100C90000846005D40B90B48006890F836100B48D4
:100CA000007888430949087006480068C5623046E4
:100CB000FFF7B4FA00F018FA00BFD3E751000020A4
:100CC0005200002064000020560000205500002043
:100CD0002DE9F04104460D4616461F46124800789D
:100CE00010B15520BDE8F0811048007808B13220DD
:100CF000F8E7B81CC82148434FF47A71B0FBF1F112
:100D00004FF461606043C5EB051200EB8200304494
:100D100000EBC00202EB001001EBC0084046FFF7F9
:100D20009BFF0020DEE70000510000205200002061
:100D300070B5002600F072F8FFF76CFA06463148ED
:100D40000068401C2F4908603046FFF767FA2E48BC
:100D50000078012853D12D48007820B1012804D013
:100D6000022809D103E001250BE0002509E0012557
:100D700001202649087004E001250020234908705D
:100D800000BF00BF05B970BD2148046833E0FFF71C
:100D900041FA0646E06A50B3E06A401EE062E06A4B
:100DA00028BB94F8300000F0370040B114F8300F41
:100DB00000F0C800207001206070303C02E000208C
:100DC00084F8310094F8300000F0080078B9343429
:100DD000A0781049097808430E49087020780E4918
:100DE000085C6178084314F834190B4A505464695C
:100DF0003046FFF713FA94F832003F28C7D100BFFE
:100E0000C1E700007C0000205E000020740000208C
:100E100070000020550000205600002070470000A0
:100E20002DE9F0415021114800F02CF900250DE08A
:100E3000681C86B20D4800EB051400EB0617002075
:100E4000207067600AA0E060681C85B2042DEFD3B3
:100E5000064800EB051400202070606004A0E060EC
:100E6000024804490860BDE8F08100001006002037
:100E70003F0000004000002070B5C821114800F07C
:100E800001F900230FE0581C85B203EB83000D49E4
:100E900001EB800405EB850001EB8006002020704B
:100EA0006660581C83B2092BEDD303EB8300054920
:100EB00001EB800400202070606008460249086051
:100EC00070BD0000480500203C00002000200A49B9
:100ED00008600A4908700A4908700A4908700A49F6
:100EE00008700A4908600A4908600A4908600A4906
:100EF00008600A49087070477C00002051000020FB
:100F0000520000205F0000205E000020380000201A
:100F1000600000204C00002048000020500000200D
:100F200000210A4A1170002004E00021084A1154EF
:100F3000411CC8B20828F8D30021064A1170064A9D
:100F40001170064A1160064A116070475500002072
:100F50005600002053000020540000206C000020A8
:100F60006400002070B54FF47C71194800F08AF8D5
:100F70004FF48071174800F085F8002413E0601CDE
:100F8000C5B2C4EBC40000EB4000114901EB800383
:100F9000C5EBC50000EB400001EB80065E610EA0D2
:100FA000D864601CC4B20B2CE9D3C4EBC40000EBC2
:100FB0004000074901EB80030020586106A0D86477
:100FC00000200649086002480549086070BD00001D
:100FD000600B0020600A00203F000000700000202D
:100FE0006800002000B587B00320002180220A4B52
:100FF000CDE90132CDE903104FF6FF703F23074AD8
:1010000000900748FFF7A6FC06AA06A13F20FFF7BD
:10101000FFFC07B000BD0000600800205C0A002053
:10102000BD12000875432F4F532D49492049646C68
:101030006500000000B587B00320002180220A4B24
:10104000CDE90132CDE903104FF6FE703E23074A89
:1010500000900748FFF77EFC06AA06A13E20FFF796
:10106000D7FC07B000BD0000600600205C0800202F
:10107000E512000875432F4F532D494920537461E1
:101080007400000004E0002200F8012B4A1E91B217
:101090000029F8D1704700002DE9F041782110486F
:1010A000FFF7F0FF00240DE0601C86B204EB440063
:1010B0000B4901EBC00506EB460001EBC0072F60B2
:1010C000601C84B2042CEFD304EB4400044901EB10
:1010D000C00500202860084602490860BDE8F0818C
:1010E000500F00207800002010B50024FFF792F880
:1010F000044613480078F8B912480078E0B900F0C7
:101100002DF811481149097850F82100104908605C
:101110000E4800780F49097888420DD00C480068C5
:10112000806B401C0A49096888630B480068401CB2
:1011300009490860FFF786F82046FFF76FF810BDF1
:101140005100002052000020600A002054000020BE
:101150006C00002053000020380000200649074A98
:101160001278885C0649095C034A515C01EBC001B6
:10117000044A117070470000A41A000855000020AE
:1011800056000020540000202DE9F84F05460F4678
:1011900090469946DDE90AAB00200090FFF73AF847
:1011A00000903F480468002C74D0183454F8040CA4
:1011B0003B4908600098FFF731F844F8187CA576A1
:1011C000002020766076606144F814BC44F80CACD2
:1011D00044F8108C0C9824F8080C24F8069C002085
:1011E000E077E810207705F00700E076217F012006
:1011F0008840A077E17E0120884060770020606011
:10120000E060A0602062A0626062E062206325A0CE
:101210006063183C002606E0002104F1500040F80D
:101220002610701CC6B2002EF6D02046FFF740FBF9
:101230002046FFF7EBFBFEF7EDFF00901A4840F861
:1012400025401A48006860610020A06117480068C6
:1012500010B1164800688461144804603434A078E2
:101260001349097808431249087020781149085C2D
:101270006178084314F834190E4A50540E48007827
:10128000401C0D4908700098FEF7C8FF0020BDE81B
:10129000F88FFFE70098FEF7C1FF4220F7E7000054
:1012A000680000203F000000600A0020700000205D
:1012B00055000020560000205F000020002400BFE1
:1012C00000BFFEF7A7FF044605480068401C04491C
:1012D00008602046FEF7A2FFFFF799FBF1E7000048
:1012E00060000020002400BF02E02820FFF7B4FCCB
:1012F000194800780028F8D0184800686421B0FB2D
:10130000F1F0164908600846006828B90020144921
:101310000870FF20FFF74AFC00BFFEF77BFF044682
:10132000104800681049086000200E4908602046F7
:10133000FEF774FF0C48006808490968B0FBF1F03B
:10134000C0F1640006490870FFF79AFB00F00EF840
:101350001420FFF781FCE0E7500000204800002047
:1013600044000020600000204C0000207CB50025D7
:1013700014E069462846FFF785FB064666B909482A
:1013800050F8254044B1012C06D0D4E9020100EB0D
:10139000810060640198A064681CC5B23F2DE8D943
:1013A0007CBD0000600A002002F0010343B102F09E
:1013B00002032BB102E0491E002308C00029FAD124
:1013C0007047000029B1064A92690243044B9A61B2
:1013D00004E0034A92698243014B9A61704700001E
:1013E0000010024030B500210022002400232D4DC2
:1013F0006D6805F00C0121B1042905D0082923D11D
:1014000005E0294D056022E0274D05601FE0254DD0
:101410006D6805F47012234D6D6805F48034022563
:1014200005EB92421CB9214D554305600BE01D4D63
:101430006D6805F400351DB11C4D5543056002E093
:10144000194D5543056002E0174D056000BF00BF10
:10145000144D6D6805F0F0010909154D6B5C0568C8
:10146000DD4045600F4D6D6805F4E061090A104DDF
:101470006B5C4568DD4085600A4D6D6805F4605120
:10148000C90A0B4D6B5C4568DD40C560054D6D6854
:1014900005F44041890B074D6B5CC568B5FBF3F55E
:1014A000056130BD0010024000127A0000093D00C5
:1014B0002200002032000020704710B500F002F832
:1014C00010BD00000CB5002001900090334800686A
:1014D00040F480303149086000BF3048006800F4B3
:1014E000003000900198401C0190009818B90198B4
:1014F000B0F5A06FF1D12948006800F4003010B1B8
:101500000120009001E0002000900098012843D1C4
:101510002348006840F01000214908600846006830
:1015200020F0030008600846006840F002000860F0
:101530001A484068194948600846406848600846AB
:10154000406840F4806048600846406820F47C10A1
:1015500048600846406840F4E81048600846006863
:1015600040F08070086000BF0C48006800F0007018
:101570000028F9D00948406820F003000749486076
:101580000846406840F00200486000BF03484068D9
:1015900000F00C000828F9D10CBD0000001002403A
:1015A00000200240042808D14FF0E021096941F0F1
:1015B00004014FF0E022116107E04FF0E0210969DA
:1015C00021F004014FF0E0221161704710B5054889
:1015D0000078012805D1FFF7C7F8FFF7A9FBFFF74F
:1015E000D5F810BD5E00002010B51348006840F02B
:1015F00001001149086008464068104908400E493A
:101600004860084600680E4908400B4908600846D3
:10161000006820F4802008600846406820F4FE003E
:1016200048604FF41F008860FFF747FF4FF00060ED
:101630000449086010BD0000001002400000FFF8DF
:10164000FFFFF6FE08ED00E010B5FFF78DF840F261
:1016500025511E4800F04CF810B31C4800F004F966
:10166000C4B21B48008800F40040C8B9184800887C
:1016700000F4804060B10A2C03D000201449088097
:1016800020E01348008840F400401149088019E028
:101690000D2C06D10E48008840F480400C4908808B
:1016A00010E00B480088C0F30D000A490C540848AC
:1016B0000088401C0649088008460088C72801DDCC
:1016C00000200880FFF762F810BD000000380140DC
:1016D000200000208004002021B1828942F40052C1
:1016E000828104E082894DF6FF731A40828170473F
:1016F00070B50246002400230025002040F66A163B
:10170000B14200D100BFC1F3421501F01F03012611
:1017100006FA03F3012D02D19689334006E0022D2B
:1017200002D1168A334001E0968A33400C1201261A
:1017300006FA04F41688344013B10CB1012000E01D
:10174000002070BDF0B503460024002600250020CF
:1017500040F66A17B94200D100BF1846C1F34214DF
:1017600001F01F06012707FA06F5012C01D10C3004
:1017700004E0022C01D1103000E014301AB10768E7
:101780002F43076002E00768AF430760F0BD000029
:101790002DE9F04786B005460E460024A24600BF5C
:1017A000A1460027B08900B100BF2F462C8A4CF615
:1017B000FF700440F08804432C82AC894EF6F3108D
:1017C0000440B08831890843718908430443AC81DF
:1017D000AC8A4FF6FF400440B0890443AC8201A8B4
:1017E000FFF700FE1F48874202D1DDF810A001E09C
:1017F000DDF80CA0A88900F4004040B10AEBCA0053
:1018000000EB0A1031684900B0FBF1F807E00AEB81
:10181000CA0000EB0A1031688900B0FBF1F86420BF
:10182000B8FBF0F004012009642101FB1089A889AC
:1018300000F4004040B1322000EBC900B0FBF1F0F1
:1018400000F00700044308E0322000EB0910642197
:10185000B0FBF1F000F00F0004432C8106B0BDE8AE
:10186000F08700000038014001468888C0F3080076
:10187000704700BFFEE7014600BF704710B56FF02C
:101880000400FFF78FFE104800681049B0FBF1F02C
:101890000F4908700C4800680C49B0FBF1F441F2A4
:1018A0008830444305200B4908804FF0E020006950
:1018B00040F002004FF0E0210861084644610069F1
:1018C00040F00100086110BD0000002000127A0005
:1018D000180000201A00002000BF054A128802F0FC
:1018E0004002002AF9D0C2B2014B1B1D1A8070477A
:1018F0000038014000BF07480068C0430649C1F8EE
:1019000094014FF4FA73002211461046FFF7E0F9F4
:10191000F1E70000948121420080214200BF064887
:101920000068C0430549C1F894010023022219460A
:101930001846FFF7CDF9F2E7940123420000234255
:1019400010B5FFF79BFF4FF4A060FEF7EBFE4FF4DE
:10195000E13000F057F8FEF783FEFEF7EDFE0A23B4
:10196000044A00210448FEF7A5FFFEF757FF0020B8
:1019700010BD00007C010020A919000800BF084824
:1019800001680068401C064B186006A0FEF79EFC2C
:101990004FF4FA73002211461046FFF799F9EEE76B
:1019A0001400002025642C0070B50446002500BFFB
:1019B000FEF758FFFEF72EFC054609230B4A0021CF
:1019C0000B48FEF777FF08230A4A00210A48FEF772
:1019D00071FF0623094A00210948FEF76BFF0A2020
:1019E000FFF7E4F82846FEF719FC70BD7C020020E2
:1019F000F51800087C0300201D1900087C04002055
:101A00007D19000810B586B00446012144F2040097
:101A1000FFF7D8FC4FF40070ADF8140003208DF8E8
:101A2000160018208DF8170005A91C48FEF789FD3F
:101A30004FF48060ADF8140004208DF8170005A95C
:101A40001648FEF77EFD25208DF8000003208DF856
:101A500001008DF8020001208DF803006846FEF7B2
:101A600029FE01940020ADF80800ADF80A00ADF899
:101A70000C00ADF810000C20ADF80E0001A90848CC
:101A8000FFF786FE012240F225510548FFF75AFE76
:101A900001210348FFF720FE06B010BD00080140F9
:101AA00000380140000001000200010003000100B5
:101AB0000200010004000100020001000300010017
:101AC0000200010005000100020001000300010006
:101AD00002000100040001000200010003000100F7
:101AE00002000100060001000200010003000100E5
:101AF00002000100040001000200010003000100D7
:101B000002000100050001000200010003000100C5
:101B100002000100040001000200010003000100B6
:101B200002000100070001000200010003000100A3
:101B30000200010004000100020001000300010096
:101B40000200010005000100020001000300010085
:101B50000200010004000100020001000300010076
:101B60000200010006000100020001000300010064
:101B70000200010004000100020001000300010056
:101B80000200010005000100020001000300010045
:101B90000200010004000100020001000300010036
:101BA00002000100C41B00080000002080000000AB
:101BB0006C010008441C000880000020A8150000EB
:101BC0008801000800A24A04000000000000000094
:101BD00001020304060708090000000000000000DD
:101BE00000000000000000000000010203040102E8
:101BF00003040607080902040608000000000000AC
:101C000000000000000000000000000000000000D4
:101C100000000000000000000000000000000000C4
:101C200000000000000000000000000000000000B4
:101C300000000000000000000000000000000000A4
:041C400000000000A0
:04000005080001D519
:00000001FF
