:020000040800F2
:10000000305B0020310B0008D1020008D302000849
:10001000D7020008DB020008DF0200080000000031
:10002000000000000000000000000000E9010008DE
:10003000E3020008000000002D020008ED0800089F
:100040004B0B00084B0B00084B0B00084B0B000838
:100050004B0B00084B0B0008330800084B0B000843
:100060004B0B0008610800088D0800084B0B0008C6
:100070004B0B00084B0B00084B0B00084B0B000808
:100080004B0B00084B0B00084B0B00084B0B0008F8
:100090004B0B00084B0B00084B0B00084B0B0008E8
:1000A0004B0B00084B0B00084B0B00084B0B0008D8
:1000B0004B0B00084B0B00084B0B00084B0B0008C8
:1000C0004B0B00084B0B00084B0B00084B0B0008B8
:1000D0004B0B0008A70A00084B0B00084B0B00084D
:1000E0004B0B00084B0B00084B0B00084B0B000898
:1000F0004B0B00084B0B00084B0B00084B0B000888
:100100004B0B00084B0B00084B0B00084B0B000877
:100110004B0B00084B0B00084B0B00084B0B000867
:100120004B0B00084B0B00084B0B00084B0B000857
:1001300000F002F800F048F80AA090E8000C8244B1
:100140008344AAF10107DA4501D100F03DF8AFF28E
:10015000090EBAE80F0013F0010F18BFFB1A43F0A5
:10016000010318473C4D00005C4D0000103A24BFCD
:1001700078C878C1FAD8520724BF30C830C144BF0C
:1001800004680C607047000000230024002500264E
:10019000103A28BF78C1FBD8520728BF30C148BFEA
:1001A0000B607047642904F05D84752904F05A845B
:1001B000632904F0A885732904F0AD8500207047F9
:1001C0001FB51FBD10B510BD04F03BFE1146FFF773
:1001D000F7FF00F055F804F059FE03B4FFF7F2FF03
:1001E00003BC00F005FC0000224B19680868B0E869
:1001F000F00F80F30988BFF36F8F4FF0000080F39A
:1002000011884EF00D0E704700000000064800688F
:10021000006880F3088862B661B6BFF34F8FBFF302
:100220006F8F00DF00BF00BF08ED00E0EFF3098033
:10023000BFF36F8F0F4B1A6820E9F00F106008B5FD
:100240004FF0500080F31188BFF34F8FBFF36F8FD3
:1002500002F04BFE4FF0000080F31188BDE808402B
:1002600019680868B0E8F00F80F30988BFF36F8F52
:10027000704700BF48000020EFF305807047000082
:100280001CB54FF4407000F073FC00F037FB00F039
:10029000D3F94FF4E13000F0B9FB00F071FA0748F0
:1002A000012100238022CDE9001005A1074802F0BA
:1002B00075FA02F090FF00201CBD00000000002035
:1002C00073746172745F7461736B0000F5040008ED
:1002D000704700BFFEE700BFFEE700BFFEE700BFBC
:1002E000FEE770470CB50020019000906C48006854
:1002F00040F480306A49086000BF6948006800F433
:10030000003000900198401C0190009818B90198A5
:10031000B0F5A06FF1D16248006800F4003010B170
:100320000120009001E0002000900098012843D1B6
:100330005C48006840F010005A49086008460068B0
:1003400020F0030008600846006840F002000860E2
:10035000534840685249486008464068486008462B
:10036000406840F4806048600846406820F47C1093
:1003700048600846406840F4E81048600846006855
:1003800040F08070086000BF4548006800F00070D1
:100390000028F9D04248406820F0030040494860F6
:1003A0000846406840F00200486000BF3C48406892
:1003B00000F00C000828F9D10CBD10B5FFF792FF32
:1003C00010BD10B53648006840F00100344908609F
:1003D000084640683449084031494860084600688A
:1003E000324908402E4908600846006820F4802001
:1003F00008600846406820F4FE0048604FF41F0083
:100400008860FFF7DAFF4FF000602949086010BDEF
:1004100010B5002100200022214B5B6803F00C0185
:1004200021B1042906D0082928D107E0214B224C0C
:10043000236027E01F4B204C236023E0184B5B68B0
:1004400003F47010164B5B6803F48032022303EB55
:10045000904022B9194B4343174C23600DE0104BD9
:100460005B6803F4003323B1144B4343124C236005
:1004700003E0104B4343104C236003E00D4B0E4C44
:10048000236000BF00BF064B5B68C3F303130C4C33
:10049000E15C094B1B68CB40074C236010BD00009A
:1004A00000100240002002400000FFF8FFFFF6FEAF
:1004B00008ED00E000127A000400002000093D0071
:1004C0000800002000BF47480068C0434649C1F803
:1004D00094014FF47A7000F058FAF4E700BF4348F3
:1004E0000068C0434249C1F894014FF4FA7000F02B
:1004F0004CFAF4E71CB5044604F089F93DA004F079
:1005000033FA3E48022100233222CDE900103CA1FB
:10051000AFF2370002F042F93C48032100233222B7
:10052000CDE900103AA1AFF2630002F037F93B4881
:10053000006802F081F93AA004F016FA04F08AF992
:100540001CBD08B50020009000F09CF800BF002002
:1005500000F0B2F800909DF8000000283DD09DF812
:10056000000001282ED0022822D003280FD0042812
:1005700032D11E480C30006808B9012000E000208C
:100580001A490C31086028A004F0EEF924E017485D
:100590000068C0431649C1F894011348D0F894018B
:1005A000C0431149C1F8940120A004F0DDF913E023
:1005B0000C480068C0430C49C1F894011CA004F029
:1005C000D3F909E009480068C0430949C1F894011A
:1005D00018A004F0C9F900BFB9E70A2000F0D5F966
:1005E000B5E7000094012342000023429481214298
:1005F000008021426B616973686900001800002067
:100600006C6564305F7461736B0000001C00002037
:100610006C6564315F7461736B0000000000002042
:100620006A69657368750000533400005333000035
:10063000533200005331000008B50121482000F07A
:1006400021FE2020ADF8000010208DF803000320CB
:100650008DF802006946094800F058FB2021074840
:1006600000F001FC2020ADF800006946044800F0CD
:100670004DFB2021024800F0F6FB08BD000C0140B4
:100680000018014008B50121442000F0FBFD1C20AA
:10069000ADF8000048208DF803006946354800F0A9
:1006A00035FB0120ADF8000028208DF803006946D5
:1006B000314800F02BFB08BD10B5044614B10120F1
:1006C0002E4908702D480078002837D0102129487D
:1006D00000F0AFFB78B10821264800F0AAFB50B12A
:1006E0000421244800F0A5FB28B10121224800F094
:1006F000A0FB012822D10A2000F047F900201F4961
:10070000087010211B4800F094FB08B9012010BDAF
:100710000821184800F08DFB08B90220F7E70421F2
:10072000144800F086FB08B90320F0E701211248C5
:1007300000F07FFB01281BD10420E8E710210D48C1
:1007400000F077FB012813D108210A4800F071FB63
:1007500001280DD10421074800F06BFB012807D1C7
:100760000121054800F065FB10B90120034908701C
:100770000020CCE7001801400008014024000020C0
:100780000EB5FFF77FFF0121084600F07BFD032136
:10079000042000F0D1FB0820019000208DF8080013
:1007A0000C208DF8090001A800F0E2FF04210846A2
:1007B00000F0C2FB1020019001A800F0D9FF002139
:1007C000084600F0B9FB0120019008208DF80900CF
:1007D00001A800F0CDFF06208DF800000C208DF858
:1007E000010000208DF8020001208DF8030068460A
:1007F00000F0C3F909208DF800000D208DF80100EC
:1008000000208DF8020001208DF80300684600F0FA
:10081000B4F90A208DF800000E208DF801000020A8
:100820008DF8020001208DF80300684600F0A5F95C
:100830000EBD10B50A2000F0C6F80121224800F0D4
:10084000F8FA012808D121A004F08EF820480068A9
:10085000C0432049C1F89401012001F000F810BD07
:1008600010B50A2000F0AFF808211B4800F0E1FAAB
:1008700040B91AA004F078F819480068C043194933
:10088000C1F89401082000F0EAFF10BD10B50A205D
:1008900000F099F81021104800F0CBFA78B912A0B6
:1008A00004F062F80A480068C0430A49C1F894019C
:1008B0000C48D0F89401C0430A49C1F894011020B3
:1008C00000F0CDFF10BD000000080140300D0A000F
:1008D000948121420080214200180140330D0A001A
:1008E0009401234200002342340D0A0010B502F0A7
:1008F00024FF012801D003F0C5FF10BD10B504206E
:1009000000F085F9364800683649B0FBF1F0364909
:100910000870334800683349B0FBF1F44FF47A7043
:1009200044430120314908804FF0E020006940F045
:1009300002004FF0E021086108464461006940F080
:100940000100086110BD70B5034600224FF0E0269B
:100950007569254E367803FB06F44FF0E026B16941
:1009600010E04FF0E026B06988420BD0884202D2F6
:100970000E1A324402E02E1A0E4432440146A242BC
:1009800000D300E0EDE700BF70BD70B5044602F093
:10099000D4FE012810D015480088844206D313489D
:1009A0000088B4FBF0F5284602F076F90F4800887D
:1009B000B4FBF0F100FB11444FF47A7104FB01F039
:1009C000FFF7C1FF70BD30B50446002504E04FF4C9
:1009D0007A70FFF7B8FF6D1CA542F8D330BD000058
:1009E0000400002040420F002600002028000020C4
:1009F00000BF704700BF4A4A128802F04002002A36
:100A0000F9D0C2B2464B1B1D1A80704710B586B094
:100A10000446012144F2040000F034FC4FF400705D
:100A2000ADF8140003208DF8160018208DF817007B
:100A300005A93C4800F06AF94FF48060ADF8140055
:100A400004208DF8170005A9364800F05FF925202D
:100A50008DF800000B208DF8010000208DF80200B9
:100A600001208DF80300684600F087F8019400200B
:100A7000ADF80800ADF80A00ADF80C00ADF81000B4
:100A80000C20ADF80E0001A9254800F0A2FC0122BF
:100A900040F22551224800F034FD0121204800F0A9
:100AA00024FD06B010BD10B540F225511C4800F0E1
:100AB0000DFE10B31A4800F089FDC4B21A48008830
:100AC00000F40040C8B91848008800F4804060B1C4
:100AD0000A2C03D000201449088020E01248008826
:100AE00040F400401049088019E00D2C06D10E4852
:100AF000008840F480400C49088010E00A480088D3
:100B0000C0F30D0009490C5407480088401C0649F1
:100B1000088008460088C72801DD0020088010BD35
:100B2000003801400008014030000020BC000020D7
:100B30000948804709480047FEE7FEE7FEE7FEE771
:100B4000FEE7FEE7FEE7FEE7FEE7FEE704480549AD
:100B5000054A064B70470000C30300083101000836
:100B600030550020305B00203057002030570020E7
:100B700031490143314A1160704770B500210023AB
:100B80000F22C47804B32D4C246804F4E064C4F547
:100B9000E064210AC1F10403CA40447804FA03F175
:100BA0008478144021430901254C0678A155047826
:100BB00004F01F050124AC4005786D11AD0005F16E
:100BC000E025C5F8004109E0047804F01F05012480
:100BD000AC401C4D0678761145F8264070BD1A4A87
:100BE0000A400243154B1B1F1A60704739B1134A64
:100BF000121D12680243114B1B1D1A6006E00F4ABA
:100C0000121D126882430D4B1B1D1A607047042889
:100C100008D14FF0E021096941F004014FF0E022D2
:100C2000116107E04FF0E021096921F004014FF064
:100C3000E0221161704700000000FA050CED00E0B1
:100C400000E400E080E100E080FFFF1F10B50446F3
:100C5000CC48844208D10121042000F02DFB002162
:100C6000042000F029FB46E0C748844208D1012156
:100C7000082000F021FB0021082000F01DFB3AE0D5
:100C8000C248844208D10121102000F015FB002148
:100C9000102000F011FB2EE0BD48844208D1012154
:100CA000202000F009FB0021202000F005FB22E0BD
:100CB000B848844208D10121402000F0FDFA00210B
:100CC000402000F0F9FA16E0B348844208D101212F
:100CD000802000F0F1FA0021802000F0EDFA0AE017
:100CE000AE48844207D10121801500F0E5FA0021C9
:100CF000A01500F0E1FA10BD10B50121084600F082
:100D0000DBFA0021012000F0D7FA10BD2DE9F041F7
:100D1000024600250026002000230024002791F829
:100D200003C00CF00F0591F803C00CF0100CBCF1DF
:100D3000000F03D091F802C04CEA050591F800C0FD
:100D4000BCF1000F31D0146800202BE04FF0010CF3
:100D50000CFA00F3B1F800C00CEA03069E4220D161
:100D600083004FF00F0C0CFA03F7BC4305FA03FCA9
:100D70004CEA040491F803C0BCF1280F06D14FF0EF
:100D8000010C0CFA00FCC2F814C00AE091F803C090
:100D9000BCF1480F05D14FF0010C0CFA00FCC2F871
:100DA00010C0401C0828D1D31460B1F800C0BCF1B9
:100DB000FF0F34DD546800202EE000F1080C4FF0E6
:100DC000010808FA0CF3B1F800C00CEA03069E42D1
:100DD00021D183004FF00F0C0CFA03F7BC4305FA46
:100DE00003FC4CEA040491F803C0BCF1280F05D1C0
:100DF00000F1080C08FA0CF8C2F8148091F803C04E
:100E0000BCF1480F07D100F1080C4FF0010808FAB7
:100E10000CF8C2F81080401C0828CED35460BDE8FE
:100E2000F0814FF6FF710180022181700421C170B1
:100E300070470246002093680B400BB1012000E090
:100E4000002070470146886880B270470246002043
:100E5000D3680B400BB1012000E000207047014631
:100E6000C86880B2704701617047416170470AB13C
:100E7000016100E041617047C16070474FF480320A
:100E80000A43826181618261826982697047024698
:100E90000020434B18684FF68073184040EA021058
:100EA00008433F4B186070473E49C8617047F0B532
:100EB0000A46002300240021002500F00046B6F178
:100EC000004F02D1364EF16901E0354E7168C0F332
:100ED000034583B200F44016B6F5401F08D121F057
:100EE00070612F4E766826F070662D4F7E6012E09E
:100EF00000F48016B6F5801F06D1032606FA05F425
:100F0000A14341F0706106E0460D360103FA06F692
:100F1000B14341F0706122B1460D360103FA06F685
:100F2000314300F00046B6F1004F02D11C4EF16192
:100F300001E01B4E7160F0BD30B500228B071C0F25
:100F40000F2303FA04F2164B08338C1053F82430A5
:100F50009343134C08348D1044F8253023468C10ED
:100F600053F824308C07240F00FA04F423430C4C6C
:100F700008348D1044F8253030BD0A49DC31086052
:100F80007047000000080140000C014000100140C3
:100F90000014014000180140001C014000200140E5
:100FA0000000014000002042DF48006840F00100DE
:100FB000DD49086008464068DC490840DA49486075
:100FC00008460068DA490840D749086008460068C2
:100FD00020F4802008600846406820F4FE00486045
:100FE0004FF41F0088607047CF49096821F48031B1
:100FF000CD4A11601146096821F480211160B0F5D5
:10100000803F03D0B0F5802F0ED106E0C6490968B5
:1010100041F48031C44A116007E0C349096841F4D2
:10102000A021C14A116000E000BF00BF704710B5A9
:1010300001460022002300204A11012A02D1BA4CA5
:10104000236806E0022A02D1B74C236A01E0B64CBD
:10105000636A01F01F02012494401C400CB101207E
:1010600000E0002010BD38B50020009000240025CD
:1010700000BF3120FFF7DBFF05460098401C0090C1
:101080000098B0F5A06F01D0002DF2D03120FFF70D
:10109000CEFF08B1012400E00024204638BD0146FF
:1010A0000020A14A106820F0F80040EAC10010605A
:1010B0007047A04908607047024600209A4B586864
:1010C00020F47C1042EA01031843974B58607047A4
:1010D00098490866704701460020934A506820F0FE
:1010E00003000843506070478F48406800F00C00D0
:1010F0007047014600208C4A506820F0F0000843F9
:101100005060704701460020874A506820F4E06034
:1011100008435060704701460020834A506820F41D
:10112000605040EAC1005060704729B17E4A527A4F
:1011300002437D4B5A7204E07B4A527A82437A4BD7
:101140005A7270477B49D8310860704701460020C9
:10115000754A506820F440400843506070470021B1
:10116000714A20321170704A82F82010012802D092
:1011700004280AD104E001216B4A2032117005E0F5
:101180000521694A2032117000E000BF00BF70479E
:101190006949086070476449096A0143624A1162FB
:1011A0007047654944390860704730B50021002216
:1011B000002400235C4D6D6805F00C0121B1042969
:1011C00005D0082923D105E05C4D056022E05B4D88
:1011D00005601FE0544D6D6805F47012524D6D6846
:1011E00005F48034022505EB92421CB9544D554359
:1011F00005600BE04C4D6D6805F400351DB1504D98
:101200005543056002E04D4D5543056002E04B4DEE
:10121000056000BF00BF444D6D6805F0F00109098D
:10122000484D6B5C0568DD4045603F4D6D6805F4D9
:10123000E061090A434D6B5C4568DD4085603A4DCD
:101240006D6805F46051C90A3E4D6B5C4568DD4030
:10125000C560354D6D6805F44041890B3A4D6B5CB6
:10126000C568B5FBF3F5056130BD29B12E4A526959
:1012700002432D4B5A6104E02B4A526982432A4BA8
:101280005A61704729B1284A92690243264B9A61F4
:1012900004E0254A92698243234B9A61704729B141
:1012A000214AD2690243204BDA6104E01E4AD26926
:1012B00082431D4BDA61704729B11B4AD268024351
:1012C000194BDA6004E0184AD2688243164BDA60A0
:1012D000704729B1144A12690243134B1A6104E0A2
:1012E000114A12698243104B1A6170471249403902
:1012F000086070470F49C86470470B49C871704750
:101300000948406A40F080700749486270470146CA
:101310000020054A92680A400AB1012000E000203E
:101320007047014988727047001002400000FFF8C2
:10133000FFFFF6FE000042428004424200127A00A3
:1013400000093D00320000204200002010B5044694
:10135000FB48844209D101218803FFF7ADFF00213A
:101360004FF48040FFF7A8FF32E0F648844209D1ED
:1013700001214804FFF7ADFF00214FF40030FFF7D3
:10138000A8FF25E0F048844209D101218804FFF735
:10139000A0FF00214FF48020FFF79BFF18E0EB48EF
:1013A000844209D10121C804FFF793FF00214FF4C3
:1013B0000020FFF78EFF0BE0E548844208D10121B1
:1013C0000805FFF786FF00214FF48010FFF781FF2B
:1013D00010BD2DE9F04786B005460E460024A24612
:1013E00000BFA1460027B08900B100BF2F462C8A5C
:1013F0004CF6FF700440F08804432C82AC894EF612
:10140000F3100440B08831890843718908430443CC
:10141000AC81AC8A4FF6FF400440B0890443AC82F3
:1014200001A8FFF7C2FEC648874202D1DDF810A02E
:1014300001E0DDF80CA0A88900F4004040B10AEBFF
:10144000CA0000EB0A1031684900B0FBF1F807E070
:101450000AEBCA0000EB0A1031688900B0FBF1F812
:101460006420B8FBF0F004012009642101FB10891D
:10147000A88900F4004040B1322000EBC900B0FB65
:10148000F1F000F00700044308E0322000EB0910FF
:101490006421B0FBF1F000F00F0004432C8106B092
:1014A000BDE8F0874FF41651016000218180C180B2
:1014B00001810C21418100218181704710B50246D4
:1014C0000020108A4FF2FF0318400B884C882343FA
:1014D0008C882343CC8823431843108210BD0021FD
:1014E000018041808180C180704721B1828942F4AE
:1014F0000052828104E082894DF6FF731A40828196
:101500007047F0B50346002400260025002040F671
:101510006A17B94200D100BF1846C1F3421401F066
:101520001F06012707FA06F5012C01D10C3004E053
:10153000022C01D1103000E014301AB107682F439B
:10154000076002E00768AF430760F0BD1AB1838A05
:101550000B43838202E0838A8B4383827047028A33
:101560004FF6F0731A400282028A0A4302827047E1
:1015700082894FF2FF731A40828182890A438281F5
:10158000704721B1828942F00202828104E082899F
:101590004FF6FD731A4082817047028A4FF6DF735F
:1015A0001A400282028A0A430282704721B1028AEB
:1015B00042F48042028204E0028A4BF6FF731A4032
:1015C00002827047C1F30802828070470146888812
:1015D000C0F308007047818941F0010181817047A3
:1015E000028BD2B20283028B42EA0122028370474D
:1015F000028B02F47F420283028B0A43028370470C
:1016000021B1828A42F02002828204E0828A4FF66F
:10161000DF731A408282704721B1828A42F0100241
:10162000828204E0828A4FF6EF731A40828270470A
:1016300021B1828A42F00802828204E0828A4FF657
:10164000F7731A408282704721B1828942F40042C6
:10165000828103E08289C2F30E028281704721B148
:10166000828A42F40062828204E0828A4FF2FF732F
:101670001A4082827047828A4FF6FB731A40828238
:10168000828A0A438282704721B1828A42F0020232
:10169000828204E0828A4FF6FD731A40828270478C
:1016A00002460020B1F5007F00D100BF13880B4037
:1016B0000BB1012000E00020704701F40072B2F588
:1016C000007F00D100BFCA430280704770B5024658
:1016D000002400230025002040F66A16B14200D104
:1016E00000BFC1F3421501F01F03012606FA03F300
:1016F000012D02D19689334006E0022D02D1168ACF
:10170000334001E0968A33400C12012606FA04F4B5
:101710001688344013B10CB1012000E0002070BDE8
:1017200010B50022002340F66A14A14200D100BF88
:101730000A1201249440A3B2DC43048010BD0000CF
:10174000003801400044004000480040004C004088
:1017500000500040002044490860091D0860091D30
:101760000860091D086041483F491431086070470E
:1017700000213D498279002A3AD00A46126803685E
:101780009A430B461A600A1D126803689A430B1DA0
:101790001A60027911440A6803681A430A60324ADF
:1017A0000832126803689A432F4B08331A601A1DD7
:1017B000126803689A432C4B0C331A604279102A42
:1017C0000ED11A1F126803681A43274B08331A6098
:1017D0001A1D126803681A43234B0C331A600DE07C
:1017E0002149427911440A6803681A430A6005E0F6
:1017F000027911440A6803689A430A60704700211D
:10180000016001710C2141710021817170471649FD
:10181000103109680143144A1032116070470146C3
:101820000020114A143212680A400AB1012000E077
:10183000002070470C4914310860704701460020B1
:101840000022094B1B6803EA0102074B14331B6893
:101850000B4013B10AB1012000E00020704702499B
:10186000143108607047000000040140FFFF0F00C2
:1018700000F1080141604FF0FF31816000F1080183
:10188000C160016100210160704700210161704762
:1018900042684A6093688B60936859609160086100
:1018A00003685B1C0360704710B502460B685C1C44
:1018B0000CB9106907E002F1080000E040684468D4
:1018C00024689C42FAD944684C604C68A1608860E6
:1018D00041600A611468641C146010BD01460A6905
:1018E000D1E901309860D1E901035860506888421D
:1018F00001D188685060002008611068401E1060A7
:101900001068704770B505460E462C462CB940F25B
:101910001B12FAA1FEA003F027F802F078FFD4E929
:101920000F12206801FB020060600020A0632068A5
:10193000A060E06B401E226C216800FB0210E0609A
:10194000FF2084F8440084F845009EB9206908B956
:10195000012000E00020A8B904F1100001F0ECFD26
:1019600080B14FF08050EE490860BFF34F8FBFF356
:101970006F8F07E004F11000FFF77AFF04F12400F5
:10198000FFF776FF02F066FF012070BD2DE9F04100
:1019900006460D4617469846069C0DB9246000E0A1
:1019A0002760E663256401212046FFF7ABFF84F83A
:1019B00050800020A064BDE8F0812DE9F843054681
:1019C0000E4690460DB1012000E0002028B94FF4EA
:1019D000C472CAA1CEA002F0C7FF0EB9002701E071
:1019E00005FB06F707F1540002F097FD044644B1E9
:1019F00004F1540943464A46314628460094FFF70D
:101A0000C5FF2046BDE8F8832DE9F04104460F46A6
:101A100015464FF00008A66B206C40B9206860BBEB
:101A2000606801F0E8FE80460020606025E07DB936
:101A30003946226CA06803F094F8216CA068084431
:101A4000A060D4E90110884217D32068A06014E098
:101A50003946226CE06803F084F8216CE068401A93
:101A6000E0602168E068884203D2216C6068401A17
:101A7000E060022D01D106B1761E701CA0634046C5
:101A8000BDE8F0812DE9F3410D460098846C0027F4
:101A90002CB940F6CE1299A19DA002F065FFA06B73
:101AA000E16B884201D2012000E0002028B940F615
:101AB000CF1292A196A002F057FFA06BE16B884273
:101AC0001BD294F945602A4669462046FFF79CFFE1
:101AD0000746701C60B9606A08B9012000E0002068
:101AE00050B904F1240001F027FD28B1012703E0DB
:101AF000701C40B284F8450000BF3846BDE8FC8148
:101B000070B5044602F083FE94F945501AE0A06CCB
:101B100038B100212046FFF7B5FF88B101F0E0FDA4
:101B20000EE0606A08B9012000E0002038B904F135
:101B3000240001F001FD18B101F0D2FD00E003E046
:101B4000681E45B2002DE2DC00BFFF2084F845008E
:101B500002F080FE02F05BFE94F9445010E0206930
:101B600008B9012000E0002048B904F1100001F09C
:101B7000E3FC08B101F0B4FD681E45B200E001E0ED
:101B8000002DECDC00BFFF2084F8440002F062FE70
:101B900070BD70B5054602F03AFEA86BE96B88424D
:101BA00001D1012400E0002402F054FE204670BD63
:101BB0002DE9FF4383B0064688461D464FF00009D5
:101BC00034462CB940F2D9224CA151A002F0CCFEEF
:101BD000B8F1000F01D1206C08B9012000E000200D
:101BE00028B940F2DA2245A149A002F0BDFE022D3B
:101BF00002D1E06B012801D1012000E0002028B9CA
:101C000040F2DB223DA142A002F0AEFE01F095FDC4
:101C100008B9059808B9012000E0002028B940F271
:101C2000DE2236A13AA002F09FFE00BF02F0EFFDD7
:101C3000A06BE16B884201D3022D38D12A46414680
:101C40002046FFF7E1FE0746A06C68B12946204612
:101C5000FFF718FF28B34FF0805031490860BFF3F9
:101C60004F8FBFF36F8F1CE0606A08B9012000E05E
:101C7000002068B904F1240001F05EFC88B14FF047
:101C8000805027490860BFF34F8FBFF36F8F08E084
:101C90003FB14FF0805022490860BFF34F8FBFF330
:101CA0006F8F02F0D7FD012007B0BDE8F0830598E3
:101CB00018B902F0CFFD0020F6E7B9F1000F04D10A
:101CC00001A801F0BDFC4FF0010902F0C3FD00F0D6
:101CD00082FF02F09CFD94F94400401C10B90020E2
:101CE00084F8440094F94500401C10B9002084F8A1
:101CF000450002F0AFFD05A901A813E02E2E5C46B9
:101D000072656552544F535C71756575652E63003D
:101D10004572726F723A25732C25640D0A0000001B
:101D200004ED00E001F09EFCF8B92046FFF731FF1A
:101D3000A8B104F11000059901F0A0FB2046FFF7BF
:101D4000DFFE00F09DFE00287FF470AF4FF0805062
:101D5000FA490860BFF34F8FBFF36F8F66E72046E5
:101D6000FFF7CEFE00F08CFE60E72046FFF7C8FECE
:101D700000F086FE002097E710B504464CB1002025
:101D800060602060E06000231A4619462046FFF795
:101D90000FFF10BD2DE9F041044601260027224621
:101DA00000210120FFF709FE05462846FFF7E4FF62
:101DB0002846BDE8F08170B5064634463CB940F28D
:101DC0004122AFF2C801AFF2B80002F0CDFD01F040
:101DD000B1FC616888420CD1E068401EE060E068B8
:101DE00028B900231A4619462046FFF7E1FE0125CF
:101DF00000E00025284670BD70B5054602F007FDDD
:101E0000A86B08B9012400E0002402F023FD20465D
:101E100070BD70B504460D46206C70B1216CE06851
:101E20000844E0606168E068884201D32068E060AF
:101E30002846226CE16802F094FE70BD2DE9FF4750
:101E400082B005460E461F464FF0000A2C463CB9AC
:101E500040F2DC42AFF25C11AFF24C1002F084FDB4
:101E60000EB9206C08B9012000E0002038B940F21A
:101E7000DD42AFF27811AFF2681002F075FD01F0AB
:101E80005CFC08B9049808B9012000E0002038B9CA
:101E90004FF49C62AFF29C11AFF28C1002F064FD23
:101EA00000BF02F0B4FCD4F83890B9F1000F3DD077
:101EB000D4F80C8031462046FFF7ABFFDFB9A9F11B
:101EC0000100A063206810B901F074FD6060206912
:101ED00008B9012000E0002010BB04F1100001F05F
:101EE0002BFBE8B14FF0805094490860BFF34F8F4F
:101EF000BFF36F8F14E0C4F80C80606A08B901204A
:101F000000E0002060B904F1240001F015FB38B1B5
:101F10004FF0805089490860BFF34F8FBFF36F8F38
:101F200002F098FC012006B0BDE8F087049818B9CB
:101F300002F090FC0020F6E7BAF1000F04D16846E9
:101F400001F07EFB4FF0010A02F084FC00F043FE3A
:101F500002F05DFC94F94400401C10B9002084F8A4
:101F6000440094F94500401C10B9002084F8450055
:101F700002F070FC04A9684601F074FB40BB2046E7
:101F8000FFF73AFFF0B1206830B902F040FC60681A
:101F900001F0DFFB02F05EFC04F12400049901F083
:101FA0006DFA2046FFF7ACFD00F06AFD00287FF4D3
:101FB00078AF4FF0805061490860BFF34F8FBFF397
:101FC0006F8F6EE72046FFF79BFD00F059FD68E735
:101FD0002046FFF795FD00F053FD2046FFF70CFF6C
:101FE0000028EED000209EE72DE9F04106460F467E
:101FF00034463CB94FF41E72AFF20031AFF2F0201C
:1020000002F0B2FC01F096FB6168884204D1E068FE
:10201000401CE06001250AE000233A4619462046AC
:10202000FFF70CFF054615B1E068401CE06028464C
:10203000BDE8F08170B505460E460DB1012000E007
:10204000002038B940F2BD22AFF25031AFF240303B
:1020500002F08AFCAE4201D8012000E0002038B92D
:1020600040F2BE22AFF26C31AFF25C3002F07CFC89
:10207000022200212846FFF7A0FC044604B1A66313
:10208000204670BD2DE9F05F80468A4615461E4603
:1020900044463CB940F29F32AFF2A031AFF29030EB
:1020A00002F062FCBAF1000F01D1206C08B90120E6
:1020B00000E0002038B94FF46872AFF2C031AFF2DF
:1020C000B03002F051FC022E02D1E06B012801D1A8
:1020D000012000E0002038B940F2A132AFF2E43133
:1020E000AFF2D43002F040FC02F0E4FB00BF50211C
:1020F000EFF3118081F31188BFF34F8FBFF36F8F20
:1021000000BF0746A06BE16B884201D3022E2ED19F
:1021100094F945B0324651462046FFF775FC0BF165
:102120000100E0B9A06C58B131462046FFF7AAFC87
:10213000D0B1CDB10120286016E0000004ED00E030
:10214000606A08B9012000E0002068B904F12400A9
:1021500001F0F2F940B13DB10120286004E00BF13B
:10216000010040B284F845004FF0010901E04FF052
:10217000000900BF87F3118800BF4846BDE8F09F03
:102180002DE9F04707460D463C463CB940F23C423B
:10219000AFF29841AFF2884002F0E6FB206C08B93C
:1021A000012000E0002038B94FF48862AFF2B4415A
:1021B000AFF2A44002F0D8FB206808B9606808B903
:1021C000012000E0002038B940F24542AFF2D4418E
:1021D000AFF2C44002F0C8FB02F06CFB00BF50211C
:1021E000EFF3118081F31188BFF34F8FBFF36F8F2F
:1021F00000BF0646D4F83890E06B484529D994F9D9
:1022000045A009F10100A0630AF10100C8B9A06C62
:1022100040B100212046FFF735FCB8B1B5B101202F
:10222000286013E0606A08B9012000E0002068B966
:1022300004F1240001F080F940B13DB10120286093
:1022400004E00AF1010040B284F845004FF00108B3
:1022500001E04FF0000800BF86F3118800BF404640
:10226000BDE8F0872DE9F05F0646894617463446FB
:102270003CB94FF4B462AFF27C51AFF26C5002F053
:1022800073FBB9F1000F01D1206C08B9012000E007
:10229000002038B940F2A152AFF2A051AFF29050F5
:1022A00002F062FB02F006FB00BF5021EFF3118049
:1022B00081F31188BFF34F8FBFF36F8F00BF0546C7
:1022C000D4F838A0BAF1000F22D094F944B04946AE
:1022D0002046FFF79EFDAAF10100A0630BF101006B
:1022E00070B9206908B9012000E0002068B904F144
:1022F000100001F021F940B13FB10120386004E045
:102300000BF1010040B284F844004FF0010801E0F5
:102310004FF0000800BF85F3118800BF4046BDE8BC
:10232000F09F2DE9F0470646884634463CB940F216
:10233000FC52AFF23861AFF2286002F015FBB8F141
:10234000000F01D1206C08B9012000E0002038B94D
:1023500040F2FD52AFF25C61AFF24C6002F004FB60
:10236000206C08B1012000E0002038B940F2FE5294
:10237000AFF27861AFF2686002F0F6FA02F09AFA12
:1023800000BF5021EFF3118081F31188BFF34F8F0D
:10239000BFF36F8F00BF0546A06B48B1D4F80C9017
:1023A00041462046FFF735FDC4F80C90012700E0B8
:1023B000002700BF85F3118800BF3846BDE8F087CD
:1023C00070B504463CB940F22F62AFF2D061AFF273
:1023D000C06002F0C9FA02F01AFAA56B02F03AFAEC
:1023E000284670BD70B5044625463DB940F24162AD
:1023F000AFF2F861AFF2E86002F0B6FA02F007FA65
:10240000D5E90E10461A02F025FA304670BD70B5B7
:1024100004463CB940F25162AFF22071AFF2107045
:1024200002F0A2FAA56B284670BD014600200EE01E
:10243000764A02EBC00252688A4207D10022734BEF
:1024400043F8302003EBC0035A6002E0401C082828
:10245000EED300BF704770B5044625463DB940F243
:102460005D62AFF26871AFF2587002F07DFA2846F3
:10247000FFF7DBFF284602F0D3F870BD0146C86CB9
:102480007047C1647047014691F85000704770B5BD
:1024900005463DB940F29372AFF2A071AFF2907071
:1024A00002F062FAA86B08B9012400E0002420467B
:1024B00070BD70B504463CB940F2BA72AFF2C47157
:1024C000AFF2B47002F050FAA06BE16B884201D118
:1024D000012500E00025284670BD024600200BE0E3
:1024E0004A4B53F8303033B9484B43F8301003EBC4
:1024F000C0035A6002E0401C0828F1D300BF7047B7
:102500000246002000210AE0404B03EBC1035B6858
:10251000934203D13D4B53F8310002E0491C082996
:10252000F2D300BF70472DE9F04105460E4617462D
:102530002C4602F06CF994F94400401C10B90020BC
:1025400084F8440094F94500401C10B9002084F838
:10255000450002F07FF9A06B28B93A46314604F1F4
:10256000240000F0CEFF2046FFF7CAFABDE8F08154
:1025700070B50446002204212046FFF71EFA0546E6
:10258000284670BD70B504460E4602F040F9A06CB6
:1025900008B1002505E0A06B08B1002501E0A664A4
:1025A000012502F057F9284670BD2DE9F041054696
:1025B0000F462E46B06CB84201D000240AE0B06B42
:1025C00008B1002406E002F022F90020B06402F015
:1025D00041F901242046BDE8F08138B505460C4696
:1025E000002000900023224669462846FFF726FC7B
:1025F000009838BD38B50446002000900022694696
:102600002046FFF72FFE009838BD0000840100200F
:1026100010B5002407E004EB8401FB4A02EB8100C3
:10262000FFF726F9641C202CF5D3F848FFF720F9B2
:10263000F748FFF71DF9F748FFF71AF9F648FFF7D3
:1026400017F9F648FFF714F9F048F5490860F04823
:10265000F449086010BD10B5044602F0D8F8F248FD
:102660000068401CF0490860F048006840B9EF4835
:1026700004600846006801280DD1FFF7C9FF0AE091
:10268000EB48006838B9E9480068C06AE16A8842E6
:1026900001D8E6480460E7480068401CE549086046
:1026A00008460068606494F82C1001208840E249D4
:1026B00009680843E0490860E16A01EB8101D24AF8
:1026C00002EB8100211DFFF7E3F802F0C3F8D848C0
:1026D000006868B1D5480068C06AE16A884207D2DC
:1026E0004FF08050D5490860BFF34F8FBFF36F8F15
:1026F00010BD2DE9F05F82460F4690469B460A9E2C
:102700000C9C4FEA8801A522206B02F06FFAA8F119
:102710000100216B01EB800929F0070909F007008E
:1027200008B9012000E0002028B940F22B32C4A1F2
:10273000C8A002F019F9002507E0795D04F1340022
:102740004155785D00B902E06D1C102DF5D300BF36
:10275000002143200155202E00D31F26E662E664A7
:1027600000202065201DFFF790F804F11800FFF706
:102770008CF82461C6F12000A061646200206065CD
:1027800084F858005A465146484601F0CDFF206073
:102790000B9808B10B980460BDE8F09F2DE9FF4F3E
:1027A00085B0804689461746DDE912ABB80001F0D6
:1027B000B4FE064656B15C2001F0AFFE04460CB1F3
:1027C000266304E0304601F02BFF00E000247CB1DA
:1027D0000020CDE900ABCDE902403A4649464046EB
:1027E000089BFFF786FF2046FFF735FF012501E034
:1027F0004FF0FF35284609B0BDE8F08F88490968D9
:10280000096809B9012100E0002121B14FF0FF3131
:10281000944A116006E082490968C968C868914A0B
:1028200041681160704710B50446206B01F0F8FE56
:10283000204601F0F5FE10BD70B5054601F0E7FF3A
:1028400015B97A48006800E028460446201DFFF7C5
:1028500045F878B9E06A00EB80006B4951F8200038
:1028600040B994F82C1001208840734909688143CD
:1028700071480160A06A18B104F11800FFF72EF842
:102880006C480068401C6B490860684800688442D6
:1028900009D1211D6048FEF7FBFF73480068401C0A
:1028A0007149086009E060480068401E5E490860A0
:1028B0002046FFF7B8FFFFF7A1FF01F0CBFF5C4810
:1028C0000068C0B159480068844214D16748006864
:1028D00008B9012000E0002028B940F2654258A163
:1028E0005CA002F041F84FF0805054490860BFF3FB
:1028F0004F8FBFF36F8F70BD2DE9F0414FF000088F
:102900005A480068002872D159480068451C584848
:102910000560EDB942480068006808B9012000E090
:10292000002028B940F6D91245A14AA002F01CF8AF
:102930003B4807683B4800683949086039480760E8
:102940004C480068401C4B490860FFF757FF00BF28
:102950004448006885423CD300BF314800680068A5
:1029600008B9012000E0002020B14FF0FF303D49C0
:1029700008602DE02A480068C068C4686668B542EF
:1029800002D23848066023E0201DFEF7A7FFA06AA8
:1029900018B104F11800FEF7A1FF94F82C100120E3
:1029A000884025490968084323490860E16A01EB2A
:1029B0008101154A02EB8100211DFEF769FF1B49C9
:1029C000E06A0968C96A8842C7D34FF00108C4E7C2
:1029D00000BF16480068C06A00EB80000A4951F841
:1029E0002000012801D94FF0010805E0FFE7224847
:1029F0000068401C204908602048006808B14FF07A
:102A000001084046BDE8F081C401002044040020D4
:102A1000580400206C04002080040020940400204E
:102A20004C000020500000205800002048000020EA
:102A300064000020740000206000002004ED00E02D
:102A40002E2E5C4672656552544F535C7461736BF5
:102A5000732E63004572726F723A25732C25640DD4
:102A60000A000000780000205400002080000020B0
:102A70005C00002070000020680000206C00002036
:102A800070B500240026FE48006838B94FF4FD6296
:102A9000AFF25401AFF2440001F066FF01F0B7FE5F
:102AA000F7480068401EF64908600846006800289C
:102AB0004FD1F448006800284BD024E0F248C068A9
:102AC000C46804F11800FEF709FF201DFEF706FF99
:102AD00094F82C1001208840EC4909680843EB4920
:102AE0000860E16A01EB8101E94A02EB8100211DE6
:102AF000FEF7CEFEE749E06A0968C96A884202D358
:102B00000120E5490860E048006808B9012000E0BC
:102B100000200028D2D00CB1FFF770FEDF48056816
:102B200065B100BFFFF7E8FE10B10120DA49086087
:102B30006D1E002DF6D10020D8490860D6480068E7
:102B400038B101263007D6490860BFF34F8FBFF375
:102B50006F8F01F07FFE304670BD2DE9F0410546D4
:102B60000E46D0480768CB480068001DFEF7B6FE49
:102B700050B9C848006890F82C1001208840C3491B
:102B800009688143C1480160681C38B936B1C14841
:102B90000168091DC448FEF77BFE1AE07C19BD4898
:102BA00000684460BC4207D2BA480168091DBF48AA
:102BB0000068FEF779FE0CE0B6480168091DBC48C4
:102BC0000068FEF771FEBB480068844201D2B94834
:102BD0000460BDE8F081AA480068401CA84908606C
:102BE00070472DE9F04704460F464FF000093CB905
:102BF00040F27942AFF2B811AFF2A81001F0B4FE82
:102C00000FB1012000E0002038B940F27A42AFF263
:102C1000D011AFF2C01001F0A7FE9948006808B9C2
:102C2000012000E0002038B940F27B42AFF2F01101
:102C3000AFF2E01001F098FEFFF7CDFF994806686B
:102C40002068C5192068B04207D92068A8420BD96E
:102C5000B54209D94FF0010906E02068A84201D821
:102C6000B54201D94FF001092560B9F1000F03D039
:102C7000A81B0021FFF771FFFFF702FF8046B8F1A4
:102C8000000F07D14FF0805085490860BFF34F8F88
:102C9000BFF36F8FBDE8F08770B504460025BCB167
:102CA0007748006808B9012000E0002038B940F2F8
:102CB000CF42AFF27421AFF2642001F055FEFFF76E
:102CC0008AFF00212046FFF748FFFFF7D9FE05469F
:102CD0003DB94FF0805072490860BFF34F8FBFF38A
:102CE0006F8F70BD2DE9F04107463E463EB940F278
:102CF000FB42AFF2B421AFF2A42001F035FE6548EB
:102D00000068864201D100241EE001F080FD756953
:102D100001F0A0FD66480068854203D06348006862
:102D2000854201D102240FE05F48854205D1B06A97
:102D300008B9032408E0022406E05F48854200D079
:102D40000DB9042400E001242046BDE8F08170B5EF
:102D5000044601F05CFD14B94E48006800E02046CE
:102D60000646F56A01F076FD284670BD2DE9F04172
:102D7000054601F09FFD00BF5021EFF3118081F364
:102D80001188BFF34F8FBFF36F8F00BF044615B993
:102D90004048006800E028460746FE6A00BF84F30A
:102DA000118800BF3046BDE8F0812DE9F04780462C
:102DB0000D464FF00009202D01D2012000E0002037
:102DC00038B94FF4B062AFF28831AFF2783001F029
:102DD000CBFD202D00D31F2501F019FDB8F1000F08
:102DE00002D12C48006800E040460446E66CAE4242
:102DF00077D0B5420BD92748006884420DD02548CA
:102E00000068C06AA84208D84FF0010905E02148CF
:102E10000068844201D14FF00109E76AE16AE06C81
:102E2000884200D1E562E564A06900F0004010B975
:102E3000C5F12000A06107EB8701154A02EB810173
:102E40006069884201D1012000E00020B0B3201D5C
:102E5000FEF744FD30B90120B8400C4909688143B0
:102E60000A48016094F82C1001208840074909683D
:102E7000084306490860E16A01EB8101044A1FE04A
:102E800080000020580000206C040020600000201A
:102E9000C4010020480000206C00002068000020D1
:102EA00004ED00E05C0000209404002050000020AD
:102EB0004C000020780000208004002005E010E095
:102EC00002EB8100211DFEF7E3FCB9F1000F07D0F2
:102ED0004FF08050FA490860BFF34F8FBFF36F8FF8
:102EE00000BF01F0B7FCBDE8F08710B5F5480068F9
:102EF00018B10120F44908602FE00020F249086071
:102F0000F2480068B0FA80F0C0F11F0404EB8400BE
:102F1000EF4951F8200008B1012000E0002038B945
:102F200040F6F622AFF2E841AFF2D84001F01CFDC6
:102F300004EB8401E64A02EB810041684968416084
:102F400000F1080142688A4202D141684968416043
:102F50004168C968DF4A116000BF10BD70B5054601
:102F600001F055FC15B9DB48006800E0284604462E
:102F7000201DFEF7B3FC78B9E06A00EB8000D4496D
:102F800051F8200040B994F82C1001208840CF4916
:102F900009688143CD480160A06A18B104F11800A6
:102FA000FEF79CFC211DCC48FEF772FC01F052FCA0
:102FB000CA48006828B101F02AFCFFF71FFC01F0A5
:102FC00049FCC4480068844226D1C4480068B8B1AE
:102FD000BC48006808B9012000E0002038B940F280
:102FE0005762AFF2A451AFF2945001F0BDFC4FF024
:102FF0008050B3490860BFF34F8FBFF36F8F0BE072
:10300000B5480068B6490968884203D10020B14933
:10301000086001E0FFF769FF70BD70B50546002646
:103020002C463DB940F28162AFF2EC51AFF2DC5078
:1030300001F09AFCA8496069884201D1012000E0B2
:10304000002070B1A749A06A884201D1012000E0A8
:10305000002030B9A06A08B9012000E0002000B1CA
:103060000126304670BD70B505462C463DB940F28C
:10307000AB62AFF23461AFF2246001F075FC74B35F
:103080009448006884422AD001F0C1FB2046FFF733
:10309000C4FF10B3201DFEF721FC94F82C10012072
:1030A00088408A490968084388490860E16A01EB59
:1030B0008101874A02EB8100211DFEF7E9FB85496A
:1030C000E06A0968C96A884207D34FF080507C499A
:1030D0000860BFF34F8FBFF36F8F01F0BBFB70BD74
:1030E0002DE9F0410646002734463EB940F2E2623F
:1030F000AFF2B461AFF2A46001F036FC01F0DAFB8C
:1031000000BF5021EFF3118081F31188BFF34F8F7F
:10311000BFF36F8F00BF05462046FFF77EFF20B349
:1031200068480068E0B96B49E06A0968C96A884282
:1031300000D30127201DFEF7D1FB94F82C100120AD
:10314000884062490968084360490860E16A01EB08
:1031500081015F4A02EB8100211DFEF799FB04E02B
:1031600004F118015F48FEF793FB00BF85F3118857
:1031700000BF3846BDE8F08170B523E0FFF72BFDB6
:103180005948006808B9012000E000200546FFF713
:1031900077FCBDB901F03BFB5348C068C468201DF3
:1031A000FEF79CFB4E480068401E4D4908604F48A2
:1031B0000068401E4D49086001F04CFB2046FFF7B7
:1031C00032FB00BF494800680028D7D170BD00BF5E
:1031D000FFF7D2FFFCE71CB5454800210B468222D1
:1031E000CDE9001043A14548FFF7D8FA0446012C69
:1031F00002D100F0EDFF0446012C15D100BF502094
:1032000080F31188BFF34F8FBFF36F8F00BF4FF074
:10321000FF303B49086001203049086000203949EF
:10322000086001F09DFA0DE0601C08B1012000E08B
:10323000002038B940F28472AFF2FC71AFF2EC704A
:1032400001F092FB1CBD10B500BF502080F3118827
:10325000BFF34F8FBFF36F8F00BF00201F4908607F
:1032600001F0C4FA10BD27490868704770B501F035
:1032700021FB002523480468204670BD18480068DB
:10328000704770B5044614B91248006800E0204643
:1032900005463DB940F68C02AFF65C01AFF64C0036
:1032A00001F062FB05F1340070BD0246002101E02F
:1032B000521C491C1078A528FAD0890888B270479A
:1032C00004ED00E0800000206C0000206000002081
:1032D000C401002048000020940400206400002065
:1032E000580000206C0400208004002054000020BE
:1032F0007C00002049444C4500000000CF3100080C
:10330000780000205C0000202DE9F04107460C46C3
:1033100090461E4617B9F748006800E03846054653
:10332000256005F134006060E86A2061286BE06187
:10333000686CA060207B032807D1FFF74CFCA86ACB
:1033400008B102202073FFF79BFBE86C606100204E
:10335000A061052E01D0267303E03846FFF7C2FCBA
:103360002073B8F1000F04D0286BFFF79EFF208474
:1033700001E000202084BDE8F0812DE9F0470746F8
:103380000C4690460026206848B3204641684968AC
:10339000416000F1080142688A4202D141684968EF
:1033A00041604168D1F80C9000BF204641684968EF
:1033B000416000F1080142688A4202D141684968CF
:1033C00041604168CD6806EBC60007EB80014346CB
:1033D00001222846FFF798FF761C4D45E5D130467F
:1033E000BDE8F0872DE9F0410546884616460024E1
:1033F0002027FFF7F0FBC0480068804539D300BFA5
:103400007F1E07EB8702BD4B03EB820104EBC40276
:1034100005EB82000122FFF7B0FF0444002FEFD13B
:1034200004EBC40105EB81000222B5490968FFF7EE
:10343000A4FF044404EBC40105EB81000222B1495E
:103440000968FFF79AFF044404EBC40105EB81000F
:103450000422AD49FFF791FF044404EBC40105EBDE
:1034600081000322A949FFF788FF04440EB1002020
:103470003060FFF705FB2046BDE8F08170B50446DB
:103480000D463CB940F60632AFF64C21AFF63C2073
:1034900001F06AFA9748016818312046FEF704FAED
:1034A00001212846FFF759FB70BD70B504460D4653
:1034B00016463CB940F61732AFF67C21AFF66C20C9
:1034C00001F052FA9248006808B1012000E00020A3
:1034D00038B940F61B32AFF69821AFF6882001F0DC
:1034E00043FA45F0004083490968886181480168D2
:1034F00018312046FEF7CCF901213046FFF72DFBAD
:1035000070BD70B505460E4614463DB940F63132E1
:10351000AFF6D421AFF6C42001F026FA7548016851
:1035200018312846FEF7B4F90CB14FF0FF362146AA
:103530003046FFF712FB70BD70B50646F068C468F0
:103540003CB940F66132AFF60831AFF6F82001F031
:103550000BFA04F11800FEF7C1F96D480068A8B92C
:10356000201DFEF7BBF994F82C1001208840694912
:103570000968084367490860E16A01EB81015F4A15
:1035800002EB8100211DFEF783F904E004F118012C
:103590006148FEF77DF95749E06A0968C96A8842BF
:1035A00004D9012501205D49086000E00025284676
:1035B00070BD2DE9F04105460F465548006808B139
:1035C000012000E0002038B940F69932AFF6903182
:1035D000AFF6803001F0C8F947F000402860EC6891
:1035E0003CB940F6A132AFF6A831AFF6983001F001
:1035F000BBF92846FEF772F9201DFEF76FF994F823
:103600002C1001208840434909680843414908605B
:10361000E16A01EB8101394A02EB8100211DFEF7CD
:1036200037F93449E06A0968C96A884204D9012631
:1036300001203A49086000E000263046BDE8F081EC
:1036400010B504463CB940F6C132AFF60C41AFF6B6
:10365000FC3001F089F93248006820603148006888
:10366000606010BD2DE9F04104460D463CB940F6BE
:10367000CB32AFF63441AFF6244001F075F93DB9D5
:1036800040F6CC32AFF64841AFF6384001F06CF965
:1036900001F0BDF8234807682868401C08B90026D7
:1036A00019E01F4920680968884204D06068B84260
:1036B00001D801260FE06068381A2968884209D2CB
:1036C00028686168791A401A28602046FFF7B8FF19
:1036D000002600E0012601F0BDF83046BDE8F0818B
:1036E00001200E49086070470146E9B10A46906C16
:1036F0001BE000004800002058000020C40100200A
:103700004C00002050000020800400209404002081
:1037100080000020600000206C0400206C0000206D
:10372000700000205C0000200020704708B10246B5
:1037300091647047FB4908687047FB49096809B9FB
:10374000012005E0F949096809B9022000E00020DC
:10375000704770B505462C46002D4BD0F149E06A04
:103760000968C96A884245D2A06900F0004028B9BA
:10377000EC480068C06AC0F12000A061E16A01EB7A
:103780008101EB4A02EB81016069884201D101208D
:1037900000E0002050B3201DFEF7A0F878B9E06AE1
:1037A00000EB8000E24951F8200040B994F82C1059
:1037B00001208840DF4909688143DE480160D9481B
:1037C0000068C06AE06294F82C1001208840D94952
:1037D00009680843D7490860E16A01EB8101D44ACE
:1037E00002EB8100211DFEF753F803E0CD4800688D
:1037F000C06AE06270BD70B505462C460026002DFB
:103800004FD0C8480068844201D1012000E0002068
:1038100038B940F6C762AFF6D851AFF6C85001F0DC
:10382000A3F8206D38B940F6C962AFF6EC51AFF697
:10383000DC5001F099F8206D401E2065E16CE06AD3
:1038400088422ED0206D60BB201DFEF747F878B966
:10385000E06A00EB8000B64951F8200040B994F8C6
:103860002C1001208840B34909688143B1480160A8
:10387000E06CE062E06AC0F12000A06194F82C10D6
:1038800001208840AB4909680843AA490860E16AF9
:1038900001EB8101A64A02EB8100211DFDF7F8FF33
:1038A0000126304670BD70B505460E4631462846A5
:1038B00001F014F9284601F035F9044602E0202011
:1038C0002855641C0F2CFAD300202855281970BDE8
:1038D0007FB50546002028709748006803909649F8
:1038E000096801EBC101880000F017FE0446002CB6
:1038F00053D0002220460399FFF774FD0390002067
:10390000029043E0029800EBC00004EB8000007BD3
:10391000012806D0022806D0032806D0042808D1A2
:1039200005E0522607E0422605E0532603E0442640
:1039300001E0002600BF00BF029800EBC00004EBCE
:10394000800041682846FFF7AEFF0546029800EB6D
:10395000C00004EB80008068029901EBC10104EB18
:103960008101098CCDE90010029800EBC00004EB46
:103970008000324671A10369284601F001F828460B
:1039800001F0D0F805440298401C0290DDE90201E4
:103990008842B7D3204600F043FE7FBD61490968E5
:1039A000886960490968C96AC1F120015D4A1268E5
:1039B000916170475B48006830B15A49096801F16C
:1039C0005000096D491C016056480068704770B589
:1039D00006460D4600F01BFF52480068406D88B94E
:1039E00001205049096881F858005DB1012128463D
:1039F000FFF7B3F84FF0805054490860BFF34F8F82
:103A0000BFF36F8F00F026FF00F001FF454800680C
:103A1000446D4CB126B1002042490968486503E075
:103A2000601E40490968486500203E49096881F8E0
:103A3000580000F00FFF204670BD2DE9F041074609
:103A4000884614461D4600F0E2FE3648006890F8AD
:103A50005800022818D03349096801F15400496D13
:103A6000B943016001202F49096881F858005DB110
:103A700001212846FFF771F84FF080503349086064
:103A8000BFF34F8FBFF36F8F00F0E4FE00F0BFFE77
:103A90001CB124480068406D20602248006890F8FE
:103AA0005800012801D1002608E01E49096801F1EB
:103AB0005400496D21EA08010160012600201949DE
:103AC000096881F8580000F0C5FE3046BDE8F08175
:103AD0002DE9F04706460D46174698464FF0010A75
:103AE00036B941F2FD021A4901F1140000F03CFF21
:103AF000344600F08CFEB8F1000F02D0606DC8F8BB
:103B0000000094F85890022084F85800052F30D215
:103B1000DFE807F02E0320242600606D284360654F
:103B200027E0000048000020640000208000002002
:103B3000C40100206000002058000020092563090E
:103B400025750925750925750D0A000004ED00E0AD
:103B5000402A0008606D401C60650AE0656508E069
:103B6000B9F1020F01D0656501E04FF0000A00E0F5
:103B700000BF00BFB9F1010F2FD1201DFDF7AEFE30
:103B800094F82C10012088409B49096808439A4901
:103B90000860E16A01EB8101984A02EB8100211D76
:103BA000FDF776FEA06A08B9012000E0002030B9D8
:103BB00041F23512924901F1140000F0D5FE91490D
:103BC000E06A0968C96A884207D94FF080508E4977
:103BD0000860BFF34F8FBFF36F8F00F03BFE50467E
:103BE000BDE8F0872DE9F84F07460E469046994606
:103BF000DDF828B00120009037B941F26812804901
:103C000001F1140000F0B0FE00F054FE3C4600BF8D
:103C10005021EFF3118081F31188BFF34F8FBFF371
:103C20006F8F00BF0546B9F1000F02D0606DC9F873
:103C3000000094F858A0022084F85800B8F1050F4D
:103C400017D2DFE808F01503070B0D00606D304355
:103C500060650EE0606D401C60650AE0666508E026
:103C6000BAF1020F01D0666501E00020009000E08B
:103C700000BF00BFBAF1010F3AD1A06A08B9012014
:103C800000E0002030B941F2AF125D4901F11400AB
:103C900000F06AFE5D480068A8B9201DFDF71EFE11
:103CA00094F82C1001208840534909680843524970
:103CB0000860E16A01EB8101504A02EB8100211D9D
:103CC000FDF7E6FD04E004F118015148FDF7E0FDC1
:103CD0004C49E06A0968C96A884209D9BBF1000FFA
:103CE00003D00120CBF8000002E001204949086020
:103CF00000BF85F3118800BF0098BDE8F88F2DE95B
:103D0000F04105460F4635B941F2E3123C4901F155
:103D1000140000F029FE00F0CDFD2C4600BF50211C
:103D2000EFF3118081F31188BFF34F8FBFF36F8FD3
:103D300000BF064694F85880022084F85800606D51
:103D4000401C6065B8F1010F37D1A06A08B90120A5
:103D500000E0002030B941F20922294901F11400A4
:103D600000F002FE29480068A8B9201DFDF7B6FD45
:103D700094F82C10012088401F49096808431E4907
:103D80000860E16A01EB81011C4A02EB8100211D00
:103D9000FDF77EFD04E004F118011D48FDF778FDF4
:103DA0001849E06A0968C96A884206D917B1012032
:103DB000386002E001201749086000BF86F31188CF
:103DC00000BFBDE8F08170B5054615B90D48006823
:103DD00000E02846064600F01AFD96F85800022832
:103DE00004D1002086F85800012400E0002400F0EF
:103DF00031FD204670BD000060000020C40100209D
:103E0000402A00084800002004ED00E08000002067
:103E10006C0400206C0000202DE9F04104460D46A2
:103E200016461F464FF0000865602461B5420CD865
:103E3000F01BA169884202D34FF0010811E0211D57
:103E4000F7480068FDF730FD0BE0BE4204D2BD42EA
:103E500002D34FF0010804E0211DF2480068FDF78D
:103E600023FD4046BDE8F0812DE9FF4704460D469D
:103E700016461F46DDF830804FF000092CB94FF48C
:103E8000D372E9A1EEA000F06FFDF148006810B315
:103E9000009501960294062D15DAFFF74EFC0228D4
:103EA00008D1002342466946E9480068FDF780FED4
:103EB000814610E000231A466946E5480068FDF790
:103EC00077FE814607E000233A466946E0480068ED
:103ED000FEF7D8F88146484604B0BDE8F0872DE9E2
:103EE000F8432DE0CF480068C0680568CD480068F9
:103EF000C068C468201DFDF7F1FC2046616A884750
:103F0000E06901281CD1A0694619AE4207D9666054
:103F10002461211DC3480068FDF7C6FC10E00020A5
:103F200003462A46014600902046FFF79DFF0746BC
:103F30002FB940F29232BCA1C1A000F015FD00BF24
:103F4000B8480068006808B9012000E00020002897
:103F5000C8D0B448D0F80080B1480068B1490860C2
:103F6000AF48C0F80080BDE8F88370B50446FFF79D
:103F70007AF90546B7480068854204D2FFF7AFFFDB
:103F80000120206001E000202060B2480560284642
:103F900070BDF0B587B070E0039800280CDA04AE6D
:103FA0002EB940F2E722A0A1A5A000F0DDFCD6E9E1
:103FB0000020B168904700BF039800285DDB059C96
:103FC000606908B9012000E0002010B9201DFDF74C
:103FD00085FC02A8FFF7C9FF054603980A284AD2C4
:103FE000DFE800F00905072C2E4506082D2F00BF3D
:103FF00000BF00BF00BF0498A269811803462A468B
:104000002046FFF709FFC0B12046616A8847E06992
:10401000012812D1002000900498A16942180023C1
:1040200019462046FFF720FF07462FB940F22132FC
:104030007DA183A000F098FC00BF1DE000BF1BE045
:1040400000BF0498A061A06908B1012000E0002031
:1040500028B94FF44E7274A179A000F085FCA069D4
:1040600041192B462A462046FFF7D6FE04E020469B
:1040700000F0D6FA00E000BF00BF00231A4603A9F3
:1040800073480068FDF7DAFE002885D107B0F0BD5F
:10409000F8B505460F4663480068C068C468201D2F
:1040A000FDF71CFCE069012818D1A06941192B46D5
:1040B0003A462046FFF7B0FE80B1002003462A466C
:1040C000014600902046FFF7CFFE06462EB94FF47A
:1040D000027255A15AA000F047FC00BF2046616A59
:1040E0008847F8BDF8B505460C46FEF774FD6846EE
:1040F000FFF73BFF0646009820BB44B9B54206D8FF
:10410000FEF7BEFC31462846FFF7C2FF1CE03CB17B
:1041100043480068006808B9012000E00020044618
:10412000A91B22464A480068FEF7FDF9FEF7A8FCE5
:1041300050B94FF0805048490860BFF34F8FBFF32C
:104140006F8F01E0FEF79CFCF8BD0146354A12680E
:1041500012680AB9012200E000220A600A6822B946
:10416000304A1268D268106800E00020704708B535
:1041700000BF6846FFF7E9FF044620460099FFF7B5
:10418000B1FFFFF706FFF4E710B500F040FB304841
:104190000068D0B93148FDF76BFB3148FDF768FB8B
:1041A0002E48204908602E481D4908600022102131
:1041B0000520FDF702FC264908600846006820B18A
:1041C00028A123480068FEF788F900F043FB10BDE2
:1041D0001CB50024FFF7D8FF1D48006858B12348DC
:1041E0001F2100234FF48272CDE9001020A1224844
:1041F000FEF7D4FA04462CB940F233120AA110A0FB
:1042000000F0B2FB20461CBD2DE9F04706460D46E6
:1042100017469846DDE908940DB101202FE02DE006
:1042200088000020840000202E2E5C4672656552B6
:10423000544F535C74696D6572732E630000000007
:104240004572726F723A25732C25640D0A000000C6
:104250008C0000209400002004ED00E0A804002061
:10426000BC040020546D725100000000900000203A
:10427000546D7220537663006F410008002038B9F6
:104280004FF4C672AFF26001AFF24C0000F06CFB6D
:104290005CB1FFF779FF2660A561E761C4F8208073
:1042A000C4F82490201DFDF7F0FABDE8F0872DE951
:1042B000FC4705460E4617469846DDF828902C2008
:1042C00000F02BF904463CB143463A4631462846B5
:1042D000CDE90094FFF798FF2046BDE8FC8710B5B4
:1042E0005B48006808B1012000E0002038B94FF4B5
:1042F000E872AFF2CC01AFF2B80000F035FB5448E1
:10430000006810BD70B5044625463CB940F2D9128C
:10431000AFF2EC01AFF2D80000F026FBA86970BD47
:1043200070B5044625463CB940F2E312AFF20811DD
:10433000AFF2F40000F018FB6E68304670BD70B547
:10434000044625463CB940F2ED12AFF22411AFF21B
:10435000101000F009FB286870BD70B504462646B1
:104360003CB940F2DA32AFF24011AFF22C1000F05B
:10437000FBFA00F04CFA706908B9012000E0002057
:1043800080F0010500F066FA284670BD70B504465D
:1043900026463CB940F2EF32AFF27411AFF2601032
:1043A00000F0E2FA00F033FA356A00F053FA2846DA
:1043B00070BD70B504460D4626463CB940F2FF324A
:1043C000AFF29C11AFF2881000F0CEFA00F01FFAA5
:1043D000356200F03FFA70BD2DE9FF4104460D46FD
:1043E00016461F466FF00100009001940295039657
:1043F00000233A46694617480068FDF743FE8046A9
:10440000404604B0BDE8F0812DE9FF4104460D4669
:1044100016461F460F48006838B940F22B42AFF2EB
:10442000F811AFF2E41000F09FFA4FF0FF30009067
:1044300001940295039600233A46694605480068B0
:10444000FDF7B6FB8046404604B0BDE8F0810000B1
:10445000900000208C00002010B50146924800E03A
:10446000006803688B42FBD30246436813448B42C7
:1044700004D143684C682344436001460A464B68B4
:1044800013440468A34211D1884C03682468A342F2
:1044900008D04B680468646823444B6003681B6859
:1044A0000B6005E0814B1B680B6001E003680B604B
:1044B000884200D0016010BD30B54FF4A0437C4865
:1044C00000F007042CB1C01D20F00700784C041B3D
:1044D0001B1B0246744C22600024734D6C60D01884
:1044E000083820F00700714C206000246F4D2D68C3
:1044F0006C606E4D2D682C601146441A4C606B4CFC
:1045000024680C606B4D4C682C606B4D4C682C60C3
:104510004FF00044694D2C6030BD2DE9F041044658
:104520004FF00008FEF757FB6048006808B9FFF736
:10453000C3FF62480068204000285FD1A4B108345E
:1045400004F0070080B104F00700C0F10800044443
:1045500004F0070008B9012000E0002020B9BF22C4
:1045600057A161A000F000FA002C47D05248006823
:10457000844243D84C4E3046056801E02E462D68F3
:104580006868A04202D228680028F7D1474800682E
:10459000854233D0306800F10808286830606868C8
:1045A000001B102813D92F1907F0070008B90120A4
:1045B00000E0002020B9EC2241A14BA000F0D4F98A
:1045C0006868001B78606C603846FFF745FF3A4921
:1045D00068680968081A384908600846006835495B
:1045E0000968884203D23448006832490860334978
:1045F000686809680843686000202860FEF740FA90
:1046000008F0070008B9012000E0002028B94FF4A5
:1046100096722BA134A000F0A7F94046BDE8F081C6
:1046200070B506463546002E35D0083D2C46234948
:1046300060680968084008B1012000E0002028B93E
:104640004FF4A0721EA128A000F08EF9206808B9CE
:10465000012000E0002028B940F2411218A122A058
:1046600000F082F9154960680968084098B120682F
:1046700088B912496068096888436060FEF7ABFA40
:104680000D496068096808440B4908602046FFF737
:10469000E3FEFEF7F5F970BD07480068704705486E
:1046A000006870477047000098000020A0000020BC
:1046B000D0040020A8000020A4000020AC000020AE
:1046C0002E2E5C4672656552544F535C706F727447
:1046D00061626C655C4D656D4D616E675C686561BE
:1046E000705F342E630000004572726F723A25735A
:1046F0002C25640D0A00000084480068401C08B99D
:10470000012000E0002020B9F42281A18BA000F05C
:104710002BF900BF502080F31188BFF34F8FBFF3F8
:104720006F8F00BF00BFFEE7001F4FF08073036074
:10473000001F21F001030360001F844B0360143845
:10474000026020387047824800684FF47A71B0FBED
:10475000F1F0401E4FF0E0214861072008617047EA
:104760001CB57C48014609780191FF210246117071
:104770000146097800919DF8001001F05001764A39
:1047800011700721754A116009E074490968491ED2
:10479000724A11609DF800104906090E00919DF8BB
:1047A000001001F080018029EFD06C4909680902EE
:1047B0006A4A11601146098801F4E0611160654A96
:1047C000019911706648006840F4700064490860FF
:1047D0000846006840F070400860FFF7B4FF002012
:1047E0004A490860FBF712FD00201CBD10B5474880
:1047F0000068B0F57A7F01D1012000E0002028B9DF
:104800004FF4B57242A14DA000F0AEF810BD10B546
:1048100000BF502080F31188BFF34F8FBFF36F8F1D
:1048200000BF3A480068401C3849086008460068E4
:1048300001280ED14A481C380068C0B208B90120CE
:1048400000E0002028B94FF4BD7231A13BA000F078
:104850008BF810BD10B52D48006828B940F28112C0
:104860002BA136A000F080F828480068401E274998
:1048700008600846006820B9002080F3118800BF56
:1048800000BF10BD10B500BF502080F31188BFF3EA
:104890004F8FBFF36F8F00BFFEF72EF820B14FF0A0
:1048A00080502F491C39086000BF002080F3118818
:1048B00000BF10BD70B5FBF7DFFC0546102D11D30E
:1048C00005F1E02090F8F04323480078844201DBB2
:1048D000012000E0002028B94FF42A720CA117A093
:1048E00000F042F81E481438006800F4E0601B49EC
:1048F0000968884201D8012000E0002028B94FF45F
:104900002E7203A10DA000F02FF870BDB0000020A2
:104910002E2E5C4672656552544F535C706F7274F4
:1049200061626C655C525644535C41524D5F434D2D
:10493000335C706F72742E63000000004572726FFA
:10494000723A25732C25640D0A000000F946000810
:104950000400002000E400E0B4000020B8000020C3
:1049600020ED00E0704700000FB4044910B503AA21
:10497000029800F0D5F910BC5DF814FB2C00002063
:104980000FB41CB5074B06AA7B44694600900598F6
:1049900000F097F90020694600F0A6F91CBC5DF80C
:1049A00014FB00005D0300002DE9F0410E460446B3
:1049B000002020622046E168884730B3252805D0D2
:1049C000D4E901219047206A401CF2E7E1682046C3
:1049D00000278847050018D0A5F14100192802D802
:1049E00020354FF400673246294620462760FBF702
:1049F000D9FB40B1012804D0F61D26F00706083681
:104A0000D8E7361DD6E72846DAE7206ABDE8F08108
:104A100070B50C460546012A05D02878800600D5D9
:104A2000EA69002302E0012305E05B1C934202D205
:104A3000E05C0028F9D1A869E618C01AA861286AC4
:104A4000184428622846AFF3008004E0D5E901212C
:104A500014F8010B9047B442F8D32846AFF3008016
:104A600070BD00002DE9F04106460024106875294C
:104A7000314616A510D0AFF30080002802DA40427C
:104A800013A507E031688A0701D512A502E049079E
:104A900004D511A5012401E0AFF3008000210A2212
:104AA00006F1240709E0B0FBF2FCB0FBF2F302FBD5
:104AB0001C00303078541846491C0028F3D1234696
:104AC0002A463046BDE8F04100F09CB800000000E6
:104AD0002D0000002B0000002000000040EA010330
:104AE000024630B59B0710D14FF0013400E008C2F8
:104AF00008C91D1B9D4315EAC41FF8D013F0FF0120
:104B000002F8011B0DD01B0AF8E711F8013B002B3E
:104B100002F8013B05D011F8013B002B02F8013BE4
:104B2000F3D130BD10B5431C02E010F8011B71B188
:104B30008107FAD14FF0013202C88C1A8C4314EA73
:104B4000C211F9D0C01A0A0603D0C01E10BDC01A87
:104B500010BD0A0401D0801E10BD0902FCD0401E09
:104B600010BD032A40F2308010F0030C00F01580D5
:104B700011F8013BBCF1020F624498BF11F801CB60
:104B800000F8013B38BF11F8013BA2F1040298BFC5
:104B900000F801CB38BF00F8013B11F0030300F02F
:104BA000D180083AC0F0088051F8043B083A51F827
:104BB00004CBA0E80810F5E7121D5CBF51F8043BD8
:104BC00040F8043BAFF30080D20724BF11F8013B4B
:104BD00011F801CB48BF11F8012B24BF00F8013BAD
:104BE00000F801CB48BF00F8012B704702F0FF032B
:104BF00043EA032242EA024200F0D8B87047704705
:104C0000704770472DE9F0470D4699469246044695
:104C100000F124080168880604D5E06921F010013C
:104C2000216000E00120A84201DD471B00E00027D1
:104C3000A1697A1902EB0900081AA0612078C00660
:104C400002D42046AFF30080002608E0D4E9012119
:104C50001AF806009047206A401C761C20624E45D8
:104C6000F4DB2078C0060AD52046AFF3008006E0CA
:104C7000D4E9012130209047206A401C2062381E70
:104C8000A7F10107F4DC07E0D4E9012118F80500D9
:104C90009047206A401C2062281EA5F10105F3DC24
:104CA0002046AFF300802078000602D50220BDE840
:104CB000F0870120FBE7000001694A1C02610878C7
:104CC000704700B58FB0CDE901310021059105494C
:104CD0007944CDE9031011466846FFF765FE0FB031
:104CE00000BD0000E5FFFFFF0A6802F8010B0A6043
:104CF000704710B5436913B1AFF3008001E0FFF7CF
:104D000087FE012010BD127800F124010A700022F4
:104D10004A700122EDE711684FF0FF32E9E7000029
:104D2000074B70B50D467B44FFF7CBFF0446284682
:104D300000F05CF810B14FF0FF3070BD204670BD40
:104D4000CBBCFFFF10B5203AC0F00B80B1E8185083
:104D5000203AA0E81850B1E81850A0E81850BFF465
:104D6000F5AF5FEA027C24BFB1E81850A0E8185004
:104D700044BF18C918C0BDE810405FEA827C24BF58
:104D800051F8043B40F8043B08BF7047D20728BFE6
:104D900031F8023B48BF11F8012B28BF20F8023B35
:104DA00048BF00F8012B70474FF000020429C0F003
:104DB000128010F0030C00F01F80CCF1040CBCF149
:104DC000020F18BF00F8012BA8BF20F8022BA1EB9F
:104DD0000C0100F011B85FEAC17C24BF00F8012B80
:104DE00000F8012B48BF00F8012B7047007B00F052
:104DF000800070474FF0000200B513469446964677
:104E0000203922BFA0E80C50A0E80C50B1F12001DD
:104E1000BFF4F7AF090728BFA0E80C5048BF0CC08B
:104E20005DF804EB890028BF40F8042B08BF7047E9
:104E300048BF20F8022B11F0804F18BF00F8012B5B
:104E40007047754600F028F8AE460500694653469F
:104E500020F00700854618B020B5FBF777FEBDE8C7
:104E600020404FF000064FF000074FF000084FF0D1
:104E7000000B21F00701AC46ACE8C009ACE8C00962
:104E8000ACE8C009ACE8C0098D4670470446AFF3F2
:104E900000802046FBF7A1F900487047D05400205D
:104EA000C04E000800000020BC0000006C0100089B
:104EB0007C4F0008BC000020745A000088010008E4
:104EC0000000000000A24A040000000000000000F2
:104ED00001020304060708090000000000000000AA
:104EE00000000000010000000000000000000000C1
:104EF0000000000000000102030401020304060791
:104F0000080902040608000000000000000000007C
:104F10000000000000000000000000000000000091
:104F20000000000000000000000000000000000081
:104F30000000000000000000000000000000000071
:104F40000000000000000000000000000000000061
:104F50000000000000000000000000000000000051
:104F60000000000000000000000000000000000041
:0C4F7000AAAAAAAA00000000000000008D
:0400000508000B31B3
:00000001FF
