:020000040800F2
:10000000205B002009080008C1020008C3020008A4
:10001000C7020008CB020008CF0200080000000061
:10002000000000000000000000000000DD010008EA
:10003000D30200080000000021020008C5050008E6
:1000400023080008230800082308000823080008E4
:1000500023080008230800082308000823080008D4
:1000600023080008230800082308000823080008C4
:1000700023080008230800082308000823080008B4
:1000800023080008230800082308000823080008A4
:100090002308000823080008230800082308000894
:1000A0002308000823080008230800082308000884
:1000B0002308000823080008230800082308000874
:1000C0002308000823080008230800082308000864
:1000D000230800087D0700082308000823080008FB
:1000E0002308000823080008230800082308000844
:1000F0002308000823080008230800082308000834
:100100002308000823080008230800082308000823
:100110002308000823080008230800082308000813
:100120002308000823080008230800082308000803
:1001300000F002F800F042F80AA090E8000C8244B7
:100140008344AAF10107DA4501D100F037F8AFF294
:10015000090EBAE80F0013F0010F18BFFB1A43F0A5
:1001600001031847883E0000A83E0000103A24BF53
:1001700078C878C1FAD8520724BF30C830C144BF0C
:1001800004680C607047000000230024002500264E
:10019000103A28BF78C1FBD8520728BF30C148BFEA
:1001A0000B607047752903F00385632903F05186BE
:1001B000002070471FB51FBD10B510BD03F0E7FE4E
:1001C0001146FFF7F7FF00F055F803F005FF03B401
:1001D000FFF7F2FF03BC00F077FA0000224B19682A
:1001E0000868B0E8F00F80F30988BFF36F8F4FF015
:1001F000000080F311884EF00D0E704700000000E3
:1002000006480068006880F3088862B661B6BFF3EC
:100210004F8FBFF36F8F00DF00BF00BF08ED00E01E
:10022000EFF30980BFF36F8F0F4B1A6820E9F00FCF
:10023000106008B54FF0500080F31188BFF34F8F66
:10024000BFF36F8F02F0D4F94FF0000080F31188F4
:10025000BDE8084019680868B0E8F00F80F3098825
:10026000BFF36F8F704700BF40000020EFF30580A1
:10027000704700001CB54FF4407000F0E5FA00F044
:10028000A9F900F079F94FF4E13000F02BFA0748B2
:10029000012100238022CDE9001005A1074801F0CB
:1002A000ACFE02F008FB00201CBD00000000002096
:1002B00073746172745F7461736B0000E50400080D
:1002C000704700BFFEE700BFFEE700BFFEE700BFCC
:1002D000FEE770470CB50020019000906C48006864
:1002E00040F480306A49086000BF6948006800F443
:1002F000003000900198401C0190009818B90198B6
:10030000B0F5A06FF1D16248006800F4003010B180
:100310000120009001E0002000900098012843D1C6
:100320005C48006840F010005A49086008460068C0
:1003300020F0030008600846006840F002000860F2
:10034000534840685249486008464068486008463B
:10035000406840F4806048600846406820F47C10A3
:1003600048600846406840F4E81048600846006865
:1003700040F08070086000BF4548006800F00070E1
:100380000028F9D04248406820F003004049486006
:100390000846406840F00200486000BF3C484068A2
:1003A00000F00C000828F9D10CBD10B5FFF792FF42
:1003B00010BD10B53648006840F0010034490860AF
:1003C000084640683449084031494860084600689A
:1003D000324908402E4908600846006820F4802011
:1003E00008600846406820F4FE0048604FF41F0093
:1003F0008860FFF7DAFF4FF000602949086010BD00
:1004000010B5002100200022214B5B6803F00C0195
:1004100021B1042906D0082928D107E0214B224C1C
:10042000236027E01F4B204C236023E0184B5B68C0
:1004300003F47010164B5B6803F48032022303EB65
:10044000904022B9194B4343174C23600DE0104BE9
:100450005B6803F4003323B1144B4343124C236015
:1004600003E0104B4343104C236003E00D4B0E4C54
:10047000236000BF00BF064B5B68C3F303130C4C43
:10048000E15C094B1B68CB40074C236010BD0000AA
:1004900000100240002002400000FFF8FFFFF6FEBF
:1004A00008ED00E000127A000400002000093D0081
:1004B0000800002000BF1F480068C0431E49C1F863
:1004C00094014FF4FA6000F0CCF8F4E700BF1B4849
:1004D0000068C0431A49C1F894014FF4FA7000F063
:1004E000C0F8F4E71CB5044603F0A5FA15A003F024
:1004F000E1FA1648022100233222CDE9001014A1AE
:10050000AFF2370001F079FD1448032100233222B5
:10051000CDE9001012A1AFF2630001F06EFD1348A7
:10052000006801F0B8FD12A003F0C4FA03F092FADB
:100530001CBD00009401234200002342948121420B
:10054000008021426B616973686900001800002017
:100550006C6564305F7461736B0000001C000020E8
:100560006C6564315F7461736B00000000000020F3
:100570006A6965736875000008B50121482000F0BC
:10058000EDFC2020ADF8000010208DF803000320C2
:100590008DF802006946094800F024FA2021074836
:1005A00000F0CDFA2020ADF800006946044800F0C4
:1005B00019FA2021024800F0C2FA08BD000C0140DF
:1005C0000018014010B502F089FB012801D003F0AA
:1005D0004FFA10BD10B5042000F085F936480068C8
:1005E0003649B0FBF1F036490870334800683349AA
:1005F000B0FBF1F44FF47A70444301203149088094
:100600004FF0E020006940F002004FF0E021086167
:1006100008464461006940F00100086110BD70B5F2
:10062000034600224FF0E0267569254E367803FB1D
:1006300006F44FF0E026B16910E04FF0E026B06913
:1006400088420BD0884202D20E1A324402E02E1A9F
:100650000E4432440146A24200D300E0EDE700BF61
:1006600070BD70B5044602F039FB012810D0154862
:100670000088844206D313480088B4FBF0F528466E
:1006800001F0D9FE0F480088B4FBF0F100FB1144E3
:100690004FF47A7104FB01F0FFF7C1FF70BD30B574
:1006A0000446002504E04FF47A70FFF7B8FF6D1C94
:1006B000A542F8D330BD00000400002040420F00E6
:1006C000200000202200002000BF704700BF4A4ADF
:1006D000128802F04002002AF9D0C2B2464B1B1D1C
:1006E0001A80704710B586B00446012144F2040018
:1006F00000F034FC4FF40070ADF8140003208DF8C6
:10070000160018208DF8170005A93C4800F06AF97A
:100710004FF48060ADF8140004208DF8170005A98F
:10072000364800F05FF925208DF8000003208DF891
:1007300001008DF8020001208DF80300684600F0EA
:1007400088F801940020ADF80800ADF80A00ADF873
:100750000C00ADF810000C20ADF80E0001A92648E1
:1007600000F0A3FC012240F22551234800F035FDA2
:100770000121214800F025FD06B010BD10B540F262
:1007800025511D4800F00EFE10B31B4800F08AFDF5
:10079000C4B21B48008800F40040C8B9184800885B
:1007A00000F4804060B10A2C03D000201449088076
:1007B00020E01348008840F400401149088019E007
:1007C0000D2C06D10E48008840F480400C4908806A
:1007D00010E00B480088C0F30D000A490C5408488B
:1007E0000088401C0649088008460088C72801DDAB
:1007F0000020088010BD00000038014000080140C2
:1008000028000020AC000020094880470948004724
:10081000FEE7FEE7FEE7FEE7FEE7FEE7FEE7FEE7B0
:10082000FEE7FEE704480549054A064B704700000D
:10083000B30300083101000820550020205B002090
:10084000205700202057002031490143314A1160D0
:10085000704770B5002100230F22C47804B32D4CDB
:10086000246804F4E064C4F5E064210AC1F10403DF
:10087000CA40447804FA03F1847814402143090102
:10088000254C0678A155047804F01F050124AC40DE
:1008900005786D11AD0005F1E025C5F8004109E0CE
:1008A000047804F01F050124AC401C4D0678761135
:1008B00045F8264070BD1A4A0A400243154B1B1FDB
:1008C0001A60704739B1134A121D12680243114B66
:1008D0001B1D1A6006E00F4A121D126882430D4B61
:1008E0001B1D1A607047042808D14FF0E0210969E8
:1008F00041F004014FF0E022116107E04FF0E021E8
:10090000096921F004014FF0E022116170470000F5
:100910000000FA050CED00E000E400E080E100E0FA
:1009200080FFFF1F10B50446CC48844208D1012146
:10093000042000F02DFB0021042000F029FB46E0FC
:10094000C748844208D10121082000F021FB002182
:10095000082000F01DFB3AE0C248844208D1012182
:10096000102000F015FB0021102000F011FB2EE0FC
:10097000BD48844208D10121202000F009FB00215C
:10098000202000F005FB22E0B848844208D1012174
:10099000402000F0FDFA0021402000F0F9FA16E0B6
:1009A000B348844208D10121802000F0F1FA0021EF
:1009B000802000F0EDFA0AE0AE48844207D1012120
:1009C000801500F0E5FA0021A01500F0E1FA10BD55
:1009D00010B50121084600F0DBFA0021012000F0EB
:1009E000D7FA10BD2DE9F04102460025002600206F
:1009F00000230024002791F803C00CF00F0591F8A4
:100A000003C00CF0100CBCF1000F03D091F802C031
:100A10004CEA050591F800C0BCF1000F31D0146814
:100A200000202BE04FF0010C0CFA00F3B1F800C0ED
:100A30000CEA03069E4220D183004FF00F0C0CFA03
:100A400003F7BC4305FA03FC4CEA040491F803C025
:100A5000BCF1280F06D14FF0010C0CFA00FCC2F8D3
:100A600014C00AE091F803C0BCF1480F05D14FF063
:100A7000010C0CFA00FCC2F810C0401C0828D1D3AD
:100A80001460B1F800C0BCF1FF0F34DD54680020E1
:100A90002EE000F1080C4FF0010808FA0CF3B1F851
:100AA00000C00CEA03069E4221D183004FF00F0CD8
:100AB0000CFA03F7BC4305FA03FC4CEA040491F872
:100AC00003C0BCF1280F05D100F1080C08FA0CF89E
:100AD000C2F8148091F803C0BCF1480F07D100F1AF
:100AE000080C4FF0010808FA0CF8C2F81080401CFE
:100AF0000828CED35460BDE8F0814FF6FF71018025
:100B0000022181700421C170704702460020936861
:100B10000B400BB1012000E00020704701468868BF
:100B200080B2704702460020D3680B400BB1012011
:100B300000E0002070470146C86880B2704701613C
:100B40007047416170470AB1016100E0416170473F
:100B5000C16070474FF480320A43826181618261D3
:100B600082698269704702460020434B18684FF63D
:100B70008073184040EA021008433F4B18607047EA
:100B80003E49C8617047F0B50A46002300240021A1
:100B9000002500F00046B6F1004F02D1364EF16953
:100BA00001E0354E7168C0F3034583B200F440168E
:100BB000B6F5401F08D121F070612F4E766826F0FF
:100BC00070662D4F7E6012E000F48016B6F5801F2F
:100BD00006D1032606FA05F4A14341F0706106E050
:100BE000460D360103FA06F6B14341F0706122B1B9
:100BF000460D360103FA06F6314300F00046B6F121
:100C0000004F02D11C4EF16101E01B4E7160F0BD3E
:100C100030B500228B071C0F0F2303FA04F2164B8A
:100C200008338C1053F824309343134C08348D1040
:100C300044F8253023468C1053F824308C07240FB9
:100C400000FA04F423430C4C08348D1044F825308A
:100C500030BD0A49DC3108607047000000080140DF
:100C6000000C014000100140001401400018014038
:100C7000001C014000200140000001400000204213
:100C8000DF48006840F00100DD4908600846406820
:100C9000DC490840DA49486008460068DA490840FB
:100CA000D74908600846006820F48020086008469C
:100CB000406820F4FE0048604FF41F0088607047D1
:100CC000CF49096821F48031CD4A11601146096885
:100CD00021F480211160B0F5803F03D0B0F5802F62
:100CE0000ED106E0C649096841F48031C44A11605A
:100CF00007E0C349096841F4A021C14A116000E03E
:100D000000BF00BF704710B501460022002300203D
:100D10004A11012A02D1BA4C236806E0022A02D104
:100D2000B74C236A01E0B64C636A01F01F0201244C
:100D300094401C400CB1012000E0002010BD38B5EB
:100D4000002000900024002500BF3120FFF7DBFFCA
:100D500005460098401C00900098B0F5A06F01D0A7
:100D6000002DF2D03120FFF7CEFF08B1012400E0C2
:100D70000024204638BD01460020A14A106820F01A
:100D8000F80040EAC10010607047A0490860704751
:100D9000024600209A4B586820F47C1042EA010376
:100DA0001843974B5860704798490866704701464A
:100DB0000020934A506820F00300084350607047B9
:100DC0008F48406800F00C007047014600208C4AB4
:100DD000506820F0F0000843506070470146002042
:100DE000874A506820F4E06008435060704701462D
:100DF0000020834A506820F4605040EAC1005060EF
:100E0000704729B17E4A527A02437D4B5A7204E000
:100E10007B4A527A82437A4B5A7270477B49D83167
:100E20000860704701460020754A506820F4404031
:100E30000843506070470021714A20321170704A97
:100E400082F82010012802D004280AD104E00121F0
:100E50006B4A2032117005E00521694A2032117079
:100E600000E000BF00BF70476949086070476449EF
:100E7000096A0143624A1162704765494439086052
:100E8000704730B500210022002400235C4D6D68BE
:100E900005F00C0121B1042905D0082923D105E072
:100EA0005C4D056022E05B4D05601FE0544D6D68B0
:100EB00005F47012524D6D6805F48034022505EB7F
:100EC00092421CB9544D554305600BE04C4D6D6882
:100ED00005F400351DB1504D5543056002E04D4D00
:100EE0005543056002E04B4D056000BF00BF444D17
:100EF0006D6805F0F0010909484D6B5C0568DD403F
:100F000045603F4D6D6805F4E061090A434D6B5C37
:100F10004568DD4085603A4D6D6805F46051C90A49
:100F20003E4D6B5C4568DD40C560354D6D6805F430
:100F30004041890B3A4D6B5CC568B5FBF3F5056123
:100F400030BD29B12E4A526902432D4B5A6104E04B
:100F50002B4A526982432A4B5A61704729B1284A69
:100F600092690243264B9A6104E0254A92698243C2
:100F7000234B9A61704729B1214AD2690243204B21
:100F8000DA6104E01E4AD26982431D4BDA61704780
:100F900029B11B4AD2680243194BDA6004E0184AAF
:100FA000D2688243164BDA60704729B1144A12693D
:100FB0000243134B1A6104E0114A12698243104B39
:100FC0001A61704712494039086070470F49C86478
:100FD00070470B49C87170470948406A40F08070FB
:100FE00007494862704701460020054A92680A4056
:100FF0000AB1012000E00020704701498872704763
:10100000001002400000FFF8FFFFF6FE0000424221
:101010008004424200127A0000093D002A000020AC
:101020003A00002010B50446FB48844209D1012152
:101030008803FFF7ADFF00214FF48040FFF7A8FFC2
:1010400032E0F648844209D101214804FFF7ADFFA0
:1010500000214FF40030FFF7A8FF25E0F04884425C
:1010600009D101218804FFF7A0FF00214FF480205F
:10107000FFF79BFF18E0EB48844209D10121C80427
:10108000FFF793FF00214FF40020FFF78EFF0BE0E6
:10109000E548844208D101210805FFF786FF0021B9
:1010A0004FF48010FFF781FF10BD2DE9F04786B0A7
:1010B00005460E460024A24600BFA1460027B0897F
:1010C00000B100BF2F462C8A4CF6FF700440F08818
:1010D00004432C82AC894EF6F3100440B088318969
:1010E0000843718908430443AC81AC8A4FF6FF4042
:1010F0000440B0890443AC8201A8FFF7C2FEC64891
:10110000874202D1DDF810A001E0DDF80CA0A8892B
:1011100000F4004040B10AEBCA0000EB0A1031684D
:101120004900B0FBF1F807E00AEBCA0000EB0A1037
:1011300031688900B0FBF1F86420B8FBF0F00401DD
:101140002009642101FB1089A88900F4004040B106
:10115000322000EBC900B0FBF1F000F007000443BF
:1011600008E0322000EB09106421B0FBF1F000F040
:101170000F0004432C8106B0BDE8F0874FF41651F0
:10118000016000218180C18001810C214181002109
:101190008181704710B502460020108A4FF2FF038C
:1011A00018400B884C8823438C882343CC882343E6
:1011B0001843108210BD0021018041808180C180D0
:1011C000704721B1828942F40052828104E0828911
:1011D0004DF6FF731A4082817047F0B50346002434
:1011E00000260025002040F66A17B94200D100BF52
:1011F0001846C1F3421401F01F06012707FA06F54D
:10120000012C01D10C3004E0022C01D1103000E09F
:1012100014301AB107682F43076002E00768AF4334
:101220000760F0BD1AB1838A0B43838202E0838A90
:101230008B4383827047028A4FF6F0731A40028212
:10124000028A0A430282704782894FF2FF731A4072
:10125000828182890A438281704721B1828942F06A
:101260000202828104E082894FF6FD731A40828176
:101270007047028A4FF6DF731A400282028A0A43DD
:101280000282704721B1028A42F48042028204E065
:10129000028A4BF6FF731A4002827047C1F30802BC
:1012A0008280704701468888C0F3080070478189B2
:1012B00041F0010181817047028BD2B20283028B1F
:1012C00042EA012202837047028B02F47F420283CA
:1012D000028B0A430283704721B1828A42F02002C6
:1012E000828204E0828A4FF6DF731A40828270475E
:1012F00021B1828A42F01002828204E0828A4FF693
:10130000EF731A408282704721B1828A42F008024C
:10131000828204E0828A4FF6F7731A408282704715
:1013200021B1828942F40042828103E08289C2F3C2
:101330000E028281704721B1828A42F40062828269
:1013400004E0828A4FF2FF731A4082827047828AD9
:101350004FF6FB731A408282828A0A438282704768
:1013600021B1828A42F00202828204E0828A4FF630
:10137000FD731A408282704702460020B1F5007F5B
:1013800000D100BF13880B400BB1012000E000200A
:10139000704701F40072B2F5007F00D100BFCA436C
:1013A0000280704770B5024600240023002500200B
:1013B00040F66A16B14200D100BFC1F3421501F0F8
:1013C0001F03012606FA03F3012D02D1968933404B
:1013D00006E0022D02D1168A334001E0968A33409E
:1013E0000C12012606FA04F41688344013B10CB12D
:1013F000012000E0002070BD10B50022002340F65F
:101400006A14A14200D100BF0A1201249440A3B281
:10141000DC43048010BD000000380140004400405F
:1014200000480040004C00400050004000F108011E
:1014300041604FF0FF31816000F10801C16001613E
:1014400000210160704700210161704742684A60D5
:1014500093688B60936859609160086103685B1CB6
:101460000360704710B502460B685C1C0CB910692C
:1014700007E002F1080000E04068446824689C42EC
:10148000FAD944684C604C68A160886041600A6188
:101490001468641C146010BD01460A69D1E901306A
:1014A0009860D1E9010358605068884201D188688A
:1014B0005060002008611068401E1060106870477E
:1014C00070B505460E462C4602F0B5FAD4E90F1267
:1014D000206801FB020060600020A0632068A0601B
:1014E000E06B401E226C216800FB0210E060FF20D0
:1014F00084F8440084F845009EB9206908B90120A9
:1015000000E00020A8B904F1100001F041FB80B117
:101510004FF08050FB490860BFF34F8FBFF36F8FD0
:1015200007E004F11000FFF781FF04F12400FFF74A
:101530007DFF02F08FFA012070BD2DE9F0410646D3
:101540000D4617469846069C0DB9246000E02760BA
:10155000E663256401212046FFF7B2FF84F850803E
:101560000020A064BDE8F0812DE9F84307460D4650
:1015700090460DB9002601E007FB05F606F1540080
:1015800002F08BF9044644B104F1540943464A463B
:10159000294638460094FFF7D0FF2046BDE8F8837F
:1015A0002DE9F04104460F4615464FF00008A66BA2
:1015B000206C40B9206860BB606801F0EDFB80469C
:1015C0000020606025E07DB93946226CA06802F0F9
:1015D0006EFB216CA0680844A060D4E90110884229
:1015E00017D32068A06014E03946226CE06802F04E
:1015F0005EFB216CE068401AE0602168E068884288
:1016000003D2216C6068401AE060022D01D106B15E
:10161000761E701CA0634046BDE8F0812DE9F341C1
:101620000D460098846C0027A06BE16B88421BD2AA
:1016300094F945602A4669462046FFF7B1FF074600
:10164000701C60B9606A08B9012000E0002050B940
:1016500004F1240001F09CFA28B1012703E0701C7A
:1016600040B284F8450000BF3846BDE8FC8170B543
:10167000044602F0E0F994F945501AE0A06C38B144
:1016800000212046FFF7CAFF88B101F015FB0EE0EC
:10169000606A08B9012000E0002038B904F1240094
:1016A00001F076FA18B101F007FB00E003E0681ED4
:1016B00045B2002DE2DC00BFFF2084F8450002F0B7
:1016C000C9F902F0B8F994F9445010E0206908B95A
:1016D000012000E0002048B904F1100001F058FAA0
:1016E00008B101F0E9FA681E45B200E001E0002D02
:1016F000ECDC00BFFF2084F8440002F0ABF970BDC1
:1017000070B5054602F097F9A86BE96B884201D1E4
:10171000012400E0002402F09DF9204670BD2DE96F
:10172000FF4383B0074688461D464FF000093C46FC
:1017300000BF02F080F9A06BE16B884201D3022D5B
:1017400038D12A4641462046FFF72AFF0646A06CBC
:1017500068B129462046FFF761FF28B34FF080505B
:1017600068490860BFF34F8FBFF36F8F1CE0606A5A
:1017700008B9012000E0002068B904F1240001F05C
:1017800007FA88B14FF080505E490860BFF34F8F71
:10179000BFF36F8F08E03EB14FF0805059490860A9
:1017A000BFF34F8FBFF36F8F02F054F9012007B0E2
:1017B000BDE8F083059818B902F04CF90020F6E76F
:1017C000B9F1000F04D101A801F045FA4FF0010969
:1017D00002F040F900F0F4FD02F02DF994F9440014
:1017E000401C10B9002084F8440094F94500401CC6
:1017F00010B9002084F8450002F02CF905A901A8D1
:1018000001F030FAF0B92046FFF77AFFA0B104F1F9
:101810001000059901F061F92046FFF728FF00F05C
:1018200004FD002885D14FF0805036490860BFF391
:101830004F8FBFF36F8F7CE72046FFF718FF00F054
:10184000F4FC76E72046FFF712FF00F0EEFC0020E4
:10185000ADE710B504464CB1002060602060E06048
:1018600000231A4619462046FFF759FF10BD2DE9FF
:10187000F041044601260027224600210120FFF7FF
:1018800073FE05462846FFF7E4FF2846BDE8F081D1
:1018900070B50646344601F01EFA616888420CD1E4
:1018A000E068401EE060E06828B900231A46194647
:1018B0002046FFF734FF012500E00025284670BDD3
:1018C00070B5054602F0B7F8A86B08B9012400E02E
:1018D000002402F0BFF8204670BD70B504460D46E6
:1018E000206C70B1216CE0680844E0606168E068D9
:1018F000884201D32068E0602846226CE16802F04B
:10190000D6F970BD04ED00E02DE9FF4782B0054631
:1019100089461E464FF0000A2C4600BF02F08BF8A5
:10192000D4F83880B8F1000F3BD0E768494620462C
:10193000FFF7D3FFDEB9A8F10100A063206810B95A
:1019400001F0EEFA6060206908B9012000E0002093
:1019500008BB04F1100001F01BF9E0B14FF080501A
:10196000F9490860BFF34F8FBFF36F8F13E0E76053
:10197000606A08B9012000E0002060B904F1240089
:1019800001F006F938B14FF08050EF490860BFF31D
:101990004F8FBFF36F8F02F05DF8012006B0BDE8F6
:1019A000F087049818B902F055F80020F6E7BAF16C
:1019B000000F04D1684601F04EF94FF0010A02F021
:1019C00049F800F0FDFC02F036F894F94400401CA0
:1019D00010B9002084F8440094F94500401C10B967
:1019E000002084F8450002F035F804A9684601F0AB
:1019F00039F940BB2046FFF763FFF0B1206830B9EA
:101A000002F019F8606801F075F902F023F804F1AA
:101A10002400049901F061F82046FFF728FE00F049
:101A200004FC00287FF47AAF4FF08050C64908606C
:101A3000BFF34F8FBFF36F8F70E72046FFF717FE9E
:101A400000F0F3FB6AE72046FFF711FE00F0EDFB24
:101A50002046FFF735FF0028EED000209EE72DE955
:101A6000F04106460F46344601F035F96168884278
:101A700004D1E068401CE06001250AE000233A46FA
:101A800019462046FFF740FF054615B1E068401CA7
:101A9000E0602846BDE8F08170B506460D4602229A
:101AA00000213046FFF760FD044604B1A5632046DF
:101AB00070BD2DE9F05F06468A4615461F4634463E
:101AC00000BF5021EFF3118081F31188BFF34F8FD6
:101AD000BFF36F8F00BF8146A06BE16B884201D3DB
:101AE000022F2BD194F945B03A4651462046FFF7D4
:101AF00057FD0BF10100C8B9A06C40B13946204632
:101B0000FFF78CFDB8B1B5B10120286013E0606A21
:101B100008B9012000E0002068B904F1240001F0B8
:101B200037F840B13DB10120286004E00BF101001D
:101B300040B284F845004FF0010801E04FF0000882
:101B400000BF89F3118800BF4046BDE8F09F2DE932
:101B5000F04706460D46344600BF5021EFF3118092
:101B600081F31188BFF34F8FBFF36F8F00BF8046A3
:101B7000D4F83890E06B484528D994F945A009F18C
:101B80000100A0630AF10100C8B9A06C40B10021B6
:101B90002046FFF743FDB8B1B5B10120286013E03E
:101BA000606A08B9012000E0002068B904F124004F
:101BB00000F0EEFF40B13DB10120286004E00AF1E1
:101BC000010040B284F84500012700E0002700BF73
:101BD00088F3118800BF3846BDE8F0872DE9F05F33
:101BE00005468A4616462C4600BF5021EFF3118069
:101BF00081F31188BFF34F8FBFF36F8F00BF804613
:101C0000D4F83890B9F1000F21D094F944B051467E
:101C10002046FFF762FEA9F10100A0630BF101006D
:101C200070B9206908B9012000E0002068B904F10A
:101C3000100000F0ADFF40B13EB10120306004E083
:101C40000BF1010040B284F84400012700E00027B6
:101C500000BF88F3118800BF3846BDE8F09F2DE92A
:101C6000F047054689462C4600BF5021EFF311800E
:101C700081F31188BFF34F8FBFF36F8F00BF07460B
:101C8000A06B48B1D4F80C8049462046FFF725FEEA
:101C9000C4F80C80012600E0002600BF87F31188FD
:101CA00000BF3046BDE8F08770B5044601F0C3FEC2
:101CB000A56B01F0CFFE284670BD70B504462546E1
:101CC00001F0B9FED5E90E10461A01F0C3FE304608
:101CD00070BD0146886B7047014600200EE01B4A2C
:101CE00002EBC00252688A4207D10022174B43F828
:101CF000302003EBC0035A6002E0401C0828EED3FA
:101D000000BF704770B5044625462846FFF7E4FF3C
:101D1000284601F020FE70BD0146C86C7047C164C2
:101D20007047014691F85000704701468A6B0AB926
:101D3000012000E00020704701468A6BCB6B9A427D
:101D400006D1012005E0000004ED00E07401002050
:101D500000207047024600200BE04A4B53F8303019
:101D600033B9484B43F8301003EBC0035A6002E02C
:101D7000401C0828F1D300BF704702460020002114
:101D80000AE0404B03EBC1035B68934203D13D4B38
:101D900053F8310002E0491C0829F2D300BF704714
:101DA0002DE9F04105460E4617462C4601F043FE4C
:101DB00094F94400401C10B9002084F8440094F9C0
:101DC0004500401C10B9002084F8450001F042FE97
:101DD000A06B28B93A46314604F1240000F0C6FE53
:101DE0002046FFF744FCBDE8F08170B504460022B0
:101DF00004212046FFF7B8FB0546284670BD70B5A4
:101E000004460E4601F017FEA06C08B1002505E05F
:101E1000A06B08B1002501E0A664012501F01AFEBF
:101E2000284670BD2DE9F04105460F462E46B06CA0
:101E3000B84201D000240AE0B06B08B1002406E0EB
:101E400001F0F9FD0020B06401F004FE01242046F9
:101E5000BDE8F08138B505460C460020009000230F
:101E6000224669462846FFF74FFD009838BD38B531
:101E7000044600200090002269462046FFF7AEFE8F
:101E8000009838BD7401002010B5002407E004EB71
:101E90008401FE4A02EB8100FFF7C8FA641C202C83
:101EA000F5D3FB48FFF7C2FAFA48FFF7BFFAFA4842
:101EB000FFF7BCFAF948FFF7B9FAF948FFF7B6FAA5
:101EC000F348F8490860F348F749086010BD10B5B9
:101ED000044601F0B0FDF5480068401CF349086075
:101EE000F348006840B9F2480460084600680128D9
:101EF0000DD1FFF7C9FF0AE0EE48006838B9EC4899
:101F00000068C06AE16A884201D8E9480460EA488A
:101F10000068401CE849086008460068606494F85E
:101F20002C1001208840E54909680843E34908600E
:101F3000E16A01EB8101D54A02EB8100211DFFF727
:101F400085FA01F087FDDB48006868B1D848006871
:101F5000C06AE16A884207D24FF08050D8490860D1
:101F6000BFF34F8FBFF36F8F10BD2DE9F05F814638
:101F70000F4690469A460A9E0C9C4FEA8801A5227D
:101F8000206B01F0D9FEA8F10100216B01EB800B61
:101F90002BF0070B002507E0795D04F13400415573
:101FA000785D00B902E06D1C102DF5D300BF002153
:101FB00043200155202E00D31F26E662E664002050
:101FC0002065201DFFF73FFA04F11800FFF73BFAE8
:101FD0002461C6F12000A06164620020606584F87D
:101FE000580052464946584601F0F3FC20600B98D1
:101FF00008B10B980460BDE8F09F2DE9FF4F85B054
:10200000804689461746DDE912ABB80001F045FC71
:10201000064656B15C2001F040FC04460CB1266334
:1020200004E0304601F097FC00E000247CB1002081
:10203000CDE900ABCDE902403A4649464046089B0F
:10204000FFF793FF2046FFF742FF012501E04FF025
:10205000FF35284609B0BDE8F08F92490968096844
:1020600009B9012100E0002121B14FF0FF31954A6B
:10207000116006E08B490968C968C868914A4168DF
:102080001160704710B50446206B01F064FC2046D7
:1020900001F061FC10BD70B5054601F0CCFC15B92E
:1020A0008348006800E028460446201DFFF7F4F945
:1020B00078B9E06A00EB8000744951F8200040B91B
:1020C00094F82C10012088407C49096881437B48A2
:1020D0000160A06A18B104F11800FFF7DDF9764835
:1020E0000068401C7449086071480068844209D146
:1020F000211D6A48FFF7AAF973480068401C72491D
:10210000086009E069480068401E68490860204688
:10211000FFF7B8FFFFF7A1FF01F09CFC65480068DE
:1021200058B163480068844207D14FF08050644939
:102130000860BFF34F8FBFF36F8F70BD2DE9F04183
:10214000002762480068002863D161480068451C88
:102150005F4805608DB95348D0F800805248006848
:10216000504908605048C0F800805A480068401C38
:1021700058490860FFF771FF00BF52480068854268
:102180003BD300BF47480068006808B9012000E061
:10219000002020B14FF0FF304A4908602CE0414850
:1021A0000068C068C4686668B54202D245480660E7
:1021B00022E0201DFFF770F9A06A18B104F11800A1
:1021C000FFF76AF994F82C10012088403B49096810
:1021D00008433A490860E16A01EB81012B4A02EBAE
:1021E0008100211DFFF732F93149E06A0968C96AA7
:1021F0008842C7D30127C5E700BF2D480068C06AE1
:1022000000EB8000214951F82000012800D9012766
:1022100004E031480068401C2F4908602F480068DE
:1022200000B101273846BDE8F08170B500240026D2
:1022300001F001FC25480068401E2449086008465A
:10224000006800287AD119480068002876D04FE04D
:102250001148C068C46804F11800FFF71DF9201D7B
:10226000FFF71AF994F82C100120884013490968E7
:10227000084312490860E16A01EB8101034A02EB5D
:102280008100211DFFF7E2F8094929E0B40100208F
:1022900034040020480400205C0400207004002066
:1022A000840400204400002048000020500000204A
:1022B000400000205C0000206C000020580000203E
:1022C00004ED00E0700000204C00002078000020A9
:1022D00054000020680000206000002064000020FE
:1022E000E06A0968C96A884202D30120FA49086095
:1022F000FA48006808B9012000E000200028A7D0B3
:102300000CB1FFF7AAFEF648056865B100BFFFF7FC
:1023100015FF10B10120F04908606D1E002DF6D1A7
:102320000020EF490860EC48006838B1012630070A
:10233000EC490860BFF34F8FBFF36F8F01F08AFB4A
:10234000304670BD2DE9F04105460E46E648076867
:10235000E6480068001DFFF79FF850B9E3480068A1
:1023600090F82C1001208840E14909688143E04839
:102370000160681C38B936B1DC480168091DDD48C8
:10238000FFF764F81AE07C19D84800684460BC4242
:1023900007D2D6480168091DD7480068FFF762F8E0
:1023A0000CE0D2480168091DD4480068FFF75AF8CC
:1023B000D3480068844201D2D1480460BDE8F0816E
:1023C000D0480068401CCF49086070472DE9F047AD
:1023D000044688464FF00009FFF7F2FFC24806683E
:1023E000206800EB08052068B04207D92068A842A1
:1023F0000BD9B54209D94FF0010906E02068A8427F
:1024000001D8B54201D94FF001092560B9F1000F9B
:1024100003D0A81B0021FFF795FFFFF706FF074633
:102420003FB94FF08050AF490860BFF34F8FBFF303
:102430006F8FBDE8F08770B50446002544B1FFF703
:10244000BFFF00212046FFF77DFFFFF7EEFE0546A8
:102450003DB94FF08050A3490860BFF34F8FBFF3E1
:102460006F8F70BD2DE9F041064637469F480068E2
:10247000874201D100241EE001F0DDFA7D6901F000
:10248000E9FA9E480068854203D09B48006885426F
:1024900001D102240FE09748854205D1B86A08B9F6
:1024A000032408E0022406E09748854200D00DB9D5
:1024B000042400E001242046BDE8F08170B5044604
:1024C00001F0B9FA14B98948006800E020460646D0
:1024D000F56A01F0BFFA284670BD70B5024600BF2C
:1024E0005025EFF3118485F31188BFF34F8FBFF3AD
:1024F0006F8F00BF214612B97C4C246800E014465F
:102500002346D86A00BF81F3118800BF70BD2DE952
:10251000F04780460D464FF00009202D00D31F25BF
:1025200001F089FAB8F1000F02D17048006800E0AC
:1025300040460446E66CAE4256D0B5420BD96B48D5
:10254000006884420DD069480068C06AA84208D873
:102550004FF0010905E065480068844201D14FF061
:102560000109E76AE16AE06C884200D1E562E5644E
:10257000A06900F0004010B9C5F12000A06107EB90
:102580008701624A02EB81016069884201D1012022
:1025900000E00020E0B1201DFEF77EFF30B90120F1
:1025A000B8405349096881435148016094F82C10A0
:1025B000012088404E49096808434D490860E16A96
:1025C00001EB8101514A02EB8100211DFEF73EFF24
:1025D000B9F1000F07D04FF0805042490860BFF3B7
:1025E0004F8FBFF36F8F00BF01F034FABDE8F08763
:1025F0004448006818B10120374908601DE00020F8
:10260000354908603A480068B0FA80F0C0F11F010F
:1026100001EB81023D4B03EB82004268526842604D
:1026200000F108024368934202D142685268426056
:102630004268D2682D4B1A6000BF704770B50546DE
:1026400001F0F9F915B92948006800E02846044668
:10265000201DFEF721FF78B9E06A00EB80002B49CE
:1026600051F8200040B994F82C10012088402049EE
:10267000096881431E480160A06A18B104F118007E
:10268000FEF70AFF211D1B48FEF7E0FE01F0E2F90C
:102690001F48006828B101F0CEF9FFF7DEFC01F019
:1026A000D9F912480068844238D11948006840B10D
:1026B0004FF080500B490860BFF34F8FBFF36F8F0F
:1026C0002CE00C48006813490968884224D1002096
:1026D0000649086022E00000640000205C0400203D
:1026E0006000002004ED00E05400002040000020C5
:1026F00058000020840400204800002044000020EE
:10270000700000207800002070040020B401002038
:102710005C00002050000020FFF76AFF70BD10B57C
:10272000014600200A46FE4C5369A34201D1012311
:1027300000E0002373B1FB4C936AA34201D1012353
:1027400000E0002333B9936A0BB9012300E00023B2
:1027500003B1012010BD70B505462C4674B3F24894
:10276000006884422AD001F066F92046FFF7D7FFBF
:1027700010B3201DFEF790FE94F82C100120884025
:10278000EA4909680843E9490860E16A01EB810107
:10279000E74A02EB8100211DFEF758FEE249E06A9C
:1027A0000968C96A884207D34FF08050E149086040
:1027B000BFF34F8FBFF36F8F01F04CF970BD2DE960
:1027C000F04106460027344600BF5021EFF3118048
:1027D00081F31188BFF34F8FBFF36F8F00BF0546A2
:1027E0002046FFF79CFF20B3D3480068E0B9CE49EC
:1027F000E06A0968C96A884200D30127201DFEF7F4
:102800004BFE94F82C1001208840C8490968084301
:10281000C6490860E16A01EB8101C54A02EB81000B
:10282000211DFEF713FE04E004F11801BD48FEF778
:102830000DFE00BF85F3118800BF3846BDE8F0816A
:1028400070B523E0FFF7BCFDBC48006808B9012063
:1028500000E000200546FFF7E8FCBDB901F0EBF809
:10286000B648C068C468201DFEF716FEB44800686C
:10287000401EB3490860B3480068401EB149086073
:1028800001F0E8F82046FFF7FDFB00BFAD48006807
:102890000028D7D170BD00BFFFF7D2FFA448006861
:1028A0000128F9D94FF08050A2490860BFF34F8F3B
:1028B000BFF36F8FF0E71CB5A34800210B468222BF
:1028C000CDE90010A1A1A348FFF797FB0446012C16
:1028D00002D100F0BCFE0446012C14D100BF5020F0
:1028E00080F31188BFF34F8FBFF36F8F00BF4FF09E
:1028F000FF309949086001209849086000209849F4
:10290000086001F082F81CBD10B500BF502080F3B4
:102910001188BFF34F8FBFF36F8F00BF00208F4927
:10292000086001F087F810BD8D49086870470021E4
:102930008B4A10687047824800687047014611B999
:102940007948006800E00846024602F1340070470A
:102950000246002101E0521C491C1078A528FAD03B
:10296000890888B270472DE9F04107460C46904629
:102970001E4617B96C48006800E0384605462560D9
:1029800005F134006060E86A2061286BE061686CE2
:10299000A060207B032807D1FFF712FDA86A08B1C9
:1029A00002202073FFF741FCE86C60610020A06109
:1029B000052E01D0267303E03846FFF753FD207340
:1029C000B8F1000F04D0286BFFF7C2FF208401E0AC
:1029D00000202084BDE8F0812DE9F04707460C4631
:1029E00090460026206848B3204641684968416007
:1029F00000F1080142688A4202D141684968416099
:102A00004168D1F80C9000BF204641684968416098
:102A100000F1080142688A4202D141684968416078
:102A20004168CD6806EBC60007EB800143460122F2
:102A30002846FFF798FF761C4D45E5D13046BDE8A6
:102A4000F0872DE9F04105468846164600242027E8
:102A5000FFF7B6FC3A480068804539D300BF7F1EB7
:102A600007EB8702324B03EB820104EBC40205EB58
:102A700082000122FFF7B0FF0444002FEFD104EBE6
:102A8000C40105EB8100022236490968FFF7A4FF63
:102A9000044404EBC40105EB8100022232490968B9
:102AA000FFF79AFF044404EBC40105EB8100042204
:102AB0002249FFF791FF044404EBC40105EB8100B8
:102AC00003221749FFF788FF04440EB1002030604D
:102AD000FFF7ABFB2046BDE8F08170B505460C461C
:102AE0001148016818312846FEF7BCFC0121204638
:102AF000FFF728FC70BD70B506460C46154644F03D
:102B00000040094909688861074801681831304662
:102B1000FEF79CFC01212846FFF714FC70BD000065
:102B2000840400205C0400204000002058000020A5
:102B3000B401002004ED00E07800002070040020C3
:102B4000500000204C0000207400002049444C45F7
:102B50000000000097280008700000205C000020A2
:102B600054000020440000204800002070B50646B4
:102B70000D461446FE48016818313046FEF766FCE3
:102B80000CB14FF0FF3521462846FFF7DBFB70BD47
:102B900070B50646F068C46804F11800FEF77CFCC6
:102BA000F4480068A8B9201DFEF776FC94F82C10B4
:102BB00001208840F04909680843EF490860E16A4C
:102BC00001EB8101ED4A02EB8100211DFEF73EFC85
:102BD00004E004F11801EA48FEF738FCE449E06A31
:102BE0000968C96A884204D901250120E5490860BD
:102BF00000E00025284670BD2DE9F04105460F464E
:102C000047F000402860EC682846FEF745FC201D90
:102C1000FEF742FC94F82C1001208840D649096840
:102C20000843D5490860E16A01EB8101D34A02EB10
:102C30008100211DFEF70AFCCD49E06A0968C96AD6
:102C4000884204D901260120CE49086000E0002610
:102C50003046BDE8F081CC4909680160CB4909687C
:102C60004160704770B504460D4600F0E4FEC74869
:102C700002682868401C08B9002619E0C24920688B
:102C80000968884204D06068904201D801260FE0AC
:102C90006068101A2968884209D228686168511A48
:102CA000401A28602046FFF7D6FF002600E00126E4
:102CB00000F0D0FE304670BD0120B2490860704778
:102CC000014611B10A46906C00E00020704708B13F
:102CD000024691647047A64908687047AC49096884
:102CE00009B9012005E0A349096809B9022000E0FB
:102CF0000020704770B505462C46002D4BD09C49EE
:102D0000E06A0968C96A884245D2A06900F00040BB
:102D100028B997480068C06AC0F12000A061E16A44
:102D200001EB8101954A02EB81016069884201D182
:102D3000012000E0002050B3201DFEF7ADFB78B964
:102D4000E06A00EB80008D4951F8200040B994F80A
:102D50002C10012088408849096881438648016019
:102D600083480068C06AE06294F82C100120884013
:102D700081490968084380490860E16A01EB8101E3
:102D80007E4A02EB8100211DFEF760FB03E07848DC
:102D90000068C06AE06270BD70B505462C4600262A
:102DA000ADB3206D401E2065E16CE06A88422ED0F4
:102DB000206D60BB201DFEF76FFB78B9E06A00EB69
:102DC00080006E4951F8200040B994F82C10012081
:102DD000884069490968814367480160E06CE062A6
:102DE000E06AC0F12000A06194F82C100120884016
:102DF00061490968084360490860E16A01EB8101A3
:102E00005E4A02EB8100211DFEF720FB01263046C1
:102E100070BD70B505460E463146284600F004FFE9
:102E2000284600F025FF044602E020202855641CB7
:102E30000F2CFAD300202855281970BD7FB5054600
:102E4000002028705348006803905249096801EB3C
:102E5000C101880000F021FD0446002C53D000225F
:102E600020460399FFF7EDFD03900020029043E018
:102E7000029800EBC00004EB8000007B012806D024
:102E8000022806D0032806D0042808D105E05226DF
:102E900007E0422605E0532603E0442601E0002631
:102EA00000BF00BF029800EBC00004EB8000416847
:102EB0002846FFF7AEFF0546029800EBC00004EB82
:102EC00080008068029901EBC10104EB8101098C4B
:102ED000CDE90010029800EBC00004EB8000324600
:102EE0002DA10369284600F0F1FD284600F0C0FE40
:102EF00005440298401C0290DDE902018842B7D3E4
:102F0000204600F028FD7FBD1949096888691849E5
:102F10000968C96AC1F12001154A126891617047B8
:102F20001348006830B11249096801F15000096D79
:102F3000491C01600E480068704770B506460D4692
:102F400000F079FD0A480068406D80B90120084909
:102F5000096881F8580055B101212846FFF7F2F9B8
:102F60004FF0805010490860BFF34F8F1EE01FE004
:102F7000400000207800002058000020B40100200C
:102F80005C04002064000020680000205400002041
:102F90005C000020500000200925630925750925E3
:102FA000750925750D0A000004ED00E0BFF36F8F71
:102FB00000F050FD00F03FFDC8480068446D4CB182
:102FC00026B10020C5490968486503E0601EC34971
:102FD000096848650020C149096881F8580000F077
:102FE00039FD204670BD2DE9F0410746884614465C
:102FF0001D4600F020FDB948006890F858000228EE
:1030000018D0B649096801F15400496DB94301600F
:103010000120B249096881F858005DB101212846B4
:10302000FFF790F94FF08050AD490860BFF34F8F24
:10303000BFF36F8F00F00EFD00F0FDFC1CB1A74840
:103040000068406D2060A548006890F8580001288D
:1030500001D1002608E0A149096801F15400496D39
:1030600021EA08010160012600209C49096881F8D5
:10307000580000F0EFFC3046BDE8F0812DE9F04744
:1030800081460D4616461F464FF0010A4C4600F099
:10309000D2FC0FB1606D386094F85880022084F83B
:1030A0005800052E17D2DFE806F01503070B0D00B8
:1030B000606D284360650EE0606D401C60650AE04D
:1030C000656508E0B8F1020F01D0656501E04FF0D9
:1030D000000A00E000BF00BFB8F1010F22D1201D9F
:1030E000FEF7DAF994F82C10012088407D49096830
:1030F00008437C490860E16A01EB81017A4A02EBEE
:103100008100211DFEF7A2F97449E06A0968C96AC5
:10311000884207D94FF0805071490860BFF34F8F44
:10312000BFF36F8F00F096FC5046BDE8F0872DE9A5
:10313000F84F82460D4616461F46DDF828B001209E
:103140000090544600BF5021EFF3118081F31188A5
:10315000BFF34F8FBFF36F8F00BF81460FB1606D1C
:10316000386094F85880022084F85800052E17D251
:10317000DFE806F01503070B0D00606D284360655E
:103180000EE0606D401C60650AE0656508E0B8F11E
:10319000020F01D0656501E00020009000E000BF53
:1031A00000BFB8F1010F2DD150480068A8B9201D0B
:1031B000FEF772F994F82C100120884049490968FB
:1031C000084348490860E16A01EB8101464A02EB85
:1031D0008100211DFEF73AF904E004F1180144488A
:1031E000FEF734F93D49E06A0968C96A884209D99D
:1031F000BBF1000F03D00120CBF8000002E001205A
:103200003C49086000BF89F3118800BF0098BDE801
:10321000F88F2DE9F04105460E462C4600BF50219F
:10322000EFF3118081F31188BFF34F8FBFF36F8FDE
:1032300000BF074694F85880022084F85800606D5B
:10324000401C6065B8F1010F2AD128480068A8B970
:10325000201DFEF721F994F82C1001208840214907
:10326000096808431F490860E16A01EB81011E4AB1
:1032700002EB8100211DFEF7E9F804E004F11801DA
:103280001B48FEF7E3F81549E06A0968C96A8842F5
:1032900006D916B10120306002E00120154908600E
:1032A00000BF87F3118800BFBDE8F08170B5054607
:1032B00015B90A48006800E02846064600F0BBFB46
:1032C00096F85800022804D1002086F858000124FE
:1032D00000E0002400F0BEFB204670BD400000204E
:1032E00004ED00E058000020B40100207800002028
:1032F0005C040020640000202DE9F04104460D46E6
:1033000016461F464FF0000865602461B5420CD890
:10331000F01BA169884202D34FF0010811E0211D82
:10332000F9480068FEF79EF80BE0BE4204D2BD42A9
:1033300002D34FF0010804E0211DF4480068FEF7B5
:1033400091F84046BDE8F0812DE9FF4705460C465F
:1033500016461F46DDF830804FF00009EC48006843
:1033600010B3009401960295062C15DAFFF7B6FC0F
:10337000022808D1002342466946E5480068FEF766
:10338000CEF9814610E000231A466946E0480068FD
:10339000FEF7C5F9814607E000233A466946DC4856
:1033A0000068FEF786FB8146484604B0BDE8F0871A
:1033B0002DE9F84326E0D5480068C0680568D34881
:1033C0000068C068C468201DFEF766F82046616A80
:1033D0008847E069012815D1A0694619AE4207D98E
:1033E00066602461211DC9480068FEF73BF809E0CA
:1033F000002003462A46014600902046FFF7A4FF1E
:10340000804600BFC1480068006808B9012000E09C
:1034100000200028CFD0BD480768BB480068BB49E2
:103420000860B9480760BDE8F88370B50446FFF747
:103430007BFA0546B7480068854204D2FFF7B8FF1B
:103440000120206001E000202060B248056028468D
:1034500070BDF0B587B056E00398002805DA04AED9
:10346000D6E90020B168904700BF039800284ADBE6
:10347000059C606908B9012000E0002010B9201DFA
:10348000FEF70AF802A8FFF7D0FF054603980A28BE
:1034900037D2DFE800F0090507252732060826287D
:1034A00000BF00BF00BF00BF0498A2698118034697
:1034B0002A462046FFF720FF88B12046616A8847E8
:1034C000E06901280BD1002000900498A1694218FE
:1034D000002319462046FFF737FF074600BF11E0DB
:1034E00000BF0FE000BF0498A061A06941192B46FE
:1034F0002A462046FFF700FF04E0204600F02BFAA2
:1035000000E000BF00BF00231A4603A980480068FE
:10351000FEF7FAF900289FD107B0F0BDF8B50546CF
:103520000E467A480068C068C468201DFDF7B4FFE5
:10353000E069012811D1A06941192B463246204685
:10354000FFF7DAFE48B1002003462A460146009004
:103550002046FFF7F9FE074600BF2046616A88470C
:10356000F8BDF8B505460C46FEF72AFF6846FFF79A
:103570005CFF0646009820BB44B9B54206D8FEF76A
:1035800054FE31462846FFF7C9FF1CE03CB15E48B7
:103590000068006808B9012000E000200446A91B6B
:1035A00022465B480068FEF7FBFBFEF73EFE50B983
:1035B0004FF0805058490860BFF34F8FBFF36F8FB3
:1035C00001E0FEF732FEF8BD0146504A126812686B
:1035D0000AB9012200E000220A600A6822B94B4AB7
:1035E0001268D268106800E00020704708B500BF7C
:1035F0006846FFF7E9FF044620460099FFF7B1FF50
:10360000FFF727FFF4E710B500F015FA404800680F
:10361000D0B94248FDF70AFF4148FDF707FF3F4890
:103620003A4908603E4838490860002210210520C8
:10363000FDF79AFF364908600846006820B139A1B5
:1036400033480068FEF786FB00F004FA10BD1CB595
:103650000024FFF7D8FF2E48006858B133481F21D7
:1036600000234FF48272CDE9001031A13248FEF7F9
:10367000C4FC044620461CBD2DE9F04705460E4615
:1036800017469846DDE908945CB1FFF7BCFF25605A
:10369000A661E761C4F82080C4F82490201DFDF7DE
:1036A000D2FEBDE8F0872DE9FC4705460E461746D9
:1036B0009846DDF828902C2000F0EFF804463CB145
:1036C00043463A4631462846CDE90094FFF7D4FFF9
:1036D0002046BDE8FC8715480068704701460A4649
:1036E0009069704701460A465068704701460A468D
:1036F0001068704770B50446264600F09CF9706962
:10370000E0B901201BE00000800000207C000020C8
:10371000840000208C00002004ED00E098040020CC
:10372000AC040020546D725100000000880000209D
:10373000546D722053766300ED350008002080F050
:10374000010500F087F9284670BD70B5044626468D
:1037500000F071F9356A00F07DF9284670BD70B54A
:1037600004460D46264600F066F9356200F072F90F
:1037700070BD2DE9FF4104460D4616461F466FF009
:103780000100009001940295039600233A46694691
:1037900010480068FEF78DF98046404604B0BDE849
:1037A000F0812DE9FF4104460D4616461F464FF0B5
:1037B000FF30009001940295039600233A46694633
:1037C00004480068FDF7ABFF8046404604B0BDE802
:1037D000F08100008400002010B50146714800E02F
:1037E000006803688B42FBD30246436813448B4254
:1037F00004D143684C682344436001460A464B6841
:1038000013440468A34211D1674C03682468A3429F
:1038100008D04B680468646823444B6003681B68E5
:103820000B6005E0604B1B680B6001E003680B60F8
:10383000884200D0016010BD30B54FF4A0435B4812
:1038400000F007042CB1C01D20F00700574C041BEA
:103850001B1B0246534C22600024524D6C60D01852
:10386000083820F00700504C206000244E4D2D6891
:103870006C604D4D2D682C601146441A4C604A4CCA
:1038800024680C604A4D4C682C604A4D4C682C6092
:103890004FF00044484D2C6030BD2DE9F041054605
:1038A0004FF00008FEF78CFD3F48006808B9FFF7AD
:1038B000C3FF414800682840002847D145B108357A
:1038C00005F0070020B105F00700C0F1080005442D
:1038D000002D3BD037480068854237D8314E3046FE
:1038E000046801E0264624686068A84202D2206885
:1038F0000028F7D12C480068844227D0306800F1B6
:103900000808206830606068401B102807D96719D4
:103910006068401B786065603846FFF75DFF2549A9
:1039200060680968081A2349086008460068204949
:103930000968884203D21F4800681D4908601E4973
:10394000606809680843606000202060FEF76DFC35
:103950004046BDE8F08170B506463546D6B1083D13
:103960002C46154960680968084098B1206888B9F4
:1039700011496068096888436060FEF721FD0D49C0
:103980006068096808440B4908602046FFF724FF77
:10399000FEF74BFC70BD074800687047044800689C
:1039A000704770479000002098000020C00400205D
:1039B000A00000209C000020A400002000BF502098
:1039C00080F31188BFF34F8FBFF36F8F00BF00BF2D
:1039D000FEE7001F4FF080730360001F21F001031A
:1039E0000360001F2E4B03601438026020387047BC
:1039F0002C4800684FF47A71B0FBF1F0401E4FF094
:103A0000E021486107200861704710B5264800682A
:103A100040F47000244908600846006840F0704097
:103A20000860FFF7E5FF002020490860FCF7E8FB8D
:103A3000002010BD704700BF502080F31188BFF3F5
:103A40004F8FBFF36F8F00BF18480068401C1749A5
:103A50000860704715480068401E14490860084611
:103A6000006820B9002080F3118800BF00BF7047B4
:103A700010B500BF502080F31188BFF34F8FBFF304
:103A80006F8F00BFFEF75AFB20B14FF08050064900
:103A90001C39086000BF002080F3118800BF10BDF2
:103AA000BD3900080400002020ED00E0A80000203F
:103AB000704700000FB4044910B503AA029800F043
:103AC000D5F910BC5DF814FB240000200FB41CB520
:103AD000074B06AA7B4469460090059800F097F9C9
:103AE0000020694600F0A6F91CBC5DF814FB00003C
:103AF0005D0300002DE9F0410E46044600202062DF
:103B00002046E168884730B3252805D0D4E9012153
:103B10009047206A401CF2E7E1682046002788476A
:103B2000050018D0A5F14100192802D820354FF41E
:103B300000673246294620462760FCF733FB40B138
:103B4000012804D0F61D26F007060836D8E7361DF2
:103B5000D6E72846DAE7206ABDE8F08170B50C4662
:103B60000546012A05D02878800600D5EA69002399
:103B700002E0012305E05B1C934202D2E05C0028D6
:103B8000F9D1A869E618C01AA861286A1844286201
:103B90002846AFF3008004E0D5E9012114F8010BB9
:103BA0009047B442F8D32846AFF3008070BD0000C0
:103BB0002DE9F0410646002410687529314616A506
:103BC00010D0AFF30080002802DA404213A507E0CE
:103BD00031688A0701D512A502E0490704D511A56D
:103BE000012401E0AFF3008000210A2206F124073E
:103BF00009E0B0FBF2FCB0FBF2F302FB1C0030303A
:103C000078541846491C0028F3D123462A463046EA
:103C1000BDE8F04100F09CB8000000002D0000005D
:103C20002B0000002000000040EA0103024630B5EE
:103C30009B0710D14FF0013400E008C208C91D1BDA
:103C40009D4315EAC41FF8D013F0FF0102F8011BD1
:103C50000DD01B0AF8E711F8013B002B02F8013BDD
:103C600005D011F8013B002B02F8013BF3D130BD28
:103C700010B5431C02E010F8011B71B18107FAD1A5
:103C80004FF0013202C88C1A8C4314EAC211F9D0E9
:103C9000C01A0A0603D0C01E10BDC01A10BD0A0407
:103CA00001D0801E10BD0902FCD0401E10BD032AA9
:103CB00040F2308010F0030C00F0158011F8013B49
:103CC000BCF1020F624498BF11F801CB00F8013B30
:103CD00038BF11F8013BA2F1040298BF00F801CBF4
:103CE00038BF00F8013B11F0030300F0D180083A1F
:103CF000C0F0088051F8043B083A51F804CBA0E822
:103D00000810F5E7121D5CBF51F8043B40F8043B76
:103D1000AFF30080D20724BF11F8013B11F801CBAB
:103D200048BF11F8012B24BF00F8013B00F801CB7C
:103D300048BF00F8012B704702F0FF0343EA03225B
:103D400042EA024200F0D8B87047704770477047A7
:103D50002DE9F0470D4699469246044600F12408A5
:103D60000168880604D5E06921F01001216000E0B7
:103D70000120A84201DD471B00E00027A1697A1954
:103D800002EB0900081AA0612078C00602D4204680
:103D9000AFF30080002608E0D4E901211AF80600FC
:103DA0009047206A401C761C20624E45F4DB207848
:103DB000C0060AD52046AFF3008006E0D4E9012111
:103DC00030209047206A401C2062381EA7F101076E
:103DD000F4DC07E0D4E9012118F805009047206AD7
:103DE000401C2062281EA5F10105F3DC2046AFF33C
:103DF00000802078000602D50220BDE8F08701206F
:103E0000FBE7000001694A1C02610878704700B5B1
:103E10008FB0CDE901310021059105497944CDE903
:103E2000031011466846FFF765FE0FB000BD0000A5
:103E3000E5FFFFFF0A6802F8010B0A60704710B542
:103E4000436913B1AFF3008001E0FFF787FE012063
:103E500010BD127800F124010A7000224A7001227C
:103E6000EDE711684FF0FF32E9E70000074B70B54E
:103E70000D467B44FFF7CBFF0446284600F05CF874
:103E800010B14FF0FF3070BD204670BD57C8FFFF26
:103E900010B5203AC0F00B80B1E81850203AA0E8E5
:103EA0001850B1E81850A0E81850BFF4F5AF5FEA19
:103EB000027C24BFB1E81850A0E8185044BF18C9CC
:103EC00018C0BDE810405FEA827C24BF51F8043B73
:103ED00040F8043B08BF7047D20728BF31F8023BC7
:103EE00048BF11F8012B28BF20F8023B48BF00F85B
:103EF000012B70474FF000020429C0F0128010F02F
:103F0000030C00F01F80CCF1040CBCF1020F18BFB1
:103F100000F8012BA8BF20F8022BA1EB0C0100F048
:103F200011B85FEAC17C24BF00F8012B00F8012B17
:103F300048BF00F8012B7047007B00F080007047FD
:103F40004FF0000200B5134694469646203922BF32
:103F5000A0E80C50A0E80C50B1F12001BFF4F7AF7D
:103F6000090728BFA0E80C5048BF0CC05DF804EB5F
:103F7000890028BF40F8042B08BF704748BF20F8CD
:103F8000022B11F0804F18BF00F8012B70477546C7
:103F900000F028F8AE4605006946534620F00700B9
:103FA000854618B020B5FCF73DFCBDE820404FF039
:103FB00000064FF000074FF000084FF0000B21F013
:103FC0000701AC46ACE8C009ACE8C009ACE8C009E0
:103FD000ACE8C0098D4670470446AFF30080204628
:103FE000FCF7F5F800487047C05400200C4000086A
:103FF00000000020AC0000006C010008B840000880
:10400000AC000020745A0000880100080000000085
:1040100000A24A04000000000000000001020304A6
:104020000607080900000000000000000000000072
:104030000000000000000000000001020304010273
:104040000304060708090204060800000000000037
:104050000000000000000000000000000000000060
:104060000000000000000000000000000000000050
:104070000000000000000000000000000000000040
:104080000000000000000000000000000000000030
:104090000000000000000000000000000000000020
:1040A0000000000000000000000000000000000010
:0840B00000000000AAAAAAAA60
:0400000508000809DE
:00000001FF
