:020000040800F2
:10000000580C002001010008C1030008C3030008C8
:10001000C7030008CB030008CF030008000000005E
:10002000000000000000000000000000D3030008F2
:10003000D503000800000000D7030008D90300081A
:100040001B0100081B0100081B0100080304000835
:100050001B0100081B0100081B0100081B01000810
:100060001B0100081B0100081B0100081B01000800
:100070001B0100081B0100081B0100081B010008F0
:100080001B0100081B0100081B0100081B010008E0
:100090001B0100081B0100081B010008512A000871
:1000A0001B0100081B0100081B0100081B010008C0
:1000B000E72200081B0100081B0100081B010008C3
:1000C0001B0100081B0100081B0100081B010008A0
:1000D0001B0100084B2900081B01000875230008BC
:1000E0001B0100081B0100081B010008DFF80CD0F1
:1000F00003F0DEFB0048004725010008580C0020F3
:100100000648804706480047FEE7FEE7FEE7FEE7B1
:10011000FEE7FEE7FEE7FEE7FEE7FEE793210008C5
:10012000ED0000084FF000090026B24600274FF00E
:1001300003080024002502F051FA4FF4A06000F0FB
:1001400087F902F0A7F802F0B3FA02F043FC4FF48B
:10015000165002F0AEFB02F030FF00BF02F0ADFC23
:100160000028FBD14FF4FA7002F075FA02F017FD87
:10017000DDE002F0FDFD502002F06DFA002002F0FB
:10018000B2FA06460B2E13D2DFE806F0AB061320B8
:100190002D3A434C5D66930065A1674803F09AFCD5
:1001A000654966A002F073F965A1062002F0C1FD61
:1001B00097E064A1604803F08DFC5F495FA002F006
:1001C00066F962A1062002F0B4FD8AE060A15A48F7
:1001D00003F080FC584959A002F059F95EA10620AD
:1001E00002F0A7FD7DE05DA1534803F073FC524986
:1001F00052A002F04CF95BA1062002F09AFD70E0DB
:1002000059A14D4803F066FC4B494CA002F03FF960
:1002100067E057A1484803F05DFC474947A002F05A
:1002200036F95EE054A1444803F054FC424943A02F
:1002300002F02DF94BA10A2002F07BFD49A10B2011
:1002400002F077FD4DE04EA13B4803F043FC3A49F4
:100250003AA002F01CF944E0601CC4B2052C00DB9B
:100260000024CCB1012C04D147A1092002F061FD8A
:1002700016E0022C04D145A1092002F05AFD0FE03E
:10028000032C04D142A1092002F053FD08E041A152
:10029000092002F04EFD03E03FA1092002F049FDD4
:1002A0003EA1254803F016FC234924A002F0EFF8F4
:1002B00017E0681CC5B2022D00DB002525B139A16D
:1002C0000F2002F036FD03E026A10F2002F031FDE1
:1002D00035A1194803F0FEFB174918A002F0D7F822
:1002E00000BF00BF32480078F8B132480068401CB7
:1002F00003F099F85F2804DCB8F1000F01D04FF04B
:10030000010ABAF1010F10D1781CC7B22A4800685F
:10031000C0432A49C1F8A401052F06DD4FF0000AA9
:10032000A8F1010000F0FF08002709F1010920E70A
:100330004B455931000000003008002025730000B3
:10034000C7B000004B45593200000000D7F3000051
:100350004B45593300000000D3D200004B455934BF
:1003600000000000CDA300004B45593500000000FF
:100370004B455936000000004B455937000000003E
:100380004B455938000000003100000032000000E9
:100390003300000034000000B9D800004B45593943
:1003A00000000000BFAA00004B455931300000009A
:1003B0006C00002068000020A481214200802142BE
:1003C000704700BFFEE700BFFEE700BFFEE700BFCB
:1003D000FEE7704770477047184801680068401C86
:1003E000164A10601648814202D300201146086068
:1003F0001448008820B113480088401E1149088025
:10040000704710B5012000F029FDA8B1012000F0CF
:1004100035FD0D48007828B14FF400510B4800F02D
:1004200020FA04E04FF40051084800F01CFA064896
:100430000078C0430449087010BD0000040000208B
:1004400020A107000000002008000020001001404B
:1004500031490143314A1160704770B500210023D2
:100460000F22C47804B32D4C246804F4E064C4F56E
:10047000E064210AC1F10403CA40447804FA03F19C
:100480008478144021430901254C0678A15504784D
:1004900004F01F050124AC4005786D11AD0005F195
:1004A000E025C5F8004109E0047804F01F050124A7
:1004B000AC401C4D0678761145F8264070BD1A4AAE
:1004C0000A400243154B1B1F1A60704739B1134A8B
:1004D000121D12680243114B1B1D1A6006E00F4AE1
:1004E000121D126882430D4B1B1D1A6070470428B1
:1004F00008D14FF0E021096941F004014FF0E022FA
:10050000116107E04FF0E021096921F004014FF08B
:10051000E0221161704700000000FA050CED00E0D8
:1005200000E400E080E100E080FFFF1F002044497C
:100530000860091D0860091D0860091D0860414820
:100540003F4914310860704700213D498279002AF3
:100550003AD00A46126803689A430B461A600A1D8D
:10056000126803689A430B1D1A60027911440A68E5
:1005700003681A430A60324A0832126803689A43D1
:100580002F4B08331A601A1D126803689A432C4BCC
:100590000C331A604279102A0ED11A1F12680368B0
:1005A0001A43274B08331A601A1D126803681A434E
:1005B000234B0C331A600DE02149427911440A683B
:1005C00003681A430A6005E0027911440A68036867
:1005D0009A430A6070470021016001710C2141714A
:1005E0000021817170471649103109680143144A8E
:1005F00010321160704701460020114A143212680F
:100600000A400AB1012000E0002070470C49143173
:1006100008607047014600200022094B1B6803EA6E
:100620000102074B14331B680B4013B10AB10120C0
:1006300000E0002070470249143108607047000054
:1006400000040140FFFF0F0010B50446CC4884426F
:1006500008D10121042000F02DFB0021042000F02E
:1006600029FB46E0C748844208D10121082000F058
:1006700021FB0021082000F01DFB3AE0C248844223
:1006800008D10121102000F015FB0021102000F0FE
:1006900011FB2EE0BD48844208D10121202000F04A
:1006A00009FB0021202000F005FB22E0B84884422D
:1006B00008D10121402000F0FDFA0021402000F087
:1006C000F9FA16E0B348844208D10121802000F0F5
:1006D000F1FA0021802000F0EDFA0AE0AE488442F1
:1006E00007D10121801500F0E5FA0021A01500F0E6
:1006F000E1FA10BD10B50121084600F0DBFA002137
:10070000012000F0D7FA10BD2DE9F0410246002586
:100710000026002000230024002791F803C00CF0DD
:100720000F0591F803C00CF0100CBCF1000F03D0C2
:1007300091F802C04CEA050591F800C0BCF1000F29
:1007400031D0146800202BE04FF0010C0CFA00F3BC
:10075000B1F800C00CEA03069E4220D183004FF09E
:100760000F0C0CFA03F7BC4305FA03FC4CEA040433
:1007700091F803C0BCF1280F06D14FF0010C0CFA20
:1007800000FCC2F814C00AE091F803C0BCF1480FA5
:1007900005D14FF0010C0CFA00FCC2F810C0401C4F
:1007A0000828D1D31460B1F800C0BCF1FF0F34DDCC
:1007B000546800202EE000F1080C4FF0010808FA00
:1007C0000CF3B1F800C00CEA03069E4221D183006D
:1007D0004FF00F0C0CFA03F7BC4305FA03FC4CEA8C
:1007E000040491F803C0BCF1280F05D100F1080CF6
:1007F00008FA0CF8C2F8148091F803C0BCF1480F55
:1008000007D100F1080C4FF0010808FA0CF8C2F803
:100810001080401C0828CED35460BDE8F0814FF60C
:10082000FF710180022181700421C170704702466E
:10083000002093680B400BB1012000E000207047BE
:100840000146886880B2704702460020D3680B409A
:100850000BB1012000E0002070470146C86880B25B
:10086000704701617047416170470AB1016100E062
:1008700041617047C16070474FF480320A43826122
:100880008161826182698269704702460020434B20
:1008900018684FF68073184040EA021008433F4B37
:1008A000186070473E49C8617047F0B50A4600239A
:1008B00000240021002500F00046B6F1004F02D1CF
:1008C000364EF16901E0354E7168C0F3034583B2DD
:1008D00000F44016B6F5401F08D121F070612F4E8C
:1008E000766826F070662D4F7E6012E000F4801668
:1008F000B6F5801F06D1032606FA05F4A14341F0A0
:10090000706106E0460D360103FA06F6B14341F088
:10091000706122B1460D360103FA06F6314300F04C
:100920000046B6F1004F02D11C4EF16101E01B4EB2
:100930007160F0BD30B500228B071C0F0F2303FA46
:1009400004F2164B08338C1053F824309343134CA5
:1009500008348D1044F8253023468C1053F8243089
:100960008C07240F00FA04F423430C4C08348D1038
:1009700044F8253030BD0A49DC310860704700007A
:1009800000080140000C014000100140001401402B
:1009900000180140001C01400020014000000140FF
:1009A00000002042DF48006840F00100DD49086097
:1009B00008464068DC490840DA4948600846006853
:1009C000DA490840D74908600846006820F48020CA
:1009D00008600846406820F4FE0048604FF41F009D
:1009E00088607047CF49096821F48031CD4A116091
:1009F0001146096821F480211160B0F5803F03D0D1
:100A0000B0F5802F0ED106E0C649096841F4803167
:100A1000C44A116007E0C349096841F4A021C14AF2
:100A2000116000E000BF00BF704710B50146002212
:100A3000002300204A11012A02D1BA4C236806E0A3
:100A4000022A02D1B74C236A01E0B64C636A01F076
:100A50001F02012494401C400CB1012000E0002042
:100A600010BD38B5002000900024002500BF3120C3
:100A7000FFF7DBFF05460098401C00900098B0F59A
:100A8000A06F01D0002DF2D03120FFF7CEFF08B1CA
:100A9000012400E00024204638BD01460020A14A80
:100AA000106820F0F80040EAC10010607047A049CB
:100AB00008607047024600209A4B586820F47C106A
:100AC00042EA01031843974B5860704798490866FB
:100AD000704701460020934A506820F00300084305
:100AE000506070478F48406800F00C007047014626
:100AF00000208C4A506820F0F00008435060704796
:100B000001460020874A506820F4E06008435060A6
:100B1000704701460020834A506820F4605040EA44
:100B2000C1005060704729B17E4A527A02437D4B22
:100B30005A7204E07B4A527A82437A4B5A72704767
:100B40007B49D8310860704701460020754A5068DB
:100B500020F440400843506070470021714A203221
:100B60001170704A82F82010012802D004280AD19E
:100B700004E001216B4A2032117005E00521694A29
:100B80002032117000E000BF00BF70476949086063
:100B900070476449096A0143624A116270476549B6
:100BA00044390860704730B500210022002400233A
:100BB0005C4D6D6805F00C0121B1042905D00829B0
:100BC00023D105E05C4D056022E05B4D05601FE030
:100BD000544D6D6805F47012524D6D6805F4803403
:100BE000022505EB92421CB9544D554305600BE0BC
:100BF0004C4D6D6805F400351DB1504D55430560F1
:100C000002E04D4D5543056002E04B4D056000BFCD
:100C100000BF444D6D6805F0F0010909484D6B5C5B
:100C20000568DD4045603F4D6D6805F4E061090AE7
:100C3000434D6B5C4568DD4085603A4D6D6805F459
:100C40006051C90A3E4D6B5C4568DD40C560354D5D
:100C50006D6805F44041890B3A4D6B5CC568B5FB86
:100C6000F3F5056130BD29B12E4A526902432D4B7F
:100C70005A6104E02B4A526982432A4B5A617047F9
:100C800029B1284A92690243264B9A6104E0254A19
:100C900092698243234B9A61704729B1214AD269F4
:100CA0000243204BDA6104E01E4AD26982431D4BA5
:100CB000DA61704729B11B4AD2680243194BDA60E6
:100CC00004E0184AD2688243164BDA60704729B1B3
:100CD000144A12690243134B1A6104E0114A126963
:100CE0008243104B1A6170471249403908607047BF
:100CF0000F49C86470470B49C87170470948406A7A
:100D000040F0807007494862704701460020054A5C
:100D100092680A400AB1012000E0002070470149B2
:100D200088727047001002400000FFF8FFFFF6FED7
:100D3000000042428004424200127A0000093D0055
:100D4000090000201900002029B1504A12880243EE
:100D50004E4B1A8004E04D4A128882434B4B1A8056
:100D600070474A48001D008840F010004749091D9F
:100D7000088070474548001D00884FF6EF71084015
:100D80004249091D08807047002140481C300188F5
:100D9000001F008841EA0040704700B50246FFF797
:100DA000E0FF100C394918310880091D0A80FFF74F
:100DB000E1FF00BD00B50246FFF7D3FFC2F30340D9
:100DC000324908310880091D0A80FFF7D3FF00BDB2
:100DD00000B50246FFF7C5FF100C2C4920310880F2
:100DE000091D0A80FFF7C6FF00BD0020274910310A
:100DF00009880907080B25491431098808437047F9
:100E000000BF2248001D008800F020000028F8D014
:100E100070471E48001D00884FF6F77108401B49B7
:100E2000091D088000BF1948001D008800F0080057
:100E30000028F8D0704701460020144A121D12887D
:100E40000A400AB1012000E0002070470F49091D47
:100E5000098881430D4A121D118070470146002008
:100E60000A4A121D12880A40D0B2084A12880A4063
:100E700012B108B1012000E0002070470349091DAC
:100E800009888143014A121D1180704700280040E3
:100E900010B50446FE48844208D10121C014FFF772
:100EA00009FF0021E014FFF705FFC4E0B4F1804F13
:100EB00008D101210846FFF70AFF00210120FFF7B2
:100EC00006FFB8E0F348844208D101210220FFF771
:100ED000FEFE00210220FFF7FAFEACE0EE4884425D
:100EE00008D101210420FFF7F2FE00210420FFF7C2
:100EF000EEFEA0E0E948844208D101210820FFF776
:100F0000E6FE00210820FFF7E2FE94E0E448844278
:100F100008D101211020FFF7DAFE00211020FFF791
:100F2000D6FE88E0DF48844208D101212020FFF767
:100F3000CEFE00212020FFF7CAFE7CE0DA48844282
:100F400008D101214014FFF7B5FE00216014FFF71E
:100F5000B1FE70E0D548844209D10121C804FFF7F1
:100F6000A9FE00214FF40020FFF7A4FE63E0D04863
:100F7000844209D101210805FFF79CFE00214FF4AE
:100F80008010FFF797FE56E0CA48844209D101213C
:100F90004805FFF78FFE00214FF40010FFF78AFE8F
:100FA00049E0C548844208D101214020FFF78FFE67
:100FB00000214020FFF78BFE3DE0C048844208D16D
:100FC00001218020FFF783FE00218020FFF77FFEB4
:100FD00031E0BB48844208D101218015FFF777FE3C
:100FE0000021A015FFF773FE25E0B648844209D121
:100FF00001210804FFF75EFE00214FF48030FFF767
:1010000059FE18E0B048844209D101214804FFF795
:1010100051FE00214FF40030FFF74CFE0BE0AB48CF
:10102000844208D101218804FFF744FE00214FF4D7
:101030008020FFF73FFE10BD00220288944B9842AB
:101040000ED0994B98420BD0B0F1804F08D0914B05
:10105000984205D0904B984202D0904B984204D1D0
:101060004FF68F731A404B881A438D4B984207D026
:101070008C4B984204D04FF6FF431A40CB881A435A
:1010800002808B8883850B880385814B98420BD027
:10109000854B984208D08B4B984205D08A4B98429A
:1010A00002D08A4B984201D10B7A038601238382B6
:1010B000704770B5002400220023058C4FF6FE76A1
:1010C00035400584028C8388048B4FF68F752C4045
:1010D000B51E2C400D882C43751E2A400D892A43CD
:1010E0004D882A436A4DA8420BD06F4DA84208D0C4
:1010F000744DA84205D0744DA84202D0734DA84249
:1011000013D14FF6F7752A404D892A434FF6FB75E8
:101110002A408D882A434FF6FF652B404FF6FF5536
:101120002B408D892B43CD892B4383800483CD882D
:101130008586028470BD70B5002400220023058CD2
:101140004FF6EF7635400584028C8388048B48F691
:10115000FF752C404FF6FF452C400D884FF6FF766B
:1011600006EA05252C434FF6DF752A400D8906EA6D
:1011700005152A434D8806EA05152A43444DA84221
:1011800002D0494DA8421DD14FF67F752A404D89A6
:101190004FF6FF7606EA05152A434FF6BF752A403B
:1011A0008D8806EA05152A434FF6FF352B404FF28E
:1011B000FF752B408D8906EA85052B43CD8906EA0C
:1011C00085052B4383800483CD880587028470BD09
:1011D00070B5002400220023058C4FF6FF663540D1
:1011E0000584028C8388848B4FF68F752C404FF6D4
:1011F000FC752C400D882C434FF6FF552A400D8975
:101200004FF6FF7606EA05252A434D8806EA0525AE
:101210002A431F4DA84202D0234DA8421DD14FF2B0
:10122000FF752A404D894FF6FF7606EA05252A43C9
:101230004FF6FF352A408D8806EA05252A434EF6EB
:10124000FF752B404DF6FF752B408D8906EA05157D
:101250002B43CD8906EA05152B4383808483CD88F3
:101260008587028470BD70B5002200230024058CA0
:101270004EF6FF7635400584038C8488828B48F6D1
:10128000FF752A404FF6FF452A400D8820E00000F8
:10129000002C01400004004000080040000C004009
:1012A000001000400014004000340140004C014098
:1012B000005001400054014000180040001C004054
:1012C000002000400040014000440140004801402F
:1012D0004FF6FF7606EA05252A434DF6FF752B40AB
:1012E0000D8906EA05352B434D8806EA05352B4363
:1012F000FA4DA84202D0FA4DA84208D14BF6FF752C
:101300002C408D894FF6FF7606EA85152C438480A4
:101310008283CD88A0F84050038470BD828B4FF249
:10132000FF331A408283828B4FF6FF7303EA012357
:101330001A4382837047F0B50C46154600220021FF
:101340000026078C4EF6FF7C07EA0C070784828B89
:10135000018C4FF6FF7707EA043640F6FF473A4024
:101360004FF6FF7707EA05273A434FF6FF7707EA7C
:1013700003373A43D94FB8420ED0D94FB8420BD0B9
:10138000B0F1804F08D0D74FB84205D0D64FB84201
:1013900002D0D64FB84206D14DF6FF77394046F419
:1013A0008057394305E047F6FF57394044F48057EA
:1013B000394382830184F0BD828B4FF6F3731A4068
:1013C0008283828B0A4382837047F0B50C461546B0
:1013D000002200210026078C4FF6FF6C07EA0C075D
:1013E0000784828B018C4FF6FF7707EA04264FF6BD
:1013F0000C773A404FF6FF7707EA03172F433A433B
:10140000B64FB8420ED0B64FB8420BD0B0F1804FB5
:1014100008D0B44FB84205D0B34FB84202D0B34F52
:10142000B84206D14FF6FF57394046F4807739432A
:1014300005E04FF2FF57394044F480773943828307
:101440000184F0BD028B4FF2FF331A400283028BFE
:101450004FF6FF7303EA01231A4302837047F0B586
:101460000C461546002200210026078C4FF6EF7C23
:1014700007EA0C070784028B018C4FF6FF7707EA17
:10148000041640F6FF473A404FF6FF7707EA033766
:101490003A434FF6FF7707EA05273A438F4FB842A2
:1014A0000ED08F4FB8420BD0B0F1804F08D08D4F87
:1014B000B84205D08C4FB84202D08C4FB84206D10A
:1014C0004FF6DF77394046F01007394305E04FF615
:1014D0005F77394044F01007394302830184F0BD3F
:1014E000028B4FF6F3731A400283028B0A43028386
:1014F0007047F0B50C46154600220021068C4FF6C9
:10150000FE773E400684028B018C4FF60C7632400B
:101510007E1C06EA03162E433243704EB0420ED0B4
:101520006F4EB0420BD0B0F1804F08D06D4EB0423C
:1015300005D06D4EB04202D06C4EB04206D14FF68F
:10154000FD76314044F00106314305E04FF6F57673
:10155000314044F00106314302830184F0BD70B58F
:1015600005460C465D4885420ED05D4885420BD04D
:10157000B5F1804F08D05B48854205D05A48854276
:1015800002D05A48854200D100E000BF208850B9FF
:101590002389A28861882846FFF7ABFFE1882846A7
:1015A000FFF79EFF25E0208804280AD12389A2881E
:1015B00061882846FFF753FFE1882846FFF742FF7E
:1015C00017E0208808280AD12389A2886188284644
:1015D000FFF7FBFEE1882846FFF7EEFE09E02389CE
:1015E000A28861882846FFF7A6FEE1882846FFF713
:1015F00095FE70BD2DE9F04105460C4600260127F9
:10160000608808B9022600E00026A088012801D1E0
:10161000022700E001272088A0B92389A2886188D9
:101620002846FFF766FFE1882846FFF759FF238920
:101630003A4631462846FFF712FFE1882846FFF771
:1016400001FF13E02389A28861882846FFF707FF7E
:10165000E1882846FFF7F6FE23893A4631462846B8
:10166000FFF747FFE1882846FFF73AFFBDE8F08122
:101670000A884B881A438B881A43CB881A430B89F4
:101680001A434B891A438B891A43A0F844207047A8
:101690004FF6FF71818000210180C180418001727D
:1016A00070470021018041808180C180018141819A
:1016B0008181C181704700210180418001218180A9
:1016C0000021C1800181704700210180418081801B
:1016D000C18001814181818170470000002C01405F
:1016E000003401400004004000080040000C0040AD
:1016F00021B1028842F00102028004E002884FF624
:10170000FE731A400280704731B1B0F8442042F4B1
:101710000042A0F8442005E0B0F84420C2F30E02D5
:10172000A0F8442070471AB183890B43838102E0FB
:1017300083898B43838170478182704741EA02032A
:10174000A0F8483070471AB183890B43838102E0C7
:1017500083898B438381704701894FF6F87211406A
:10176000018170470A46002101894FF68F731940A5
:1017700011430181704730B504460D462946204685
:10178000FFF7F0FF208940F00700208130BD2DE9F0
:10179000F04104460D4616461F46602D06D13B46D5
:1017A000012231462046FFF75AFE05E03B46012262
:1017B00031462046FFF79DFE29462046FFF7D2FF1F
:1017C000208940F007002081BDE8F08130B50C464B
:1017D00000210189C9B24FF6FF7505EA03251543BB
:1017E00025432943018130BD2DE9F04105460E46D0
:1017F00017469846002443463A4631462846FFF7A6
:10180000E5FF2C894FF6F870044044F007044FF6CA
:101810008F70044044F070042C81BDE8F081F0B575
:1018200004460D4616461F463B463246294620468C
:10183000FFF7CCFF208940F480402081F0BD018576
:10184000828270470A46002101884FF68F73194043
:10185000114301807047F0B50C4615461E46002125
:10186000002200230189028B038C4FF6F877394060
:1018700021434FF6FC473A4040F201173A434FF6F6
:10188000DD773B404FF6FF7707EA06172F433B43D0
:10189000018102830384F0BD0A460021018B4FF6CB
:1018A0008F7319401143018370470A460021018B51
:1018B00048F6FF7319404FF6FF7303EA02231943FA
:1018C000018370470A460021818B4FF68F731940C0
:1018D0001143818370470A460021818B48F6FF73CC
:1018E00019404FF6FF7303EA0223194381837047BF
:1018F00021B1028842F08002028004E002884FF6A3
:101900007F731A400280704721B1828842F004023E
:10191000828004E082884FF6FB731A408280704711
:1019200021B1828842F00802828004E082884FF66A
:10193000F7731A408280704721B1828842F0010219
:10194000828004E082884FF6FE731A4082807047DE
:101950000A460021018B4FF6F773194011430183AA
:1019600070470A460021018B4FF2FF7319404FF672
:10197000FF7303EA02231943018370470A460021DB
:10198000818B4FF6F77319401143818370470A46E4
:101990000021818B4FF2FF7319404FF6FF7303EA6A
:1019A00002231943818370470A460021018B4FF6B9
:1019B000FB7319401143018370470A460021018BD4
:1019C0004FF6FF3319404FF6FF7303EA0223194322
:1019D000018370470A460021818B4FF6FB73194043
:1019E0001143818370470A460021818B4FF6FF33F4
:1019F00019404FF6FF7303EA0223194381837047AE
:101A00000A460021018B4FF67F7319401143018371
:101A100070470A460021018BC1F30E014FF6FF7398
:101A200003EA02231943018370470A460021818B90
:101A30004FF67F7319401143818370470A46002196
:101A4000818BC1F30E014FF6FF7303EA02231943A2
:101A5000818370470A460021018C4FF6FD731940BF
:101A60001143018470470A460021018C4FF6F77339
:101A700019401143018470470A460021018C4FF63A
:101A8000DF7319404FF6FF7303EA02131943018411
:101A900070470A460021018C4FF67F7319404FF6BC
:101AA000FF7303EA02131943018470470A460021B9
:101AB000018C4FF6FF5319404FF6FF7303EA0223E0
:101AC0001943018470470A460021018C4FF2FF73CD
:101AD00019404FF6FF7303EA02231943018470474C
:101AE0000A460021018C4DF6FF7319404FF6FF7333
:101AF00003EA023319430184704730B500230124FF
:101B00008C40A3B2048C9C430484048C02FA01F53B
:101B1000ADB22C43048430BD30B5002304248C4086
:101B2000A3B2048C9C430484048C02FA01F5ADB288
:101B30002C43048430BD70B50346002000241846B1
:101B4000183001258D40ACB21D8CA5431D8409B110
:101B5000082909D100EB6100056825F070050560D2
:101B60000568154305600EE00D1FC5F34E052844BA
:101B7000056825F4E045056005684FF6FF7606EA3E
:101B800002263543056070BD21B1028842F0020291
:101B9000028004E002884FF6FD731A40028070470D
:101BA00021B1028842F00402028004E002884FF66C
:101BB000FB731A400280704721B1828842F0800294
:101BC000828004E082884FF67F731A4082807047DB
:101BD00002884FF6F7731A40028002880A43028097
:101BE000704782884FF68F731A40828082880A433A
:101BF0008280704702894FF6F8731A400281028989
:101C00000A430281704702894FF67F731A400281AE
:101C100002890A4302817047818470478185704739
:101C2000818670470187704781877047A0F8401010
:101C3000704702884FF6FF431A40028002880A4329
:101C4000028070470146888E70470146088F7047B2
:101C50000146888F70470146B1F840007047014641
:101C6000888C70470146088D704702460020138A11
:101C70000B400BB1012000E000207047CA430282F4
:101C8000704730B50246002000230024158A05EA7B
:101C90000103958905EA010413B10CB1012000E0AC
:101CA000002030BDCA4302827047000010B50446D0
:101CB000FB48844209D101218803FEF7FBFF002184
:101CC0004FF48040FEF7F6FF32E0F648844209D137
:101CD00001214804FEF7FBFF00214FF40030FEF71E
:101CE000F6FF25E0F048844209D101218804FEF77F
:101CF000EEFF00214FF48020FEF7E9FF18E0EB48EB
:101D0000844209D10121C804FEF7E1FF00214FF40C
:101D10000020FEF7DCFF0BE0E548844208D10121FA
:101D20000805FEF7D4FF00214FF48010FEF7CFFF27
:101D300010BD2DE9F04786B005460E460024A246A8
:101D400000BFA1460027B08900B100BF2F462C8AF2
:101D50004CF6FF700440F08804432C82AC894EF6A8
:101D6000F3100440B0883189084371890843044363
:101D7000AC81AC8A4FF6FF400440B0890443AC828A
:101D800001A8FEF710FFC648874202D1DDF810A077
:101D900001E0DDF80CA0A88900F4004040B10AEB96
:101DA000CA0000EB0A1031684900B0FBF1F807E007
:101DB0000AEBCA0000EB0A1031688900B0FBF1F8A9
:101DC0006420B8FBF0F004012009642101FB1089B4
:101DD000A88900F4004040B1322000EBC900B0FBFC
:101DE000F1F000F00700044308E0322000EB091096
:101DF0006421B0FBF1F000F00F0004432C8106B029
:101E0000BDE8F0874FF41651016000218180C18048
:101E100001810C21418100218181704710B502466A
:101E20000020108A4FF2FF0318400B884C88234390
:101E30008C882343CC8823431843108210BD002193
:101E4000018041808180C180704721B1828942F444
:101E50000052828104E082894DF6FF731A4082812C
:101E60007047F0B50346002400260025002040F608
:101E70006A17B94200D100BF1846C1F3421401F0FD
:101E80001F06012707FA06F5012C01D10C3004E0EA
:101E9000022C01D1103000E014301AB107682F4332
:101EA000076002E00768AF430760F0BD1AB1838A9C
:101EB0000B43838202E0838A8B4383827047028ACA
:101EC0004FF6F0731A400282028A0A430282704778
:101ED00082894FF2FF731A40828182890A4382818C
:101EE000704721B1828942F00202828104E0828936
:101EF0004FF6FD731A4082817047028A4FF6DF73F6
:101F00001A400282028A0A430282704721B1028A81
:101F100042F48042028204E0028A4BF6FF731A40C8
:101F200002827047C1F308028280704701468888A8
:101F3000C0F308007047818941F001018181704739
:101F4000028BD2B20283028B42EA012202837047E3
:101F5000028B02F47F420283028B0A4302837047A2
:101F600021B1828A42F02002828204E0828A4FF606
:101F7000DF731A408282704721B1828A42F01002D8
:101F8000828204E0828A4FF6EF731A4082827047A1
:101F900021B1828A42F00802828204E0828A4FF6EE
:101FA000F7731A408282704721B1828942F400425D
:101FB000828103E08289C2F30E028281704721B1DF
:101FC000828A42F40062828204E0828A4FF2FF73C6
:101FD0001A4082827047828A4FF6FB731A408282CF
:101FE000828A0A438282704721B1828A42F00202C9
:101FF000828204E0828A4FF6FD731A408282704723
:1020000002460020B1F5007F00D100BF13880B40CD
:102010000BB1012000E00020704701F40072B2F51E
:10202000007F00D100BFCA430280704770B50246EE
:10203000002400230025002040F66A16B14200D19A
:1020400000BFC1F3421501F01F03012606FA03F396
:10205000012D02D19689334006E0022D02D1168A65
:10206000334001E0968A33400C12012606FA04F44C
:102070001688344013B10CB1012000E0002070BD7F
:1020800010B50022002340F66A14A14200D100BF1F
:102090000A1201249440A3B2DC43048010BD000066
:1020A000003801400044004000480040004C00401F
:1020B000005000400CB50020019000906C48006872
:1020C00040F480306A49086000BF6948006800F445
:1020D000003000900198401C0190009818B90198B8
:1020E000B0F5A06FF1D16248006800F4003010B183
:1020F0000120009001E0002000900098012843D1C9
:102100005C48006840F010005A49086008460068C2
:1021100020F0030008600846006840F002000860F4
:10212000534840685249486008464068486008463D
:10213000406840F4806048600846406820F47C10A5
:1021400048600846406840F4E81048600846006867
:1021500040F08070086000BF4548006800F00070E3
:102160000028F9D04248406820F003004049486008
:102170000846406840F00200486000BF3C484068A4
:1021800000F00C000828F9D10CBD10B5FFF792FF44
:1021900010BD10B53648006840F0010034490860B1
:1021A000084640683449084031494860084600689C
:1021B000324908402E4908600846006820F4802013
:1021C00008600846406820F4FE0048604FF41F0095
:1021D0008860FFF7DAFF4FF000602949086010BD02
:1021E00010B5002100200022214B5B6803F00C0198
:1021F00021B1042906D0082928D107E0214B224C1F
:10220000236027E01F4B204C236023E0184B5B68C2
:1022100003F47010164B5B6803F48032022303EB67
:10222000904022B9194B4343174C23600DE0104BEB
:102230005B6803F4003323B1144B4343124C236017
:1022400003E0104B4343104C236003E00D4B0E4C56
:10225000236000BF00BF064B5B68C3F303130C4C45
:10226000E15C094B1B68CB40074C236010BD0000AC
:1022700000100240002002400000FFF8FFFFF6FEC1
:1022800008ED00E000127A002000002000093D0067
:102290002400002008B501211020FEF7F1FC4FF4C6
:1022A0000050ADF8000010208DF8030003208DF8D9
:1022B000020069460148FEF727FA08BD00100140F8
:1022C00010B5044600214FF08040FFF7A5FC4FF009
:1022D0008040808D00204FF0804188850846808DA9
:1022E0002043888510BD10B501218807FFF7C9FC80
:1022F00070B101218807FFF7D5FC1D48008840F424
:1023000000401B49088000214FF08040FFF7F0F9A2
:1023100010BD7FB505460C4601210846FEF7BDFC01
:10232000ADF80450ADF800400020ADF80600ADF85F
:10233000020069464FF08040FEF77EFE0122114602
:102340009007FFF7F0F901218807FFF7D1F91C206A
:102350008DF80C0000208DF80D0002208DF80E0085
:1023600001208DF80F0003A8FEF777F87FBD00006D
:102370003400002010B540F225519048FFF756FE7A
:1023800018B38E48FFF7D2FDC4B28D48008800F420
:102390000040D0B98A480088B0F5806F16DA8948C5
:1023A000007858B900214FF08040FFF735FC844891
:1023B000008818B901218807FFF79AF98049088831
:1023C000411C7F4A118080490C5405E07C480088FC
:1023D00040F400407A49088010BD1CB50446012134
:1023E0000820FEF74DFC01218804FEF756FC7348D7
:1023F000FFF75CFC4FF48060ADF8000003208DF81F
:10240000020018208DF8030069467048FEF77CF939
:102410004FF40060ADF8000004208DF80300694619
:102420006A48FEF771F96A480460002068498880AC
:10243000C880088188810C2048816048FFF779FCBA
:1024400001215E48FFF701FD012240F225515B4862
:10245000FFF707FD27208DF8040002208DF8050006
:1024600003208DF8060001208DF8070001A8FDF774
:10247000F4FF41F61F416320FFF74BFF0020504956
:10248000088000214FF08040FFF732F91CBD0FB4E7
:1024900038B505A800904F48009A049901F02EFB2A
:1024A000002000904B4800F0A9FF85B200240DE009
:1024B00000BF40214148FFF7A3FD0028F9D045485F
:1024C000015D3E48FFF72EFD601C84B2AC42EFDB9D
:1024D00038BC5DF814FB70B505460C46082D2DD2AE
:1024E000DFE805F004090E13181D22274FF496604B
:1024F0003949086022E04FF41660374908601DE052
:102500004FF496503449086018E04FF416503249A1
:10251000086013E04FF496402F4908600EE04FF436
:1025200016402D49086009E04FF461402A490860CF
:1025300004E04FF4E1302849086000BF00BF0021EB
:102540001E48FFF782FC24480068214908600020EB
:10255000C88014B9888008810FE0012C05D12003C0
:102560001B4988808010088107E0022C05D1E00219
:10257000174988804FF4C060088115490F48FFF75C
:10258000D8FB01210D48FFF760FC70BD10B5044673
:1025900000210A48FFF759FC1CB10C200C49488166
:1025A00002E008200A49488109490448FFF7C1FBB5
:1025B00001210248FFF749FC10BD0000004800401F
:1025C000340000206D00002000010020000C0140BC
:1025D00058070020000500203800002010B56FF0DB
:1025E0000400FDF784FF2E4800682E49B0FBF1F08F
:1025F0002D4908700846007800EB4001C1EBC0107F
:102600004FF6FF7101EAC0002849088010BD01465D
:10261000254A12784A434FF0E0235A6100229A611A
:102620001A46126942F001021A6100BF4FF0E0221F
:10263000106900F001021AB100F48032002AF5D0CE
:102640004FF0E022126922F001024FF0E0231A61FC
:1026500000229A6170470146144A12884A434FF09B
:10266000E0235A6100229A611A46126942F001027F
:102670001A6100BF4FF0E022106900F001021AB1A8
:1026800000F48032002AF5D04FF0E022126922F0E7
:1026900001024FF0E0231A6100229A6170470000A6
:1026A0002000002000127A003C0000203E000020A4
:1026B00008B501210C20FEF7E3FAFF20ADF8000079
:1026C00048208DF8030069466F48FEF71DF84FF467
:1026D0004050ADF8000048208DF8030069466B4873
:1026E000FEF712F808BD10B5044614B10120684980
:1026F000087067480078002872D001216248FEF710
:1027000096F878B302216048FEF791F850B304219F
:102710005D48FEF78CF828B308215B48FEF787F880
:1027200000B310215848FEF782F8D8B1202156484E
:10273000FEF77DF8B0B140215348FEF778F888B134
:1027400080215148FEF773F860B14FF480514F4833
:10275000FEF76DF830B14FF400514C48FEF767F8C2
:1027600000284ED10A20FFF776FF00204849087064
:1027700001214548FEF75BF808B9012010BD022190
:102780004148FEF754F808B90220F7E704213E4813
:10279000FEF74DF808B90320F0E708213A48FEF7A4
:1027A00046F808B90420E9E710213748FEF73FF85A
:1027B00008B90520E2E720213348FEF738F808B9C8
:1027C0000620DBE740213048FEF731F808B9072042
:1027D000D4E780212C48FEF72AF810B90820CDE76D
:1027E0000FE04FF480512948FEF721F808B909207D
:1027F000C4E74FF400512548FEF719F8F0BB0A2052
:10280000BCE701212048FEF712F8012839D1022146
:102810001D48FEF70CF8012833D104211A48FEF7B1
:1028200006F801282DD108211748FEF700F80128E5
:1028300027D110211448FDF7FAFF012821D12021CA
:102840001148FDF7F4FF01281BD140210E48FDF788
:10285000EEFF012815D180210B48FDF7E8FF012884
:102860000FD101030948FDF7E2FF012809D1410317
:102870000648FDF7DCFF012803D100E001E0044930
:10288000087000207AE7000000080140000C0140B9
:1028900040000020014600BF704700BF494A12882F
:1028A00002F04002002AF9D0C2B2464B1B1D1A802A
:1028B000704710B586B00446012144F20400FEF7CB
:1028C000DFF94FF40070ADF8140003208DF8160006
:1028D00018208DF8170005A93B48FDF715FF4FF4A8
:1028E0008060ADF8140004208DF8170005A9364863
:1028F000FDF70AFF25208DF8000003208DF8010068
:102900008DF8020001208DF803006846FDF7A5FD53
:1029100001940020ADF80800ADF80A00ADF80C00F5
:10292000ADF810000C20ADF80E0001A92548FFF706
:1029300000FA012240F225512248FFF792FA0121C4
:102940002048FFF782FA06B010BD10B540F22551BD
:102950001C48FFF76BFB10B31A48FFF7E7FAC4B245
:102960001A48008800F40040C8B91848008800F4EC
:10297000804060B10A2C03D000201449088020E078
:102980001248008840F400401049088019E00D2CDE
:1029900006D10E48008840F480400C49088010E0C1
:1029A0000A480088C0F30D0009490C540748008804
:1029B000401C0649088008460088C72801DD002021
:1029C000088010BD00380140000801404800002088
:1029D0006807002008B501210820FEF751F94FF4DF
:1029E0000070ADF8000010208DF8030003208DF872
:1029F000020069460448FDF787FE4FF40071024863
:102A0000FDF731FF08BD0000000C014010B5044681
:102A10002CB90020F8498871F849C8700FE0012CE2
:102A200003D10820F449487104E0022C02D10C20A3
:102A3000F14948710120F0498871F049C870F048A7
:102A40000470ED48FDF780FDEC48FDF706FD10BD74
:102A500010B54020FDF7DEFD70B3E948007801288D
:102A60000AD1E8480078012802D10020E649088010
:102A70000220E349087018E0E1480078022814D1E8
:102A8000E0480078012806D1DF48008840F4004083
:102A9000DD49088006E0DB480078022802D10120E9
:102AA000D84908700120D6490870D5480078FFF74A
:102AB000ADFF4020FDF7BFFD10BD38B50024012556
:102AC00001210820FEF7DCF801210846FEF7D8F8BE
:102AD0008020ADF8000010208DF8030003208DF851
:102AE00002006946C948FDF70FFE4020ADF800001E
:102AF00028208DF8030003208DF802006946C348A2
:102B0000FDF702FE06210120FDF714FF4020BA491F
:102B1000086000200871082048710020887108466C
:102B2000FDF712FD1720B5490870022048700320F8
:102B300088700020C8700846FDF78FFC0020B4495B
:102B40000860B449C1F8180106E04FF4FA70FFF7C5
:102B500082FD6420FFF77FFDAD48843800680028BF
:102B6000F3D14FF4E130FFF738FC0120A8490860A9
:102B70002820FFF770FD032407E04622A6A1A7A0A6
:102B800000F063FA08B9002504E02000A4F1010177
:102B9000CCB2F2D100BF04B90125284638BD30B50A
:102BA00085B0002500210720FFF795FC0120FFF7E5
:102BB000EDFC00BF9648843800680028FAD1012057
:102BC000934908602820FFF746FD00208D490870D2
:102BD00093480088040A924805782B46224691A122
:102BE000684600F077FF32228BA1684600F02DFA8C
:102BF0008B480379827890A1684600F06BFF3222FF
:102C000085A1684600F021FA8548C2788EA1684601
:102C100000F060FF322280A1684600F016FA80487A
:102C200082798DA1684600F055FF32227AA168466C
:102C300000F00BFA7A48C2798BA1684600F04AFF8F
:102C4000322275A1684600F000FA7548427989A1E0
:102C5000684600F03FFF32226FA1684600F0F5F9A8
:102C60006F48437A027A87A1684600F033FF322228
:102C700069A1684600F0E9F986A1684600F02AFFDC
:102C8000322265A1684600F0E0F900206149C1F8F0
:102C90009C012820FFF7DFFC00BF5D4884380068F6
:102CA0000028FAD1584908800120564908705C4A2A
:102CB000517A107AFFF70FFC0120FFF7A7FE05B04D
:102CC00030BD10B576A1774800F004FF754976A0B5
:102CD000FFF7DDFB10BD70B5044600250FE05CB1C9
:102CE00021467248FFF71EF900BF80216F48FFF7A9
:102CF00087F90028F9D000E070BD681CC5B2032D2B
:102D0000EDDB00BFF8E770B50446002510E0605D1C
:102D100068B1615D6548FFF705F900BF8021634830
:102D2000FFF76EF90028F9D0681CC5B200E070BD4D
:102D3000EDE730B585B004460D461421684600F035
:102D400036FBFF20FFF7C7FF224659A1684600F077
:102D5000C1FE6846FFF7D7FF294658A000F0AAFE3B
:102D600055A0FFF7D0FFFF20FFF7B5FF05B030BD3E
:102D700010B500242448008800F40040002839D011
:102D800021480088C0F30E0400204D4908551E4913
:102D900008804CA14A4800F038FB50B94B48006805
:102DA000C0434B49C1F8B4014AA10A20FFF7C1FF53
:102DB000DFE049A1424800F028FB50B943480068D1
:102DC000C0434349C1F8B40145A10A20FFF7B1FF50
:102DD000CFE044A13A4800F018FB50B93B480068E6
:102DE000C0433B49C1F8B4013AA10B20FFF7A1FF52
:102DF000BFE07BE0C1E00000580000206000002040
:102E00006E0000206D00002034000020000C014006
:102E10009C812142008021424F4B00004154000020
:102E20004C00002041542B414444523D253032781F
:102E30002C2530327800000041542B574C5241541D
:102E4000453D25642C25640041542B54504F574573
:102E5000523D25640000000041542B43574D4F4420
:102E6000453D25640000000041542B544D4F44451E
:102E70003D25640041542B574C54494D453D256434
:102E80000000000041542B554152543D25642C252F
:102E90006400000041542B464C4153483D31000032
:102EA00041544B00300800202573000000380140D9
:102EB0007425642E7478743D220000002573200070
:102EC000000100204B4559355F310000B40122421A
:102ED00000002242D5FD00004B4559355F3200000D
:102EE000B7B400004B4559365F31000038A13A486D
:102EF00000F08BFA58B939480068C0433849C1F826
:102F0000B401AFF224010B20FFF713FF31E03D21A4
:102F1000314800F069FA90B130480068C043304948
:102F2000C1F8B4013D212C4800F05EFA2D4908603B
:102F300008460168491C0820FFF7FBFE19E02B2119
:102F4000254800F051FAA0B124480068C043244944
:102F5000C1F8B4012B21204800F046FA224908604C
:102F600008460168491C0720FFF7E3FE01201F49BE
:102F700008702146184800F01AFA10BD0024FFF727
:102F80000EFE0EE0FFF79DFE0A20FFF764FBFFF741
:102F9000EFFE601CC4B2142C00D100240A20FFF7FD
:102FA0005AFBEFE700BFFFF788FD0028FBD14FF485
:102FB000FA70FFF750FBFFF7E1FF10B5C820FFF7ED
:102FC0004AFBFF20FFF787FEC820FFF744FB10BD38
:102FD0004B4559365F32000000010020B401224207
:102FE0000000224264000020680000206C000020E5
:102FF00010B50446E048008800F4004070B100209D
:10300000DD490988C1F30E01DC4A50541146DCA0A9
:1030100000F050FD14B10020D749088010BD70B5F4
:1030200004460025D448008800F4004058B1002030
:10303000D1490988C1F30E01D04A505421461046A7
:1030400000F0C0F90546284670BD2DE9F041044660
:103050000E46154600270020C7490880FF2C0AD8D5
:1030600000BFC848008800F040000028F9D0C549DA
:10307000091D0C8003E02146C3A0FFF708FAC6B182
:10308000BDB10FE00A20FFF7E6FABB48008800F464
:10309000004038B13046FFF7C2FF00B106E0002023
:1030A000B5490880681E80B20500EBD100BF05B9A4
:1030B00001273846BDE8F0810146302905DB392972
:1030C00003DCA1F13000C0B27047412905DB46297D
:1030D00003DCA1F13700C0B2F6E7612905DB662900
:1030E00003DCA1F15700C0B2EEE70020ECE730B5F9
:1030F00003460C461546002200BF05E0A05CFFF722
:10310000DBFF9854501CC2B2AA42F7DB30BDF0B5C9
:1031100003460E460024002500BF05E0305DFFF7A2
:10312000CBFF1855601CC4B29442F7DB052A19D1B5
:10313000187842F210714843597801EB4107C7EB08
:10314000C11100EBC100997801EBC10707EB011138
:1031500000EB8100D97801EB810100EB4100197986
:1031600045182DE0042A12D118784FF47A7148439B
:10317000597801EBC10707EB011100EB8100997849
:1031800001EB810100EB4100D978451818E0032AD2
:103190000AD1187864214843597801EB810100EB8A
:1031A0004100997845180BE0022A06D15878197821
:1031B00001EB810100EB410502E0012A00D11D78FD
:1031C0002846F0BD0146002200200A4600BF431CED
:1031D000D8B20A23B2FBF3F2002AF8D170472DE9E6
:1031E000FC474FF00008C146C24600250020009071
:1031F0000190012400BF00260027B8E0002D75D003
:103200000B2D3DDA012C1CD1052E0DDA012E0CD12F
:103210005F480078302808D1681E5E49096851F877
:10322000200000785A4908708AE0681E59490968E8
:1032300051F8200002783046711CCEB254490A542D
:103240007EE0022C7CD1022F7ADA012F0CD150487B
:103250000078302808D1681E4E49096851F82000CE
:1032600000784B4908706BE0681E4A49096851F8BC
:10327000200002783846791CCFB245490A545FE0F5
:103280000B2D0DD1012C04D1002E59D0701EC6B2C9
:1032900056E0022C54D1002F52D0781EC7B24FE016
:1032A0000C2D46D1012C22D1BEB132463849684698
:1032B000FFF72DFF8246BAF5803F09D34FF4FA702D
:1032C000FFF7C9F94FF4FA70FFF7C5F9002637E0A8
:1032D0003148C0F800A0022432E04FF4FA70FFF742
:1032E000BAF94FF4FA70FFF7B6F929E033E0022C8F
:1032F00026D1B7B13A4626496846FFF708FF00F0E5
:10330000FF09B9F11F0F08DD4FF4FA70FFF7A3F9B9
:10331000C820FFF7A0F9002712E0204880F80090AD
:1033200026E04FF4FA70FFF796F9C820FFF793F9FB
:1033300006E0601EC4B2012C00D15CE704B917E0BE
:10334000012C03D100201249885504E0022C02D13F
:1033500000200F49C85508F1010000F0FF08B8F13E
:103360001E0F01D14FF000080A20FFF774F945E75E
:1033700000BFBDE8FC8700003400002000010020F1
:10338000257300000048004025730D0A000000006E
:10339000F40000209C000020E4000020E800002051
:1033A000D2B201E000F8012B491EFBD27047002287
:1033B000F6E710B513460A4604461946FFF7F0FF34
:1033C000204610BD30B505462A460B4612F8010BC3
:1033D00013F8014B08B1A042F8D01CB1002802D06C
:1033E0006D1CF1E7284630BDCAB2401E10F8011F1F
:1033F0008A4202D00029F9D100207047421C10F8FF
:10340000011B0029FBD1801A704710B5002200E093
:10341000521C835C8C5CA34201D1002BF8D1D8B242
:10342000E1B2401A10BD70B5064600F079FB0468A1
:1034300005460A220021304600F049F82C6070BD94
:1034400030B50B46014600202022012409E021FA74
:1034500002F59D4205D303FA02F5491B04FA02F571
:103460002844151EA2F10102F1DC30BD2DE9F05F08
:103470000546002092469B468846064681464024E3
:103480001BE0284641464746224600F032FA5346A2
:103490005A46C01A914110D311461846224600F0F0
:1034A00019FA2D1A67EB01084F4622460120002128
:1034B00000F010FA17EB00094E41201EA4F10104A0
:1034C000DFDC484631462A464346BDE8F09F2DE9F9
:1034D000F04791460F4680460446002614F8015BEB
:1034E0002DB100F029FA0068405DC007F6D12B2D00
:1034F00002D02D2D18D0641E4A463946204600F0D1
:103500001FFA27B13968A14201D1C7F800807105BF
:103510004FF002040BD54042002803DD00F000FB11
:103520000460A007BDE8F08746F48066E4E7002861
:10353000F8DA00F0F5FA04606FF00040F2E72DE9E8
:10354000FE4F804681EA0300C00F0C46009021F038
:10355000004123F00045B8EB0200A94105D24046E6
:10356000214690461C460B46024623F0004010437D
:1035700047D0270DC7F30A00C3F30A510290401A3F
:10358000019040286BDAC3F3130040F4801B0098CD
:10359000924620B10023D2EB030A63EB0B0B019898
:1035A0005946C0F14002504600F094F906460D46D7
:1035B00050465946019A00F0ACF910EB0800614101
:1035C000002487EA115284EAE7731A4340D0009A34
:1035D00062B3019A012A4FEA075215DC001B61EB26
:1035E00002014FF0004202EA0752CDE90042001CFE
:1035F00041F5801132462B4600F000FA03B0BDE8D9
:10360000F08F40462146F9E7001B61EB0201001CE8
:1036100041F5801300185B412018A2F5001747EB15
:10362000030140EAD570B6196D4111E06D084FEA0B
:10363000360645EAC0754FEA0752001B61EB0201EE
:10364000001C41F5801149084FEA30000019514132
:1036500032462B4603B0BDE8F04F00F0C0B90098E9
:10366000012240000023D0EB020263EBE0730098DC
:1036700021464FEAE074B8EB000061EB0401E9E792
:1036800083F000435BE781F0004158E72DE9FE4FEE
:1036900081EA030404F0004421F0004100944FF05B
:1036A000000B23F0004350EA01045ED052EA030409
:1036B0005BD0C3F30A54C1F30A552C44A4F2F3348B
:1036C0000194A0FB0254C1F3130141F48011C3F330
:1036D000130343F4801301FB024400FB034E840AEE
:1036E000970A44EA815447EA8357A4FB0768029586
:1036F0008D0A05FB07854FEA932C04FB0C54270524
:10370000029D4FEA065847EA1637B5EB08056EEBFF
:10371000070C870E920E47EA811742EA8312A7FB35
:103720000201B6EB0B0164EB00042B0D43EA0C33F2
:103730005E1844EB1C50DA465146E7FB0201C5F324
:1037400013044FEA0B3343EA14534FEA0432019C4B
:1037500043EA0603A4F10C040294009CCDE900B4F2
:1037600000F04CF903B0BDE8F08F00200146F9E706
:103770002DE9F04D81EA030404F0004B21F00045EF
:1037800014464FF0000A23F0004150EA050220D011
:1037900054EA01021DD0C5F30A570246C5F31303CC
:1037A000C1F31300C1F30A5640F4801543F48013AB
:1037B000A7EB0608101BD64608F2FD3873EB050090
:1037C00002D308F1010801E092185B41B8F1000F43
:1037D00003DA00200146BDE8F08D00204FF480118F
:1037E000064684460EE0171B73EB050705D3121B34
:1037F00063EB050306434CEA010C49084FEA30002D
:1038000092185B4150EA0107EDD152EA030012D051
:1038100082EA040083EA0501084305D0101BAB418E
:1038200006D20122002306E000224FF0004302E00E
:103830006FF0010253101AEB06004CEB085110EB2D
:103840000A0041EB0B01BDE8F04D00F0C8B8C1F330
:103850000A52C1F3130140F2FF3341F480119A423E
:1038600002DA00200146704740F233439A42A2F246
:10387000334202DC524200F03CB800F02BB80000AA
:1038800030B5041E71F1000404DB4FF000444042E7
:1038900064EB0101141E73F1000405DB1C464FF0BC
:1038A0000043524263EB0403994208BF904230BD8B
:1038B000064C074D06E0E06840F0010394E807007D
:1038C00098471034AC42F6D3FCF714FCC449000806
:1038D000E4490008202A04DB203A00FA02F1002023
:1038E00070479140C2F1200320FA03F3194390403E
:1038F0007047202A04DB203A21FA02F000217047A9
:1039000021FA02F3D040C2F1200291400843194647
:103910007047202A06DBCB17203A41FA02F043EA2F
:10392000E07306E041FA02F3D040C2F12002914078
:10393000084319467047000000487047D448000803
:103940002DE9F05F82460078002715468B460AF184
:103950000104B946302801D09DB113E014F8010BE1
:103960000127782803D0582801D045B10AE00DB1CD
:10397000102D07D10027102514F8010B02E00825AF
:1039800000E00A250026B0460EE005FB080005FB16
:1039900006F1012701EB10461FFA80F8B6F5803FCB
:1039A00000D3B94614F8010B294600F075F8002839
:1039B000EBDABBF1000F05D00FB1641E00E05446F6
:1039C000CBF80040B9F1000F06D000F0A9F80221B1
:1039D0000160C81EBDE8F09F48EA0640FAE710B54E
:1039E000141E73F1000408DA401C41F10001921822
:1039F0005B411A4301D120F0010010BD2DE9F04DCB
:103A000092469B4611B1B1FA81F202E0B0FA80F21F
:103A100020329046FFF75EFF04460F4640EA0A0058
:103A200041EA0B0153465A46084313D0114653EA64
:103A3000010019D0C8F140025046FFF75AFF054671
:103A40000E46504659464246FFF744FF084305D00C
:103A5000012004E020463946BDE8F08D00200543F2
:103A600046EAE0762C4337430A986305E40AA0EB64
:103A700008000022FD0A44EA47540A3002D500201B
:103A80000146E9E7010510196941DDE9084500191A
:103A90006941BDE8F04DA2E73A2800D2303820F065
:103AA0002002412A01D3A2F13700884201D34FF00E
:103AB000FF3070470FB4054B10B503A9044A0298B4
:103AC00000F0F4F810BC5DF814FB00009B2800081F
:103AD000440000200FB4084B10B504A902AA0398B3
:103AE00000F0E4F8044602A9002000F0A7FE2046FA
:103AF00010BC5DF814FB00003D48000837B51446C3
:103B00000846064B6A46214600F0D8FA0446694644
:103B1000002000F098FE20463EBD00004748000807
:103B200000487047FC00002002E008C8121F08C1CE
:103B3000002AFAD170477047002001E001C1121F2E
:103B4000002AFBD1704700002DE9FF5FDDE902206C
:103B5000010DDDF838B0024318D044F61050A1F240
:103B6000FF3141430D140F98012820D0A5EB0B0025
:103B7000401C5FEA000A4FF00004474EDFF81C913A
:103B8000A046504616D5CAF1000728E00F98012438
:103B900043A2012808D0002100980F9BC0E9002112
:103BA000C0E90243BDE8FF9F6FEA0B01F4E7CBF1E8
:103BB0000000DEE7074612E0F80707D0224633464A
:103BC00040464946FFF762FD804689462246334615
:103BD00010461946FFF75AFD04460E467F10002F87
:103BE000EAD1DDE90201BAF1000F42464B4602DAA2
:103BF000FFF74CFD01E0FFF7BBFD04460E46002237
:103C0000284BFFF73DFE03D84FF0FF30014607E099
:103C10000022254B20463146FFF791FCFFF717FEA7
:103C2000102409E0002C0ADB0A220023FFF71EFC07
:103C3000019B30321A55641E50EA0102F2D1641C15
:103C4000019AC4F1110314440F9A012A03D00122EE
:103C500008430DD10AE0084304D000204FF0110BB7
:103C60000F9080E7A3EB0B056D1E0DE05B4504DDB7
:103C70004FF0000205F1010504E003DA4FF0000205
:103C8000A5F10105002AECD000980F99C0E9023196
:103C9000C0E9004586E70000000024400000F03F36
:103CA000300000000000F0430000E03F2DE9FF4F2E
:103CB0008DB00F460546002606E025280BD0DDE92D
:103CC0000F1290476D1C761C28780028F5D111B092
:103CD0003046BDE8F08F0024A246A1460122EC49FF
:103CE00000E0044315F8013F203B02FA03F00842CC
:103CF000F7D128782A2810D06FF02F022878A0F169
:103D00003001092914D80AEB8A0102EB410144F081
:103D1000020400EB010A6D1CF0E701CF5FEA000A24
:103D200003D544F40054CAF1000A44F002046D1CA7
:103D300028782E2817D115F8010F44F004042A28FA
:103D40000ED06FF02F022878A0F1300109290AD88F
:103D500009EB890102EB410100EB01096D1CF2E75F
:103D600057F8049B6D1C28786C280FD006DC4C2873
:103D700017D068280DD06A2814D104E0742810D018
:103D80007A280FD10DE044F400140AE044F48014C2
:103D900001E044F440146978814202D104F58014B2
:103DA0006D1C6D1C2A786E2A1FD00CDC632A31D062
:103DB00004DC002A8BD0582A11D1A3E0642A68D0F1
:103DC000692A0CD165E0732A2ED004DC6F2A73D0E7
:103DD000702A04D19BE0752A6FD0782A6ED01046E5
:103DE000DDE90F129047761C50E1C4F3025002281F
:103DF00006D0032809D0042801CF09D0066045E188
:103E000001CFF117C0E9006140E101CF06803DE13B
:103E100006703BE117F8040B8DF8000000208DF8C8
:103E20000100EB46012003E057F804BB4FF0FF30E0
:103E300061074FF0000102D40DE008F1010188464E
:103E400049450FDA8045F8DB1BF808100029F4D14A
:103E500008E008F1010188468142FADB1BF80810EE
:103E60000029F6D1DDE90F23AAEB0800814621469F
:103E700000F0B6FC304400EB080604E0DDE90F1268
:103E80001BF8010B9047B8F10108F7D221464846CC
:103E9000F7E00A21C4F302534FF0000B0891022B04
:103EA00004D001CFC117032B09D00AE0FF1D27F072
:103EB0000707F7E8020108E032E01FE020E000B267
:103EC000C117042B01D140B2C117031E71F10003C9
:103ED00007DA4FF0000CD0EB0C006CEB01012D2346
:103EE00002E0230504D52B238DF82430012303E0C1
:103EF000E30701D02023F7E7984658E00A2110E0B5
:103F000010210EE010204FF0000B08900CE0102163
:103F10004FF0000B44F004044FF00809089103E04F
:103F200008214FF0000B0891C4F30253022B04D078
:103F300001CF0021032B06D006E0FF1D27F0070765
:103F4000F7E8020103E080B2042B00D1C0B24FF0C9
:103F5000000823072BD5702A07D0DDF820C08CF08D
:103F6000100C5CEA0B0C05D00EE040238DF82430D9
:103F7000012308E050EA010306D030238DF82430F5
:103F80008DF8252002239846DDF820C08CF0080C1F
:103F90005CEA0B0C0BD150EA010301D1630706D593
:103FA00030238DF824304FF00108A9F10109582A77
:103FB00004D038A20B9208AA0A920BE03AA2F9E7C1
:103FC0005B46089AFFF752FA0B9B9B5C0A9A521EBB
:103FD0000A92137050EA0102F2D10A98ADEB000088
:103FE00000F1200B600702D524F4803401E04FF08B
:103FF0000109D94502DDA9EB0B0000E0002000EB30
:104000000B0141440890AAEB010AE00306D4DDE964
:104010000F232146504600F0E3FB06444FF0000911
:1040200008E009A911F80900DDE90F12904709F12C
:104030000109761CC145F4DBE0030CD5DDE90F2353
:104040002146504600F0CCFB064404E0DDE90F12A7
:1040500030209047761C0899481E08900029F5DC0E
:1040600008E00A980A990078491C0A91DDE90F12C4
:104070009047761CBBF10001ABF1010BF1DC21464E
:104080005046DDE90F2300F087FB06446D1C1BE65C
:10409000092801003031323334353637383961621E
:1040A00063646566000000003031323334353637E2
:1040B0003839414243444546000000002DE9FF4F96
:1040C00095B09B468946064600250FE2252877D104
:1040D00000242746F84A0121059400E0044316F81D
:1040E000013F203B01FA03F01042F7D130782A2833
:1040F00011D06FF02F033078A0F13002092A16D8C2
:10410000059A44F0020402EB820203EB42021044DF
:10411000761C0590EFE759F8042B0592002A03DA84
:10412000504244F40054059044F00204761C307868
:104130002E2816D116F8010F44F004042A280DD0B9
:104140006FF02F023078A0F13003092B09D807EB6C
:10415000870302EB4303C718761CF3E759F8047B87
:10416000761C30786C280FD006DC4C2817D06828D5
:104170000DD06A2814D104E0742810D07A280FD109
:104180000DE044F400140AE044F4801401E044F427
:1041900040147278824202D104F58014761C761C99
:1041A000307866280BD013DC582877D009DC00283B
:1041B00075D04528F6D04628F4D047281AD19DE17D
:1041C00018E0632835D0642879D0652812D195E1AC
:1041D000702873D008DC6728F1D069286FD06E286A
:1041E0000DD06F2806D1B5E073282CD0752875D076
:1041F000782874D05A46179990476D1C75E1C4F31E
:104200000250022809D003280DD0D9F80010042844
:104210000DD00D6009F1040967E1D9F80010EA1723
:10422000C1E90052F6E7D9F800100D80F2E70D70F1
:10423000F0E719F8041B8DF8001000208DF801003C
:10424000EA46012003E059F804AB4FF0FF30610764
:104250004FF0000102D40DE008F101018846B94297
:104260000FDA8045F8DB1AF808100029F4D108E0CD
:1042700008F1010188468142FADB1AF8081000298A
:10428000F6D105985B46A0EB080721463846179AF9
:1042900000F0BDFA284400EB080507E04DE029E1F5
:1042A0000DE01AF8010B5A4617999047B8F101082A
:1042B000F7D25B4621463846179A13E142E00A22BC
:1042C0000092C4F302524FF0000A022A08D059F8B3
:1042D00004CB032A4FEAEC710AD00DE029E02AE072
:1042E00009F1070121F00702F2E802C1914609E055
:1042F0000FFA8CFC4FEAEC71042A03D14FFA8CFCC4
:104300004FEAEC71002907DA0A460021DCF1000CC3
:1043100061EB02012D2202E0220504D52B228DF84B
:104320000420012203E0E20701D02022F7E79046B3
:1043300059E00A2102E010220DE010214FF0000A9E
:1043400000910BE010224FF0000A44F0040408270B
:10435000009203E008224FF0000A0092C4F30252D8
:10436000022A05D059F804CB0021032A08D009E01D
:1043700009F1070121F00702F2E802C1914605E0C8
:104380001FFA8CFC042A01D10CF0FF0C4FF000083E
:10439000220728D5702806D0009B83F0100353EA2B
:1043A0000A0305D00EE040228DF80420012208E027
:1043B0005CEA010206D030228DF804208DF8050059
:1043C00002229046009B83F0080353EA0A030AD1B5
:1043D0005CEA010201D1620705D530228DF8042084
:1043E0004FF001087F1E582804D034A003900EA877
:1043F00002900DE036A0F9E753466046009AFFF7B9
:1044000035F884460398825C0298401E0290027040
:104410005CEA0100F0D1029806A9081A00F1200A0E
:10442000600702D524F4803400E00127574502DDFF
:10443000A7EB0A0000E0002000EB0A0100900598BD
:104440004144401A0590E00306D45B462146179A82
:10445000059800F0DCF90544002706E001A85A465B
:10446000C05D179990476D1C7F1C4745F6DBE00344
:104470000CD55B462146179A059800F0C8F905440B
:1044800004E030205A46179990476D1C0099481E49
:1044900000900029F5DC08E0029802995A4600785D
:1044A000491C0291179990476D1CBAF10001AAF1BD
:1044B000010AF1DC65E100000928010030313233E6
:1044C0003435363738396162636465660000000050
:1044D000303132333435363738394142434445463A
:1044E0000000000000F06AF90544761C30780028CE
:1044F0007FF4ECAD19B02846BDE8F08F620700D418
:10450000062709F1070222F0070CFCE80223E14626
:1045100003F000485FEA080C02D00FF2702C0DE0A7
:104520005FEA045C02D50FF2682C07E05FEAC47C06
:1045300002D00FF2602C01E0AFF2700C4FF0FF38A8
:1045400023F00043CDF850C065280CD006DC452888
:1045500009D046281DD047283DD13DE0662818D017
:1045600067287ED138E00021112F01DB112000E007
:10457000781CCDE9000106A90EA8FFF7E5FADDE9F0
:104580000F010E9A03910021009207F1010A049194
:104590004DE04FF000400097CDE9011006A90EA8AC
:1045A000FFF7D2FADDE90F0203920E9B1199002268
:1045B000DDF80CA00093049211B9791C00EB010AFC
:1045C000B7EB0A0004D4C0F1FF3007F1010A0490F0
:1045D000AAEB0700019044E0012F00DA0127002137
:1045E000112F01DD112000E03846CDE9000106A9B8
:1045F0000EA8FFF7A9FADDE90F010E9A0391002139
:1046000004910092BA4621070CD40399514500DA6F
:104610008A46BAF1010F05DD009AAAF10101515C49
:10462000302908D0B84202DA10F1040F06DA01216D
:10463000CDE9011015E0AAF10101E9E7002805DC48
:10464000049901440491AAEB000102E0411C514588
:1046500000DD8A460499401A401C01904FF000404A
:104660000290200704D40198504501DBCDF8048066
:1046700000208DF84F0002980DF14F07B0F1004F68
:1046800025D02B200E9002984FF0020800280CDA5B
:10469000404202902D200E9007E00A210298FEF77A
:1046A000CFFE3031029007F8011DB8F10001A8F1EA
:1046B0000108F2DC02980028EFD1791E0E980870EC
:1046C000307800F0200040F0450007F8020D12A8F5
:1046D000C01B00F107081498007800B1012000EB1E
:1046E0000A01019801EBE07105984144401A401E0F
:1046F0000590E00306D45B462146179A059800F022
:1047000086F805441498007818B15A4617999047CE
:104710006D1CE00324D55B462146179A059800F0EE
:1047200076F805441CE00498002807DBDDE9030166
:10473000884203DD0098405C179901E0179930200A
:104740005A469047049805F10105401C04900198D1
:10475000401E019004D12E205A46179990476D1C97
:10476000BAF10001AAF1010ADDDC05E017F8010B3E
:104770005A46179990476D1CB8F10001A8F101083D
:10478000F4DC5B462146179A0598ABE62D00000045
:104790002B000000200000002DE9F0410446002518
:1047A0001E461746880404D405E039462020B04749
:1047B0006D1C641EF9D52846BDE8F0812DE9F04155
:1047C000044600251E461746880404D405E03946F1
:1047D0002020B0476D1C641EF9D52846BDE8F08145
:1047E0002DE9F041044600251E469046C80301D538
:1047F000302700E02027880404D505E041463846EC
:10480000B0476D1C641EF9D52846BDE8F0812DE93E
:10481000F041044600251E469046C80301D53027C6
:1048200000E02027880404D505E041463846B0471B
:104830006D1C641EF9D52846BDE8F0810A68531C3A
:104840000B60107070470A68531C0B601070704743
:104850000040404040404040404041414141414093
:104860004040404040404040404040404040404048
:1048700040050202020202020202020202020202D7
:1048800002202020202020202020200202020202DC
:104890000202909090909090101010101010101034
:1048A0001010101010101010101010100202020240
:1048B0000202888888888888080808080808080884
:1048C0000808080808080808080808080202020280
:1048D0004000000051480008300000003100000096
:1048E00032000000330000003400000035000000FA
:1048F00036000000370000003800000039000000DA
:10490000C9E8D6C3C4BFB1EAB5D8D6B73A000000EB
:1049100044454C00323064426D0000003131644245
:104920006D000000313464426D0000003137644294
:104930006D000000312E326B6270730031392E32FF
:104940006B62707300000000302E336B6270730076
:10495000322E346B62707300392E366B62707300C6
:10496000342E386B62707300C8B7B6A80000000020
:10497000BBBDD0D1C4A3CABD00000000D2BBB0E310
:10498000C4A3CABD00000000CAA1B5E7C4A3CABD44
:1049900000000000C9E8D6C3C4BFB1EAD0C5B5C0A5
:1049A00000000000B7B5BBD800000000B6A8CFF2E9
:1049B000B4ABCAE400000000CDB8C3F7B4ABCAE49E
:1049C00000000000E4490008000000200001000091
:1049D000283B0008E44A000800010020580B0000B2
:1049E000383B00080000000000000000000000004C
:1049F0000001020304010203040607080902040679
:104A00000800000000A24A040000000000000000AE
:104A1000010203040607080900000000000000006E
:104A20000000000001000000000000000000000085
:104A30000000170305000000030000000000000054
:104A40000000000000000000000000000000000066
:104A500000000000DC480008E0480008E4480008C6
:104A6000E8480008EC480008F0480008F44800084E
:104A7000F8480008FC480008D84800081049000819
:104A80000000000068490008A44900087C490008AB
:104A90007049000888490008B8490008AC49000876
:104AA0001C490008244900082C4900081449000842
:104AB0004849000834490008504900086049000886
:104AC000584900083C4900080000000000000000B0
:104AD00000490008944900080000000000000000A0
:044AE00000000000D2
:04000005080000ED02
:00000001FF
