:020000040800F2
:10000000F01B00208D150008750A0008770A00080B
:100010007B0A00087F0A0008830A0008000000002D
:10002000000000000000000000000000870A000837
:10003000890A0008000000008B0A00088D0A0008E9
:10004000A7150008A7150008A7150008A7150008A0
:10005000A7150008A7150008A7150008A715000890
:10006000A7150008A7150008A7150008A715000880
:10007000A7150008A7150008A7150008A715000870
:10008000A7150008A7150008A7150008A715000860
:10009000A7150008A7150008A7150008A715000850
:1000A000A7150008A7150008A7150008A715000840
:1000B000A71500080B0E000833130008A715000849
:1000C000A7150008A7150008A7150008A715000820
:1000D000A7150008031500081F1100087D0F000870
:1000E000A7150008A7150008A7150008A715000800
:1000F000A7150008A7150008A7150008A7150008F0
:10010000A7150008A7150008A7150008A7150008DF
:10011000A7150008A7150008A7150008E50E000898
:10012000A7150008A7150008A7150008A7150008BF
:1001300000F002F800F090F80AA090E8000C824469
:100140008344AAF10107DA4501D100F085F8AFF246
:10015000090EBAE80F0013F0010F18BFFB1A43F0A5
:100160000103184700C8000020C80000103A24BF4F
:1001700078C878C1FAD8520724BF30C830C144BF0C
:1001800004680C607047000000230024002500264E
:10019000103A28BF78C1FBD8520728BF30C148BFEA
:1001A0000B6070476E2909F03986702909F0A38722
:1001B00066290CF0A98265290CF0A68267290CF04B
:1001C000A3826129AFF3008003681B0A28BF41F0B6
:1001D0008001692909F04A83642909F04783752958
:1001E00009F044836F2909F03187782909F06F8776
:1001F000E92909F0CB86E42909F0C886F52909F038
:10020000C586EF2909F02E87F82909F06E87036863
:10021000DB0928BF41F08001632909F03A86732980
:1002200009F03F86E3290AF0F381F3290AF0F88107
:10023000002070471FB50AF04DFA0400002000218D
:100240000BF064FC401C6060002000210BF048FCB7
:10025000E0601FBD10B510BD0AF00EFA1146FFF7A1
:10026000E9FF00F083F80AF0E7FA03B4FFF7F2FFC2
:1002700003BC01F0EBF8000010B540F2CF71F94873
:1002800002F05EFC4FF4FA7001F0B3F80120F64979
:100290000860322001F0ADF80020F449C1F8840173
:1002A00040F2CF70F24908804FF4FA7001F0A1F8E3
:1002B00040F2F261EB4802F03FFC10BD70B504461D
:1002C00000250FE05CB12146EA4802F0B7FD00BF0F
:1002D0008021E84802F020FE0028F9D000E070BD3F
:1002E000681CC5B2032DEDDB00BFF8E770B504460E
:1002F000002510E0605D68B1615DDE4802F09EFDA2
:1003000000BF8021DB4802F007FE0028F9D0681CFE
:10031000C5B200E070BDEDE730B585B004460D46CE
:100320001421684609F06EFCFF20FFF7C7FF224644
:10033000D1A1684609F034FA6846FFF7D7FF29468D
:10034000D1A000F0AAFED1A0FFF7D0FFFF20FFF759
:10035000B5FF05B030BD10B5C82001F04AF8FF2048
:10036000FFF7ACFFC82001F044F810BD9CB001209D
:100370001A900C254FF00009002719904FF0000843
:100380004FF0000B0020189082460024179000F0D8
:10039000F3FF4FF4A06001F019F94FF4E13001F0E0
:1003A00064F84FF4E13000F031FF4FF4165000F0E4
:1003B00014FEFFF7D0FF00F05BFC00F08DFC40F274
:1003C000CF2140F2CF7000F02BFD40F20571A5481F
:1003D00002F0B2FB40F22371A24802F0AFFB40F200
:1003E000CF71A04802F0ACFBA94808F03DFC00F03A
:1003F000FF09B9F1000F03D0A6A009F0C5F902E08A
:10040000AAA009F0C1F9A2481A9908F094FC18B101
:10041000ABA009F0B9F902E0AEA009F0B5F90BE321
:10042000934801888F4802F08BFB03209BFBF0F17F
:1004300000FB11B060B98E480088642805DD8C4847
:10044000008864388A49088002E0002088490880D2
:10045000002000F05BFC8246BAF1000F24D0BAF114
:10046000030F02D1FFF708FF1EE0BAF1010F0CD114
:10047000681CC5B29B480068C0439B49C1F8940101
:1004800029469AA009F080F90EE0BAF1020F0BD1CB
:10049000681EC5B293480068C0439349C1F89401EF
:1004A000294692A009F070F97FA000788DF84800E5
:1004B0009048008800F40040C8B18E480088C0F31E
:1004C0000E00189000218C4A18981154652110468E
:1004D00009F0CCFA0E900E99C91D12A809F0D0FAB5
:1004E00012A986A009F050F90020824908806EA167
:1004F00012A809F0D9FB002871D082A112A809F036
:10050000D3FB00286CD18046002740F20F7155487C
:1005100002F014FB40F20571524802F00DFB32204C
:1005200000F067FF4BE008F1010000F0FF08B8F1B0
:10053000C80F01DB4FF00008062098FBF0F100FB2C
:10054000118058B9199810B1781CC7B201E0781E13
:10055000C7B207F20F71434802F0F0FA282F01D119
:10056000002019900FB9012019906849484808F0F7
:1005700063FC00F0FF09B9F1000F16D1644801884F
:1005800064A009F001F962480088A0386049088039
:100590000846008840F68C21884210DB5C480088C1
:1005A00040F6E44188420ADC0AE05FA009F0ECF87A
:1005B000374808F059FB36481A9908F0BCFBB2E7F7
:1005C00000BF534800880A2190FBF1F0A0F11E04FF
:1005D000FA2C06DBB4F5827F03DA2C461AE0EDE153
:1005E0002AE0B4F5827F04DBB4F58C7F01DA6C1C61
:1005F00010E0B4F58C7F04DBB4F5917F01DAAC1C1C
:1006000008E0B4F5917F04DBB4F5967F01DAEC1CC9
:1006100000E02C4640F20570001B81B2114802F048
:100620008BFA4FF47A7000F0E4FE4FF47A7000F029
:10063000E0FEFFF721FEC1E13FA112A809F034FB63
:1006400000287DD18046002740F20F71054802F056
:1006500075FA40F20571034802F06EFA322000F09C
:10066000C8FEBCE000040040848123420080234295
:1006700004000020004800406D61696E2E742564FE
:100680002E7478743D2200002573200022000000A3
:10069000180E0020564C35334C3120496E697420B9
:1006A0006572726F72210D0A00000000564C3533DE
:1006B0004C3120496E6974204F4B0D0A0000000038
:1006C0006D6F646520736574206572726F720D0AB8
:1006D00000000000736574206D6F6465204F4B0D42
:1006E0000A000000940123420000234225640D0A01
:1006F000000000001E000020A000002025730D0A4D
:1007000000000000737461727430000058150020FE
:100710006600002044697374616E6365203D202586
:1007200034640D0A000000006D6561737572652008
:100730006572726F720D0A00737461727431000019
:100740005FE008F1010000F0FF08B8F1C80F01DB1D
:100750004FF00008062098FBF0F100FB118058B91B
:10076000199810B1781CC7B201E0781EC7B207F221
:100770000F71B24802F0E2F9282F01D10020199040
:100780000FB901201990AE49AE4808F055FB00F0B2
:10079000FF09B9F1000F17D1AB480188AFF28C0007
:1007A00008F0F2FFA8480088A038A749088008464A
:1007B000008840F68C21884211DBA348008840F66F
:1007C000543188420BDC0BE0AFF2A40008F0DCFFF0
:1007D0009C4808F049FA9B481A9908F0ACFAB0E72F
:1007E00000BF40F2F961954802F0A6F94FF47A7023
:1007F00000F0FFFD4FF47A7000F0FBFDFFF73CFDC9
:10080000DCE0642112A809F031F90028F8D00020BA
:100810000D9000260C9012A809F056F9C0B20D9068
:1008200000BF07E012A8805D612801D10C9604E0AA
:10083000701CC6B20D988642F4DB00BF002400266F
:100840002DE030460BF000FC02460B46CDE90001DE
:1008500000207E490AF042FCCDE904010C99491EB2
:10086000891B12AA515CA1F130000BF0D6FBCDE937
:100870000201DDE904230BF037FCCDE90801204635
:100880000BF0CBFBCDE90601DDE908230BF054F9B1
:10089000CDE90A010BF064FB0446701CC6B20C984B
:1008A000801EB042CDDC0020179000262DE030469F
:1008B0000BF0CAFB02460B46CDE90001002063495C
:1008C0000AF00CFCCDE904010D99491E891B12AAFE
:1008D000515CA1F130000BF0A0FBCDE90201DDE994
:1008E00004230BF001FCCDE9080117980BF095FBF0
:1008F000CDE90601DDE908230BF01EF9CDE90A0177
:100900000BF02EFB1790701CC6B2DDE90C10401ADC
:10091000801EB042CBDC21464DA0179A08F034FF70
:10092000FA2C04DBB4F5827F01DA2C4618E0B4F52A
:10093000827F04DBB4F58C7F01DA6C1C10E0B4F527
:100940008C7F04DBB4F5917F01DCAC1C08E0B4F5CE
:10095000917F04DBB4F5967F01DAEC1C00E02C46B5
:1009600040F20570001B81B2344802F0E5F8179898
:100970001E38179017980BF050FB374A374BCDE9CC
:1009800004010BF0B1FB0022354BCDE906010BF061
:10099000D3F8CDE908010BF013FB80B201460B90B0
:1009A000264802F0CBF84FF47A7000F022FD4FF4A5
:1009B0007A7000F01EFDFFF75FFC00BF2049214860
:1009C00008F03AFA00F0FF09B9F1000F19D11E48FA
:1009D0000088A0381C49088008460188AFF2CC2066
:1009E00008F0D2FE184800880A2190FBF1F6324642
:1009F0001CA10FA808F0D4FE0FA90320FFF78CFC60
:100A00000AE0AFF2DC2008F0BFFE0E4808F02CF937
:100A10000C481A9908F08FF90BF101001FFA80FBBE
:100A200032209BFBF0F100FB11B028B90F480068A1
:100A3000C0430F49C1F89401F2E4000000040040F3
:100A400058150020180E00206600002000002440E9
:100A500025642C25640D0A00713D0AD7A370E53F7B
:100A6000008C9C4025332E33640000009481214289
:100A700000802142704700BFFEE700BFFEE700BFD5
:100A8000FEE700BFFEE77047704770477047000001
:100A90000CB50020019000906C48006840F4803054
:100AA0006A49086000BF6948006800F4003000909F
:100AB0000198401C0190009818B90198B0F5A06FFA
:100AC000F1D16248006800F4003010B101200090BC
:100AD00001E0002000900098012843D15C480068A4
:100AE00040F010005A4908600846006820F00300F2
:100AF00008600846006840F00200086053484068FB
:100B0000524948600846406848600846406840F4DA
:100B1000806048600846406820F47C1048600846C1
:100B2000406840F4E81048600846006840F0807073
:100B3000086000BF4548006800F000700028F9D048
:100B40004248406820F00300404948600846406839
:100B500040F00200486000BF3C48406800F00C00D4
:100B60000828F9D10CBD10B5FFF792FF10BD10B5E4
:100B70003648006840F00100344908600846406883
:100B80003449084031494860084600683249084005
:100B90002E4908600846006820F480200860084656
:100BA000406820F4FE0048604FF41F008860FFF7A3
:100BB000DAFF4FF000602949086010BD10B5002130
:100BC00000200022214B5B6803F00C0121B10429B5
:100BD00006D0082928D107E0214B224C236027E0CA
:100BE0001F4B204C236023E0184B5B6803F470100C
:100BF000164B5B6803F48032022303EB904022B96A
:100C0000194B4343174C23600DE0104B5B6803F412
:100C1000003323B1144B4343124C236003E0104BC9
:100C20004343104C236003E00D4B0E4C236000BF88
:100C300000BF064B5B68C3F303130C4CE15C094B2C
:100C40001B68CB40074C236010BD00000010024021
:100C5000002002400000FFF8FFFFF6FE08ED00E074
:100C600000127A000800002000093D000C0000205E
:100C700008B50121C82001F033F82020ADF80000AC
:100C800010208DF8030003208DF8020069460F48FC
:100C900000F06AFD20210D4800F013FE2020ADF881
:100CA000000069460A4800F05FFD2021084800F076
:100CB00008FE0320ADF800006946064800F054FD28
:100CC0000321044800F0FFFD08BD0000000C0140B6
:100CD00000180140001C014008B50121442000F02B
:100CE000FFFF1820ADF8000048208DF8030069468A
:100CF0002C4800F039FD0120ADF8000028208DF8C7
:100D000003006946284800F02FFD08BD10B50446D1
:100D100014B10120254908702448007858B31021E7
:100D2000204800F0B4FD50B108211E4800F0AFFD8E
:100D300028B101211C4800F0AAFD01281BD10A207E
:100D400000F057FB0020194908701021154800F0E9
:100D50009EFD08B9012010BD0821124800F097FD42
:100D600008B90220F7E701210F4800F090FD0128A3
:100D700015D10320EFE710210A4800F088FD012873
:100D80000DD10821074800F082FD012807D101217B
:100D9000054800F07CFD10B90120044908700020CE
:100DA000D9E7000000180140000801401C000020A5
:100DB0007FB505460C460121022000F09EFFADF8EC
:100DC0000850ADF804400020ADF80A00ADF8060068
:100DD00001A9654801F0BCF801221146624801F002
:100DE0002EFC1D208DF8000000208DF8010003204E
:100DF0008DF8020001208DF80300684600F0EBFB3F
:100E00000121594801F000FC7FBD10B50121564871
:100E100001F0C3FE18B10121534801F0CFFE10BD0F
:100E200030B589B005460C460121022000F065FF6F
:100E300001210D2000F054FF0320ADF82000182000
:100E40008DF8230003208DF8220008A9474800F000
:100E50008BFCC020ADF8200018208DF82300032063
:100E60008DF8220008A9424800F07EFCADF8185029
:100E7000ADF814400020ADF81A00ADF8160005A931
:100E8000394801F065F87020ADF804000120ADF894
:100E900006000020ADF80C0001A9334801F0D7F896
:100EA00001A9314801F091F801A92F4801F01CF97E
:100EB00001A92D4801F063F908212B4801F0DDFC60
:100EC0000821294801F0D0FC0821274801F0E2FC64
:100ED0000821254801F0E7FC0121234801F094FB9B
:100EE00009B030BD10B50121224801F056FE68B1AD
:100EF0002148008840F400401F49088001211D4816
:100F000001F05CFE00211B4801F07EFB10BD7FB5A7
:100F100005460C460121202000F0EFFEADF80450FC
:100F2000ADF800400020ADF80600ADF802006946BB
:100F3000104801F00DF8012211460E4801F07FFB28
:100F400001210C4801F060FB37208DF80C000020D7
:100F50008DF80D0002208DF80E0001208DF80F0095
:100F600003A800F038FB7FBD00040040000C0140E6
:100F700000080140001400401E00002010B540F29F
:100F80002551584801F0DEFFF8B1564801F05AFFEC
:100F9000C4B25548008800F40040B0B952480088F7
:100FA000B0F5167F12DA0021504801F0C1FD4E481D
:100FB000008818B901214D4801F026FB4A490888EC
:100FC000411C494A11804A490C5405E046480088B2
:100FD00040F400404449088010BD10B586B0044676
:100FE0000121082000F07CFE0121880400F085FE2C
:100FF0003C4801F0E7FD4FF48060ADF8100003209D
:101000008DF8120018208DF8130004A9394800F05B
:10101000ABFB4FF40060ADF8100004208DF8130016
:1010200004A9344800F0A0FB00940020ADF80400AF
:10103000ADF80600ADF80800ADF80C000C20ADF8D6
:101040000A006946274801F000FE0121254801F009
:1010500088FE012240F22551224801F08EFE272011
:101060008DF8140002208DF8150003208DF816006D
:1010700001208DF8170005A800F0ADFA41F61F41D8
:1010800040F2E730FFF743FF0020174908800021B6
:10109000164801F0B9FA06B010BD0FB438B505A86E
:1010A00000901548009A049908F05CFB002000901D
:1010B000114808F009FD85B200240DE000BF402171
:1010C000084801F029FF0028F9D00B48015D0548C8
:1010D00001F0B4FE601C84B2AC42EFDB38BC5DF8BA
:1010E00014FB0000004800401E00002000140040D7
:1010F000A0000020000C0140F802002010B50446BA
:1011000044B10021954801F013FD0121934801F0FD
:101110007BFA03E00021914801F076FA10BD10B58A
:1011200040F225518E4801F00DFF08B38C4801F0C4
:1011300089FEC4B28B480088B0F5806F12DA0021B6
:10114000864801F0F5FC8748008810B90120FFF7B8
:10115000D5FF844801880088401C824A108082485C
:10116000445405E07F48008840F400407D490880F1
:1011700010BD7FB505460C460121042000F0BDFDE1
:10118000ADF80450ADF800400020ADF80600ADF811
:1011900002006946714800F0DBFE012211466F48EB
:1011A00001F04DFA1E208DF80C0001208DF80D0085
:1011B00002208DF80E0001208DF80F0003A800F02A
:1011C0000AFA7FBD70B58CB006460C461546012163
:1011D000084600F078FD304601F0F8FE01940295D3
:1011E000102003900020049005908020069000209D
:1011F0000790089009904FF480500A9000200B90BF
:1012000001A9304601F084FF0CB070BD10B586B066
:1012100004460121042000F063FD0121480400F090
:101220006CFD4F4801F0CEFC0420ADF81000032007
:101230008DF8120018208DF8130004A94B4800F017
:1012400093FA0820ADF8100004208DF8130004A9CB
:10125000464800F089FA00940020ADF80400ADF88B
:101260000600ADF80800ADF80C000C20ADF80A003F
:1012700069463B4801F0E9FC01228021384801F031
:10128000A1FD3B4A3649091D3A48FFF79BFF012162
:10129000334801F066FD012240F22551304801F04B
:1012A0006CFD26208DF8140002208DF81500032017
:1012B0008DF8160001208DF8170005A800F08BF9B5
:1012C00041F61F4140F2E730FFF753FF0020254968
:1012D0000880FFF713FF06B010BD70B504460D4639
:1012E0000021204601F03FFF2946204601F050FF33
:1012F0000121204601F037FF70BD0FB438B505A8B5
:1013000000901B48009A049908F02CFA00200090E5
:1013100000BF184801F03EFF0028FAD1144808F039
:10132000D3FBC4B221461348FFF7D7FF38BC5DF8A2
:1013300014FB10B50121094801F02FFC60B10948E8
:10134000008840F40040074908800121034801F06B
:1013500035FC0020FFF7D2FE10BD00000008004061
:1013600000440040200000205009002000080140F7
:10137000500500208000024010B56FF0040000F01E
:1013800074F92E4800682E49B0FBF1F02D49087021
:101390000846007800EB4001C1EBC0104FF6FF712A
:1013A00001EAC0002849088010BD0146254A12788C
:1013B0004A434FF0E0235A6100229A611A461269AB
:1013C00042F001021A6100BF4FF0E022106900F004
:1013D00001021AB100F48032002AF5D04FF0E02269
:1013E000126922F001024FF0E0231A6100229A6193
:1013F00070470146144A12884A434FF0E0235A616D
:1014000000229A611A46126942F001021A6100BF75
:101410004FF0E022106900F001021AB100F48032AE
:10142000002AF5D04FF0E022126922F001024FF0BD
:10143000E0231A6100229A61704700000800002032
:1014400000127A002200002024000020014600BF84
:10145000704700BF494A128802F04002002AF9D0C2
:10146000C2B2464B1B1D1A80704710B586B00446A9
:10147000012144F2040000F033FC4FF40070ADF899
:10148000140003208DF8160018208DF8170005A908
:101490003B4800F069F94FF48060ADF81400042077
:1014A0008DF8170005A9364800F05EF925208DF863
:1014B000000003208DF801008DF8020001208DF856
:1014C0000300684600F087F801940020ADF808009A
:1014D000ADF80A00ADF80C00ADF810000C20ADF826
:1014E0000E0001A9254801F0B0FB012240F2255170
:1014F000224801F042FC0121204801F032FC06B0F4
:1015000010BD10B540F225511C4801F01BFD10B371
:101510001A4801F097FCC4B21A48008800F4004051
:10152000C8B91848008800F4804060B10A2C03D084
:1015300000201449088020E01248008840F4004050
:101540001049088019E00D2C06D10E48008840F49F
:1015500080400C49088010E00A480088C0F30D0064
:1015600009490C5407480088401C06490880084671
:101570000088C72801DD0020088010BD0038014028
:10158000000801402C000020500D00200948804731
:1015900009480047FEE7FEE7FEE7FEE7FEE7FEE755
:1015A000FEE7FEE7FEE7FEE704480549054A064B6D
:1015B000704700006F0B000831010008F015002093
:1015C000F01B0020F0170020F017002031490143E4
:1015D000314A1160704770B5002100230F22C47892
:1015E00004B32D4C246804F4E064C4F5E064210ADB
:1015F000C1F10403CA40447804FA03F1847814402A
:1016000021430901254C0678A155047804F01F05F3
:101610000124AC4005786D11AD0005F1E025C5F859
:10162000004109E0047804F01F050124AC401C4D82
:101630000678761145F8264070BD1A4A0A400243E2
:10164000154B1B1F1A60704739B1134A121D1268DF
:101650000243114B1B1D1A6006E00F4A121D12684F
:1016600082430D4B1B1D1A607047042808D14FF0B0
:10167000E021096941F004014FF0E022116107E027
:101680004FF0E021096921F004014FF0E0221161DF
:10169000704700000000FA050CED00E000E400E0F7
:1016A00080E100E080FFFF1F10B50446CC48844273
:1016B00008D10121042000F02DFB0021042000F0BE
:1016C00029FB46E0C748844208D10121082000F0E8
:1016D00021FB0021082000F01DFB3AE0C2488442B3
:1016E00008D10121102000F015FB0021102000F08E
:1016F00011FB2EE0BD48844208D10121202000F0DA
:1017000009FB0021202000F005FB22E0B8488442BC
:1017100008D10121402000F0FDFA0021402000F016
:10172000F9FA16E0B348844208D10121802000F084
:10173000F1FA0021802000F0EDFA0AE0AE48844280
:1017400007D10121801500F0E5FA0021A01500F075
:10175000E1FA10BD10B50121084600F0DBFA0021C6
:10176000012000F0D7FA10BD2DE9F0410246002516
:101770000026002000230024002791F803C00CF06D
:101780000F0591F803C00CF0100CBCF1000F03D052
:1017900091F802C04CEA050591F800C0BCF1000FB9
:1017A00031D0146800202BE04FF0010C0CFA00F34C
:1017B000B1F800C00CEA03069E4220D183004FF02E
:1017C0000F0C0CFA03F7BC4305FA03FC4CEA0404C3
:1017D00091F803C0BCF1280F06D14FF0010C0CFAB0
:1017E00000FCC2F814C00AE091F803C0BCF1480F35
:1017F00005D14FF0010C0CFA00FCC2F810C0401CDF
:101800000828D1D31460B1F800C0BCF1FF0F34DD5B
:10181000546800202EE000F1080C4FF0010808FA8F
:101820000CF3B1F800C00CEA03069E4221D18300FC
:101830004FF00F0C0CFA03F7BC4305FA03FC4CEA1B
:10184000040491F803C0BCF1280F05D100F1080C85
:1018500008FA0CF8C2F8148091F803C0BCF1480FE4
:1018600007D100F1080C4FF0010808FA0CF8C2F893
:101870001080401C0828CED35460BDE8F0814FF69C
:10188000FF710180022181700421C17070470246FE
:10189000002093680B400BB1012000E0002070474E
:1018A0000146886880B2704702460020D3680B402A
:1018B0000BB1012000E0002070470146C86880B2EB
:1018C000704701617047416170470AB1016100E0F2
:1018D00041617047C16070474FF480320A438261B2
:1018E0008161826182698269704702460020434BB0
:1018F00018684FF68073184040EA021008433F4BC7
:10190000186070473E49C8617047F0B50A46002329
:1019100000240021002500F00046B6F1004F02D15E
:10192000364EF16901E0354E7168C0F3034583B26C
:1019300000F44016B6F5401F08D121F070612F4E1B
:10194000766826F070662D4F7E6012E000F48016F7
:10195000B6F5801F06D1032606FA05F4A14341F02F
:10196000706106E0460D360103FA06F6B14341F018
:10197000706122B1460D360103FA06F6314300F0DC
:101980000046B6F1004F02D11C4EF16101E01B4E42
:101990007160F0BD30B500228B071C0F0F2303FAD6
:1019A00004F2164B08338C1053F824309343134C35
:1019B00008348D1044F8253023468C1053F8243019
:1019C0008C07240F00FA04F423430C4C08348D10C8
:1019D00044F8253030BD0A49DC310860704700000A
:1019E00000080140000C01400010014000140140BB
:1019F00000180140001C014000200140000001408F
:101A000000002042DF48006840F00100DD49086026
:101A100008464068DC490840DA49486008460068E2
:101A2000DA490840D74908600846006820F4802059
:101A300008600846406820F4FE0048604FF41F002C
:101A400088607047CF49096821F48031CD4A116020
:101A50001146096821F480211160B0F5803F03D060
:101A6000B0F5802F0ED106E0C649096841F48031F7
:101A7000C44A116007E0C349096841F4A021C14A82
:101A8000116000E000BF00BF704710B501460022A2
:101A9000002300204A11012A02D1BA4C236806E033
:101AA000022A02D1B74C236A01E0B64C636A01F006
:101AB0001F02012494401C400CB1012000E00020D2
:101AC00010BD38B5002000900024002500BF312053
:101AD000FFF7DBFF05460098401C00900098B0F52A
:101AE000A06F01D0002DF2D03120FFF7CEFF08B15A
:101AF000012400E00024204638BD01460020A14A10
:101B0000106820F0F80040EAC10010607047A0495A
:101B100008607047024600209A4B586820F47C10F9
:101B200042EA01031843974B58607047984908668A
:101B3000704701460020934A506820F00300084394
:101B4000506070478F48406800F00C0070470146B5
:101B500000208C4A506820F0F00008435060704725
:101B600001460020874A506820F4E0600843506036
:101B7000704701460020834A506820F4605040EAD4
:101B8000C1005060704729B17E4A527A02437D4BB2
:101B90005A7204E07B4A527A82437A4B5A727047F7
:101BA0007B49D8310860704701460020754A50686B
:101BB00020F440400843506070470021714A2032B1
:101BC0001170704A82F82010012802D004280AD12E
:101BD00004E001216B4A2032117005E00521694AB9
:101BE0002032117000E000BF00BF704769490860F3
:101BF00070476449096A0143624A11627047654946
:101C000044390860704730B50021002200240023C9
:101C10005C4D6D6805F00C0121B1042905D008293F
:101C200023D105E05C4D056022E05B4D05601FE0BF
:101C3000544D6D6805F47012524D6D6805F4803492
:101C4000022505EB92421CB9544D554305600BE04B
:101C50004C4D6D6805F400351DB1504D5543056080
:101C600002E04D4D5543056002E04B4D056000BF5D
:101C700000BF444D6D6805F0F0010909484D6B5CEB
:101C80000568DD4045603F4D6D6805F4E061090A77
:101C9000434D6B5C4568DD4085603A4D6D6805F4E9
:101CA0006051C90A3E4D6B5C4568DD40C560354DED
:101CB0006D6805F44041890B3A4D6B5CC568B5FB16
:101CC000F3F5056130BD29B12E4A526902432D4B0F
:101CD0005A6104E02B4A526982432A4B5A61704789
:101CE00029B1284A92690243264B9A6104E0254AA9
:101CF00092698243234B9A61704729B1214AD26984
:101D00000243204BDA6104E01E4AD26982431D4B34
:101D1000DA61704729B11B4AD2680243194BDA6075
:101D200004E0184AD2688243164BDA60704729B142
:101D3000144A12690243134B1A6104E0114A1269F2
:101D40008243104B1A61704712494039086070474E
:101D50000F49C86470470B49C87170470948406A09
:101D600040F0807007494862704701460020054AEC
:101D700092680A400AB1012000E000207047014942
:101D800088727047001002400000FFF8FFFFF6FE67
:101D9000000042428004424200127A0000093D00E5
:101DA0002E0000203E00002010B50446FE4884426C
:101DB00008D10121C014FFF7ADFF0021E014FFF7A7
:101DC000A9FFC4E0B4F1804F08D101210846FFF714
:101DD000AEFF00210120FFF7AAFFB8E0F3488442DC
:101DE00008D101210220FFF7A2FF00210220FFF706
:101DF0009EFFACE0EE48844208D101210420FFF7A9
:101E000096FF00210420FFF792FFA0E0E9488442FA
:101E100008D101210820FFF78AFF00210820FFF7E1
:101E200086FF94E0E448844208D101211020FFF7A6
:101E30007EFF00211020FFF77AFF88E0DF48844210
:101E400008D101212020FFF772FF00212020FFF799
:101E50006EFF7CE0DA48844208D101214014FFF78C
:101E600059FF00216014FFF755FF70E0D548844208
:101E700009D10121C804FFF74DFF00214FF40020D4
:101E8000FFF748FF63E0D048844209D101210805EB
:101E9000FFF740FF00214FF48010FFF73BFF56E0B3
:101EA000CA48844209D101214805FFF733FF0021C8
:101EB0004FF40010FFF72EFF49E0C548844208D1D7
:101EC00001214020FFF733FF00214020FFF72FFFC3
:101ED0003DE0C048844208D101218020FFF727FF60
:101EE00000218020FFF723FF31E0BB48844208D166
:101EF00001218015FFF71BFF0021A015FFF717FF39
:101F000025E0B648844209D101210804FFF702FF09
:101F100000214FF48030FFF7FDFE18E0B048844206
:101F200009D101214804FFF7F5FE00214FF40030EC
:101F3000FFF7F0FE0BE0AB48844208D10121880492
:101F4000FFF7E8FE00214FF48020FFF7E3FE10BD0D
:101F500000220288944B98420ED0994B98420BD0A5
:101F6000B0F1804F08D0914B984205D0904B9842E9
:101F700002D0904B984204D14FF68F731A404B8891
:101F80001A438D4B984207D08C4B984204D04FF6A1
:101F9000FF431A40CB881A4302808B8883850B88C5
:101FA0000385814B98420BD0854B984208D08B4BD0
:101FB000984205D08A4B984202D08A4B984201D170
:101FC0000B7A038601238382704770B500240022B8
:101FD0000023058C4FF6FE7635400584028C8388FD
:101FE000048B4FF68F752C40B51E2C400D882C436A
:101FF000751E2A400D892A434D882A436A4DA842FE
:102000000BD06F4DA84208D0744DA84205D0744D36
:10201000A84202D0734DA84213D14FF6F7752A405B
:102020004D892A434FF6FB752A408D882A434FF687
:10203000FF652B404FF6FF552B408D892B43CD89F3
:102040002B4383800483CD888586028470BD70B560
:10205000002400220023058C4FF6EF7635400584DE
:10206000028C8388048B48F6FF752C404FF6FF45A1
:102070002C400D884FF6FF7606EA05252C434FF6D7
:10208000DF752A400D8906EA05152A434D8806EAC0
:1020900005152A43444DA84202D0494DA8421DD1FE
:1020A0004FF67F752A404D894FF6FF7606EA0515F3
:1020B0002A434FF6BF752A408D8806EA05152A4344
:1020C0004FF6FF352B404FF2FF752B408D8906EA06
:1020D00085052B43CD8906EA85052B438380048340
:1020E000CD880587028470BD70B5002400220023CE
:1020F000058C4FF6FF6635400584028C8388848BFF
:102100004FF68F752C404FF6FC752C400D882C43F4
:102110004FF6FF552A400D894FF6FF7606EA052552
:102120002A434D8806EA05252A431F4DA84202D0BE
:10213000234DA8421DD14FF2FF752A404D894FF61D
:10214000FF7606EA05252A434FF6FF352A408D889B
:1021500006EA05252A434EF6FF752B404DF6FF751E
:102160002B408D8906EA05152B43CD8906EA051516
:102170002B4383808483CD888587028470BD70B5AE
:10218000002200230024058C4EF6FF76354005849E
:10219000038C8488828B48F6FF752A404FF6FF45F2
:1021A0002A400D8820E00000002C0140000400407F
:1021B00000080040000C00400010004000140040E7
:1021C00000340140004C01400050014000540140E7
:1021D00000180040001C004000200040004001406A
:1021E00000440140004801404FF6FF7606EA05250D
:1021F0002A434DF6FF752B400D8906EA05352B4322
:102200004D8806EA05352B43FA4DA84202D0FA4D17
:10221000A84208D14BF6FF752C408D894FF6FF760A
:1022200006EA85152C4384808283CD88A0F840502F
:10223000038470BD828B4FF2FF331A408283828BFE
:102240004FF6FF7303EA01231A4382837047F0B508
:102250000C461546002200210026078C4EF6FF7C16
:1022600007EA0C070784828B018C4FF6FF7707EA99
:10227000043640F6FF473A404FF6FF7707EA052756
:102280003A434FF6FF7707EA03373A43D94FB8424C
:102290000ED0D94FB8420BD0B0F1804F08D0D74FF5
:1022A000B84205D0D64FB84202D0D64FB84206D178
:1022B0004DF6FF77394046F48057394305E047F63D
:1022C000FF57394044F48057394382830184F0BD7D
:1022D000828B4FF6F3731A408283828B0A43828388
:1022E0007047F0B50C461546002200210026078CE9
:1022F0004FF6FF6C07EA0C070784828B018C4FF6C0
:10230000FF7707EA04264FF60C773A404FF6FF773F
:1023100007EA03172F433A43B64FB8420ED0B64FE1
:10232000B8420BD0B0F1804F08D0B44FB84205D0BE
:10233000B34FB84202D0B34FB84206D14FF6FF5761
:10234000394046F48077394305E04FF2FF57394072
:1023500044F48077394382830184F0BD028B4FF2CD
:10236000FF331A400283028B4FF6FF7303EA012307
:102370001A4302837047F0B50C461546002200212F
:102380000026078C4FF6EF7C07EA0C070784028BC8
:10239000018C4FF6FF7707EA041640F6FF473A40F4
:1023A0004FF6FF7707EA03373A434FF6FF7707EA1E
:1023B00005273A438F4FB8420ED08F4FB8420BD00B
:1023C000B0F1804F08D08D4FB84205D08C4FB84245
:1023D00002D08C4FB84206D14FF6DF77394046F035
:1023E0001007394305E04FF65F77394044F0100796
:1023F000394302830184F0BD028B4FF6F3731A4018
:102400000283028B0A4302837047F0B50C461546DF
:1024100000220021068C4FF6FE773E400684028B98
:10242000018C4FF60C7632407E1C06EA03162E43D2
:102430003243704EB0420ED06F4EB0420BD0B0F16E
:10244000804F08D06D4EB04205D06D4EB04202D0E4
:102450006C4EB04206D14FF6FD76314044F0010695
:10246000314305E04FF6F576314044F00106314343
:1024700002830184F0BD70B505460C465D48854277
:102480000ED05D4885420BD0B5F1804F08D05B4837
:10249000854205D05A48854202D05A48854200D12B
:1024A00000E000BF208850B92389A28861882846AF
:1024B000FFF7ABFFE1882846FFF79EFF25E0208865
:1024C00004280AD12389A28861882846FFF753FF90
:1024D000E1882846FFF742FF17E0208808280AD144
:1024E0002389A28861882846FFF7FBFEE1882846F9
:1024F000FFF7EEFE09E02389A28861882846FFF7EE
:10250000A6FEE1882846FFF795FE70BD2DE9F04153
:1025100005460C4600260127608808B9022600E01F
:102520000026A088012801D1022700E00127208889
:10253000A0B92389A28861882846FFF766FFE18851
:102540002846FFF759FF23893A4631462846FFF7C8
:1025500012FFE1882846FFF701FF13E02389A288D4
:1025600061882846FFF707FFE1882846FFF7F6FE57
:1025700023893A4631462846FFF747FFE188284637
:10258000FFF73AFFBDE8F0810A884B881A438B8831
:102590001A43CB881A430B891A434B891A438B89F8
:1025A0001A43A0F8442070474FF6FF718180002144
:1025B0000180C1804180017270470021018041800B
:1025C0008180C180018141818181C1817047002169
:1025D00001804180012181800021C18001817047FB
:1025E0000021018041808180C18001814181818100
:1025F00070470000002C01400034014000040040FE
:1026000000080040000C004021B1028842F00102A5
:10261000028004E002884FF6FE731A400280704781
:1026200031B1B0F8442042F40042A0F8442005E063
:10263000B0F84420C2F30E02A0F8442070471AB14B
:1026400083890B43838102E083898B4383817047B5
:102650008182704741EA0203A0F8483070471AB1FE
:1026600083890B43838102E083898B438381704795
:1026700001894FF6F8721140018170470A46002126
:1026800001894FF68F73194011430181704730B5AE
:1026900004460D4629462046FFF7F0FF208940F00A
:1026A0000700208130BD2DE9F04104460D46164655
:1026B0001F46602D06D13B46012231462046FFF7DA
:1026C0005AFE05E03B46012231462046FFF79DFEBB
:1026D00029462046FFF7D2FF208940F007002081DD
:1026E000BDE8F08130B50C4600210189C9B24FF632
:1026F000FF7505EA0325154325432943018130BDB4
:102700002DE9F04105460E461746984600244346FB
:102710003A4631462846FFF7E5FF2C894FF6F87018
:10272000044044F007044FF68F70044044F07004F6
:102730002C81BDE8F081F0B504460D4616461F46D3
:102740003B46324629462046FFF7CCFF208940F41D
:1027500080402081F0BD0185828270470A460021B9
:1027600001884FF68F731940114301807047F0B50F
:102770000C4615461E460021002200230189028BCB
:10278000038C4FF6F877394021434FF6FC473A4027
:1027900040F201173A434FF6DD773B404FF6FF77A3
:1027A00007EA06172F433B43018102830384F0BDF0
:1027B0000A460021018B4FF68F73194011430183A4
:1027C00070470A460021018B48F6FF7319404FF607
:1027D000FF7303EA02231943018370470A4600216D
:1027E000818B4FF68F7319401143818370470A46DE
:1027F0000021818B48F6FF7319404FF6FF7303EAFF
:10280000022319438183704721B1028842F080027C
:10281000028004E002884FF67F731A4002807047FE
:1028200021B1828842F00402828004E082884FF65F
:10283000FB731A408280704721B1828842F00802FF
:10284000828004E082884FF6F7731A4082807047D6
:1028500021B1828842F00102828004E082884FF632
:10286000FE731A40828070470A460021018B4FF6A2
:10287000F77319401143018370470A460021018B09
:102880004FF2FF7319404FF6FF7303EA0223194317
:10289000018370470A460021818B4FF6F773194078
:1028A0001143818370470A460021818B4FF2FF73E9
:1028B00019404FF6FF7303EA0223194381837047DF
:1028C0000A460021018B4FF6FB7319401143018327
:1028D00070470A460021018B4FF6FF3319404FF62F
:1028E000FF7303EA02231943018370470A4600215C
:1028F000818B4FF6FB7319401143818370470A4661
:102900000021818B4FF6FF3319404FF6FF7303EA26
:1029100002231943818370470A460021018B4FF639
:102920007F7319401143018370470A460021018BD0
:10293000C1F30E014FF6FF7303EA0223194301832B
:1029400070470A460021818B4FF67F73194011436F
:10295000818370470A460021818BC1F30E014FF637
:10296000FF7303EA02231943818370470A4600215B
:10297000018C4FF6FD7319401143018470470A46DC
:102980000021018C4FF6F773194011430184704701
:102990000A460021018C4FF6DF7319404FF6FF7392
:1029A00003EA02131943018470470A460021018C8F
:1029B0004FF67F7319404FF6FF7303EA0213194372
:1029C000018470470A460021018C4FF6FF531940DD
:1029D0004FF6FF7303EA02231943018470470A4646
:1029E0000021018C4FF2FF7319404FF6FF7303EA89
:1029F00002231943018470470A460021018C4DF6D9
:102A0000FF7319404FF6FF7303EA02331943018441
:102A1000704730B5002301248C40A3B2048C9C4342
:102A20000484048C02FA01F5ADB22C43048430BD59
:102A300030B5002304248C40A3B2048C9C4304844E
:102A4000048C02FA01F5ADB22C43048430BD70B59C
:102A50000346002000241846183001258D40ACB2F2
:102A60001D8CA5431D8409B1082909D100EB610023
:102A7000056825F0700505600568154305600EE0E2
:102A80000D1FC5F34E052844056825F4E045056093
:102A900005684FF6FF7606EA02263543056070BDED
:102AA00021B1028842F00202028004E002884FF65F
:102AB000FD731A400280704721B1028842F004027F
:102AC000028004E002884FF6FB731A4002807047D0
:102AD00021B1828842F08002828004E082884FF631
:102AE0007F731A408280704702884FF6F7731A404E
:102AF000028002880A430280704782884FF68F73F3
:102B00001A40828082880A438280704702894FF689
:102B1000F8731A40028102890A43028170470289D0
:102B20004FF67F731A40028102890A43028170477F
:102B3000818470478185704781867047018770471F
:102B400081877047A0F84010704702884FF6FF4316
:102B50001A40028002880A43028070470146888E2C
:102B600070470146088F70470146888F70470146BD
:102B7000B1F8400070470146888C70470146088DC7
:102B8000704702460020138A0B400BB1012000E081
:102B900000207047CA430282704730B502460020C9
:102BA00000230024158A05EA0103958905EA01043A
:102BB00013B10CB1012000E0002030BDCA430282F5
:102BC0007047000010B50446FB48844209D101213A
:102BD0008803FFF79FF800214FF48040FFF79AF831
:102BE00032E0F648844209D101214804FFF79FF8FA
:102BF00000214FF40030FFF79AF825E0F0488442B6
:102C000009D101218804FFF792F800214FF48020B8
:102C1000FFF78DF818E0EB48844209D10121C80480
:102C2000FFF785F800214FF40020FFF780F80BE054
:102C3000E548844208D101210805FFF778F8002112
:102C40004FF48010FFF773F810BD2DE9F04786B000
:102C500005460E460024A24600BFA1460027B089C3
:102C600000B100BF2F462C8A4CF6FF700440F0885C
:102C700004432C82AC894EF6F3100440B0883189AD
:102C80000843718908430443AC81AC8A4FF6FF4086
:102C90000440B0890443AC8201A8FEF7B4FFC648E3
:102CA000874202D1DDF810A001E0DDF80CA0A88970
:102CB00000F4004040B10AEBCA0000EB0A10316892
:102CC0004900B0FBF1F807E00AEBCA0000EB0A107C
:102CD00031688900B0FBF1F86420B8FBF0F0040122
:102CE0002009642101FB1089A88900F4004040B14B
:102CF000322000EBC900B0FBF1F000F00700044304
:102D000008E0322000EB09106421B0FBF1F000F084
:102D10000F0004432C8106B0BDE8F0874FF4165134
:102D2000016000218180C18001810C21418100214D
:102D30008181704710B502460020108A4FF2FF03D0
:102D400018400B884C8823438C882343CC8823432A
:102D50001843108210BD0021018041808180C18014
:102D6000704721B1828942F40052828104E0828955
:102D70004DF6FF731A4082817047F0B50346002478
:102D800000260025002040F66A17B94200D100BF96
:102D90001846C1F3421401F01F06012707FA06F591
:102DA000012C01D10C3004E0022C01D1103000E0E4
:102DB00014301AB107682F43076002E00768AF4379
:102DC0000760F0BD1AB1838A0B43838202E0838AD5
:102DD0008B4383827047028A4FF6F0731A40028257
:102DE000028A0A430282704782894FF2FF731A40B7
:102DF000828182890A438281704721B1828942F0AF
:102E00000202828104E082894FF6FD731A408281BA
:102E10007047028A4FF6DF731A400282028A0A4321
:102E20000282704721B1028A42F48042028204E0A9
:102E3000028A4BF6FF731A4002827047C1F3080200
:102E40008280704701468888C0F3080070478189F6
:102E500041F0010181817047028BD2B20283028B63
:102E600042EA012202837047028B02F47F4202830E
:102E7000028B0A430283704721B1828A42F020020A
:102E8000828204E0828A4FF6DF731A4082827047A2
:102E900021B1828A42F01002828204E0828A4FF6D7
:102EA000EF731A408282704721B1828A42F0080291
:102EB000828204E0828A4FF6F7731A40828270475A
:102EC00021B1828942F40042828103E08289C2F307
:102ED0000E028281704721B1828A42F400628282AE
:102EE00004E0828A4FF2FF731A4082827047828A1E
:102EF0004FF6FB731A408282828A0A4382827047AD
:102F000021B1828A42F00202828204E0828A4FF674
:102F1000FD731A408282704702460020B1F5007F9F
:102F200000D100BF13880B400BB1012000E000204E
:102F3000704701F40072B2F5007F00D100BFCA43B0
:102F40000280704770B5024600240023002500204F
:102F500040F66A16B14200D100BFC1F3421501F03C
:102F60001F03012606FA03F3012D02D1968933408F
:102F700006E0022D02D1168A334001E0968A3340E2
:102F80000C12012606FA04F41688344013B10CB171
:102F9000012000E0002070BD10B50022002340F6A3
:102FA0006A14A14200D100BF0A1201249440A3B2C6
:102FB000DC43048010BD00000038014000440040A4
:102FC00000480040004C00400050004001684FF6AF
:102FD000FE72114001600021016041608160C160AA
:102FE0008D49884208D18C490839496841F00F0160
:102FF000894A083A51608AE087491431884208D1E9
:1030000085490839496841F0F001834A083A51601E
:103010007DE081492831884208D17F4908394968D3
:1030200041F470617C4A083A516070E07A493C3161
:10303000884208D178490839496841F47041764A94
:10304000083A516063E074495031884208D17249AE
:103050000839496841F470216F4A083A516056E0D6
:103060006D496431884208D16B490839496841F497
:103070007001694A083A516049E0674978318842ED
:1030800008D165490839496841F07061624A083AD7
:1030900051603CE06149884206D1011F096841F056
:1030A0000F01021F116032E05C491431884208D1DF
:1030B0005A49091F096841F0F001584A121F11606E
:1030C00025E056492831884208D15449091F09682A
:1030D00041F47061514A121F116018E04F493C31B0
:1030E000884208D14D49091F096841F470414B4A93
:1030F000121F11600BE049495031884207D14749FE
:10310000091F096841F47021444A121F1160704779
:1031100010B50022026847F6F0739A430C6A8B6878
:1031200023430C6923434C6923438C692343CC69B3
:1031300023434C6A23438C6A23431A430260CB68BF
:1031400043600B6883604B68C36010BD0021016061
:1031500041608160C160016141618161C161016261
:1031600041628162704721B1026842F0010202604F
:1031700004E002684FF6FE731A40026070471AB10D
:1031800003680B43036002E003688B4303607047EE
:10319000416070470146486880B270470146002090
:1031A000002201F080531BB11C4B083B1A6802E05F
:1031B000194B083B1A6802EA01030BB1012000E039
:1031C0000020704700F0805119B11449091F0860B0
:1031D00002E011490839486070470146002000228A
:1031E00001F080531BB10D4B083B1A6802E00A4BFB
:1031F000083B1A6802EA01030BB1012000E000203D
:10320000704700F0805119B10449091F086002E0BD
:10321000014908394860704708000240080402402C
:103220002DE9F04107460D46164600241CB93846E4
:1032300004F01DF804461CB9384604F034F804467E
:1032400024B9FA21384605F08CFF044634B901222E
:1032500040F28171384605F0EBFE044634B9052290
:1032600040F28361384605F0E3FE044624B9314656
:10327000384605F076FF044634B901224FF4F06178
:10328000384605F0D5FE044634B92A4640F284712A
:10329000384605F0DDFE04462046BDE8F0812DE904
:1032A000F04781460D4690461E46002400272F46D3
:1032B00029E034B93A4640F29471484605F0B8FE28
:1032C000044634B9002240F28371484605F0B0FE4E
:1032D000044624B90521484605F043FF044634B9A5
:1032E000012240F28371484605F0A2FE04463CB933
:1032F000042332464FF4F261484605F085FE044649
:10330000361D781CC7B205EB0800B842D1DC204658
:10331000BDE8F08770B50546002434B9012240F2BB
:103320008371284605F084FE044634B9002240F239
:103330008171284605F07CFE04461CB9284603F03E
:10334000BCFF04461CB9284603F087FF044620460C
:1033500070BD2DE9F04105460E46174698460024FB
:103360002CB9322204212846FFF75AFF044634B90B
:1033700043463A4631462846FFF791FF04461CB9BA
:103380002846FFF7C7FF04462046BDE8F0812DE937
:10339000F0419AB006460D46002728681038019083
:1033A000286A0890686A0990288DADF82800688D11
:1033B000ADF82A003A2205F12C010BA806F0A3FB78
:1033C0002C1DD4F80C80ADF8128020788DF8080000
:1033D00061788DF80910A1788DF80A10E1788DF8E0
:1033E0000B1021798DF80C1061798DF80D10A179F1
:1033F0008DF80E10E1798DF80F10217A8DF81010EC
:10340000218AADF81410618AADF81610A18AADF8C2
:103410001810E18AADF81A10218BADF81C10618BE1
:10342000ADF81E1001A9304601F0AEFF0746384640
:103430001AB0BDE8F0812DE9F0419AB007460E467A
:103440004FF0000801A9384601F0F0FF80460198CE
:10345000103030600898306209987062BDF828001A
:103460003085BDF82A0070853A220BA906F12C00A0
:1034700006F049FB341D02AD287820706878607032
:10348000A878A070E878E070287920716879607178
:10349000A879A071E879E071287A2072A889208241
:1034A000E8896082288AA082688AE082A88A2083CC
:1034B000E88A60836889E06040461AB0BDE8F08120
:1034C00070B504460025204602F09FFB054615B95D
:1034D000032084F87803284670BD3EB503460C46A9
:1034E0000020FBA52D680295FAA52D680195FAA587
:1034F0002D68009501251570012C02D0022C04D1F5
:1035000001E0002103E0012101E0022100BF00BF32
:10351000032B08D0042B02D0082B0CD107E002ADFE
:103520006D5C15700AE001AD6D5C157006E01DF86C
:103530000150157002E06FF0070000BF00BF3EBDF4
:103540002DE9F04389B006460C4690469946002581
:10355000032C01D0082C01D1402700E0202708AA25
:1035600041462046FFF7B9FF05465DB904A805A905
:1035700006AB07AACDE900109DF82010304602F0F6
:10358000D8F8054665B9DDE904108DE80302BDF8F9
:103590001C209DF820103046069B01F008FD0546D2
:1035A00005B9B7700DB986F87C43284609B0BDE867
:1035B000F0832DE9FF470546002403A9284602F0C1
:1035C000A1F8044695F87C9340F27F30465D34B90B
:1035D00002AB01AA6946284601F075FF04461CB9F2
:1035E000284602F012FB04462CB94FF4FA71284623
:1035F00005F0B7FD044644B9D5F814804346324679
:1036000049462846FFF79CFF044644B928469DE8F2
:103610000E0001F0A4FC04460CB90298286124B9FC
:1036200003A9284602F059F8044634B9AF780622B7
:103630003946284602F0AFF9044614B940F27E300C
:103640004655204604B0BDE8F0872DE9F041044618
:103650000025A67840F27E30075D401C10F80480FB
:10366000B84504D02046FFF7A4FF054604E03146E4
:10367000204602F094FC05462846BDE8F08130B5AE
:1036800003460020022903DB001F0025157003E01C
:1036900003F561756C5C147030BD2DE9FC41064684
:1036A0000C4617464FF0000814B1012C12D108E067
:1036B0006946304602F022F98046BDF800008503D5
:1036C0000BE001A9304602F02AF98046BDF804005B
:1036D000450202E06FF0030800BF00BFB8F1000F21
:1036E00011D145B906F5627050F824503D600021B3
:1036F000001F015507E03D6006F5627040F8245058
:103700000121001F01554046BDE8FC8101460A1F0A
:10371000102A1BD2DFE802F00E0C101216181A1A2B
:10372000141A1A1A1A1A080A0A2011E006200FE0C1
:1037300004200DE002200BE0012009E0072007E053
:10374000092005E0032003E0002001E0FF2000BF86
:1037500000BF70472DE9F04F06460F4613464FF461
:1037600096784FF01E09DFF874C1DFF874A141F6B6
:103770009A1B0EB9002037E0072F01D1322033E029
:10378000B3F93CE0C64502DA4FEA094103E0B3F978
:103790003CE00EFB0BF181B1B3F838E00EFB0AF20E
:1037A00002EB5102B2FBF1F21204624502D8ACEB1B
:1037B000020404E04FF4481401E04FF4C804C4F3D9
:1037C0000745642D02DD4FF0640E00E0AE46BEF109
:1037D000320F06DD642D02DD4FF0640E03E0AE46CD
:1037E00001E04FF0320E7046BDE8F08F2DE9F04F4A
:1037F00089B006468A4693461D46129C00200890D2
:103800006868206095F83E0000F01F072A46394698
:103810005046FFF79FFF6071A88D4002029002980A
:10382000A060288E400203900398E060288A2082DE
:10383000288F4FEA4028C4F81480A88F20830020E6
:10384000A076BBF1030F10D006DCBBF1010F0BD04B
:10385000BBF1020F0FD106E0BBF10D0F08D0BBF199
:10386000110F08D100BF00BF00BF0520E07605E0C2
:103870000D20E07602E00020E07600BF00BFE07E91
:1038800018B93846FFF742FFE076288F4FEA402804
:10389000C6F89083A88D4FEA4028C6F8948301AA01
:1038A00000213046FFF7F9FE062F01D1012000E08C
:1038B0000020079005AA00213046FFF7E0FE9DF8A2
:1038C000140001280ED1079801280BD10BE000004D
:1038D00002010300070608002425260033B3750003
:1038E000CDCC30000020049040F2863104988855F9
:1038F00001AA01213046FFF7D0FE042F01D101209B
:1039000000E00020069005AA01213046FFF7B7FE2F
:103910009DF81400012803D10698012800D100E089
:1039200000200490049986F88713B4F91890E07E7B
:1039300058B9B9F1000F08DAFE484068484502DD81
:103940000E20E07601E000202083089809B0BDE851
:10395000F08F2DE9F041A2B080460C46002601AD63
:10396000FF221C21204606F045F92A460221404646
:1039700002F0C1FA064656B9A87820712F1D0094AE
:10398000EA783B4601214046FFF730FF06463046C5
:1039900022B0BDE8F08170B5044600254FF4FA610D
:1039A000204605F0B8F80546284670BDF8B505462E
:1039B0000C4600266946284601F06FFD0646009831
:1039C00080014FF47A71B0FBF1F00099081A009071
:1039D000009820603046F8BD2DE9F04104460D46C0
:1039E0001646002732462946204601F0F1FD0746DB
:1039F0003846BDE8F0812DE9F04786B007460D4610
:103A000000240020059004900390029082460190CB
:103A100028602CB905AA05213846FFF7DDFF0446CA
:103A20002CB904AA06213846FFF7D6FF044634B95C
:103A300002AB03AA01A9384601F045FD0446002C5B
:103A40004CD197F87C83B8F1030F18D0B8F1040F6C
:103A500003D0B8F1080F3DD127E09DF814000128EC
:103A600003D09DF81000012805D141F28831029859
:103A700000EB010A02E0029800F57A7A2DE09DF849
:103A80001400012803D09DF81000012806D146F249
:103A9000E8710222029802FB001A05E045F260413B
:103AA0000222029802FB001A17E0F5266A4648F245
:103AB0003601384602F011FB0098002803DDF5219D
:103AC000009800FB016606F6DC590221029801FB12
:103AD000009A02E06FF0070400BF00BF0CB9C5F800
:103AE00000A0204606B0BDE8F0872DE9FC41044661
:103AF000002594F87873042F14D007DC7FB1012FD0
:103B00000ED0022F0DD0032F12D106E0052F0AD0C0
:103B1000622F09D0632F0BD107E000250BE000BF17
:103B200000BF00BF00BF00BF00BF6FF00D0502E087
:103B30006FF0020500BF00BFA678C5B9402E16D1B0
:103B400001A92046FFF757FF80464FF47A7101988C
:103B5000B0FBF1F0019069462046FFF727FF804651
:103B6000DDE90010001D814201D26FF003052DB97F
:103B700006223146204601F00EFF054615B9042005
:103B800084F878032846BDE8FC812DE9F14FAAB0FE
:103B90000024A346002029902890002527906548FE
:103BA000007B26902A9890F87CA3BAF1030F08D0E6
:103BB000BAF1080F05D0BAF1040F02D06FF0070474
:103BC00097E02A9801F080FE044600BF04B190E01F
:103BD00000BF2A98FFF789FF044600BF04B188E0C0
:103BE00000BF4FF0000B002029902890002527905F
:103BF00021E02A98FFF7CFFE1FA92A98FFF7A9FE18
:103C00002A98FFF722FD9DF8970080B9BDF994002E
:103C100083442199289808442890BDF88C00C11746
:103C200000EB11610A122999114429916D1C279802
:103C3000401CC0B22790DDE926108842D9DB2A98C3
:103C4000FFF73EFC0446002D50D02898B0FBF5F05D
:103C50001E904FEA0B47B7FBF5F7299800041D901B
:103C60001D98B0FBF5F01D901D9800F500404FEA3F
:103C7000104830488668B8F1000F03D016B1B7EB92
:103C8000064F02D34FF000090FE01E98B0FBF8F08A
:103C90001C90B7FBF6F0C0F580301C9948431C908F
:103CA0001C9800F500404FEA104902A92A98FFF736
:103CB000C2FB044600BF04B11BE000BF03A8019093
:103CC00009F14000C1094FF47A7041430198C16085
:103CD00002A92A98FFF75BFB044600BF04B108E085
:103CE00000BF2A9801F08BFD044601E06FF0150437
:103CF00000BF20462BB0BDE8F08F01B500209DF835
:103D000000100F290BDC9DF801100F2907DC9DF82E
:103D100002100F2903DC9DF803100F2901DD6FF05D
:103D200003009DF800109DF80220914208DC9DF8E8
:103D3000011001E0440000209DF80320914201DAC7
:103D40006FF0030008BD024631B1012906D00229F7
:103D500006D0032908D105E0002009E0012007E092
:103D6000022005E0032003E00120FC23137000BFC4
:103D700000BF7047024631B1012906D0022906D0A2
:103D8000032908D105E0002009E0012007E0022016
:103D900005E0032003E00120FD23137000BF00BFF6
:103DA00070470146002002220A7103224A718A717B
:103DB00040F25D720A60704770B5034600201D46F0
:103DC0004FF4FE76745D01260E702609167070BDE4
:103DD0002DE9F04105460C4600272E461F22F9A189
:103DE00004F1400005F035FF40F2FB10805D04F85F
:103DF000600F4FF4FE7010F80680012060704FEAEB
:103E00001810A070A078603C28B91F22EEA12046AF
:103E100005F01FFF04E01F22EFA1204605F019FF67
:103E20001F22F1A104F1200005F013FF3846BDE880
:103E3000F08170B504460D4600262946204602F062
:103E400063FE0646304670BD70B504460D4600263A
:103E50002946204603F0C2FE0646304670BD70B5C6
:103E600004460D4600262946204602F08CFE0646F2
:103E7000304670BD0246002092F878330B707047D0
:103E80002DE9F04105460C460026274604EBD77085
:103E9000C0F347020121284605F0CAF8064630461D
:103EA000BDE8F0812DE9F04107460E4614464FF07B
:103EB000000816B1012E0ED106E0C4F38F35294655
:103EC000384601F024FD09E0C4F34F252946384661
:103ED00001F02EFD02E06FF0030800BF00BF404676
:103EE000BDE8F0812DE9F04105460C461646002755
:103EF000022C01DB3F1F15E005F5617010F804800E
:103F0000B8F1000F03D1001D40F824600AE03246EA
:103F100021462846FFF7C6FF07461FB905F5627020
:103F200040F824603846BDE8F0812DE9F0410546AF
:103F30000C4616460027B846022C01DB3F1F0DE059
:103F400016B94FF0000803E005F5627050F82480C0
:103F5000424621462846FFF7A5FF074637B90EB16E
:103F6000012100E0002105F5617001553846BDE8EA
:103F7000F08170B50646002424B90121304601F0D5
:103F800082F904462CB9012086F87803082086F8C7
:103F90007C0300250AE034B9012229463046FFF7A8
:103FA000C4FF044300E003E0681CC5B2022DF2DB4D
:103FB00000BF34B94FF4901200213046FFF792FF52
:103FC000044634B94FF4804201213046FFF78AFF9E
:103FD0000446204670BD2DE9F04106460C460027F8
:103FE0002546A8014FF47A71B0FBF1F0054429464B
:103FF000304600F09FFF07463846BDE8F0812DE9C6
:10400000F04F87B006460D460024DFF8E49179486A
:10401000854200D9241F2CB906AA05213046FFF796
:10402000DBFC04462CB905AA06213046FFF7D4FC78
:10403000044634B904AB03AA02A9304601F043FA9E
:104040000446002C63D196F87CB300274FF0010A98
:10405000BBF1030F14D0BBF1040F03D0BBF1080F69
:1040600036D11FE09DF81800012803D09DF81400F8
:10407000012802D141F2883701E04FF47A772AE033
:104080004FEA49099DF81800012803D09DF8140053
:10409000012802D146F2E87701E045F260474FF08F
:1040A000020A18E04FEA49094FF0F50801AA48F260
:1040B0003601304602F011F80198002803DDF521A1
:1040C000019800FB018808F6DC574FF0020A02E075
:1040D0006FF0070400BF00BFBD4202D86FF00304B9
:1040E00001E0E81B049094B90498484502D96FF0A8
:1040F000030409E00498B0FBFAF00490304602A9EA
:104100000EC900F02CFF04460CB90498306114B9B4
:104110004FF460708551204607B0BDE8F08F2DE95F
:10412000F04107460C46002503264FF47A733246C9
:1041300021463846FFF704FA0546BDB940F27E3005
:10414000C655401CC655042C03D0032C01D0082CA6
:1041500006D14AF228013846FFF751FF054605E02F
:1041600048F235213846FFF74AFF05462DB94FF48E
:104170007A713846FFF72FFF05462846BDE8F081E3
:1041800070B504460025032084F878031026A67035
:10419000032140F27F300155401E0155401E01555C
:1041A00008212046FFF7BBFF0546284670BD70B5C5
:1041B000044600254FF4FA71204604F0C8FB05467A
:1041C000284670BD00000000564C35334C3120634A
:1041D0007574312E30000000564C35334C3120635D
:1041E0007574312E31000000564C35334C310000CF
:1041F00070640800809698000246002092F87C3394
:104200000B7070472DE9FF4706460D46002496F8CF
:104210007C93012D07D0022D05D0032D03D0201F44
:1042200004B0BDE8F08734B9012D01D0022D01D1D1
:104230002F4600E0032724B96946304601F062FAB0
:104240000446D6F8148034B903AB02AA01A930465B
:1042500001F039F9044634B943463A4649463046F6
:10426000FFF76EF9044634B940F27E308755401CA2
:104270008755801E855544B9304601A90EC900F006
:104280006EFE04460CB90398306124B96946304685
:1042900001F023FA04462046C2E70246002040F21D
:1042A0007D339B5C0B7070470146002002220A8020
:1042B000704770B504460D4600262946204602F098
:1042C00004FD0646304670BD30B503460020022985
:1042D00001DB001F03E003F286356C5C147030BD17
:1042E00030B5034600200024022901DB001F04E052
:1042F00003F5647555F82140146030BD7CB5064661
:104300000C46002520680090FFF7F7FC054615B124
:104310006FF003007CBDA17822781144481C00EBAB
:10432000D071C1F347018DF804106178E27811442F
:10433000481C00EBD071C1F347018DF80510A0783F
:104340002178401AC0B28DF806006078E178401AF2
:10435000C0B28DF807009DF80600032803DB9DF826
:104360000700032802DA6FF0030504E001A93046D4
:1043700001F0B3F905462846CCE7F8B505460C46EA
:1043800000266946284601F0BDF906469DF8000062
:104390009DF80210C1EB4000C0F3470020709DF86B
:1043A00003009DF80110022202FB0100C0F3470048
:1043B00060709DF802009DF8001002FB0100C0F340
:1043C0004700A0709DF801009DF80310C1EB40006C
:1043D000C0F34700E0703046F8BD024600200823D5
:1043E0000B70704770B504460D46002629462046DE
:1043F00002F021FC0646304670BD2DE9F04104462E
:104400000F469046002542463946204601F0B8F84E
:10441000054635B94FF46070065931462046FFF71E
:10442000EEFD2846BDE8F08170B504460D46002635
:104430002946204604F045FB0646304670BD2DE96E
:10444000F04106460C4615460027B4F5004F06DB42
:104450002A462146304601F06FFF074607E0082C48
:1044600003DAFE4840F8245001E06FF003073846B5
:10447000BDE8F0812DE9F04106460C4615460027BF
:10448000B4F5004F06DB2A462146304601F025FEF2
:10449000074608E0082C04DAF04850F824002860A9
:1044A00001E06FF003073846BDE8F0812DE9F043E5
:1044B00089B007460024EAA000680190B94609F1D6
:1044C000420664B997F87C8308A9384600F0B8FA28
:1044D000044624B941463846FFF721FE044604F15C
:1044E0001D0060BB02AB062228213846FEF731FFD3
:1044F000044634B9022301AA1421384604F070FDA1
:1045000004462CB99DF80400F0719DF80500307246
:1045100004B906AD34B906232A460D21384604F005
:104520005FFD04465CB92878307068787070A878B0
:10453000B070E878F0702879307168797071204631
:1045400009B0BDE8F08370B505460C46002624B9D5
:10455000284601F0B9F9064603E0284601F04FF974
:104560000646304670BD70B504460D460026294605
:10457000204601F07CF9304670BD70B505460C460A
:104580000026002C06DDB54884602846FFF7FDFABA
:10459000064601E06FF00306304670BD2DE9F0419C
:1045A00007460C460026012C01D1012505E0022C0E
:1045B00001D1032501E06FF0030626B929463846EC
:1045C00001F071FD06463046BDE8F0817CB5064637
:1045D0000D46002424B96946304601F06AFD0446C0
:1045E0000CB120467CBD9DF80000012803D09DF849
:1045F0000000032807D144B901AA29B2304600F0CF
:10460000B0FA044601E06FF003042046EAE72DE922
:10461000F04F8FB080468B46002445460021542041
:10462000415356204153582041538C48808B00B24F
:104630000B908A48808A06B2304606EBD07149104A
:10464000491C09B20D9106EBD07106EB610109B26C
:104650000C91A14600274EE04046FFF746FA04467B
:104660001CB94046FFF797F9044624B901A9404612
:10467000FFF76FF904461CB94046FEF7E6FF044613
:104680004FF0000A00200E9021E04046FFF783F92A
:10469000044624B901A94046FFF75BF904469DF89A
:1046A0001F0008B9012000E00020009034B90098F4
:1046B00020B1BDF91C0081440AF1010A1CB9404631
:1046C000FEF7C3FF04460E98401CC0B20E902CB9F2
:1046D000B24503DA0C990E988842D6DB57440D9800
:1046E000824501DA6FF017044046FEF7E9FE0B98A9
:1046F000401E00B20B900B98002801DD002CABD0BF
:10470000B9F1000F03DBC7EB0740484501DA6FF052
:104710001F040CBB002F1FDD384607EBD07149107A
:104720000A910A9909EB010090FBF7F000B2099099
:104730000998ABEB000000B20890002154204153CF
:1047400056210898485358210898485305F14201CA
:10475000404603F085FB044620460FB0BDE8F08FCD
:10476000F0B599B007460C4615460026002020609B
:1047700028606946384600F059FE06463EB99DF865
:104780002400000320609DF82500000328603046C7
:1047900019B0F0BD2DE9F04786B006460C46002062
:1047A0000590B24601A9304601F04FFC05909DF8F6
:1047B000140000280ED1207868B901208DF8060079
:1047C000BDF81000ADF80000304601A90EC901F097
:1047D0001FFC05908DE0A078022802D0A078032865
:1047E00005D1E188A088814201DDFC2005909DF87B
:1047F000140058B9207A022802D0207A032805D163
:10480000D4E90301814201D9FC2005909DF81400F0
:1048100040BB00208DF8060060788DF80700BAF8DC
:104820009C707D01A0884FEA0048E0884FEA00496B
:1048300008F50040B0FBF5F809F50040B0FBF5F9CC
:104840001FFA88F0ADF80A001FFA89F0ADF80C00E5
:10485000E068C0F34F20ADF80E0004E044000020F3
:104860000503000013E02069C0F34F20ADF81000ED
:10487000A17805A8FFF767FA8DF804009DF81400E9
:1048800028B9217A05A8FFF75EFA8DF805009DF892
:10489000140008BB01208DF808002078012806D0FC
:1048A00002280AD003280FD0042811D10BE00020E1
:1048B000ADF80E00ADF810000DE00020ADF80A00D4
:1048C000ADF80C0007E006E000208DF8080002E0DB
:1048D000FC20059000BF00BF9DF8140048B9BDF84A
:1048E0001000ADF80000304601A90EC901F090FBA0
:1048F00005909DF9140006B0BDE8F08730B585B08D
:1049000005460C46002004906946284601F09DFBB0
:1049100004909DF8100018B19DF9100005B030BD4D
:104920009DF803006070BDF80610A180BDF8081066
:10493000E180BDF80A004102E160BDF80C004102CF
:1049400021619DF8001004A8FFF714FAA0709DF8EB
:10495000100028B99DF8011004A8FFF70BFA207287
:104960009DF80200012802D1002020701CE09DF873
:104970001000C8B99DF8040010B90320207013E09E
:10498000BDF8060028B9BDF8080010B90220207053
:104990000AE0BDF80A0028B9BDF80C0010B90120E2
:1049A000207001E0042020709DF91000B6E72DE989
:1049B000FC4106460F4600243546002000902CB9E5
:1049C0006A463021304604F084FB044624B99DF841
:1049D00000104FF4B870415524B93946304602F002
:1049E0001DFC04461CB9304604F0DAF8044634B91C
:1049F000022301AA8921304604F006FB044644B98B
:104A00009DF8041040F2CF1041559DF80510401C50
:104A1000415540F2CF10405D00F01F0140F2CF1031
:104A2000415524B91CB9304602F051FC044624B962
:104A30000021304602F0F2FB04462046BDE8FC812E
:104A40002DE9F04186B00746884600243D4605F52D
:104A500088761CB9384602F026FC044674B94FF437
:104A6000AF70405B7189B289CDE900210290338932
:104A700071783846726802F0D3FE044624B9317862
:104A80003846FFF794FF044634B9022304AAD9211B
:104A9000384604F0B9FA044644B99DF8101040F2C3
:104AA000AF2041559DF81110401C415534B90223E7
:104AB00004AA1421384604F093FA04463CB99DF840
:104AC0001010492041559DF811104A20415534B924
:104AD000062304AAAC21384604F096FA044634B9F9
:104AE000062304AA0D21384604F07AFA0446BCB91C
:104AF0009DF8100085F842009DF8111043204155A3
:104B00009DF81210442041559DF813104520415541
:104B10009DF81410462041559DF815104720415529
:104B20009CB940F2CF10405D0E2804D00F2805D06C
:104B3000102809D105E06FF01B0405E06FF01C049C
:104B400002E06FF01D0400BF00BF88F8004000BF06
:104B500000BF00BF00BF00BF00BF204606B0BDE8D9
:104B6000F0812DE9F74FAAB081468A4600274D46CD
:104B70000DF1200BB84600240020079000262020CD
:104B800006904FF4CA70405B059000BF01208DF87D
:104B9000A40004208DF8A50005208DF8A60000BF14
:104BA00000BF4FF4AA70405D8DF8100040F2551020
:104BB000405D8DF811004FF4AB70405D8DF8120030
:104BC000E878032804D1012140F23120415509E061
:104BD00000215620415358204153032140F23120F7
:104BE000415500BF00BF00215420415303214FF421
:104BF0000C704155A5F82CA200260EE0C6EBC601AC
:104C000005F50D7000EB8104002020702071A0607C
:104C1000E06020616061701CC6B2032EEEDB0026EE
:104C2000C3E0C6EBC60105F50D7000EB810429A8B1
:104C3000805D2070A7B964224FF4A67040594FF4EC
:104C4000A8714959CDE9010200914FF4A47043596C
:104C5000B5F8442129A8815D484600F0A8F9074627
:104C60004FF4CA71059848532FB905224846069952
:104C700000F091FE07460020079043E01FB9484628
:104C800003F06AFF07462FB95A460221484601F051
:104C900032F907460BF104089BF80200012822DDD7
:104CA00098F83E0009281ED12079401C2071B8F8E0
:104CB0001010A0680844A060B8F82C10E068084400
:104CC000E060B8F83810206908442061B8F93C1059
:104CD0006069084460614FF4C770405D60704FF4D4
:104CE000CA70405B60801FB9484603F0BCFE0746AF
:104CF00027B94846069901F052F907460798401C23
:104D0000C0B2079004A8805D801C07998842B5DA7C
:104D10001FB9484600F079FF07462FB94FF47A7162
:104D2000484604F01EFA0746207900283BDD20792A
:104D300000EBD071A26802EB6101A1602179A0684B
:104D4000B0FBF1F0A060207900EBD071E26802EBDB
:104D50006101E1602179E068B0FBF1F0E060207969
:104D600000EBD071226902EB610121612179206998
:104D7000B0FBF1F02061207900EBD071626902EBA9
:104D8000610161612179606990FBF1F06061C4F8B3
:104D900018A0D4E90510401AA0612078012802D19A
:104DA000208980B20590701CC6B240F23120405D6F
:104DB000B0423FF736AFE878032810D15620415B68
:104DC000B5F84C02084401B2562041535820415BCB
:104DD000B5F84C02084401B25820415320E0B5F820
:104DE000680201B256204153B5F8840201B258203E
:104DF0004153002154204153B5F85802A5F89400BE
:104E0000B5F8740281B296204153B5F85C0281B2C4
:104E100098204153B5F8780281B29A20415300BFDF
:104E200000BF2FB905F14201484603F019F80746C3
:104E300000262DE0C6EBC60105F50D7000EB8104E0
:104E400027BB40F22F204655207904A9895D88426E
:104E500001DA6FF01E072EB92069B0F5006F01D995
:104E60006FF01F07E068B0F5C85F01D96FF0200749
:104E70006088B0F5A06F01DA6FF02107608808B98B
:104E80006FF01807207908B96FF01707701CC6B2C9
:104E900040F23120405DB042CCDC40F22E2047553C
:104EA000415D2C98017000BF00BF00BF00BF00BF74
:104EB00000BF00BF00BF38462DB0BDE8F08F2DE920
:104EC000F0470746884691469A46089E00243D468C
:104ED0001CB9384602F0E7F9044664B985F8209118
:104EE000C5F824A14FF4AF70425B05F590713846C8
:104EF00002F0F5FC044624B941463846FFF757FD59
:104F0000044624B93146384602F039FD0446B8F16A
:104F1000060F03D1072086F8060202E00F2086F86C
:104F200006021CB9384602F0C8F904462046BDE81E
:104F3000F087000030B502460B46002011464FF4C2
:104F40002D74645A0CB96FF00E0038B94B614FF4F0
:104F50002D74645A5C434FF4D6756C5030BD2DE906
:104F6000FC4705460E46174698464FF000092C466A
:104F70004FF4AF70005B08B96FF00E09B9F1000F84
:104F800012D1A660E760C4F8108004F5CE7004F575
:104F9000C271CDE900104FF4AF70035B4246394651
:104FA000304602F057FA81464846BDE8FC872DE9B5
:104FB000FF4F87B00446894692464FF000082746C7
:104FC00007F5B27006902030059018300490183024
:104FD000039007F5E47507F1A40607F5397B87F818
:104FE00001901498F860159838611698786103213B
:104FF000204601F03FFFB9F1070F5AD008DCB9F1A4
:10500000070F74D2DFE809F09E19232D37414B00BA
:10501000B9F1240F77D009DCB9F1080F53D0B9F1F9
:10502000110F5AD0B9F1120F61D162E0B9F1250F19
:1050300074D0B9F1260FF7D17AE0CDE90056DDE959
:105040000332DDE9051001F022FB80467DE0CDE969
:105050000056DDE90332DDE9051001F0B5FB8046BD
:1050600073E0CDE90056DDE90332DDE9051001F01A
:10507000D5FB804669E0CDE90056DDE90332DDE984
:10508000051001F0F5FB80465FE0CDE90056DDE953
:105090000332DDE9051001F005FC804655E0CDE95D
:1050A0000056DDE90332DDE9051001F015FC80460C
:1050B0004BE0CDE90056DDE90332DDE9051001F0F2
:1050C00035FC804641E0CDE90056DDE90332DDE9FB
:1050D000051001F056FC804637E0CDE90056DDE9C9
:1050E0000332DDE9051001F0F7FC80462DE029E0F0
:1050F00009E0CDE90056DDE90332DDE9051001F0F4
:10510000C4FC804621E08DE86008DDE90332DDE97A
:10511000051001F07EFC804617E0FFE78DE860088F
:10512000DDE90332DDE9051001F055FC80460CE0B5
:105130008DE86008DDE90332DDE9051001F087FC48
:10514000804602E06FF0030800BF00BFB8F1000F17
:1051500004D10698A0F800A0A7F818A0B8F1000F95
:1051600006D12046DDE914230A99FFF7F8FE8046B0
:10517000B8F1000F04D120461699FFF7DBFE8046F8
:1051800040460BB0BDE8F08F30B502460020134614
:105190004FF4B074E45C04F0030404EB8104E5B262
:1051A0004FF4B074E55430BD2DE9FC4105460C4682
:1051B0004FF000082E46002001900090002796F83E
:1051C0002A0201AA694602F0F1FC9DF80400207051
:1051D0009DF80000607096F82B723811E07007F0AF
:1051E0000F00A0704046BDE8FC8170B50646002562
:1051F00034462DB904F5AC71304602F074FD054615
:105200002DB904F14201304602F041FE054665B970
:1052100004F5FD71304603F01CFB05462DB904F181
:10522000F00104F5FD7001F003FF35B904F52D72AE
:10523000DE21304603F05DFF05464FF4AF70005BA2
:10524000B0F5805F04DA4BF6CC414FF4AF700153F8
:105250002DB904F19E013046FFF7A6FF054694F8EC
:10526000A20070B9A320005D58B994F89E00000711
:10527000000E84F8A2009F20005D0007010EA3200D
:105280000155284670BDFEB505460F4600262C4642
:105290006221284601F0EEFD0020207001206070A0
:1052A0000020A0700120E07020714FF47A70A0609F
:1052B0004000E06043F2C8202061642060614FF448
:1052C00020602083002084F8210040F2DB70A4F8E5
:1052D0009C00284601F0C0FD002F04DD1EB92846C1
:1052E000FFF783FF064604F5887001F017F90646BC
:1052F00004F5907001F023F9064604F5967104F167
:10530000420001F02CF9064604F5A27001F05AF9AA
:10531000064604F1A40001F068F90646202128465B
:10532000FFF732FF064666B9D4E903126069CDE99A
:1053300000120290228B61782846A368FFF737FE9F
:105340000646284602F054FB3046FEBD70B50546C1
:1053500000242CB900221146284603F069FE0446B9
:1053600024B96421284603F0FCFE04462CB901222E
:105370000021284603F05CFE04461CB9284603F0D1
:1053800002FB0446204670BD2DE9F04107460D465C
:105390004FF000083C46F7492868884201D06FF07A
:1053A0000308B8F1000F3ED11822291D04F1420074
:1053B00004F0A9FBE969C4F89410296AC4F89810AC
:1053C00004F18000E98CA4F89C103A2205F1280130
:1053D000263804F098FB4C20005BC4F82C014E20CA
:1053E000015B4FF4987001535020015B4FF49970AA
:1053F00001534FF49E70005D38B900214C200153D9
:105400004E200153502001530DE0B4F93E11D4F861
:105410002C0101F0F8FF0646B6F5803F01D34FF6A8
:10542000FF764C2006534046BDE8F0812DE9F0415F
:1054300006460C4600273546CE482060182205F166
:105440004201201D04F05FFBD5F82C01B0F5803F30
:1054500003D34FF6FF71E18102E0B5F82C01E08142
:105460004FF49870415B2182801C415B6182D5F8CA
:105470009410E161D5F898002062B5F8A200A084EC
:10548000B5F89C00E0843A2205F15A0104F12800A5
:1054900004F039FB3846BDE8F08130B502460B46D2
:1054A000002011464FF42D74645A0CB96FF00E00B1
:1054B00040B94FF4D67465584FF42D74645AB5FB57
:1054C000F4F41C6030BD2DE9F05F05460E4617462A
:1054D00098464FF0000A2C46D346D1464FF4AF70A1
:1054E000005B08B96FF00E0ABAF1000F34D14FF427
:1054F000D172115D4FF4AF72105B01F0F8FE83467C
:1055000040F28B11085D594601F06AFF306094F853
:105510009C9140F29D10005D00EB09201FFA80F97C
:105520005946484601F086FF38604FF4D07010F8B5
:105530000490401C005D00EB09201FFA80F95946D9
:10554000484601F077FFC8F800003068A06038686E
:10555000E060D8F8000020615046BDE8F09F10B52B
:105560000246002013464FF4C474E15210BD10B53A
:105570000246002013464FF4C474E45A0C8010BD58
:105580002DE9F0410346144600201D460122C2F1D8
:10559000FF0704EA0206072916DC00290BDD4FF09D
:1055A000010C0CFA01FC0CF0FF0206FA01FC0CF0F5
:1055B000FF06C2F1FF0795F8C5C10CEA070C4CEADB
:1055C000060C85F8C5C101E06FF00300BDE8F0816D
:1055D00070B5034600201D46012407290FDC002971
:1055E00002DD01268E40F4B240F2C516765D2640FB
:1055F0001670002905DD16780E41167001E06FF077
:10560000030070BD30B50246002013464FF4B87455
:10561000E45C04F0EF0401F010052C434FF4B8757E
:10562000EC5430BD30B50246002013460C7883F8A8
:1056300010414D7840F21114E554E41C4D68E550DA
:105640000D89241DE5524D89A41CE5528D89A41CA9
:10565000E55230BD10B502460020134693F81041C4
:105660000C7040F21114E45C4C704FF48A74E458EE
:105670004C604FF48C74E45A0C814FF48D74E45AEE
:105680004C814FF48E74E45A8C8110BD30B50346C2
:1056900000201C464FF4A1752A53AD1E295530BD7C
:1056A00070B504460D46002021464FF4A076765C86
:1056B0002E704FF4BE76765A1E804FF4A176765A3D
:1056C000168070BD10B50246002013464FF4B87422
:1056D000E45C04F010040C7010BD2DE9F0410546A7
:1056E0000C4600272E462178607806F2C31201F09E
:1056F0002DFFE178A07806F5E27201F03EFF384612
:10570000BDE8F0812DE9F04105460C4600272E4604
:1057100040F2C311885D2246611C02F047FA4FF443
:10572000E271885DE21CA11C01F021FF3846BDE852
:10573000F0812DE9F04106460F46DDE906450020DF
:105740003146072F2FD006DC53D2DFE807F0521581
:10575000161718192B00242F38D006DC082F23D059
:10576000112F0ED0122F44D11FE0252F2FD0262F1E
:105770003FD12DE00201ABEC00BF00BF00BF00BF76
:1057800000BFB1F8CAC0A2F800C0D1F8D0C0C3F8B9
:1057900000C0D1F8D8C0C4F800C0D1F8E4C0C5F842
:1057A00000C029E000BF00BF00BFB1F8CCC0A2F824
:1057B00000C0D1F8D4C0C3F800C0D1F8DCC0C4F830
:1057C00000C0D1F8E8C0C5F800C015E000BF00BFB8
:1057D000B1F8CCC0A2F800C0D1F8D4C0C3F800C062
:1057E000D1F8E0C0C4F800C0D1F8ECC0C5F800C0E2
:1057F00002E06FF0030000BF00BFBDE8F0812DE9BB
:10580000F041054600262C46B4F93E11D4F82C018F
:1058100001F0F9FD0746B7F5803F01D34FF6FF775A
:105820004C2007538000015B4E2001534FF49970C8
:10583000015B5020015301214FF49E70015566B960
:1058400094F84031B4F93221B4F93011D4F82C0174
:1058500001F066FD4FF4A17108532EB904F1420125
:10586000284602F0FDFA06463046BDE8F0810246C1
:105870004FF49E739B5C0B70704710B5024600207E
:1058800013464FF49F74E45A0C8010BD10B50246C5
:10589000002013464FF49F74E15210BD10B501462D
:1058A00000200A464FF49A739B58C2F82C314FF4EB
:1058B0009C739C5A4FF498739C524FF49D739C5A5E
:1058C0004FF499739C5210BD70B5044600262546CE
:1058D00000214C2041534E204153502041534FF45E
:1058E0009E7041550EB9801D41532EB905F14201FC
:1058F000204602F0B5FA0646304670BD10B50246A5
:10590000002013464FF4D374E45A0C8010BD10B538
:105910000246002013464FF4D374E15210BD10B577
:105920000246002013464FF4D474E45A0C8010BD94
:1059300010B50246002013464FF4D474E15210BD56
:1059400030B50246002314464FF4B075285DC517E4
:1059500000EB9575AD100D70184630BD30B503469F
:1059600000201C4640F263152D5DED090D7040F2DC
:1059700063152D5D05F07F05157030BD70B50346CC
:1059800000201C4601F00106154666F3DF1540F2C3
:105990006316355570BD2DE9F74FCAB00546174659
:1059A00000262C4604F5AC70099004F142000890E2
:1059B00004F5B2700790203006901830059004F579
:1059C000DA7A04F5E47B04F12C0004900AA8039031
:1059D000002002908046814601904B98A0709BF871
:1059E000040000F00F004B9908438BF804004FF4BB
:1059F000A170015B4FF4BE70015340F2E620005DE0
:105A0000FF2803D1002140F2E620015540F2E520B5
:105A1000005D012820D140F2E620005DE0B94FF49E
:105A2000C370015D40F2E720015520214FF4C3709F
:105A3000015540F2C510005D00F0600030B95820FB
:105A4000005B800001B25420015302E00021542089
:105A50000153052F00DA052740F2E520005D0128FB
:105A60000BD140F2E620005D012806D140F2E7208C
:105A7000015D4FF4C37001550627072F17D2DFE8E9
:105A800007F01613100D0A0704004FF0010811E08B
:105A90004FF00D080EE04FF024080BE04FF04408E3
:105AA00008E04FF05A0805E04FF0710802E04FF0AF
:105AB000830800BF00BFC8F1880080B201900AA827
:105AC00003900020029009E00021039801700398E0
:105AD000401C03900298401C80B20290DDE9011046
