:020000040800F2
:10000000301D0020FD0B0008110500081305000835
:10001000170500081B0500081F0500080000000068
:1000200000000000000000000000000023050008A0
:10003000250500080000000033470008AD0900084E
:10004000170C0008170C0008170C0008170C000804
:10005000170C0008170C0008170C0008170C0008F4
:10006000170C0008170C0008170C0008170C0008E4
:10007000170C0008170C0008170C0008170C0008D4
:10008000170C0008170C0008170C0008170C0008C4
:10009000170C0008170C0008170C0008170C0008B4
:1000A000170C0008170C0008170C0008170C0008A4
:1000B000170C0008D7080008170C0008170C0008D8
:1000C000170C0008170C0008170C0008170C000884
:1000D000170C0008690B000833480008170C0008CB
:1000E000170C0008170C0008170C0008170C000864
:1000F000170C0008170C0008170C0008170C000854
:10010000170C0008170C0008170C0008170C000843
:10011000170C0008170C0008170C0008170C000833
:10012000170C0008170C0008170C0008170C000823
:1001300000F002F800F042F80AA090E8000C8244B7
:100140008344AAF10107DA4501D100F037F8AFF294
:10015000090EBAE80F0013F0010F18BFFB1A43F0A5
:10016000010318475055000070550000103A24BF95
:1001700078C878C1FAD8520724BF30C830C144BF0C
:1001800004680C607047000000230024002500264E
:10019000103A28BF78C1FBD8520728BF30C148BFEA
:1001A0000B607047642905F03580732905F0B7812D
:1001B000002070471FB51FBD10B510BD05F0CAF96E
:1001C0001146FFF7F7FF00F034F905F0E8F903B442
:1001D000FFF7F2FF03BC00F069FC00009EB00A24A8
:1001E00000BFA8480278A8A1684604F0A1FF322306
:1001F00000221146684604F082FB601CC4B242F241
:10020000107000F024FCECE700BFFF2003F031FF8A
:100210003F2802D1FF2003F099FE01209F4908608A
:100220000A2000F014FC00209D49C1F8A0014FF401
:10023000FA6000F00CFCE8E700240126002500BF6E
:10024000FF2003F016FF3F280ED10021954801F052
:10025000ABFF0021934801F0A9FF0021914801F074
:10026000A7FFFF2003F072FE16B1A01C84B201E0CC
:10027000A01E84B2642C00DD0026002C02DC0126C6
:10028000681CC5B2012D08D12146864801F08CFFBB
:100290002146844801F08AFF25E0022D08D121463D
:1002A000804801F081FF21467E4801F081FF1AE07D
:1002B000032D08D121467B4801F078FF214679487B
:1002C00001F076FF0FE0042D0CD12146754801F0B6
:1002D0006BFF2146734801F069FF2146714801F028
:1002E00067FF00E001250A2000F0B1FBA8E786B017
:1002F0000024142101A805F01EF800BF66A00078B4
:100300008DF8040001A804F04CFB67A101A805F0DA
:1003100039F820B9012061490C390860EEE765A180
:1003200001A805F02FF820B900205C490C390860BD
:10033000E4E762A101A805F025F818B90120624997
:100340000860DBE761A101A805F01CF818B90020DE
:100350005D490860D2E75FA101A805F013F880B9F4
:1003600004F0C0F9044608235C4A0021AFF23710BC
:1003700003F040FD092003F0BDFF204604F0B6F96C
:10038000BCE757A101A804F0FDFF18B9082003F04D
:1003900070FEB3E754A101A804F0F4FF38B90723B5
:1003A000534A0021AFF29F1003F024FDA6E751A1AC
:1003B00001A804F0E7FF0028A0D1072003F059FEB0
:1003C0009CE770B50546002404F01CFE04F08AF991
:1003D000044601234A4A0021AFF2ED0003F00AFD72
:1003E0000223484A0021AFF20B2003F003FD002056
:1003F0002A490C390860092003F07CFF204604F0EC
:1004000075F970BD70B50446002500BF02F07CFB95
:1004100004F068F9054609233B4A0021AFF25D006C
:1004200003F0E8FC0A2003F065FF284604F05EF9BB
:1004300070BD10B500F0C2FA00F032FB4FF4E130AD
:1004400000F043FB00F0DEF900F05EF900F000FA86
:10045000002140F2833000F049FA4FF4E13004F01B
:1004600033FA4FF4FA7000F0F2FA02F010FA0A23AD
:10047000264A0021AFF2730003F0BCFC02F02CFB13
:10048000002010BD44000020746869732073656EFD
:10049000642069732025642000000000A0812142AF
:1004A00000802142000400404C4544305F4F4646E6
:1004B000000000004C4544305F4F4E004C45443135
:1004C0005F4F464600000000940123424C454431F2
:1004D0005F4F4E005247425F4F4E000080060020A3
:1004E0005247425F4F464600424545505F4F4E00DF
:1004F00080070020424545505F4F464600000000FF
:10050000800400208005002080030020800100205E
:10051000704700BFFEE700BFFEE700BFFEE700BF79
:10052000FEE77047704700000CB500200190009076
:100530006C48006840F480306A49086000BF694830
:10054000006800F4003000900198401C0190009871
:1005500018B90198B0F5A06FF1D16248006800F4B5
:10056000003010B10120009001E0002000900098C0
:10057000012843D15C48006840F010005A490860E7
:100580000846006820F0030008600846006840F054
:100590000200086053484068524948600846406875
:1005A00048600846406840F48060486008464068FB
:1005B00020F47C1048600846406840F4E810486029
:1005C0000846006840F08070086000BF4548006839
:1005D00000F000700028F9D04248406820F0030085
:1005E000404948600846406840F00200486000BF4B
:1005F0003C48406800F00C000828F9D10CBD10B54B
:10060000FFF792FF10BD10B53648006840F00100BA
:100610003449086008464068344908403149486018
:1006200008460068324908402E49086008460068BC
:1006300020F4802008600846406820F4FE004860EE
:100640004FF41F008860FFF7DAFF4FF00060294980
:10065000086010BD10B5002100200022214B5B680E
:1006600003F00C0121B1042906D0082928D107E0A4
:10067000214B224C236027E01F4B204C236023E0BA
:10068000184B5B6803F47010164B5B6803F4803200
:10069000022303EB904022B9194B4343174C2360CC
:1006A0000DE0104B5B6803F4003323B1144B43435C
:1006B000124C236003E0104B4343104C236003E0D3
:1006C0000D4B0E4C236000BF00BF064B5B68C3F3AD
:1006D00003130C4CE15C094B1B68CB40074C2360B7
:1006E00010BD000000100240002002400000FFF892
:1006F000FFFFF6FE08ED00E000127A000000002087
:1007000000093D000400002008B50121442000F04C
:100710001FFE1C20ADF8000048208DF8030069463C
:10072000354800F059FB0120ADF8000028208DF875
:1007300003006946314800F04FFB08BD10B5044680
:1007400014B101202E4908702D480078002837D0B8
:100750001021294800F0D3FB78B10821264800F089
:10076000CEFB50B10421244800F0C9FB28B101217F
:10077000224800F0C4FB012822D10A2000F067F9CA
:1007800000201F49087010211B4800F0B8FB08B971
:10079000012010BD0821184800F0B1FB08B9022063
:1007A000F7E70421144800F0AAFB08B90320F0E79A
:1007B0000121124800F0A3FB01281BD10420E8E727
:1007C00010210D4800F09BFB012813D108210A4895
:1007D00000F095FB01280DD10421074800F08FFBA4
:1007E000012807D10121054800F089FB10B901203B
:1007F000034908700020CCE70018014000080140C0
:100800001400002008B50121482000F0A1FD20209F
:10081000ADF8000010208DF8030003208DF80200D1
:100820006946094800F0D8FA2021074800F081FB0A
:100830002020ADF800006946044800F0CDFA2021E0
:10084000024800F076FB08BD000C01400018014092
:1008500008B50121082000F07BFD4FF48070ADF851
:10086000000003208DF8020010208DF80300694677
:10087000014800F0B1FA08BD000C01407FB5054603
:100880000C460121022000F070FDADF80850ADF8D3
:1008900004400020ADF80A00ADF8060001A9404868
:1008A00000F08EFE012211463D4801F000FA1D20A5
:1008B0008DF8000000208DF8010003208DF8020063
:1008C00001208DF80300684600F0BDF9012134488D
:1008D00001F0D2F97FBD10B50121314801F095FC3E
:1008E00018B101212E4801F0A1FC10BD30B589B02E
:1008F00005460C460121022000F037FD01210D20A4
:1009000000F026FD0120ADF8200018208DF823000E
:1009100003208DF8220008A9224800F05DFAC020CB
:10092000ADF8200018208DF8230003208DF8220058
:1009300008A91D4800F050FAADF81850ADF8144061
:100940000020ADF81A00ADF8160005A9144800F013
:1009500037FE7020ADF804000120ADF8060000203D
:10096000ADF80C0001A90E4800F0A9FE01A90C4841
:1009700000F063FE01A90A4800F0EEFE08210848D5
:1009800001F0B3FA0821064801F0A6FA082104484C
:1009900001F0B8FA0121024801F06EF909B030BD4A
:1009A00000040040000C01400008014010B501F0B7
:1009B00084FF02F0C8F801F09BFF10BD10B56FF086
:1009C000040000F08AF9314800683149B0FBF1F0C9
:1009D000304908702D4800682D49B0FBF1F441F210
:1009E0008830444305202C4908804FF0E0200069FE
:1009F00040F002004FF0E0210861084644610069C0
:100A000040F00100086110BD70B5034600224FF0B0
:100A1000E02675691F4E367803FB06F400BF4FF0E1
:100A2000E026B16910E04FF0E026B06988420BD0B3
:100A3000884202D20E1A324402E02E1A0E44324488
:100A40000146A24200D300E0EDE700BF70BD70B5E3
:100A5000044612480078012811D10F4800888442CA
:100A600006DB0D48008894FBF0F5284603F00AFDEC
:100A70000948008894FBF0F100FB114084B24FF468
:100A80007A7104FB01F0FFF7BFFF70BD000000208A
:100A900000127A0016000020180000205E000020DE
:100AA00010B54FF4A06000F0C9F810BD014600BFBA
:100AB000704700BF4D4A128802F04002002AF9D068
:100AC000C2B24A4B1B1D1A80704710B586B004464F
:100AD000012144F2040000F03BFC444801F0AAFB71
:100AE0004FF40070ADF8140003208DF816001820A4
:100AF0008DF8170005A93E4800F06EF94FF48060AC
:100B0000ADF8140004208DF8170005A9384800F04E
:100B100063F925208DF8000003208DF801008DF881
:100B2000020001208DF80300684600F08CF8019463
:100B30000020ADF80800ADF80A00ADF80C00ADF8E3
:100B400010000C20ADF80E0001A9284801F0B5FBFB
:100B5000012240F22551254801F047FC012123489C
:100B600001F037FC06B010BD10B501F0A6FE40F252
:100B700025511E4801F01EFD10B31C4801F09AFCDF
:100B8000C4B21C48008800F40040C8B91948008865
:100B900000F4804060B10A2C03D000201549088081
:100BA00020E01448008840F400401249088019E011
:100BB0000D2C06D10F48008840F480400D49088074
:100BC00010E00C480088C0F30D000B490C54094894
:100BD0000088401C0749088008460088C72801DDB6
:100BE0000020088001F084FE10BD000000380140A4
:100BF00000080140200000208407002009488047A9
:100C000009480047FEE7FEE7FEE7FEE7FEE7FEE7EE
:100C1000FEE7FEE7FEE7FEE704480549054A064B06
:100C20007047000007060008310100083017002057
:100C3000301D0020301900203019002031490143B7
:100C4000314A1160704770B5002100230F22C4782B
:100C500004B32D4C246804F4E064C4F5E064210A74
:100C6000C1F10403CA40447804FA03F184781440C3
:100C700021430901254C0678A155047804F01F058D
:100C80000124AC4005786D11AD0005F1E025C5F8F3
:100C9000004109E0047804F01F050124AC401C4D1C
:100CA0000678761145F8264070BD1A4A0A4002437C
:100CB000154B1B1F1A60704739B1134A121D126879
:100CC0000243114B1B1D1A6006E00F4A121D1268E9
:100CD00082430D4B1B1D1A607047042808D14FF04A
:100CE000E021096941F004014FF0E022116107E0C1
:100CF0004FF0E021096921F004014FF0E022116179
:100D0000704700000000FA050CED00E000E400E090
:100D100080E100E080FFFF1F10B50446CC4884420C
:100D200008D10121042000F02DFB0021042000F057
:100D300029FB46E0C748844208D10121082000F081
:100D400021FB0021082000F01DFB3AE0C24884424C
:100D500008D10121102000F015FB0021102000F027
:100D600011FB2EE0BD48844208D10121202000F073
:100D700009FB0021202000F005FB22E0B848844256
:100D800008D10121402000F0FDFA0021402000F0B0
:100D9000F9FA16E0B348844208D10121802000F01E
:100DA000F1FA0021802000F0EDFA0AE0AE4884421A
:100DB00007D10121801500F0E5FA0021A01500F00F
:100DC000E1FA10BD10B50121084600F0DBFA002160
:100DD000012000F0D7FA10BD2DE9F04102460025B0
:100DE0000026002000230024002791F803C00CF007
:100DF0000F0591F803C00CF0100CBCF1000F03D0EC
:100E000091F802C04CEA050591F800C0BCF1000F52
:100E100031D0146800202BE04FF0010C0CFA00F3E5
:100E2000B1F800C00CEA03069E4220D183004FF0C7
:100E30000F0C0CFA03F7BC4305FA03FC4CEA04045C
:100E400091F803C0BCF1280F06D14FF0010C0CFA49
:100E500000FCC2F814C00AE091F803C0BCF1480FCE
:100E600005D14FF0010C0CFA00FCC2F810C0401C78
:100E70000828D1D31460B1F800C0BCF1FF0F34DDF5
:100E8000546800202EE000F1080C4FF0010808FA29
:100E90000CF3B1F800C00CEA03069E4221D1830096
:100EA0004FF00F0C0CFA03F7BC4305FA03FC4CEAB5
:100EB000040491F803C0BCF1280F05D100F1080C1F
:100EC00008FA0CF8C2F8148091F803C0BCF1480F7E
:100ED00007D100F1080C4FF0010808FA0CF8C2F82D
:100EE0001080401C0828CED35460BDE8F0814FF636
:100EF000FF710180022181700421C1707047024698
:100F0000002093680B400BB1012000E000207047E7
:100F10000146886880B2704702460020D3680B40C3
:100F20000BB1012000E0002070470146C86880B284
:100F3000704701617047416170470AB1016100E08B
:100F400041617047C16070474FF480320A4382614B
:100F50008161826182698269704702460020434B49
:100F600018684FF68073184040EA021008433F4B60
:100F7000186070473E49C8617047F0B50A460023C3
:100F800000240021002500F00046B6F1004F02D1F8
:100F9000364EF16901E0354E7168C0F3034583B206
:100FA00000F44016B6F5401F08D121F070612F4EB5
:100FB000766826F070662D4F7E6012E000F4801691
:100FC000B6F5801F06D1032606FA05F4A14341F0C9
:100FD000706106E0460D360103FA06F6B14341F0B2
:100FE000706122B1460D360103FA06F6314300F076
:100FF0000046B6F1004F02D11C4EF16101E01B4EDC
:101000007160F0BD30B500228B071C0F0F2303FA6F
:1010100004F2164B08338C1053F824309343134CCE
:1010200008348D1044F8253023468C1053F82430B2
:101030008C07240F00FA04F423430C4C08348D1061
:1010400044F8253030BD0A49DC31086070470000A3
:1010500000080140000C0140001001400014014054
:1010600000180140001C0140002001400000014028
:1010700000002042DF48006840F00100DD490860C0
:1010800008464068DC490840DA494860084600687C
:10109000DA490840D74908600846006820F48020F3
:1010A00008600846406820F4FE0048604FF41F00C6
:1010B00088607047CF49096821F48031CD4A1160BA
:1010C0001146096821F480211160B0F5803F03D0FA
:1010D000B0F5802F0ED106E0C649096841F4803191
:1010E000C44A116007E0C349096841F4A021C14A1C
:1010F000116000E000BF00BF704710B5014600223C
:10110000002300204A11012A02D1BA4C236806E0CC
:10111000022A02D1B74C236A01E0B64C636A01F09F
:101120001F02012494401C400CB1012000E000206B
:1011300010BD38B5002000900024002500BF3120EC
:10114000FFF7DBFF05460098401C00900098B0F5C3
:10115000A06F01D0002DF2D03120FFF7CEFF08B1F3
:10116000012400E00024204638BD01460020A14AA9
:10117000106820F0F80040EAC10010607047A049F4
:1011800008607047024600209A4B586820F47C1093
:1011900042EA01031843974B586070479849086624
:1011A000704701460020934A506820F0030008432E
:1011B000506070478F48406800F00C00704701464F
:1011C00000208C4A506820F0F000084350607047BF
:1011D00001460020874A506820F4E06008435060D0
:1011E000704701460020834A506820F4605040EA6E
:1011F000C1005060704729B17E4A527A02437D4B4C
:101200005A7204E07B4A527A82437A4B5A72704790
:101210007B49D8310860704701460020754A506804
:1012200020F440400843506070470021714A20324A
:101230001170704A82F82010012802D004280AD1C7
:1012400004E001216B4A2032117005E00521694A52
:101250002032117000E000BF00BF7047694908608C
:1012600070476449096A0143624A116270476549DF
:1012700044390860704730B5002100220024002363
:101280005C4D6D6805F00C0121B1042905D00829D9
:1012900023D105E05C4D056022E05B4D05601FE059
:1012A000544D6D6805F47012524D6D6805F480342C
:1012B000022505EB92421CB9544D554305600BE0E5
:1012C0004C4D6D6805F400351DB1504D554305601A
:1012D00002E04D4D5543056002E04B4D056000BFF7
:1012E00000BF444D6D6805F0F0010909484D6B5C85
:1012F0000568DD4045603F4D6D6805F4E061090A11
:10130000434D6B5C4568DD4085603A4D6D6805F482
:101310006051C90A3E4D6B5C4568DD40C560354D86
:101320006D6805F44041890B3A4D6B5CC568B5FBAF
:10133000F3F5056130BD29B12E4A526902432D4BA8
:101340005A6104E02B4A526982432A4B5A61704722
:1013500029B1284A92690243264B9A6104E0254A42
:1013600092698243234B9A61704729B1214AD2691D
:101370000243204BDA6104E01E4AD26982431D4BCE
:10138000DA61704729B11B4AD2680243194BDA600F
:1013900004E0184AD2688243164BDA60704729B1DC
:1013A000144A12690243134B1A6104E0114A12698C
:1013B0008243104B1A6170471249403908607047E8
:1013C0000F49C86470470B49C87170470948406AA3
:1013D00040F0807007494862704701460020054A86
:1013E00092680A400AB1012000E0002070470149DC
:1013F00088727047001002400000FFF8FFFFF6FE01
:10140000000042428004424200127A0000093D007E
:10141000220000203200002010B50446FE4884421D
:1014200008D10121C014FFF7ADFF0021E014FFF740
:10143000A9FFC4E0B4F1804F08D101210846FFF7AD
:10144000AEFF00210120FFF7AAFFB8E0F348844275
:1014500008D101210220FFF7A2FF00210220FFF79F
:101460009EFFACE0EE48844208D101210420FFF742
:1014700096FF00210420FFF792FFA0E0E948844294
:1014800008D101210820FFF78AFF00210820FFF77B
:1014900086FF94E0E448844208D101211020FFF740
:1014A0007EFF00211020FFF77AFF88E0DF488442AA
:1014B00008D101212020FFF772FF00212020FFF733
:1014C0006EFF7CE0DA48844208D101214014FFF726
:1014D00059FF00216014FFF755FF70E0D5488442A2
:1014E00009D10121C804FFF74DFF00214FF400206E
:1014F000FFF748FF63E0D048844209D10121080585
:10150000FFF740FF00214FF48010FFF73BFF56E04C
:10151000CA48844209D101214805FFF733FF002161
:101520004FF40010FFF72EFF49E0C548844208D170
:1015300001214020FFF733FF00214020FFF72FFF5C
:101540003DE0C048844208D101218020FFF727FFF9
:1015500000218020FFF723FF31E0BB48844208D1FF
:1015600001218015FFF71BFF0021A015FFF717FFD2
:1015700025E0B648844209D101210804FFF702FFA3
:1015800000214FF48030FFF7FDFE18E0B0488442A0
:1015900009D101214804FFF7F5FE00214FF4003086
:1015A000FFF7F0FE0BE0AB48844208D1012188042C
:1015B000FFF7E8FE00214FF48020FFF7E3FE10BDA7
:1015C00000220288944B98420ED0994B98420BD03F
:1015D000B0F1804F08D0914B984205D0904B984283
:1015E00002D0904B984204D14FF68F731A404B882B
:1015F0001A438D4B984207D08C4B984204D04FF63B
:10160000FF431A40CB881A4302808B8883850B885E
:101610000385814B98420BD0854B984208D08B4B69
:10162000984205D08A4B984202D08A4B984201D109
:101630000B7A038601238382704770B50024002251
:101640000023058C4FF6FE7635400584028C838896
:10165000048B4FF68F752C40B51E2C400D882C4303
:10166000751E2A400D892A434D882A436A4DA84297
:101670000BD06F4DA84208D0744DA84205D0744DD0
:10168000A84202D0734DA84213D14FF6F7752A40F5
:101690004D892A434FF6FB752A408D882A434FF621
:1016A000FF652B404FF6FF552B408D892B43CD898D
:1016B0002B4383800483CD888586028470BD70B5FA
:1016C000002400220023058C4FF6EF763540058478
:1016D000028C8388048B48F6FF752C404FF6FF453B
:1016E0002C400D884FF6FF7606EA05252C434FF671
:1016F000DF752A400D8906EA05152A434D8806EA5A
:1017000005152A43444DA84202D0494DA8421DD197
:101710004FF67F752A404D894FF6FF7606EA05158C
:101720002A434FF6BF752A408D8806EA05152A43DD
:101730004FF6FF352B404FF2FF752B408D8906EA9F
:1017400085052B43CD8906EA85052B4383800483D9
:10175000CD880587028470BD70B500240022002367
:10176000058C4FF6FF6635400584028C8388848B98
:101770004FF68F752C404FF6FC752C400D882C438E
:101780004FF6FF552A400D894FF6FF7606EA0525EC
:101790002A434D8806EA05252A431F4DA84202D058
:1017A000234DA8421DD14FF2FF752A404D894FF6B7
:1017B000FF7606EA05252A434FF6FF352A408D8835
:1017C00006EA05252A434EF6FF752B404DF6FF75B8
:1017D0002B408D8906EA05152B43CD8906EA0515B0
:1017E0002B4383808483CD888587028470BD70B548
:1017F000002200230024058C4EF6FF763540058438
:10180000038C8488828B48F6FF752A404FF6FF458B
:101810002A400D8820E00000002C01400004004018
:1018200000080040000C0040001000400014004080
:1018300000340140004C0140005001400054014080
:1018400000180040001C0040002000400040014003
:1018500000440140004801404FF6FF7606EA0525A6
:101860002A434DF6FF752B400D8906EA05352B43BB
:101870004D8806EA05352B43FA4DA84202D0FA4DB1
:10188000A84208D14BF6FF752C408D894FF6FF76A4
:1018900006EA85152C4384808283CD88A0F84050C9
:1018A000038470BD828B4FF2FF331A408283828B98
:1018B0004FF6FF7303EA01231A4382837047F0B5A2
:1018C0000C461546002200210026078C4EF6FF7CB0
:1018D00007EA0C070784828B018C4FF6FF7707EA33
:1018E000043640F6FF473A404FF6FF7707EA0527F0
:1018F0003A434FF6FF7707EA03373A43D94FB842E6
:101900000ED0D94FB8420BD0B0F1804F08D0D74F8E
:10191000B84205D0D64FB84202D0D64FB84206D111
:101920004DF6FF77394046F48057394305E047F6D6
:10193000FF57394044F48057394382830184F0BD16
:10194000828B4FF6F3731A408283828B0A43828321
:101950007047F0B50C461546002200210026078C82
:101960004FF6FF6C07EA0C070784828B018C4FF659
:10197000FF7707EA04264FF60C773A404FF6FF77D9
:1019800007EA03172F433A43B64FB8420ED0B64F7B
:10199000B8420BD0B0F1804F08D0B44FB84205D058
:1019A000B34FB84202D0B34FB84206D14FF6FF57FB
:1019B000394046F48077394305E04FF2FF5739400C
:1019C00044F48077394382830184F0BD028B4FF267
:1019D000FF331A400283028B4FF6FF7303EA0123A1
:1019E0001A4302837047F0B50C46154600220021C9
:1019F0000026078C4FF6EF7C07EA0C070784028B62
:101A0000018C4FF6FF7707EA041640F6FF473A408D
:101A10004FF6FF7707EA03373A434FF6FF7707EAB7
:101A200005273A438F4FB8420ED08F4FB8420BD0A4
:101A3000B0F1804F08D08D4FB84205D08C4FB842DE
:101A400002D08C4FB84206D14FF6DF77394046F0CE
:101A50001007394305E04FF65F77394044F010072F
:101A6000394302830184F0BD028B4FF6F3731A40B1
:101A70000283028B0A4302837047F0B50C46154679
:101A800000220021068C4FF6FE773E400684028B32
:101A9000018C4FF60C7632407E1C06EA03162E436C
:101AA0003243704EB0420ED06F4EB0420BD0B0F108
:101AB000804F08D06D4EB04205D06D4EB04202D07E
:101AC0006C4EB04206D14FF6FD76314044F001062F
:101AD000314305E04FF6F576314044F001063143DD
:101AE00002830184F0BD70B505460C465D48854211
:101AF0000ED05D4885420BD0B5F1804F08D05B48D1
:101B0000854205D05A48854202D05A48854200D1C4
:101B100000E000BF208850B92389A2886188284648
:101B2000FFF7ABFFE1882846FFF79EFF25E02088FE
:101B300004280AD12389A28861882846FFF753FF29
:101B4000E1882846FFF742FF17E0208808280AD1DD
:101B50002389A28861882846FFF7FBFEE188284692
:101B6000FFF7EEFE09E02389A28861882846FFF787
:101B7000A6FEE1882846FFF795FE70BD2DE9F041ED
:101B800005460C4600260127608808B9022600E0B9
:101B90000026A088012801D1022700E00127208823
:101BA000A0B92389A28861882846FFF766FFE188EB
:101BB0002846FFF759FF23893A4631462846FFF762
:101BC00012FFE1882846FFF701FF13E02389A2886E
:101BD00061882846FFF707FFE1882846FFF7F6FEF1
:101BE00023893A4631462846FFF747FFE1882846D1
:101BF000FFF73AFFBDE8F0810A884B881A438B88CB
:101C00001A43CB881A430B891A434B891A438B8991
:101C10001A43A0F8442070474FF6FF7181800021DD
:101C20000180C180418001727047002101804180A4
:101C30008180C180018141818181C1817047002102
:101C400001804180012181800021C1800181704794
:101C50000021018041808180C18001814181818199
:101C600070470000002C0140003401400004004097
:101C700000080040000C004021B1028842F001023F
:101C8000028004E002884FF6FE731A40028070471B
:101C900031B1B0F8442042F40042A0F8442005E0FD
:101CA000B0F84420C2F30E02A0F8442070471AB1E5
:101CB00083890B43838102E083898B43838170474F
:101CC0008182704741EA0203A0F8483070471AB198
:101CD00083890B43838102E083898B43838170472F
:101CE00001894FF6F8721140018170470A460021C0
:101CF00001894FF68F73194011430181704730B548
:101D000004460D4629462046FFF7F0FF208940F0A3
:101D10000700208130BD2DE9F04104460D461646EE
:101D20001F46602D06D13B46012231462046FFF773
:101D30005AFE05E03B46012231462046FFF79DFE54
:101D400029462046FFF7D2FF208940F00700208176
:101D5000BDE8F08130B50C4600210189C9B24FF6CB
:101D6000FF7505EA0325154325432943018130BD4D
:101D70002DE9F04105460E46174698460024434695
:101D80003A4631462846FFF7E5FF2C894FF6F870B2
:101D9000044044F007044FF68F70044044F0700490
:101DA0002C81BDE8F081F0B504460D4616461F466D
:101DB0003B46324629462046FFF7CCFF208940F4B7
:101DC00080402081F0BD0185828270470A46002153
:101DD00001884FF68F731940114301807047F0B5A9
:101DE0000C4615461E460021002200230189028B65
:101DF000038C4FF6F877394021434FF6FC473A40C1
:101E000040F201173A434FF6DD773B404FF6FF773C
:101E100007EA06172F433B43018102830384F0BD89
:101E20000A460021018B4FF68F731940114301833D
:101E300070470A460021018B48F6FF7319404FF6A0
:101E4000FF7303EA02231943018370470A46002106
:101E5000818B4FF68F7319401143818370470A4677
:101E60000021818B48F6FF7319404FF6FF7303EA98
:101E7000022319438183704721B1028842F0800216
:101E8000028004E002884FF67F731A400280704798
:101E900021B1828842F00402828004E082884FF6F9
:101EA000FB731A408280704721B1828842F0080299
:101EB000828004E082884FF6F7731A408280704770
:101EC00021B1828842F00102828004E082884FF6CC
:101ED000FE731A40828070470A460021018B4FF63C
:101EE000F77319401143018370470A460021018BA3
:101EF0004FF2FF7319404FF6FF7303EA02231943B1
:101F0000018370470A460021818B4FF6F773194011
:101F10001143818370470A460021818B4FF2FF7382
:101F200019404FF6FF7303EA022319438183704778
:101F30000A460021018B4FF6FB73194011430183C0
:101F400070470A460021018B4FF6FF3319404FF6C8
:101F5000FF7303EA02231943018370470A460021F5
:101F6000818B4FF6FB7319401143818370470A46FA
:101F70000021818B4FF6FF3319404FF6FF7303EAC0
:101F800002231943818370470A460021018B4FF6D3
:101F90007F7319401143018370470A460021018B6A
:101FA000C1F30E014FF6FF7303EA022319430183C5
:101FB00070470A460021818B4FF67F731940114309
:101FC000818370470A460021818BC1F30E014FF6D1
:101FD000FF7303EA02231943818370470A460021F5
:101FE000018C4FF6FD7319401143018470470A4676
:101FF0000021018C4FF6F77319401143018470479B
:102000000A460021018C4FF6DF7319404FF6FF732B
:1020100003EA02131943018470470A460021018C28
:102020004FF67F7319404FF6FF7303EA021319430B
:10203000018470470A460021018C4FF6FF53194076
:102040004FF6FF7303EA02231943018470470A46DF
:102050000021018C4FF2FF7319404FF6FF7303EA22
:1020600002231943018470470A460021018C4DF672
:10207000FF7319404FF6FF7303EA023319430184DB
:10208000704730B5002301248C40A3B2048C9C43DC
:102090000484048C02FA01F5ADB22C43048430BDF3
:1020A00030B5002304248C40A3B2048C9C430484E8
:1020B000048C02FA01F5ADB22C43048430BD70B536
:1020C0000346002000241846183001258D40ACB28C
:1020D0001D8CA5431D8409B1082909D100EB6100BD
:1020E000056825F0700505600568154305600EE07C
:1020F0000D1FC5F34E052844056825F4E04505602D
:1021000005684FF6FF7606EA02263543056070BD86
:1021100021B1028842F00202028004E002884FF6F8
:10212000FD731A400280704721B1028842F0040218
:10213000028004E002884FF6FB731A400280704769
:1021400021B1828842F08002828004E082884FF6CA
:102150007F731A408280704702884FF6F7731A40E7
:10216000028002880A430280704782884FF68F738C
:102170001A40828082880A438280704702894FF623
:10218000F8731A40028102890A430281704702896A
:102190004FF67F731A40028102890A430281704719
:1021A00081847047818570478186704701877047B9
:1021B00081877047A0F84010704702884FF6FF43B0
:1021C0001A40028002880A43028070470146888EC6
:1021D00070470146088F70470146888F7047014657
:1021E000B1F8400070470146888C70470146088D61
:1021F000704702460020138A0B400BB1012000E01B
:1022000000207047CA430282704730B50246002062
:1022100000230024158A05EA0103958905EA0104D3
:1022200013B10CB1012000E0002030BDCA4302828E
:102230007047000010B50446FB48844209D10121D3
:102240008803FFF79FF800214FF48040FFF79AF8CA
:1022500032E0F648844209D101214804FFF79FF893
:1022600000214FF40030FFF79AF825E0F04884424F
:1022700009D101218804FFF792F800214FF4802052
:10228000FFF78DF818E0EB48844209D10121C8041A
:10229000FFF785F800214FF40020FFF780F80BE0EE
:1022A000E548844208D101210805FFF778F80021AC
:1022B0004FF48010FFF773F810BD2DE9F04786B09A
:1022C00005460E460024A24600BFA1460027B0895D
:1022D00000B100BF2F462C8A4CF6FF700440F088F6
:1022E00004432C82AC894EF6F3100440B088318947
:1022F0000843718908430443AC81AC8A4FF6FF4020
:102300000440B0890443AC8201A8FEF7B4FFC6487C
:10231000874202D1DDF810A001E0DDF80CA0A88909
:1023200000F4004040B10AEBCA0000EB0A1031682B
:102330004900B0FBF1F807E00AEBCA0000EB0A1015
:1023400031688900B0FBF1F86420B8FBF0F00401BB
:102350002009642101FB1089A88900F4004040B1E4
:10236000322000EBC900B0FBF1F000F0070004439D
:1023700008E0322000EB09106421B0FBF1F000F01E
:102380000F0004432C8106B0BDE8F0874FF41651CE
:10239000016000218180C18001810C2141810021E7
:1023A0008181704710B502460020108A4FF2FF036A
:1023B00018400B884C8823438C882343CC882343C4
:1023C0001843108210BD0021018041808180C180AE
:1023D000704721B1828942F40052828104E08289EF
:1023E0004DF6FF731A4082817047F0B50346002412
:1023F00000260025002040F66A17B94200D100BF30
:102400001846C1F3421401F01F06012707FA06F52A
:10241000012C01D10C3004E0022C01D1103000E07D
:1024200014301AB107682F43076002E00768AF4312
:102430000760F0BD1AB1838A0B43838202E0838A6E
:102440008B4383827047028A4FF6F0731A400282F0
:10245000028A0A430282704782894FF2FF731A4050
:10246000828182890A438281704721B1828942F048
:102470000202828104E082894FF6FD731A40828154
:102480007047028A4FF6DF731A400282028A0A43BB
:102490000282704721B1028A42F48042028204E043
:1024A000028A4BF6FF731A4002827047C1F308029A
:1024B0008280704701468888C0F308007047818990
:1024C00041F0010181817047028BD2B20283028BFD
:1024D00042EA012202837047028B02F47F420283A8
:1024E000028B0A430283704721B1828A42F02002A4
:1024F000828204E0828A4FF6DF731A40828270473C
:1025000021B1828A42F01002828204E0828A4FF670
:10251000EF731A408282704721B1828A42F008022A
:10252000828204E0828A4FF6F7731A4082827047F3
:1025300021B1828942F40042828103E08289C2F3A0
:102540000E028281704721B1828A42F40062828247
:1025500004E0828A4FF2FF731A4082827047828AB7
:102560004FF6FB731A408282828A0A438282704746
:1025700021B1828A42F00202828204E0828A4FF60E
:10258000FD731A408282704702460020B1F5007F39
:1025900000D100BF13880B400BB1012000E00020E8
:1025A000704701F40072B2F5007F00D100BFCA434A
:1025B0000280704770B502460024002300250020E9
:1025C00040F66A16B14200D100BFC1F3421501F0D6
:1025D0001F03012606FA03F3012D02D19689334029
:1025E00006E0022D02D1168A334001E0968A33407C
:1025F0000C12012606FA04F41688344013B10CB10B
:10260000012000E0002070BD10B50022002340F63C
:102610006A14A14200D100BF0A1201249440A3B25F
:10262000DC43048010BD000000380140004400403D
:1026300000480040004C0040005000407CB50025A0
:1026400014E06946284601F013FE064666B9F748CD
:1026500050F8254044B1012C06D0D4E9020100EB2A
:10266000810060640198A064681CC5B23F2DE8D960
:102670007CBD002400BF02E0282001F003FFEC48ED
:1026800000780028F8D0EB4800686421B0FBF1F036
:10269000E84908600846006828B90020E649087043
:1026A000FF2001F027FE00BF02F01CF80446E348BB
:1026B0000068E34908600020E0490860204602F015
:1026C00015F8DF480068DB490968B0FBF1F0C0F19C
:1026D0006400D949087001F0B2FFFFF7AFFF142082
:1026E00001F0D0FEE0E700B587B003200021802292
:1026F000D44BCDE90132CDE903104FF6FE703E23F5
:10270000D14A0090AFF2950001F0CBFB06AACFA111
:102710003E2001F02FFD07B000BD002400BF00BF28
:1027200001F0E0FF0446C5480068401CC34908604A
:10273000204601F0DBFF01F081FFF1E700B587B033
:10274000032000218022C54BCDE90132CDE90310E1
:102750004FF6FF703F23C24A0090AFF2410001F0F4
:10276000A0FB06AABFA13F2001F004FD07B000BDF9
:1027700004E0002200F8012B4A1E91B20029F8D192
:10278000704770B5C821BB48FFF7F2FF00230FE088
:10279000581C85B203EB8300B64901EB800405EBBE
:1027A000850001EB8006002020706660581C83B213
:1027B000092BEDD303EB8300AE4901EB800400202D
:1027C000207060600846AC49086070BD70B54FF479
:1027D0007C71AA48FFF7CCFF4FF480719348FFF754
:1027E000C7FF002413E0601CC5B2C4EBC40000EBBB
:1027F0004000A24901EB8003C5EBC50000EB40009F
:1028000001EB80065E619EA0D864601CC4B20B2CF4
:10281000E9D3C4EBC40000EB4000984901EB80030E
:102820000020586196A0D86400209649086093481B
:102830009549086070BD0021944A1170002004E0A1
:102840000021934A1154411CC8B20828F8D3002132
:10285000904A1170904A1170904A1160904A11602C
:10286000704700208F4908608F4908708F490870B1
:102870008F4908708F4908708F4908606F49086058
:102880006F4908606B49086069490870704710B566
:1028900001F0D0FEFFF7E5FFFFF7CDFFFFF796FF52
:1028A000FFF76FFF00F0EAFE01F0E1F9FFF746FFE6
:1028B000FFF719FF01F0BFFE10BD7E480078012828
:1028C00008D179480078FF2804D277480078401C66
:1028D00075490870704779496C4A1278885C6C4970
:1028E000095C764A515C01EBC0016B4A117070477C
:1028F00010B500246F480078012830D101F0F2FEB5
:1029000004466948007820B167480078401E66494F
:10291000087065480078F8B964480078E0B9FFF7B6
:10292000DAFF42485C49097850F821005B490860A9
:10293000594800785749097888420DD057480068AF
:10294000806B401C5549096888635B480068401CDF
:102950005949086001F0E5FE204601F0C7FE10BDB0
:1029600010B5002453480078012811D101F0BAFEB7
:1029700004464D48007840B94C480078FF2804D2FE
:102980004A480078401C49490870204601F0AEFED4
:1029900010BD10B5002401F0A5FE044642480078A1
:1029A000F8B942480078E0B9FFF795FF1F483A4967
:1029B000097850F8210039490860374800783549CE
:1029C000097888420DD035480068806B401C334937
:1029D0000968886338480068401C3749086001F07E
:1029E00099FE204601F082FE10BD10B5002431484A
:1029F000007801286FD101F075FE04462B4800785D
:102A000080B12A480078401E28490870084600789E
:102A100048B92548007838B9204601F067FEFFF72D
:102A2000B8FF58E054E04FE04AE00000640D002099
:102A300050000020480000204400002060000020DA
:102A40004C00002064090020600B002075432F4FCC
:102A5000532D49492053746174000000640B002019
:102A6000600D002075432F4F532D49492049646C58
:102A7000650000004C0800203C000020640E00208F
:102A80003F0000007000002068000020550000207A
:102A90005600002053000020540000206C0000204D
:102AA000640000207C000020510000205200002023
:102AB0005F0000205E00002038000020B4550008B0
:102AC000204601F013FE06E0204601F00FFE02E072
:102AD000204601F00BFE10BD10B5EB48007890B910
:102AE000FFF7F9FEE9480078E9490870E948E74945
:102AF000097850F82100E849086008460068E7496D
:102B0000086001F0F6FD10BD10B50024022001F0B0
:102B1000B9FC01F0E7FD04460020E14908602046C9
:102B200001F0E4FD142001F0ADFC01F0DBFD0446F2
:102B3000DB480068DB4908600120DB49087020465B
:102B400001F0D4FD10BD70B5002601F0C8FD01F004
:102B5000C9FD0646D5480068401CD4490860304687
:102B600001F0C4FDC8480078012853D1D04800784E
:102B700020B1012804D0022809D103E001250BE08F
:102B8000002509E001250120C949087004E001255C
:102B90000020C749087000BF00BF05B970BDC54817
:102BA000046833E001F09EFD0646E06A50B3E06A37
:102BB000401EE062E06A28BB94F8300000F0370065
:102BC00040B114F8300F00F0C80020700120607090
:102BD000303C02E0002084F8310094F8300000F02E
:102BE000080078B93434A078B34909780843B24969
:102BF00008702078B149085C6178084314F83419EA
:102C0000AE4A50546469304601F070FD94F83200C9
:102C10003F28C7D100BFC1E740F22310704770477B
:102C200010B590F8342001F10B039B5C90F835400F
:102C3000A34301F10B04A35423469B5C23B98B7A75
:102C400090F83640A3438B7210BD2DE9F04F054636
:102C50000F4690469946A87A99490E5C05F10B00FB
:102C6000805D11F800B00BEBC60000F0FF0A894848
:102C700050F82A4000202034E0602760207C20EAC1
:102C80000800207484F81190207C203C00F008009B
:102C900068B994F83600884909780843864908706D
:102CA0008648805D94F83510084384498855294644
:102CB0002046FFF7B5FF5046BDE8F08F10B5774AC4
:102CC0001268D061754A126892F8343000F10B0234
:102CD000D25C724B1B6893F835301A436F4B1B68FC
:102CE00093F8344000F10B031A55827A6B4B1B6842
:102CF00093F836301A438272684A126892F8341098
:102D00006E4A525C654B1B6893F835309A436B4BA7
:102D10005A541A46525C42B9604A126892F83630E8
:102D2000654A12789A43644B1A7010BD014600221E
:102D30008A72002005E0002301F10B021354421CAB
:102D4000D0B20828F7D3704705E011F8013B00F82E
:102D5000013B531E9AB2002AF7D17047014600206A
:102D600002E0491C421CD0B20A78002AF9D170470F
:102D70002DE9F84F05460F4690469946DDE90AAB26
:102D80000020009001F0AEFC00904E480468002C3A
:102D900075D0183454F8040C4A490860009801F0C2
:102DA000A5FC44F8187CA57600202076607660614A
:102DB00044F814BC44F80CAC44F8108C0C9824F87B
:102DC000080C24F8069C0020E077E810207705F036
:102DD0000700E076217F01208840A077E17E012076
:102DE0008840607700206060E060A0602062A062A0
:102DF0006062E0622063AFF278306063183C0026C6
:102E000006E0002104F1500040F82610701CC6B204
:102E1000002EF6D0204601F061FC204601F00CFCAB
:102E200001F060FC00901B4840F8254021480068F4
:102E300060610020A0611F48006810B11D48006853
:102E400084611C4804603434A0781B490978084325
:102E50001949087020781949085C6178084314F80A
:102E60003419164A505418480078401C1649087006
:102E7000009801F03BFC0020BDE8F88FFFE70098C8
:102E800001F034FC4220F7E75E00002054000020EF
:102E900053000020640D00206C000020640000201E
:102EA0006000002048000020500000207C0000202E
:102EB0007400002070000020550000205600002003
:102EC000B4550008680000205F0000202DE9F05F85
:102ED00004460F4691461E464FF0000B2078052809
:102EE00004D0012030700020BDE8F09F09F0800A76
:102EF000BAF1000F04D029F080094FF0010801E079
:102F00004FF000080020307001F0ECFB8346B9F16F
:102F1000000F2CD0B9F1010F3BD0B9F1020F03D053
:102F2000B9F1030F46D111E0208900EA0705BD423F
:102F300006D1B8F1010F05D12089A843208101E015
:102F400070203070584601F0D1FB3AE0208900EA49
:102F5000070535B1B8F1010F05D12089A8432081BB
:102F600001E070203070584601F0C0FB29E0208954
:102F700027EA0005BD4206D1B8F1010F05D120892D
:102F80002843208101E070203070584601F0AEFBEC
:102F900017E0208927EA000535B1B8F1010F05D106
:102FA00020892843208101E070203070584601F0CC
:102FB0009DFB06E0584601F099FB00256F2030701C
:102FC00000BF00BF28468FE72DE9F04106460D46B9
:102FD0000027FA48007820B1102028700020BDE8B2
:102FE000F08101F07FFB0746F548046884B1006872
:102FF0004068F34908600520207026810020606049
:10300000F0A0E060384601F071FB0020287004E079
:10301000384601F06BFB722028702046DFE730B5A0
:1030200001464A6808682AB9CC68606028B1002562
:10303000456002E0106000B142608B6800255D626F
:1030400030BDF0B506460F46B468002028346060F5
:103050002780207A00F0DF00207200206072207A42
:10306000283C88B93434A078D74909780843D64930
:1030700008702078D549085C6178084314F8341941
:10308000D24A5054012500E000253046FFF7C7FF23
:103090002846F0BD2DE9F0470446894615464FF015
:1030A000000AC648007820B10F2028702046BDE8ED
:1030B000F0872078052803D0012028702046F6E705
:1030C00001F010FB8246606808B1012700E000278C
:1030D000B9F1000F03D0B9F1010F3CD119E08FB95C
:1030E000B8A0E06000202070B54800686060002053
:1030F0002081B3480460504601F0F8FA002028709F
:10310000002605E0504601F0F1FA492028702646D5
:1031100028E0D4F8048005E000214046FFF791FF45
:10312000D8F80080B8F1000FF6D1A6A0E06000202A
:103130002070A3480068606000202081A0480460DF
:10314000504601F0D3FA012F01D1FFF722FC0020F5
:103150002870002606E0504601F0C8FA07202870C3
:10316000264600BF00BF3046A1E72DE9F0410546E5
:103170000E46144600279148007820B11120207097
:103180000020BDE8F08101F0ADFA07462878052857
:1031900006D0384601F0AAFA012020700020F0E79E
:1031A000E86830603068FFF7D9FD8046384601F0A6
:1031B0009DFA002020704046E3E72DE9F0410546E6
:1031C0000E46144600277D48007818B11220207062
:1031D000BDE8F08101F086FA07462878052805D079
:1031E000384601F083FA01202070F1E7EE6038469E
:1031F00001F07CFA0020207000BFE9E7F0B514462A
:10320000059E734F3F6897F8307047F02007DFF84E
:10321000C0C1DCF800C08CF830700027DFF8B0C106
:10322000DCF800C08CF83170694F3F68FE62684F6F
:103230003F6879620C828B74654F3F688F60476886
:103240000F6000274F60C860456805B16960416044
:103250005F4F3F6897F834205C4FBF5CDFF870C168
:10326000DCF800C09CF835C027EA0C07DFF85CC129
:103270000CF802706746BF5C5FB9554F3F6897F81E
:1032800036C0514F3F7827EA0C07DFF83CC18CF875
:103290000070F0BD2DE9F04F89B005460F4691460C
:1032A0009A46129E002002904448007828B10220DD
:1032B0003070002009B0BDE8F08F4648007818B1A2
:1032C0000D2030700020F5E72878052803D0012074
:1032D00030700020EEE709F0800BBBF1000F04D046
:1032E00009F07F094FF0010801E04FF0000801F0FC
:1032F000F9F90290B9F1000F4AD0B9F1010F78D075
:10330000B9F1020F03D0B9F1030F71D120E0288980
:1033100000EA0704BC420FD1B8F1010F02D128899D
:10332000A04328812A4800680485029801F0DEF94C
:10333000002030702046BDE74B463A4604A9284697
:10334000CDF800A0FFF75AFF029801F0CFF978E01E
:10335000288900EA07047CB1B8F1010F02D128895D
:10336000A04328811A4800680485029801F0BEF93C
:103370000020307020469DE74B463A4604A9284677
:10338000CDF800A0FFF73AFF029801F0AFF958E03E
:10339000288927EA0004BC421ED1B8F1010F02D1EE
:1033A0002889204328810A4800680485029801F092
:1033B0009DF90020307020467CE71AE05100002083
:1033C000400000203F000000550000205600002073
:1033D00064000020520000204B463A4604A92846CB
:1033E000CDF800A0FFF70AFF029801F07FF928E06E
:1033F0001FE0288927EA00047CB1B8F1010F02D14F
:10340000288920432881B14800680485029801F08A
:103410006DF90020307020464CE74B463A4604A92F
:103420002846CDF800A0FFF7E9FE029801F05EF90A
:1034300007E0029801F05AF900246F20307020460E
:1034400038E700BFFFF7A5FA01F04CF902909F485A
:10345000006890F8310020B39C48006890F8310073
:10346000039000209949096881F8310004A8FFF70A
:10347000D6FD00209549096881F83000029801F0D6
:1034800035F900240398012805D0022802D10E2026
:10349000307003E000BF0A20307000BF00BF20463C
:1034A00008E78A480068048DB8F1010F1ED1B9F110
:1034B000000F0ED0B9F1010F0CD0B9F1020F03D0FB
:1034C000B9F1030F0AD100E000BF2889A043288189
:1034D0000BE000BF28892043288106E0029801F014
:1034E00005F96F2030700020E4E600BF029801F07B
:1034F000FDF8002030702046DCE670B5002501F0B4
:10350000F1F8054671480068048D284601F0EEF890
:10351000204670BD2DE9FC5F0446894692461E4652
:10352000002000902078052804D001203070002071
:10353000BDE8FC9F01F0D6F80090BAF1000F03D06F
:10354000BAF1010F0AD104E0208920EA09002081A4
:103550000BE0208940EA0900208106E0009801F094
:10356000C5F8712030700020E2E700BF4FF0000B7B
:10357000656855E0A87C40B3012838D0022802D005
:10358000032844D111E02089298A00EA0107288A0A
:10359000B84209D139462846FFF753FD8046B8F1B5
:1035A000010F01D14FF0010B38E02089298A00EA90
:1035B00001074FB139462846FFF743FD8046B8F171
:1035C000010F01D14FF0010B28E0288A218920EA60
:1035D0000107288AB84209D139462846FFF731FD4C
:1035E0008046B8F1010F01D14FF0010B16E0288A97
:1035F000218920EA01074FB139462846FFF721FD0E
:103600008046B8F1010F01D14FF0010B06E00098A0
:1036100001F06CF86F203070002089E700BF2D6842
:10362000002DA7D1009801F061F8BBF1010F01D185
:10363000FFF7AFF901F056F800902089019000984B
:1036400001F054F800203070019871E72DE9F04145
:1036500004460D4600272078052804D00120287054
:103660000020BDE8F08101F03DF807462689384684
:1036700001F03CF8002028703046F2E72DE9F041D7
:1036800050211348FFF774F800250EE0681C86B23D
:103690000F4800EB051400EB061700202070676050
:1036A000AFF2E020E060681C85B2042DEED308483C
:1036B00000EB0514002020706060AFF2F820E0609D
:1036C000034804490860BDE8F08100006400002060
:1036D00014090020400000202DE9F04106460D4667
:1036E0004FF000083078022804D001202870002014
:1036F000BDE8F08100F0F6FF80467468E08A78B19A
:103700002169081D20610F68E08A401EE082A168DF
:103710002069884201D1606820610020287002E0A1
:103720001F2028700027404600F0E0FF3846DFE702
:103730002DE9F04106460F464FF00008F7480078A3
:1037400010B10020BDE8F08100F0CCFF8046F448C5
:103750000568006820B1F24800684068F0490860D8
:10376000404600F0C3FF3DB300F0BCFF8046ED488B
:103770000468C4B100680068EA490860404600F087
:10378000B5FF666006EB8700A060E6602661A78251
:103790000020E08202202870002028816C602846EA
:1037A000FFF7C4FA08E0DE4800686860DC4805609E
:1037B000404600F09BFF00252846C3E72DE9F0476F
:1037C0000446894615464FF0000A2078022804D0A6
:1037D000012028702046BDE8F087D048007818B155
:1037E0000F2028702046F6E700F07CFF8246A07A82
:1037F00010B14FF0010801E04FF00008B9F1000FDF
:1038000003D0B9F1010F45D11FE0B8F1000F15D178
:103810006668C44800683060C248066000202070B6
:10382000BF480068606000202081BD4804605046A9
:1038300000F05CFF00202870002705E0504600F0F3
:1038400055FF4920287027462BE005E0002304227D
:1038500019462046FFF7F9F9A07A0028F6D16668E4
:10386000B04800683060AF48066000202070AC4867
:103870000068606000202081A9480460504600F084
:1038800035FFB8F1010F01D1FFF783F80020287050
:10389000002706E0504600F029FF07202870274641
:1038A00000BF00BF384696E770B50546002600F019
:1038B00019FF06466C686068E0606068206100205F
:1038C000E082304600F012FF002070BD2DE9F04785
:1038D0000746884615464FF000093878022804D07C
:1038E000012028700020BDE8F0878C48007818B1CE
:1038F000022028700020F6E78B48007818B10D20D0
:1039000028700020EFE700F0EDFE81467C68E08A39
:1039100098B12169081D20610E68E08A401EE0828E
:10392000A1682069884201D160682061484600F0A2
:10393000DDFE002028703046D5E77C48006890F80E
:10394000300040F004007949096881F83000002017
:103950007649096881F8310074480068C0F82C8005
:103960003846FFF7ABF9484600F0C0FEFFF711F804
:1039700000F0B8FE81466D48006890F8310020B133
:1039800001280DD002280AD105E068480068066ABF
:10399000002028700DE000260E20287009E000BFEE
:1039A000394662480068FFF73BF900260A20287074
:1039B00000BF00BF00205D49096881F830005B4905
:1039C000096881F8310059490968C861574909688F
:1039D0000862484600F08AFE304684E72DE9F0414F
:1039E00004460F4615464FF000082078022804D000
:1039F000012028700020BDE8F08100F073FE8046B1
:103A0000A07A20B300267FB1012F0CD107E002235A
:103A1000042200212046FFF718F9701CC6B2A07AD4
:103A20000028F4D109E000BF02230422002120462F
:103A3000FFF70BF9701CC6B200BF00BF404600F094
:103A400055FEFEF7A6FF0E2028703046D3E740460D
:103A500000F04CFE0020287000BFCCE72DE9F041BB
:103A600005460E4600272878022802D00120BDE82E
:103A7000F08100F037FE0746A87A60B100230422E7
:103A800031462846FFF7E1F8384600F02FFEFEF7F2
:103A900080FF0020EBE76C68E08AA18A884204DBA3
:103AA000384600F023FE1E20E1E7E168081DE060D3
:103AB0000E60E08A401CE082D4E90210884201D105
:103AC0006068E060384600F011FE0020CFE72DE985
:103AD000F04105460E4600272878022802D0012032
:103AE000BDE8F08100F0FEFD0746A87A60B1002332
:103AF000042231462846FFF7A8F8384600F0F6FDC4
:103B0000FEF747FF0020EBE76C68E08AA18A884255
:103B10000EDB384600F0EAFD1E20E1E751000020F0
:103B20003C000020780000205200002064000020AB
:103B300061682069884201D1A06820612069001F66
:103B4000206120690660E08A401CE082384600F06F
:103B5000CDFD0020C4E72DE9F04105460F4616468D
:103B60004FF000082878022802D00120BDE8F0813B
:103B700000F0B8FD8046A87AE8B106F0010050B127
:103B800005E00023042239462846FFF75EF8A87AAC
:103B90000028F6D105E00023042239462846FFF725
:103BA00054F8404600F0A2FD06F0040008B9FEF704
:103BB000F0FE0020DAE76C68E08AA18A884204DB24
:103BC000404600F093FD1E20D0E706F0020058B1F9
:103BD00061682069884201D1A06820612069001FC6
:103BE00020612069076009E0E168081DE0600F605E
:103BF000D4E90210884201D16068E060E08A401C8C
:103C0000E082404600F072FD0020AFE72DE9F0476A
:103C100005460C464FF0000A2878022802D0012001
:103C2000BDE8F08700F05EFD8246A87A207405F1B9
:103C30000B0804F10809002705E018F8010B09F842
:103C4000010B781CC7B2082FF7D36E68F08A18B141
:103C500030690068206001E000202060F08AA080C8
:103C6000B08AE080504600F041FD0020D8E72DE901
:103C7000F04178211048FEF77BFD00240DE0601C28
:103C800086B204EB44000C4901EBC00506EB46008C
:103C900001EBC0072F60601C84B2042CEFD304EB4F
:103CA0004400054901EBC00500202860084603498F
:103CB0000860BDE8F0810000541200207800002068
:103CC0002DE9FF5F814688460020009000F00AFD44
:103CD0000090F94850F8280030B1009800F006FD37
:103CE000282004B0BDE8F09FB9F1FF0F03D1F348DD
:103CF000006890F83290F04850F8294024B90098B4
:103D000000F0F4FC2920ECE7012C04D1009800F02D
:103D1000EDFC4320E5E74FEAE80708F007000390D1
:103D20000120B84000F0FF0A01210398814001F012
:103D3000FF0B0020E04941F82900084640F82840E0
:103D400014F8346FA07802906078343C0190DC481D
:103D5000815D01980140D1B1D948805D01998843C6
:103D6000D74988550846805D28B9D6480078029919
:103D70008843D4490870D348007840EA0A00D14902
:103D80000870CF48C05D40EA0B00CD49C855E569D1
:103D9000D5B105F10B00805D0199884305F10B0158
:103DA00088550846805D18B9A87A02998843A87298
:103DB000A87A40EA0A00A87205F10B00C05D40EA4B
:103DC0000B0005F10B01C85584F8328084F834707B
:103DD000039884F8330084F836A084F835B000984E
:103DE00000F084FCB8480078012801D1FEF7D1FD2D
:103DF000002076E72DE9FE4F06460F4690461C460A
:103E00004FF0000900F06EFC8146B048007828B100
:103E1000484600F06BFC3C20BDE8FE8FA64850F8F9
:103E2000240060BB0120A44941F82400484600F06A
:103E30005DFC002342463946304600F001FC8246D4
:103E40000020009001900346024651460290204611
:103E5000FEF78EFF054635B99B48007801280CD146
:103E6000FEF797FD09E000F03DFC814600209249F5
:103E700041F82400484600F039FC2846CCE7484683
:103E800000F034FC2820C7E702F0010343B102F040
:103E900002032BB102E0491E002308C00029FAD119
:103EA00070472DE9F04F85B081468A4693461C46FF
:103EB000DDE90F78129D0020039000F013FC0390C1
:103EC0008248007830B1039800F010FC3C2005B027
:103ED000BDE8F08F784850F8240088BB012076496F
:103EE00041F82400039800F001FC2A464146384678
:103EF000FFF7CAFF2B465A465146484600F0A0FB42
:103F000004901198CDE9008002953A4620460E9B18
:103F10000499FEF72DFF064636B96B480078012854
:103F20000CD1FEF736FD09E000F0DCFB0390002029
:103F3000614941F82400039800F0D8FB3046C6E7F9
:103F4000FFE7039800F0D2FB2820C0E72DE9F041FD
:103F5000054600275D48007810B14020BDE8F0819B
:103F60003F2D01D13E20F9E700F0BCFB0746FF2DB5
:103F700003D15248006890F832504F4850F825401D
:103F800024B9384600F0B2FB4320E7E7012C04D106
:103F9000384600F0ABFB3D20E0E714F8340F484909
:103FA000085C617888432178454A505414F83409F4
:103FB0001146085C30B994F83610424800788843BE
:103FC00040490870E06918B12046E169FEF728FE13
:103FD000666A16B13046FFF722F80020E06284F8E6
:103FE000300084F831003A480078FF2804D238487D
:103FF0000078401C36490870384600F077FBFEF721
:104000000EFE00F06FFB07463148007820B13048C3
:104010000078401E2E490870204600F00EFB2D4807
:104020000078401E2B4908700020234941F82500E4
:10403000A06930B90020616988612749606908601A
:1040400005E0D4E905014861D4E9051088612348F9
:10405000006860612148046021A0E064384600F0F7
:1040600045FB19480078012801D1FEF792FC002099
:1040700074E72DE9F041044600273F2C02D13E2091
:10408000BDE8F081FF2C0BD100F02CFB07460B485C
:10409000006890F83760384600F028FB3046EFE7BC
:1040A00000F020FB0746044850F82450D5B93846A4
:1040B00000F01CFB4320E3E7640D002064000020B7
:1040C00056000020550000205E0000205100002016
:1040D000520000205F0000207000002068000020D7
:1040E0003F000000012D04D1384600F0FFFA3D20CA
:1040F000C6E73F2085F83700384600F0F7FA002081
:10410000BEE72DE9F04706460F4614464FF000087B
:10411000D648007820B1112020700020BDE8F0873B
:1041200000F0E0FA8046FF2E03D1D148006890F8F5
:104130003260D04850F8265035B9404600F0D6FAE3
:10414000432020700020E9E7012D06D1404600F011
:10415000CDFA432020700020E0E7E86C3860386832
:10416000FEF7FCFD8146404600F0C0FA00202070BA
:104170004846D3E72DE9F04106460F4614464FF076
:104180000008BA48007818B112202070BDE8F0810C
:1041900000F0A8FA8046FF2E03D1B548006890F8D9
:1041A0003260B44850F826502DB9404600F09EFACF
:1041B00043202070EAE7012D05D1404600F096FA31
:1041C00043202070E2E7EF64404600F08FFA0020C1
:1041D000207000BFDAE770B50546002600F082FACD
:1041E0000646A44850F8254024B9304600F07EFA2F
:1041F000462070BD012C04D1304600F077FA4320F0
:10420000F7E794F8300000F0080060B314F8300FBE
:1042100000F0F700207014F83009F8B9E06AC8B966
:104220003434A07894490978084393490870207879
:104230009249085C6178084314F834198F4A505445
:10424000304600F053FA8E480078012809D1FEF775
:10425000A0FB06E0304600F049FA02E0304600F0EC
:1042600045FA0020C5E7304600F040FA4420C0E798
:104270002DE9F04707460D464FF0000A0020286060
:10428000686000F02FFA8246FF2F03D1784800685B
:1042900090F83270774850F827402CB9504600F01B
:1042A00025FA4320BDE8F087012C04D1504600F0E8
:1042B0001DFA4320F6E7207C00F0010020B95046AB
:1042C00000F014FA4520EDE70026D4F80C90D4F85D
:1042D0000880504600F00AFA00E0761C58F8041BEB
:1042E0000029FAD0B0002860A9EB060080006860C1
:1042F0000020D7E72DE9F04105464FF0000800F017
:10430000F1F98046FF2D05D15948006890F83250E8
:10431000012608E05648006890F83200A84201D112
:10432000012600E00026534850F825402CB94046AD
:1043300000F0DCF94820BDE8F081012C04D14046B2
:1043400000F0D4F94320F6E794F834704B48C05D90
:1043500094F8351088434949C8550846C05D30B9BE
:1043600094F836104448007888434349087094F81C
:10437000300040F0080084F83000404600F0B6F904
:10438000012E01D1FEF705FB0020D4E72DE9F04115
:1043900005460E46002700F0A5F90746FF2D03D17C
:1043A0003348006890F83250324850F825402CB914
:1043B000384600F09BF92920BDE8F081012C04D19A
:1043C000384600F093F94320F6E754222146304660
:1043D000FEF7BAFC384600F089F90020ECE72DE939
:1043E000F04704460E4617464FF0000900F07AF9F0
:1043F0008146FF2C02D11E48056802E01D4850F896
:10440000245005F1500050F82680484600F06EF91F
:10441000002038704046BDE8F0872DE9F04704469B
:104420000E46174698464FF0000900F05BF98146AA
:10443000FF2C02D10E48056802E00E4850F82450C7
:1044400005F1500040F82670484600F04FF9002072
:1044500088F80000BDE8F08710B50548006800F056
:104460003FF9FF20FFF772FD10BD00005100002052
:1044700064000020640D002055000020560000203C
:104480005E00002070B5054600266348007800B144
:1044900070BD6248007800B1FAE71DB300F022F960
:1044A00006465F48006890F834405E48005D5C490D
:1044B000096891F8351088435A4908550846005D47
:1044C00040B95748006890F836105748007888433C
:1044D0005549087052480068C562304600F006F938
:1044E000FEF757FA00BFD3E72DE9F04104460D4629
:1044F00016461F464848007810B15520BDE8F081A7
:104500004648007808B13220F8E7B81CC821484373
:104510004FF47A71B0FBF1F14FF461606043C5EB89
:10452000051200EB8200304400EBC00202EB0010E9
:1045300001EBC0084046FFF7A5FF0020DEE770B59D
:10454000054600263F2D01D32A2070BD00F0CAF891
:104550000646364850F8254024B9304600F0C6F8E3
:104560004320F2E7012C04D1304600F0BFF843208D
:10457000EBE7E06A20B9304600F0B8F85020E4E7F5
:104580000020E06294F8300000F0370040B114F8E9
:10459000300F20F03700207001206070303C02E0C6
:1045A000002084F8310094F8300000F00800A8B929
:1045B0003434A0781C49097808431B4908702078D6
:1045C0001849085C6178084314F83419154A5054A6
:1045D000304600F08BF8FEF7DCF902E0304600F0E0
:1045E00085F80020B1E770B5002500F07BF805469E
:1045F0000F480468284600F079F8204670BD70B571
:104600000446002500F06EF8054609480460284677
:1046100000F06CF870BD0000510000205200002036
:10462000640000205600002055000020640D00208A
:104630007C00002070477047704770477047704794
:1046400070B5044610464FF080750560051F28467A
:104650002C606FF00106051F28462E604FF01236C1
:10466000051F28462E604FF00336051F28462E6092
:104670004FF00236051F28462E607610051F28468B
:104680002E60051F284629604FF01136051F284669
:104690002E604FF01036051F28462E604FF0093669
:1046A000051F28462E604FF00836051F28462E604D
:1046B0004FF00736051F28462E604FF00636051FBF
:1046C00028462E604FF00536051F28462E604FF015
:1046D0000436051F28462E6070BD7047704770472E
:1046E00070470000EFF3108072B6704780F31088B7
:1046F0007047204C204D25604FF0000484F309885A
:104700001E4C4FF0010525701D4C4FF08055256063
:1047100062B6FEE730B41A4C4FF08055256030BCCD
:10472000704730B4164C4FF08055256030BC704750
:1047300000BF72B6EFF3098028B1203880E8F00F8F
:1047400010490968086000B50F4880475DF804EB20
:104750000E480F490A7802700A480E490A6802603A
:10476000106890E8F00F203080F309884EF0040EB6
:1047700062B6704720ED00E00000FFFF5E00002001
:1047800004ED00E064000020DB4600085300002038
:10479000540000206C00002010B586B004460121B2
:1047A0004804FCF7E2FD01210420FCF7D1FD0420C0
:1047B000ADF8140003208DF8160018208DF81700AE
:1047C00005A9F848FCF708FB0820ADF81400042000
:1047D0008DF8170005A9F348FCF7FEFA26208DF89E
:1047E000000000208DF801008DF8020001208DF8F6
:1047F00003006846FCF727FA01940020ADF8080092
:10480000ADF80A00ADF80C00ADF810000C20ADF8C2
:104810000E0001A9E448FDF750FD012240F22551A8
:10482000E148FDF7E2FD0121DF48FDF7D2FD06B0CA
:1048300010BD10B540F22551DB48FDF7BBFEF8B1C5
:10484000D948FDF737FEC4B22146D848FDF72EFE01
:10485000D748B0F80004C0F30E0040F2FF318842A0
:104860000EDAD349B1F80014C1F30E00411CD04A4E
:10487000B2F8002461F30E02CD49A1F800240C54D3
:1048800040F22441C848FDF795FE01281BD1C848D5
:10489000B0F8000420F4004000F50040C449A1F83D
:1048A0000004C148FDF706FEC4B22146C148FDF729
:1048B000FDFDC1A1BE4800F0E9FC08B1012000E007
:1048C0000020C049087010BD38B504460121080217
:1048D000FCF73EFD10208DF8030003208DF8020048
:1048E0008020ADF800006946B748FCF775FA8021D2
:1048F000B548FCF720FB2046FFF74EFF38BD2DE9F9
:10490000F04106460C4615461F46A948B0F800047B
:104910006FF30E00A649A1F800043246ABA1A248ED
:1049200000F0EDFA1CB915B90120BDE8F081B8B26C
:10493000FCF78DF800209E49B1F80014C1F30E0178
:104940009B4A50541146A3A000F0E6FBB4B1ADB1B0
:104950002146974800F09AFC08B1012000E00020B1
:1049600040B92946924800F091FC08B1012000E0CE
:10497000002008B10120D8E70020D6E744B1214645
:104980008B4800F083FC08B10120CEE70020CCE783
:104990002946874800F07AFC08B10120C5E70020CD
:1049A000C3E710B504468248B0F800046FF30E0068
:1049B0007F49A1F800043220FCF749F800207C4927
:1049C000B1F80014C1F30E01794A5054114682A087
:1049D00000F0A2FB7649204600F06AFC744800F023
:1049E0008BFC10BD10B54FF4FA73002211467FA066
:1049F000FFF785FF4FF47A70FCF729F810BD10B56A
:104A0000002440217B48FCF794FA4FF47A70FCF7BD
:104A10001EF80CE04FF4FA73002277A177A0FFF79D
:104A20006EFF00B110BDFFF7DDFF601CC4B20A2CA1
:104A3000F0DB00BFF6E710B5044624B1012C0AD024
:104A4000022C18D10FE040F6C4136DA26AA16FA02A
:104A5000FFF755FF10BD40F6C41369A266A16EA012
:104A6000FFF74DFFF6E740F6C41365A262A16DA003
:104A7000FFF745FFEEE70020ECE730B59FB00446B6
:104A80000D462B4622466AA101A800F051FB41F2D7
:104A90008833002258A101A8FFF731FF1FB030BDB5
:104AA00030B59FB004460D462B46224665A101A8AD
:104AB00000F03EFB41F2883300224FA101A8FFF72E
:104AC0001EFF1FB030BD10B586B004460CB10120EA
:104AD00000E00020024661A101A800F029FB4FF48C
:104AE000FA73002244A101A8FFF709FF06B010BD28
:104AF000F0B5B9B006460F4614461D46642120A8FD
:104B000000F019FC16B1012E10D107E03B4657A268
:104B100057A120A8009400F00BFB08E03B4658A2E8
:104B200053A120A8009400F003FB00E000BF00BFE9
:104B3000052D06DA20AB2A4652A102A800F0F8FAA9
:104B400004E020AA54A102A800F0F2FA4FF47A631C
:104B500055A229A102A8FFF7D2FE39B0F0BD10B5C9
:104B600088B00446224654A1684600F0E1FA4FF4AA
:104B7000FA73002220A16846FFF7C1FE08B010BDFD
:104B800010B588B00446224650A1684600F0D0FA1D
:104B90004FF4FA73002218A16846FFF7B0FE08B080
:104BA00010BD0000000801400044004000480040E3
:104BB000CC12002000380140434C4F5345440D0AAD
:104BC00000000000800000200020014025730D0A35
:104BD0000000000025730000CAD5B5BDB5C4CAFDEC
:104BE000BEDDCAC7A3BA25730D0A000041542B527B
:104BF00053540000001801404F4B00004154000086
:104C00006E6F206368616E676500000041542B433E
:104C1000574D4F44453D310041542B43574D4F4470
:104C2000453D320041542B43574D4F44453D3300E1
:104C300041542B43574A41503D222573222C2225B3
:104C40007322000041542B43575341503D2225739A
:104C5000222C222573222C312C33000041542B436B
:104C600049504D55583D2564000000005443500004
:104C7000222573222C222573222C2573000000008C
:104C80005544500041542B43495053544152543DD4
:104C900025642C257300000041542B434950535484
:104CA0004152543D25730000414C52454159204327
:104CB0004F4E4E454354000041542B4349505345F9
:104CC000525645523D312C257300000041542B4370
:104CD000495053544F3D25640000000010B588B082
:104CE0000446224642A1684600F022FA4FF4FA73C5
:104CF0000022AFF2FC016846FFF701FE08B010BDCC
:104D000010B54FF4FA730022AFF214113DA0FFF773
:104D1000F6FD08B9002010BD4FF4FA733DA2AFF2C2
:104D200028113DA0FFF7EBFDF5E72DE9F04186B036
:104D300007460C4615461E464FF0000847B122466E
:104D4000AFF27011374800F0DAF84FF001081CE0BC
:104D5000052E06DAAB1C324633A101A800F0E8F9B3
:104D600004E0AA1C35A101A800F0E2F94FF47A731F
:104D7000002236A101A8FFF7C2FD4FF47A7300228A
:104D800033A12046FFF7BBFD8046404606B0BDE894
:104D9000F08110B54FF47A70FBF759FE2EA121482F
:104DA00000F0ADF84FF4FA70FBF751FE10BD10B5EE
:104DB0004FF4FA730022AFF2C0112AA0FFF79FFD53
:104DC000A0B12CA12E4800F061FA08B1022010BD5C
:104DD0002CA12B4800F05AFA08B10320F7E72CA1C8
:104DE000274800F053FA08B10420F0E70020EEE76E
:104DF00041542B43495053454E443D25642C313694
:104E00000000000041542B4349504D4F44453D3173
:104E1000000000003E00000041542B434950534520
:104E20004E4400000044004041542B434950534538
:104E30004E443D25642C25640000000041542B4362
:104E4000495053454E443D25640000003E2000007B
:104E500053454E44204F4B0041542B434950434C43
:104E60004F53450041542B434950535441545553DB
:104E7000000000005354415455533A320D0A0000CB
:104E8000CC1200205354415455533A330D0A0000BC
:104E90005354415455533A340D0A0000F0B50346BB
:104EA0000D461646002729460A2E03D0002008701A
:104EB0002846F0BD33B9302001F8010B00200870FE
:104EC0002846F6E7002B03DA2D2001F8010B5B42A0
:104ED00042F210720DE093FBF2F404B937B104F121
:104EE000300001F8010B04FB123301270A2092FB6A
:104EF000F0F2002AEFDC002008702846D9E70FB452
:104F000070B586B006460CA8019073E00B98007847
:104F10005C281CD10B98401C0B9000786E2809D09F
:104F200072280FD10D213046FDF7C0FA0B98401CB6
:104F30000B900BE00A213046FDF7B8FA0B98401CA5
:104F40000B9003E00B98401C0B9000BF4BE00B98BC
:104F50000078252840D10B98401C0B9000786428DD
:104F600018D0732833D1019810C801900BE0217834
:104F70003046FDF79BFA00BF80213046FDF704FB69
:104F80000028F9D0641C20780028F0D10B98401C30
:104F90000B9020E0019820C801900A2202A928461F
:104FA000FFF77CFF02AC0BE021783046FDF77EFA7C
:104FB00000BF80213046FDF7E7FA0028F9D0641CD5
:104FC00020780028F0D10B98401C0B9003E00B9840
:104FD000401C0B9000BF06E00B9810F8011B0B90D3
:104FE0003046FDF763FA00BF80213046FDF7CCFA6A
:104FF0000028F9D00B980078002887D106B070BC43
:105000005DF814FB00B59FB01BA000F085F880216F
:105010002248FBF78EFFFFF7F2FC0220FFF70BFDA3
:10502000FFF7E0FC1EA122A0FFF73AFD00BF23A17D
:1050300025A0FFF722FD0028F9D00020FFF743FD4F
:1050400000BF052322A224A10020FFF751FD002864
:10505000F7D000BFFFF754FE0028FBD022A000F0DD
:105060005BF832230022114601A8FFF748FC24A078
:1050700000F052F81FB000BD0D0AD5FDD4DAC5E42A
:10508000D6C345535038323636C7EBC4CDD0C4B53D
:10509000C8B4FD2E2E2E0D0A000000000020014095
:1050A0003132333435363132333435360000000096
:1050B0005769666953544D3332000000313233343E
:1050C0003536373839000000617573610000000023
:1050D00038303830000000003133342E3137352E6F
:1050E00035382E33300000000D0AC5E4D6C34553D1
:1050F0005038323636204F4BA3A10D0A0000000075
:105100000D0ABFAACABCCAFDBEDDCDB8B4AB210D25
:105110000A000000704700000FB4044910B503AA4C
:10512000029800F001FA10BC5DF814FB1C0000208E
:105130000FB41CB5074B06AA7B446946009005983E
:1051400000F0C3F90020694600F0D2F91CBC5DF8FC
:1051500014FB0000B50300002DE9F0410E460446A3
:10516000002020622046E168884730B3252805D01A
:10517000D4E901219047206A401CF2E7E16820460B
:1051800000278847050018D0A5F14100192802D84A
:1051900020354FF400673246294620462760FBF74A
:1051A00001F840B1012804D0F61D26F007060836A4
:1051B000D8E7361DD6E72846DAE7206ABDE8F08151
:1051C00070B50C460546012A05D02878800600D522
:1051D000EA69002302E0012305E05B1C934202D24E
:1051E000E05C0028F9D1A869E618C01AA861286A0D
:1051F000184428622846AFF3008004E0D5E9012175
:1052000014F8010B9047B442F8D32846AFF300805E
:1052100070BD00002DE9F041064600241068752994
:10522000314616A510D0AFF30080002802DA4042C4
:1052300013A507E031688A0701D512A502E04907E6
:1052400004D511A5012401E0AFF3008000210A225A
:1052500006F1240709E0B0FBF2FCB0FBF2F302FB1D
:105260001C00303078541846491C0028F3D12346DE
:105270002A463046BDE8F04100F0C8B80000000002
:105280002D0000002B0000002000000030B5054676
:105290000B462A4613F8014B12F8010B08B1A04245
:1052A000F8D01CB1002802D06D1CF1E7284630BDB3
:1052B00040EA0103024630B59B0710D14FF001349C
:1052C00000E008C208C91D1B9D4315EAC41FF8D0A1
:1052D00013F0FF0102F8011B0DD01B0AF8E711F8CB
:1052E000013B002B02F8013B05D011F8013B002BDC
:1052F00002F8013BF3D130BD10B5431C02E010F8B9
:10530000011B71B18107FAD14FF0013202C88C1A2A
:105310008C4314EAC211F9D0C01A0A0603D0C01E89
:1053200010BDC01A10BD0A0401D0801E10BD0902B4
:10533000FCD0401E10BD4FF0000200B5134694464D
:105340009646203922BFA0E80C50A0E80C50B1F1DD
:105350002001BFF4F7AF090728BFA0E80C5048BFF1
:105360000CC05DF804EB890028BF40F8042B08BF8F
:10537000704748BF20F8022B11F0804F18BF00F88B
:10538000012B70474FF0013C50F8042B51F8043BBF
:105390009A4221D1A2EB0C03934313EACC1317D109
:1053A00050F8042B51F8043B9A4215D1A2EB0C03A0
:1053B000934313EACC130BD150F8042B51F8043B60
:1053C0009A4209D1A2EB0C03934313EACC13DBD02E
:1053D0004FF00000704700BFD01A01BAB1FA81F156
:1053E00001F0180122FA01F0CB40C1F12001DBB23B
:1053F000C0B2C01A2CFA01F3D11A914311EAC311B9
:10540000E6D1704770477047704770472DE9F04705
:105410000D4699469246044600F124080168880624
:1054200004D5E06921F01001216000E00120A842CC
:1054300001DD471B00E00027A1697A1902EB090092
:10544000081AA0612078C00602D42046AFF300807D
:10545000002608E0D4E901211AF806009047206AE6
:10546000401C761C20624E45F4DB2078C0060AD52D
:105470002046AFF3008006E0D4E9012130209047B8
:10548000206A401C2062381EA7F10107F4DC07E007
:10549000D4E9012118F805009047206A401C2062D9
:1054A000281EA5F10105F3DC2046AFF3008020782B
:1054B000000602D50220BDE8F0870120FBE70000CE
:1054C00001694A1C02610878704700B58FB0CDE9C8
:1054D00001310021059105497944CDE903101146B8
:1054E0006846FFF739FE0FB000BD0000E5FFFFFF83
:1054F0000A6802F8010B0A60704710B5436913B1DE
:10550000AFF3008001E0FFF75BFE012010BD1278D1
:1055100000F124010A7000224A700122EDE71168AF
:105520004FF0FF32E9E70000074B70B50D467B44B2
:10553000FFF7CBFF0446284600F008F810B14FF003
:10554000FF3070BD204670BD81B5FFFF007B00F0CD
:1055500080007047754600F029F8AE4605006946A0
:10556000534620F00700854618B020B5FBF754FBE2
:10557000BDE820404FF000064FF000074FF0000854
:105580004FF0000B21F00701AC46ACE8C009ACE8D5
:10559000C009ACE8C009ACE8C0098D4670470446B4
:1055A000AFF300802046FAF712FE00000048704773
:1055B000D0160020000001000200010003000100DD
:1055C00002000100040001000200010003000100CC
:1055D00002000100050001000200010003000100BB
:1055E00002000100040001000200010003000100AC
:1055F000020001000600010002000100030001009A
:10560000020001000400010002000100030001008B
:10561000020001000500010002000100030001007A
:10562000020001000400010002000100030001006B
:105630000200010007000100020001000300010058
:10564000020001000400010002000100030001004B
:10565000020001000500010002000100030001003A
:10566000020001000400010002000100030001002B
:105670000200010006000100020001000300010019
:10568000020001000400010002000100030001000B
:1056900002000100050001000200010003000100FA
:1056A00002000100040001000200010003000100EB
:1056B00002000100D4560008000000208400000011
:1056C0006C0100085857000884000020AC1C000042
:1056D0008801000800A24A04000000000000000049
:1056E0000102030406070809010000000000000091
:1056F000000000000000000000000102030401029D
:105700000304060708090204060800000000000060
:105710000000000000000000000000000000000089
:105720000000000000000000000000000000000079
:105730000000000000000000000000000000000069
:105740000000000000000000000000000000000059
:08575000000000000000000051
:0400000508000131BD
:00000001FF
