:020000040800F2
:1000000030190020F10100085918000805180008EF
:1000100055180008E5160008FB3200080000000033
:10002000000000000000000000000000AD2D0008EE
:10003000E9160008000000007F020008552F0008A4
:100040000B0200080B0200080B0200080B0200085C
:100050000B0200080B0200080B0200080B0200084C
:100060000B0200080B0200080B0200080B0200083C
:100070000B0200080B0200080B0200080B0200082C
:100080000B0200080B0200080B0200080B0200081C
:100090000B0200080B0200080B0200080B0200080C
:1000A0000B0200080B0200080B0200080B020008FC
:1000B0000B0200080B0200080B0200080B020008EC
:1000C0000B0200080B0200080B0200080B020008DC
:1000D0000B020008B13000080B0200080B020008F8
:1000E0000B0200080B0200080B0200080B020008BC
:1000F0000B0200080B0200080B0200080B020008AC
:100100000B0200080B0200080B0200080B0200089B
:100110000B0200080B0200080B0200080B0200088B
:100120000B0200080B0200080B0200080B0200087B
:1001300000F002F800F04DF80AA090E8000C8244AC
:100140008344AAF10107DA4501D100F042F8AFF289
:10015000090EBAE80F0013F0010F18BFFB1A43F0A5
:10016000010318478C410000AC410000103A24BF45
:1001700078C878C1FAD8520724BF30C830C144BF0C
:1001800004680C607047000000230024002500264E
:10019000103A28BF78C1FBD8520728BF30C148BFEA
:1001A0000B607047662903F0D787642900F0E6806A
:1001B000732900F05284002070471FB500F064FCE2
:1001C00004000020002103F001FBE0601FBD10B51A
:1001D00010BD00F059FD1146FFF7EFFF03F0BAF92B
:1001E00000F077FD03B4FFF7F2FF03BC03F0A2F8C1
:1001F0000948804709480047FEE7FEE7FEE7FEE7BB
:10020000FEE7FEE7FEE7FEE7FEE7FEE704480549F6
:10021000054A064B70470000712F000831010008A5
:100220003013002030190020301500203015002038
:10023000EFF3108072B6704780F310887047204C3F
:10024000204D25604FF0000484F309881E4C4FF0C8
:10025000010525701D4C4FF08055256062B6FEE704
:1002600030B41A4C4FF08055256030BC704730B424
:10027000164C4FF08055256030BC704700BF72B6F9
:10028000EFF3098028B1203880E8F00F10490968A1
:10029000086000B50F4880475DF804EB0E480F4931
:1002A0000A7802700A480E490A680260106890E8ED
:1002B000F00F203080F309884EF0040E62B67047CC
:1002C00020ED00E00000FFFF6200002004ED00E0F0
:1002D00068000020B52200085700002058000020C8
:1002E00070000020704700000FB4044910B503AA45
:1002F000029800F0B7FB10BC5DF814FB2000002052
:100300000FB41CB5074B06AA7B44694600900598BC
:1003100000F079FB0020694600F088FB1CBC5DF80A
:1003200014FB00002107000070B50C460546012AA9
:1003300005D02878800600D5EA69002302E0012371
:1003400005E05B1C934202D2E05C0028F9D1A86969
:10035000E618C01AA861286A184428622846AFF334
:10036000008004E0D5E9012114F8010B9047B44264
:10037000F8D32846AFF3008070BD00002DE9F041AE
:100380000646002410687529314616A510D0AFF333
:100390000080002802DA404213A507E031688A078E
:1003A00001D512A502E0490704D511A5012401E0F9
:1003B000AFF3008000210A2206F1240709E0B0FB18
:1003C000F2FCB0FBF2F302FB1C003030785418460C
:1003D000491C0028F3D123462A463046BDE8F041A7
:1003E00000F0A5B8000000002D0000002B00000068
:1003F000200000002DE9F0474FF0000A894604462E
:10040000C0F820A02046E1688847002876D025283B
:1004100006D0D4E901219047206A401C2062F1E710
:10042000E168204600258847C4F81CA0064600273E
:10043000C4F818A02A2E09D0304602F074FF38B351
:1004400004EB8708303EC8F8186019E059F8041B1F
:10045000204604EB87029161E1688847012F064638
:1004600018D1E069002820DA25F020051DE0D8F831
:10047000180000EB800006EB40003038C8F8180088
:100480002046E1688847064602F04DFF0028EED17D
:10049000012F0AD02E2E08D12046E16888477F1C04
:1004A0000646022F45F02005C4DBA069002803DAC8
:1004B000404245F00105A061E80701D025F0100594
:1004C000B6B1A6F14100192802D8203645F40065DE
:1004D0004A463146204625604D46FFF763FE58B137
:1004E000012806D0ED1D25F0070000F1080989E775
:1004F00004E005F1040985E730468AE7206ABDE893
:10050000F08730B505460B462A4613F8014B12F822
:10051000010B08B1A042F8D01CB1002802D06D1C1C
:10052000F1E7284630BD70477047704770472DE9A6
:10053000F0470D4699469246044600F124080168AA
:10054000880604D5E06921F01001216000E0012057
:10055000A84201DD471B00E00027A1697A1902EBE0
:100560000900081AA0612078C00602D42046AFF323
:100570000080002608E0D4E901211AF8060090471F
:10058000206A401C761C20624E45F4DB2078C006B1
:100590000AD52046AFF3008006E0D4E901213020DF
:1005A0009047206A401C2062381EA7F10107F4DC46
:1005B00007E0D4E9012118F805009047206A401CA3
:1005C0002062281EA5F10105F3DC2046AFF3008070
:1005D0002078000602D50220BDE8F0870120FBE765
:1005E00070472DE9FF4F0C461E464FF0FF378BB08A
:1005F000D2E90001DDF860800A908A46C1F30A550D
:1006000005B93D46002108464FF00000BAF1000F41
:1006100000F4400005DA00EB80004FF4400101EAED
:1006200050004FEA9059B9F1010F00DDB9460A9820
:1006300050EA4A000ED044F61050A5F2FF3545436B
:100640002F14B8F1000F1ED07542291E1EDDC9F10E
:1006500000021CE0B8F1010F4FF0000001D0302182
:1006600003E0F24305E02154401CB042FBDB30467E
:100670000022002121540B99C1F80880C1E9002013
:100680000FB0BDE8F08FBD1B6D1CDEE74A4600DAF7
:10069000694206A800F082FA06AB93E8070003ABB4
:1006A00083E8070050460A9900F05AFB8DE80700DE
:1006B000A0F500501F3800900398002D09DD42F28C
:1006C0001F014A46084403A90390684600F0B9FD9B
:1006D00008E0A0F500504A461F3803A90390684679
:1006E00000F0C3FD8DE807000004000C03D04FF0BC
:1006F000FF30410800E01046B8F1000F03D000229F
:10070000009215461EE0751E05D400F0C1F9303286
:1007100062556D1EF9D5B3460122084302D000226E
:100720007F1C04E02078302801D100227F1E002A9F
:10073000099786D01DE0112D07DA00F0A9F93032B3
:1007400062556D1C50EA0102F5D1084302D00098B1
:10075000C8B10EE00021681E05E0235C625C6354B2
:100760002254401E491C8142F7DBAB46A81B401EA9
:100770000990002004F80B000B98099AC0F8088033
:10078000C0E9002B7CE711264FF0000859E72DE95E
:10079000F04F88460446D21D22F0070191B0D1E9FE
:1007A0000001CDE90A0102F0AAFD02460B98C00F34
:1007B00001D02D2007E02068810701D52B2002E021
:1007C000202101EAC000032A099001D0072A05DB95
:1007D00003464146204600F0A1F90BE1207880064F
:1007E00001D5E06900E00620B8F1650F814606D02A
:1007F000B8F1660F18D0B8F1670F70D131E0002062
:10080000B9F1110F009001DB112301E009F101039F
:100810000AAA01A90CA8FFF7E4FEDDE90C70002686
:1008200009F10105834647E001204B4600904FF057
:1008300000470AAA01A90CA8FFF7D3FEDDE90DB015
:100840000C995D46002610B909F101000D18B9EBAD
:10085000050003D4C0F1FF3609F10105A5EB09003D
:100860002BE0B9F1010F01DA4FF001090020B9F1D5
:10087000110F0090484601DD112300E003460AAA4B
:1008800001A90CA8FFF7ADFEDDE90C704D4600266E
:100890008346207800070AD4AB4500DA5D4601A8FC
:1008A000012D04DD411911F8011C302907D04F45F5
:1008B00002DA17F1040F04DA012082460FE06D1E00
:1008C000EEE7002F02DCED1B3E4403E0781CA8425B
:1008D00000DD7D1CB81B00F1010A4FF000472078B5
:1008E000000703D4AA4501DB4FF0FF3A0021B7F11E
:1008F000004F0DF143088DF8431024D002202B2324
:10090000002F01DA7F422D230A21021EA0F10100EF
:1009100000DC5FB197FBF1FC97FBF1F201FB1C7C63
:1009200017460CF1300C08F801CDEEE7A8F10100F4
:1009300003702188090501D5452100E06521A0F15A
:10094000010800F8011C09980FA9A1EB0807FF1D79
:1009500000B10120411901EBEA70A1693844081A7D
:10096000401EA0612078C00602D42046AFF300806C
:10097000099828B1D4E901219047206A401C2062DF
:100980002078C00622D52046AFF300801EE0002E5E
:1009900004DBB34502DD01A8805D00E03020D4E92E
:1009A00001219047206A401C2062761CAAF10100B8
:1009B0005FEA000A0AD100F067F8C0680168405C8D
:1009C000D4E901219047206A401C2062281EA5F12D
:1009D0000105DCDC07E0D4E9012118F8010B9047A0
:1009E000206A401C2062381EA7F10107F3DC204674
:1009F000AFF30080032011B043E6000001694A1CF8
:100A000002610878704700B58FB0CDE9013100214F
:100A1000059105497944CDE9031011466846FFF771
:100A2000E9FC0FB000BD0000E5FFFFFF0A6802F817
:100A3000010B0A60704710B5436913B1AFF3008032
:100A400001E0FFF771FC012010BD127800F12401D4
:100A50000A7000224A700122EDE711684FF0FF3260
:100A6000E9E70000074B70B50D467B44FFF7CBFF6D
:100A70000446284600F000F910B14FF0FF3070BD79
:100A8000204670BD7F2A000000487047F012002009
:100A900030B5B0F10A024FEA900E71F100034EEA50
:100AA000817EB0EB0E0061EB91014FEA101E4EEA21
:100AB000017E10EB0E0041EB11114FEA102E4EEAB1
:100AC000016E10EB0E0041EB11214FEA104E4EEA81
:100AD000014E10EB0E0041EB1141401841F10001B5
:100AE0004FEAD00040EA41704FEAD10110EB800597
:100AF0004FEA810444EA907444EB01046D1944EB1D
:100B00000404521BA3414FF0000348BF0A3200D532
:100B100030BD401C41F1000130BD00002DE9F04125
:100B20001F46044603260168072A01F4006004DB1F
:100B300008B116A505E016A503E008B115A500E06B
:100B400015A521F010002060A069C01EA0610FB1A2
:100B5000401EA0612046AFF300804FB1D4E90121CF
:100B600038469047206A401C2062C01C206206E084
:100B7000206AFAE7D4E9012115F8010B9047761EA7
:100B8000F8D22046AFF30080BDE8F0814E414E0020
:100B90006E616E00494E4600696E66002DE9F047B1
:100BA000814616468AB0334878440DC88DE80D005A
:100BB00030487844801C03AC0DC884E80D0041F631
:100BC0009B300844372190FBF1F290FBF1F5A5F141
:100BD000800501FB12041B3C02D56442012000E0A9
:100BE0000020DFF890A080460027FA44AAF1BE0A50
:100BF0000DE0E00709D03246684607EB47010AEBF3
:100C0000810100F032FB8DE8070064107F1C002C8E
:100C1000EFD1184F7F44AC3F18E0E80714D007EB42
:100C200004100DF1180A90E80E008AE80E00C06862
:100C3000F04201D198190890324606A903A800F0A5
:100C400014FB03AB83E807006D10641C002DE4D196
:100C500032466946B8F1000F03A802D000F0F1FA5D
:100C600001E000F002FBC9E90001C9F808200AB060
:100C7000BDE8F0872C370000007B00F08000704753
:100C800000487047D01200207546FFF7F9FFAE46C6
:100C900005006946534620F00700854618B020B588
:100CA000FFF7B4FABDE820404FF000064FF0000710
:100CB0004FF000084FF0000B21F00701AC46ACE804
:100CC000C009ACE8C009ACE8C009ACE8C0098D4671
:100CD00070470446AFF300802046FFF783FA000018
:100CE0004FF0013C50F8042B51F8043B9A4221D1BB
:100CF000A2EB0C03934313EACC1317D150F8042B47
:100D000051F8043B9A4215D1A2EB0C03934313EA2A
:100D1000CC130BD150F8042B51F8043B9A4209D163
:100D2000A2EB0C03934313EACC13DBD04FF000008B
:100D3000704700BFD01A01BAB1FA81F101F0180171
:100D400022FA01F0CB40C1F12001DBB2C0B2C01ADF
:100D50002CFA01F3D11A914311EAC311E6D170477D
:100D60005FEA400C08BF91F0000F4FEA8C234FEA76
:100D7000C12243EA51514FEA1C5018BF00F5F04020
:100D80004FEA300018BF41F000415FEA6C5C00F0B0
:100D90002980BCF1FF3F08BF40F080407047130C32
:100DA00006BF12044FF0100C4FF0000C130E04BFDE
:100DB00012020CF1080C130F04BF12010CF1040C09
:100DC000930F04BF92000CF1020CD30F04BF52002A
:100DD0000CF1010C11464FF00002A0F11F00A0EB36
:100DE0000C00704711F0004F08BF704731F0004110
:100DF0003FF4D5AF0B0C06BF09044FF0100C4FF0B9
:100E0000000C0B0E04BF09020CF1080C0B0F04BF01
:100E100009010CF1040C8B0F04BF89000CF1020CCA
:100E2000CB0F04BF49000CF1010CCCF12003A0EB67
:100E30000C0022FA03F302FA0CF241EA030100F17A
:100E40000100704720F07F4C80EA030023F07F47C9
:100E5000ACEB070303F57C5300F0004003F1FF0304
:100E60002DE980494FEA154B09B44FEA144325EAAE
:100E70000B4E24EA03480FF2042606EB1327490819
:100E80003E785FEA320203FB0667C7F5000707FBFF
:100E900006F64FEA54374FEAD64606F1020607FB3C
:100EA000066CCCF1005C4FEA1C472CEA074C07FBB0
:100EB00006F40CFB06F504EB15464FEA961634BF14
:100EC00000204FF000404FEAD13706FB07FC4FEA05
:100ED0001C4C0CFB0BF7D21B03FB0CF761EB07015F
:100EE0000CFB0EF7B0EB074072EB17420CFB08F758
:100EF00034BFA2EB0742B2EB074261EB17414FEA66
:100F00000C444FEA910706FB07FC4FEA1C4C0CFB14
:100F10000BF7B0EBC74072EB573203FB0CF734BF53
:100F2000A2EBC742B2EBC74261EB57310CFB0EF7A5
:100F3000B0EBC70072EB57720CFB08F734BFA2EBA3
:100F4000C702B2EBC70261EB5771039F4FEA8161A1
:100F500041EA921104EBCC044FEAD1374FEA8262A6
:100F600006FB07FC42EA90124FEA80604FEA1C4CF5
:100F70000CFB0BF7D21B03FB0CF761EB07010CFB1F
:100F80000EF7B0EB074072EB17420CFB08F734BFCB
:100F9000A2EB0742B2EB074261EB17414FEA8C55D7
:100FA0004FEA910704EB9C2406FB07FC4FEA1C4C1C
:100FB0000CFB0BF7B0EBC74072EB573203FB0CF79F
:100FC00034BFA2EBC742B2EBC74261EB57310CFB17
:100FD0000EF7B0EBC70072EB57720CFB08F734BF8B
:100FE000A2EBC702B2EBC70261EB577115EB4C25C0
:100FF0004FEA816141EA92114FEA82624FEAD137AA
:1010000042EA901206FB07FC44F100044FEA8060BC
:101010004FEA1C4C0CFB0BF7D21B03FB0CF761EBEC
:1010200007010CFB0EF7B0EB074072EB17420CFB0D
:1010300008F734BFA2EB0742B2EB074261EB17415E
:1010400015EB1C154FEA813141EA92414FEA823299
:1010500042EA90424FEA80304FEA0C7644F10004B5
:1010600048EA03434EEA0B484FF0000EB2EB080C7F
:1010700071EB030724BF624639464EEB0E0E4FF06C
:10108000000B0018524149414BEB0B0BB2EB080C23
:1010900071EB03077BF1000B24BF624639464EEB30
:1010A0000E0E4FF0000B0018524149414BEB0B0B59
:1010B000B2EB080C71EB03077BF1000B24BF624617
:1010C00039464EEB0E0E51EA020718BF46F00106F4
:1010D00016EB0E7655F1000254F1000103D5BDE880
:1010E0008901BDE80088BDE88901BDE80048B6195E
:1010F000524141EB0101A3F10103704780807F7EE3
:101100007D7C7B7A7978777676757473727171707D
:101110006F6E6E6D6C6C6B6A6A696868676666652F
:101120006464636362616160605F5F5E5E5D5D5CBD
:101130005C5B5B5A5A59595858575756565555552E
:101140005454535352525251515050504F4F4F4E8E
:101150004E4D4D4D4C4C4C4B4B4B4A4A4A494949DC
:10116000484848474747474646464545454444441E
:10117000444343434342424242414141002B26D42F
:10118000770021D01CB54FEA370703B44FF01000A9
:101190004FF010014FF000000FBCBDE810400BF104
:1011A000010BBBF1010F08BF5FEA170722BF12F165
:1011B000010211F101014FF0004143F1000300F081
:1011C000004043EA00007047F9D35708DAE746EADF
:1011D000064613F1400F4FEA16461FDD13F1200FAC
:1011E000DFBF16430A46002120335B42C8D0C3F15B
:1011F000200746EA064602FA07F74FEA164646EA8D
:101200000706C3F1200722FA03F201FA07F721FAD1
:1012100003F14FF0000342EA0702B1E746EA020693
:1012200046EA06464FEA164646EA0106BCBF46EACB
:101230000646360C4FF000034FF000024FF000015D
:101240009EE72DE9C048934630B491E8380007C8BE
:1012500031EA400C48BF34EA430C03D5FFF7F2FDF6
:10126000FFF78CFFF0BCBDE800882DE9C04893462D
:1012700030B491E8380007C810F0804F08BF13F071
:10128000804F03D100F005F8FFF778FFF0BCBDE810
:10129000008820F07F4780EA030023F07F4C07EBB3
:1012A0000C03A3F57C5300F00040A3F1FE0392F081
:1012B000000F00F0B38095F0000F00F077802DE96B
:1012C00001494FEA11404FEA144621EA004800FB69
:1012D00006FC24EA064708FB06F607FB08F800FBB5
:1012E00007F718EB06484CEB164C4FEA124B18EB7D
:1012F00007484FEA15464CEB174022EA0B4E0BFB12
:1013000006FC25EA06470EFB06F607FB0EFE0BFB66
:1013100007F71EEB064E4CEB164C4FF000061EEB8B
:10132000074E4CEB174B18EB0B0840F1000018EB85
:101330000E0B58EB000840F100008F1A4FF000012F
:101340003CBFC943661B14BFB5EB040C00213CBF76
:10135000C943F61B4FEA17444EEA8E0E27EA0445AE
:101360004FEA1C4704FB07622CEA074C05FB07F712
:101370000CFB05F604FB0CFC16EB074642EB174290
:1013800016EB0C4642EB1C421BEB060658EB020226
:10139000414146EA9E0601D5BDE80189B619524190
:1013A00041EB0101A3F10103BDE801894FEA1445B6
:1013B0004FEA114724EA054621EA074C05FB07F4EA
:1013C00006FB07F70CFB06F105FB0CFC11EB0741D4
:1013D00044EB17444FEA124711EB0C4144EB1C4419
:1013E00022EA074C05FB07F206FB07F70CFB06F6A3
:1013F00005FB0CFC16EB074642EB174216EB0C46BE
:1014000042EB1C456A1854F1000148BF7047B619F9
:10141000524141EB0101A3F10103704795F0000F28
:1014200037D04FEA11424FEA144721EA024624EA34
:10143000074C02FB07F106FB07F70CFB06F402FB67
:101440000CFC14EB074441EB17414FEA154714EB32
:101450000C4441EB1C4125EA074C02FB07F506FB57
:1014600007F70CFB06F602FB0CFC16EB074645EBF8
:10147000174516EB0C4645EB1C42121951F10001C1
:1014800048BF7047B619524141EB0101A3F1010376
:1014900070474FEA14454FEA114724EA054621EA0E
:1014A000074C05FB07F106FB07F70CFB06F24FF0B4
:1014B000000605FB0CFC12EB074241EB174112EB57
:1014C0000C4251EB1C4148BF7047921841EB01019F
:1014D000A3F10103704721B1826842F001028260EA
:1014E00003E0826822F001028260704710B5044672
:1014F0001248844208D10121401501F0DDFB002192
:10150000601501F0D9FB17E00D48844208D1012194
:10151000001501F0D1FB0021201501F0CDFB0BE0FF
:101520000848844208D10121C80301F0C5FB00210D
:101530004FF4004001F0C0FB10BD0000002401404A
:1015400000280140003C0140014600208A6802F06A
:1015500004020AB1012000E0002070470146C86C77
:1015600080B270470246002013680B400BB1012087
:1015700000E000207047014600208A6802F008025F
:101580000AB1012000E000207047000030B502469B
:101590000020002350680F4C20400D790C6844EA6D
:1015A00005242043506090680B4C2040D1E9025440
:1015B0002C434D7944EA450420439060D06A20F4DE
:1015C00070000C7C641EE4B2234340EA0350D062F6
:1015D00030BD0000FFFEF0FFFDF7F1FFF0B504465F
:1015E0000D4600200021092D11DDE068A5F10A0655
:1015F00006EB4607072606FA07F18843A5F10A0617
:1016000006EB460603FA06F10843E0600CE02069A9
:1016100005EB4507072606FA07F1884305EB450663
:1016200003FA06F108432061072A0FDA606B561EA1
:1016300006EB86071F2606FA07F18843561E06EBBF
:10164000860605FA06F10843606322E00D2A0FDAE8
:10165000206BD61F06EB86071F2606FA07F1884384
:10166000D61F06EB860605FA06F10843206310E054
:10167000E06AA2F10D0606EB86071F2606FA07F1BF
:101680008843A2F10D0606EB860605FA06F108432B
:10169000E062F0BD816841F008018160704721B1CE
:1016A000826842F4A002826003E0826822F4A00211
:1016B00082607047816841F00401816070470000DA
:1016C00030B10749096841F40001054A116005E09D
:1016D0000349096821F40001014A116070470000C4
:1016E0000824014000BFFEE770472DE9F0410246A3
:1016F00000250026002000230024002791F803C0C5
:101700000CF00F0591F803C00CF0100CBCF1000FA9
:1017100003D091F802C04CEA050591F800C0BCF175
:10172000000F31D0146800202BE04FF0010C0CFAB0
:1017300000F3B1F800C00CEA03069E4220D18300FA
:101740004FF00F0C0CFA03F7BC4305FA03FC4CEA0C
:10175000040491F803C0BCF1280F06D14FF0010C2E
:101760000CFA00FCC2F814C00AE091F803C0BCF106
:10177000480F05D14FF0010C0CFA00FCC2F810C064
:10178000401C0828D1D31460B1F800C0BCF1FF0F91
:1017900034DD546800202EE000F1080C4FF0010801
:1017A00008FA0CF3B1F800C00CEA03069E4221D1FE
:1017B00083004FF00F0C0CFA03F7BC4305FA03FC4F
:1017C0004CEA040491F803C0BCF1280F05D100F1E4
:1017D000080C08FA0CF8C2F8148091F803C0BCF1A8
:1017E000480F07D100F1080C4FF0010808FA0CF877
:1017F000C2F81080401C0828CED35460BDE8F081A8
:101800000161704700BFFEE708B50121482001F0E3
:1018100043FA2020ADF8000010208DF803000320CB
:101820008DF8020069460948FFF75FFF202107484D
:10183000FFF7E6FF2020ADF8000069460448FFF7F7
:1018400054FF20210248FFF7DBFF08BD000C0140D8
:101850000018014000BFFEE77047000070B500218E
:1018600000230F22C47804B3154C246804F4E06408
:10187000C4F5E064210AC1F10403CA40447804FAC3
:1018800003F184781440214309010E4C0678A155D8
:10189000047804F01F050124AC4005786D11AD00FB
:1018A00005F1E025C5F8004109E0047804F01F05C2
:1018B0000124AC40044D0678761145F8264070BDF1
:1018C0000CED00E000E400E080E100E002490143AB
:1018D000024A1160704700000000FA050CED00E0BC
:1018E00010B500F013F800F0C5FE00F0EDFE00F0BA
:1018F0000DFF00F095FE00F067FE00F0A1FF00F084
:1019000045FF00F06BFF00F002F810BD7047704714
:1019100006480078012808D105480078FF2804D23D
:1019200003480078401C024908707047620000209C
:101930005500002010B500241A480078012830D145
:10194000FEF776FC04461848007820B11648007867
:10195000401E1549087014480078F8B913480078FB
:10196000E0B900F0CFFF12481249097850F8210081
:10197000114908600F4800781049097888420DD055
:101980000D480068806B401C0B49096888630C484F
:101990000068401C0A490860FEF769FC2046FEF713
:1019A0004BFC10BD620000205500002056000020B6
:1019B000680D002058000020700000205700002013
:1019C0003C0000202DE9F04105460E4600271F4847
:1019D000007820B1102030700020BDE8F081FEF7C3
:1019E00027FC07461A4850F8250030B13846FEF764
:1019F00023FC282030700020EFE70120144941F833
:101A00002500144804684CB9002041F825003846E8
:101A1000FEF712FC042030702046DEE70D48006817
:101A200040680C4908603846FEF706FC0420207028
:101A3000FF2040EA0520208100206060204600F061
:101A4000B5FD002030702046C7E70000550000209B
:101A5000680D0020400000202DE9F74F82B00546B8
:101A60001746002001902878042804D001203870FF
:101A700005B0BDE8F08F8048007810B102203870C2
:101A8000F6E77E48007810B10D203870F0E7FEF7D9
:101A9000CFFB019028894FEA2029287AFF281FD1FF
:101AA000288900F47F40288128897549096891F8C0
:101AB00032100843288172480068686070480068E6
:101AC00090F83200484505DC0198FEF7B5FB782018
:101AD000387004E00198FEF7AFFB00203870C7E7CC
:101AE00095F808B06C6894F8320048457ADD64488F
:101AF000006890F83200584574DA94F834806148F0
:101B000010F8080094F835100840B0B15D4810F89E
:101B1000080094F8351088435A4901F8080008462F
:101B200010F8080030B994F8361057480078884308
:101B3000554908704FF0010A19E0E669AEB194F812
:101B4000348006F10B0010F8080094F83510884333
:101B500006F10B0101F80800084610F8080020B94A
:101B6000B07A94F836108843B0724FF0000A04F847
:101B7000329F2078C010A070207800F007006070BD
:101B8000A178012088402071617801208840E070B0
:101B9000323CBAF1010F10D13434A0783A490978B7
:101BA00008433949087020783649085C6178084351
:101BB00014F83419334A505411E0E6697EB1B07A12
:101BC0003434A1780843B072217806F10B00405CF0
:101BD0006178084314F8342906F10B0188542B4826
:101BE00040F829402648006890F8300040F0100086
:101BF0002349096881F8300000202149096881F8EB
:101C000031001F4903980968C862284600F090FC1B
:101C10000198FEF711FB00F03BFEFEF709FB019077
:101C20001748006890F8310020B1012809D0022837
:101C300006D102E0002038700BE00E20387008E07A
:101C400000BF29460E48006800F05CFC0A2038708E
:101C500000BF00BF00200A49096881F83000084928
:101C6000096881F8310006490968C8610198FEF7E2
:101C7000E3FA00BFFCE600005500002056000020FB
:101C8000680000205A00002059000020680D002044
:101C90002DE9F041044600272C48007810B10520BA
:101CA000BDE8F0812078042801D00120F8E7FEF794
:101CB000BFFA074620890612257A25496068096817
:101CC000884204D03846FEF7B7FA6420E8E7204897
:101CD000006890F83200B04204D129461C480068E0
:101CE00000F03AF801201B4941F82600A07A08B319
:101CF000002310221946204600F0C2FB0546208929
:101D000000F47F402081208928432081114850F829
:101D100025006060B54206DC3846FEF78DFA00F01B
:101D2000B7FD7820BCE73846FEF786FA00F0B0FD34
:101D30000020B5E7208940F0FF002081002060608E
:101D40003846FEF779FA0020AAE700005500002087
:101D500068000020680D002030B590F834201B4B3F
:101D60009B5C90F83540A343184CA35423469B5CDE
:101D700033B990F83640164B1B78A343144C2370AC
:101D800000F8321F134B1970C1F3C203837001F0C6
:101D90000703437084780123A3400371447801232F
:101DA000A340C37003790A4C24782343084C237062
:101DB0008378064CE35CC478234384783238034D3F
:101DC0002B55054B43F8210030BD00005A00002080
:101DD0005900002057000020680D002010B5002495
:101DE0000B480078012811D1FEF722FA0446094871
:101DF000007840B908480078FF2804D206480078E7
:101E0000401C054908702046FEF716FA10BD000078
:101E100062000020550000205600002010B500246C
:101E200013480078012821D1FEF702FA0446114830
:101E30000078C0B10F480078401E0E49087008466F
:101E4000007860B90C48007828B92046FEF7F4F90C
:101E500000F01EFD0AE02046FEF7EEF906E02046FF
:101E6000FEF7EAF902E02046FEF7E6F910BD0000B1
:101E700062000020560000205500002010B50B48DD
:101E8000007890B900F03EFD0948007809490870D3
:101E900009480749097850F82100084908600846B0
:101EA000006807490860FEF7CAF910BD620000200B
:101EB0005800002057000020680D0020700000200E
:101EC0006800002010B50024022000F0F5F9FEF7AC
:101ED000AFF9044600200B4908602046FEF7ACF934
:101EE000142000F0E9F9FEF7A3F90446054800685C
:101EF000054908600120054908702046FEF79CF955
:101F000010BD0000640000204C00002054000020A0
:101F1000704700002DE9FE4F06460F4690461C46CE
:101F20004FF00009FEF784F981461F48007828B178
:101F30004846FEF781F93C20BDE8FE8F1B4850F86B
:101F4000240060BB0120194941F824004846FEF7EF
:101F500073F9002342463946304600F009F98246BB
:101F60000020009001900346024651460290204610
:101F700000F0DEFC054635B90D48007801280CD18B
:101F800000F086FC09E0FEF753F98146002007497E
:101F900041F824004846FEF74FF92846CCE748466A
:101FA000FEF74AF92820C7E755000020680D0020F9
:101FB000620000202DE9F04F85B081468A469346A5
:101FC0001C46DDE90F78129D00200390FEF730F9E2
:101FD00003902348007830B10398FEF72DF93C2098
:101FE00005B0BDE8F08F1F4850F8240088BB0120E1
:101FF0001C4941F824000398FEF71EF92A46414681
:10200000384600F0A5FD2B465A465146484600F09A
:10201000AFF804901198CDE9008002953A46204629
:102020000E9B049900F084FC064636B90E480078F1
:1020300001280CD100F02CFC09E0FEF7F9F8039020
:102040000020084941F824000398FEF7F5F83046CF
:10205000C6E7FFE70398FEF7EFF82820C0E7000087
:1020600055000020680D0020620000207047704776
:102070002DE9F04106460F4614464FF0000815487A
:10208000007818B112202070BDE8F081FEF7D0F87A
:102090008046FF2E03D11048006890F832600F4848
:1020A00050F826502DB94046FEF7C6F84320207060
:1020B000EAE7012D05D14046FEF7BEF84320207027
:1020C000E2E7EF644046FEF7B7F80020207000BF5B
:1020D000DAE700005500002068000020680D0020AD
:1020E000704700002DE9F04707460D464FF0000A03
:1020F000002028606860FEF79BF88246FF2F03D11E
:102100001948006890F83270184850F827402CB9E8
:102110005046FEF791F84320BDE8F087012C04D12A
:102120005046FEF789F84320F6E7207C00F00100D6
:1021300020B95046FEF780F84520EDE70026D4F898
:102140000C90D4F808805046FEF776F800E0761C34
:1021500058F8041B0029FAD0B0002860A9EB06004B
:10216000800068600020D7E768000020680D00202C
:1021700070B5044610464FF080750560051F28466F
:102180002C606FF00106051F28462E604FF01236B6
:10219000051F28462E604FF00336051F28462E6087
:1021A0004FF00236051F28462E607610051F284680
:1021B0002E60051F284629604FF01136051F28465E
:1021C0002E604FF01036051F28462E604FF009365E
:1021D000051F28462E604FF00836051F28462E6042
:1021E0004FF00736051F28462E604FF00636051FB4
:1021F00028462E604FF00536051F28462E604FF00A
:102200000436051F28462E6070BD00002DE9F04100
:1022100005464FF00008FEF70BF88046FF2D05D16C
:102220002048006890F83250012608E01D480068F8
:1022300090F83200A84201D1012600E000261A4899
:1022400050F825402CB94046FDF7F6FF4820BDE880
:10225000F081012C04D14046FDF7EEFF4320F6E764
:1022600094F834701148C05D94F8351088430F49D4
:10227000C8550846C05D30B994F836100C4800784F
:1022800088430B49087094F8300040F0080084F847
:1022900030004046FDF7D0FF012E01D100F0F8FAE2
:1022A0000020D4E768000020680D00205A000020BC
:1022B000590000207047000070B5054600261748F9
:1022C000007800B170BD1648007800B1FAE71DB380
:1022D000FDF7AEFF06461348006890F834401248F8
:1022E000005D1049096891F8351088430E4908557A
:1022F0000846005D40B90B48006890F836100B485E
:10230000007888430949087006480068C56230466D
:10231000FDF792FF00F0BCFA00BFD3E755000020A4
:1023200056000020680000205A00002059000020BC
:102330002DE9F04104460D4616461F461248007826
:1023400010B15520BDE8F0811048007808B1322066
:10235000F8E7B81CC82148434FF47A71B0FBF1F19B
:102360004FF461606043C5EB051200EB820030441E
:1023700000EBC00202EB001001EBC0084046FFF783
:102380009BFF0020DEE700005500002056000020E3
:1023900070B5002600F072F8FDF74AFF0646314896
:1023A0000068401C2F4908603046FDF745FF2E4865
:1023B0000078012853D12D48007820B1012804D09D
:1023C000022809D103E001250BE0002509E00125E1
:1023D00001202649087004E00125002023490870E7
:1023E00000BF00BF05B970BD2148046833E0FDF7A8
:1023F0001FFF0646E06A50B3E06A401EE062E06AF2
:1024000028BB94F8300000F0370040B114F8300FCA
:1024100000F0C800207001206070303C02E0002015
:1024200084F8310094F8300000F0080078B93434B2
:10243000A0781049097808430E49087020780E49A1
:10244000085C6178084314F834190B4A50546469E5
:102450003046FDF7F1FE94F832003F28C7D100BFA7
:10246000C1E700008000002062000020780000200A
:1024700074000020590000205A000020704700001E
:102480002DE9F04F05460F4690469946A87A19491E
:102490000E5C05F10B00805D11F800B00BEBC6007F
:1024A00000F0FF0A144850F82A4000202034E06071
:1024B0002760207C20EA0800207484F81190207C9A
:1024C000203C00F0080068B994F836000B49097800
:1024D00008430A4908700A48805D94F8351008439B
:1024E000074988552946204600F00CF85046BDE8BB
:1024F000F08F00005C410008680D002059000020AA
:102500005A00002010B590F8342001F10B039B5CB9
:1025100090F83540A34301F10B04A35423469B5C80
:1025200023B98B7A90F83640A3438B7210BD00001C
:1025300010B51B4A1268D061194A126892F83430FB
:1025400000F10B02D25C164B1B6893F835301A432E
:10255000134B1B6893F8344000F10B031A55827A31
:102560000F4B1B6893F836301A4382720C4A12687C
:1025700092F834100B4A525C094B1B6893F83530C3
:102580009A43084B5A541A46525C42B9044A12689C
:1025900092F83630044A12789A43034B1A7010BDF1
:1025A000680000205A000020590000200146002247
:1025B0008A72002005E0002301F10B021354421C33
:1025C000D0B20828F7D370472DE9F04150211148C7
:1025D00000F02CF900250DE0681C86B20D4800EBD8
:1025E000051400EB06170020207067600AA0E06069
:1025F000681C85B2042DEFD3064800EB05140020BB
:102600002070606004A0E060024804490860BDE8F2
:10261000F0810000180900203F0000004400002065
:1026200070B5C821114800F001F900230FE0581CD3
:1026300085B203EB83000D4901EB800405EB8500B7
:1026400001EB8006002020706660581C83B2092BC5
:10265000EDD303EB8300054901EB800400202070DB
:10266000606008460249086070BD00005008002004
:102670004000002000200A4908600A4908700A4901
:1026800008700A4908700A4908700A4908600A492E
:1026900008600A4908600A4908600A4908707047DA
:1026A000800000205500002056000020630000201C
:1026B000620000203C000020640000205000002048
:1026C0004C0000205400002000210A4A1170002014
:1026D00004E00021084A1154411CC8B20828F8D36C
:1026E0000021064A1170064A1170064A1160064A16
:1026F00011607047590000205A0000205700002048
:1027000058000020700000206800002070B54FF4D1
:102710007C71194800F08AF84FF48071174800F076
:1027200085F8002413E0601CC5B2C4EBC40000EBC4
:102730004000114901EB8003C5EBC50000EB4000F0
:1027400001EB80065E610EA0D864601CC4B20B2C45
:10275000E9D3C4EBC40000EB4000074901EB800360
:102760000020586106A0D86400200649086002488D
:102770000549086070BD0000680E0020680D00204B
:102780003F000000740000206C00002000B587B0FE
:102790000320002180220A4BCDE90132CDE903104C
:1027A0004FF6FF703F23074A00900748FFF702FCEF
:1027B00006AA06A13F20FFF75BFC07B000BD0000A2
:1027C000680B0020640D0020652A000875432F4F18
:1027D000532D49492049646C6500000000B587B05D
:1027E0000320002180220A4BCDE90132CDE90310FC
:1027F0004FF6FE703E23074A00900748FFF7DAFBCA
:1028000006AA06A13E20FFF733FC07B000BD00007A
:1028100068090020640B00208D2A000875432F4FA3
:10282000532D4949205374617400000004E00022D4
:1028300000F8012B4A1E91B20029F8D17047000020
:102840002DE9F04178211048FFF7F0FF00240DE05A
:10285000601C86B204EB44000B4901EBC00506EB9B
:10286000460001EBC0072F60601C84B2042CEFD33C
:1028700004EB4400044901EBC00500202860084631
:1028800002490860BDE8F081581200207C00002059
:1028900010B50024FDF7CCFC044613480078F8B9C5
:1028A00012480078E0B900F02DF811481149097874
:1028B00050F82100104908600E4800780F49097847
:1028C00088420DD00C480068806B401C0A4909689A
:1028D00088630B480068401C09490860FDF7C0FC8C
:1028E0002046FDF7A9FC10BD550000205600002031
:1028F000680D0020580000207000002057000020C4
:102900003C0000200649074A1278885C0649095CA9
:10291000034A515C01EBC001044A1170704700008A
:102920005C410008590000205A0000205800002097
:102930002DE9F84F05460F4690469946DDE90AAB6A
:1029400000200090FDF774FC00903F480468002CC4
:1029500074D0183454F8040C3B4908600098FDF713
:102960006BFC44F8187CA5760020207660766061C8
:1029700044F814BC44F80CAC44F8108C0C9824F8BF
:10298000080C24F8069C0020E077E810207705F07A
:102990000700E076217F01208840A077E17E0120BA
:1029A0008840607700206060E060A0602062A062E4
:1029B0006062E062206325A06063183C002606E0A8
:1029C000002104F1500040F82610701CC6B2002E01
:1029D000F6D02046FFF79CFA2046FFF747FBFDF7AD
:1029E00027FC00901A4840F825401A4800686061AA
:1029F0000020A0611748006810B116480068846183
:102A0000144804603434A078134909780843124903
:102A1000087020781149085C6178084314F834196B
:102A20000E4A50540E480078401C0D49087000981A
:102A3000FDF702FC0020BDE8F88FFFE70098FDF7E6
:102A4000FBFB4220F7E700006C0000203F00000085
:102A5000680D002074000020590000205A0000205A
:102A600063000020002400BF00BFFDF7E1FB044627
:102A700005480068401C044908602046FDF7DCFB5F
:102A8000FFF7F5FAF1E7000064000020002400BF22
:102A900002E02820FFF710FC194800780028F8D041
:102AA000184800686421B0FBF1F016490860084638
:102AB000006828B9002014490870FF20FFF7A6FB22
:102AC00000BFFDF7B5FB04461048006810490860D8
:102AD00000200E4908602046FDF7AEFB0C48006858
:102AE00008490968B0FBF1F0C0F1640006490870BC
:102AF000FFF7F6FA00F00EF81420FFF7DDFBE0E731
:102B0000540000204C0000204800002064000020F9
:102B1000500000207CB5002514E069462846FFF7E8
:102B2000E1FA064666B9094850F8254044B1012C3F
:102B300006D0D4E9020100EB810060640198A06432
:102B4000681CC5B23F2DE8D97CBD0000680D00208F
:102B500002F0010343B102F002032BB102E0491E6F
:102B6000002308C00029FAD17047000010B586B0D4
:102B700004462D4A00212D480068FEF76DFF012C08
:102B800004D0022C17D0032C3FD129E028A101A8A2
:102B9000FDF7B6FB01A800F00BF90023012219464E
:102BA0001846FFF7C5FB25A101A8FDF7A9FB01A861
:102BB00000F0FEF830E024A101A8FDF7A1FB01A878
:102BC00000F0F6F80023012219461846FFF7B0FB83
:102BD00020A101A8FDF794FB01A800F0E9F81BE093
:102BE0001FA101A8FDF78CFB01A800F0E1F800236C
:102BF000012219461846FFF79BFB1CA101A8FDF70F
:102C00007FFB01A800F0D4F806E000201A49087004
:102C100001201A49087000BF00BF04480068FFF790
:102C200037F8002006B010BD180000201400002066
:102C30003131302E303030302C0000003131312E27
:102C4000353030302C0000003231302E3030303012
:102C50002C0000003231302E303130302C0000009A
:102C60003331302E303030302C0000003331302EF4
:102C7000353030302C000000190000201A000020F0
:102C800001460020034A506820F440400843506049
:102C9000704700000010024029B1064A92690243C1
:102CA000044B9A6104E0034A92698243014B9A61A2
:102CB000704700000010024029B1064AD268024362
:102CC000044BDA6004E0034AD2688243014BDA60C5
:102CD000704700000010024030B50021002200249F
:102CE00000232D4D6D6805F00C0121B1042905D09C
:102CF000082923D105E0294D056022E0274D056014
:102D00001FE0254D6D6805F47012234D6D6805F4C4
:102D10008034022505EB92421CB9214D55430560D4
:102D20000BE01D4D6D6805F400351DB11C4D55437C
:102D3000056002E0194D5543056002E0174D05603E
:102D400000BF00BF144D6D6805F0F0010909154D75
:102D50006B5C0568DD4045600F4D6D6805F4E06112
:102D6000090A104D6B5C4568DD4085600A4D6D6851
:102D700005F46051C90A0B4D6B5C4568DD40C560C8
:102D8000054D6D6805F44041890B074D6B5CC568C6
:102D9000B5FBF3F5056130BD0010024000127A006A
:102DA00000093D002600002036000020704700008A
:102DB00010B504460CB9012010BD214602A0FDF754
:102DC00093FA0020F8E70000436F6D6D616E643A7E
:102DD00025733F0010B500F001F810BD0CB50020C0
:102DE000019000903348006840F480303149086019
:102DF00000BF3048006800F4003000900198401C8B
:102E00000190009818B90198B0F5A06FF1D1294848
:102E1000006800F4003010B10120009001E00020B3
:102E200000900098012843D12348006840F010002A
:102E3000214908600846006820F003000860084641
:102E4000006840F0020008601A484068194948606C
:102E50000846406848600846406840F48060486022
:102E60000846406820F47C1048600846406840F4FA
:102E7000E81048600846006840F08070086000BFB5
:102E80000C48006800F000700028F9D0094840683C
:102E900020F00300074948600846406840F00200FF
:102EA000486000BF0348406800F00C000828F9D1D2
:102EB0000CBD00000010024000200240014600222C
:102EC00059B3083109E00878302806DB087839283A
:102ED00003DC11F8010B3038C2B208783F28F2D178
:102EE0000A2A17D2DFE802F0050C0D0E1616161688
:102EF000160F01200B4B187000200B4B18700BE0C5
:102F00000AE009E008E00020064B18700120064B9B
:102F1000187001E00120704701E00120FBE700206C
:102F2000F9E70000190000201A000020042808D149
:102F30004FF0E021096941F004014FF0E0221161F6
:102F400007E04FF0E021096921F004014FF0E02291
:102F50001161704710B505480078012805D1FEF7CA
:102F6000D7FCFFF715FAFEF7E5FC10BD6200002064
:102F700010B51348006840F0010011490860084688
:102F80004068104908400E494860084600680E49EC
:102F900008400B4908600846006820F4802008605B
:102FA0000846406820F4FE0048604FF41F00886027
:102FB000FFF710FF4FF000600449086010BD0000EB
:102FC000001002400000FFF8FFFFF6FE08ED00E0F1
:102FD00000B585B001214FF40170FFF75DFE4FF49D
:102FE0000040FFF74DFE1848FEF780FA00200090E1
:102FF0008DF804008DF805004FF460200290002049
:10300000039001208DF8100069460F48FEF7BEFAC4
:103010000120FEF755FB01210B48FEF75CFA0A4838
:10302000FEF738FB00BF0848FEF7A5FA0028FAD1E2
:103030000548FEF73FFB00BF0348FEF785FA00286E
:10304000FAD105B000BD00000024014010B50446CF
:103050000723012221460948FEF7C0FA012107484B
:10306000FEF71DFB00BF02210448FEF77BFA002893
:10307000F9D00248FEF772FA10BD000000240140AA
:103080002DE9F04107460C460025002609E03846A8
:10309000FFF7DCFF054441F2883000F0F9F9701CBD
:1030A000C6B2A642F3DBB5FBF4F080B2BDE8F08116
:1030B00010B5FEF72DFC40F225511E4800F059F8DE
:1030C00010B31C4800F010F9C4B21B48008800F48B
:1030D0000040C8B91848008800F4804060B10A2C4C
:1030E00003D000201449088020E01348008840F4F1
:1030F00000401149088019E00D2C06D10E480088C7
:1031000040F480400C49088010E00B480088C0F370
:103110000D000A490C5408480088401C06490880E4
:1031200008460088C72801DD00200880FEF702FC61
:1031300010BD000000380140240000208807002056
:1031400021B1828942F40052828104E082894DF6E5
:10315000FF731A408281704702460020B1F5007F5C
:1031600000D100BF13880B400BB1012000E000200C
:10317000704770B50246002400230025002040F669
:103180006A16B14200D100BFC1F3421501F01F031E
:10319000012606FA03F3012D02D19689334006E099
:1031A000022D02D1168A334001E0968A33400C1278
:1031B000012606FA04F41688344013B10CB101203C
:1031C00000E0002070BDF0B5034600240026002575
:1031D000002040F66A17B94200D100BF1846C1F37B
:1031E000421401F01F06012707FA06F5012C01D150
:1031F0000C3004E0022C01D1103000E014301AB180
:1032000007682F43076002E00768AF430760F0BD1F
:103210002DE9F04786B005460E460024A24600BFC1
:10322000A1460027B08900B100BF2F462C8A4CF67A
:10323000FF700440F08804432C82AC894EF6F310F2
:103240000440B08831890843718908430443AC8144
:10325000AC8A4FF6FF400440B0890443AC8201A819
:10326000FFF73AFD1F48874202D1DDF810A001E0C8
:10327000DDF80CA0A88900F4004040B10AEBCA00B8
:1032800000EB0A1031684900B0FBF1F807E00AEBE7
:10329000CA0000EB0A1031688900B0FBF1F8642025
:1032A000B8FBF0F004012009642101FB1089A88912
:1032B00000F4004040B1322000EBC900B0FBF1F057
:1032C00000F00700044308E0322000EB09106421FD
:1032D000B0FBF1F000F00F0004432C8106B0BDE814
:1032E000F08700000038014001468888C0F30800DC
:1032F0007047C1F308028280704700BFFEE74900B3
:1033000050EAC12018BF04204A0D18BF40F0010048
:1033100040F2FF72B2EB515F08BF40F0020001289B
:1033200008BF0520704730380A2801D201207047B5
:1033300000207047014600BF7047000088B04FF082
:10334000040AFFF745FE00BF0AF1010000F0FF0A82
:103350000A211020FFF794FE044600F09FFE8346EA
:10336000584600F06FFE06464FF06632214B00F0E3
:1033700075FC044600F040FA8346584600F062FEB1
:1033800080461D4A1D4B00F067FD06461C4A1D4B3A
:1033900000F00CFB00221C4BCDE9000100F05EFAAE
:1033A000044600F029FA8346BAF1050F03DD4FF019
:1033B000040ADFF858B0584600F044FE5246CDE902
:1033C000000113A102A8FCF79BFF144A0021144836
:1033D0000068FEF741FB02A8FFF7EAFC104800680E
:1033E000FEF756FC4FF4FA73002211461046FEF722
:1033F0009FFFA9E766664A3FE17A14AE47E1F63FD0
:1034000022FDF675E09C713F000039400000C0418C
:10341000256430252E34662C0000000018000020A2
:103420001400002010B56FF00400FFF77FFD104876
:1034300000681049B0FBF1F00F4908700C480068B3
:103440000C49B0FBF1F441F28830444305200B49AC
:1034500008804FF0E020006940F002004FF0E021CA
:10346000086108464461006940F00100086110BD30
:103470000000002000127A001C0000201E00002026
:1034800010B5FEF7ABFC10BD10B5FEF7C7FC10BDC4
:103490002DE9F047074600264FF0E020D0F81490C1
:1034A0001148007807FB00F800BFFFF7E9FF4FF075
:1034B000E020856911E04FF0E0208469AC420CD037
:1034C000AC4202D2281B064403E0A9EB04002844C6
:1034D00006442546464500D300E0ECE700BFFFF771
:1034E000D3FFBDE8F08700001C00002000BF054AA4
:1034F000128802F04002002AF9D0C2B2014B1B1D13
:103500001A8070470038014000BF07480068C04378
:103510000649C1F894014FF4FA730022114610468F
:10352000FEF706FFF1E7000094812142008021426E
:1035300000BF06480068C0430549C1F89401002354
:10354000022219461846FEF7F3FEF2E794012342E1
:103550000000234210B5FFF765FF4FF4A060FEF7AF
:10356000B5F94FF4E13000F0E1F8FEF74DF9FEF760
:10357000B7F90A23044A00210448FEF7CBFCFEF702
:103580007DFC002010BD000080010020893600086D
:10359000002400BF10E0601CC4B22046FFF7E6FA2A
:1035A0000B48007808B100240AE04FF4FA730022B7
:1035B00011461046FEF7BCFE064800780028EAD106
:1035C00000BF0A23002211461046FEF7B1FEE1E7D4
:1035D0001A00002019000020002500BF1E480088A6
:1035E00000F4004000282FD01B480088C0F30D05D0
:1035F0001A4A00211A480068FEF72EFA00240DE04E
:103600001848015D1848FFF774FE00BF40211648B6
:10361000FFF7A2FD0128F9D1601C84B2AC42EFDBB8
:1036200000200D49088011A10E48FCF76AFF0646EC
:103630003046FFF743FC10B10EA0FCF755FE0848DA
:103640000068FEF725FBC9E70A2300221146104651
:10365000FEF76EFEC2E700002400002018000020E4
:10366000140000208807002000380140636F6D6D52
:10367000616E6400537769746368204D6F646520E0
:103680006572726F7221000070B50446002500BF9C
:10369000FEF718FCFCF7CCFD05460823164A00216E
:1036A0001648FEF737FC0723154A00211548FEF798
:1036B00031FC0623144A00211448FEF72BFC092391
:1036C000134A00211348FEF725FC0523124A002166
:1036D0001248FEF71FFC12490978491EC8B2114969
:1036E000FEF770F9104908600A20FEF78FFD2846A2
:1036F000FCF7A2FD70BD000084020020093500081F
:10370000840300203135000884040020913500082E
:10371000840600203D33000884070020D9350008C6
:1037200058000020180000201400002010B586B0BA
:103730000446012144F20400FFF7AEFA4FF4007092
:10374000ADF8140003208DF8160018208DF817002E
:1037500005A91C48FDF7C9FF4FF48060ADF81400BF
:1037600004208DF8170005A91648FDF7BEFF252097
:103770008DF8000003208DF801008DF80200012073
:103780008DF803006846FEF769F801940020ADF853
:103790000800ADF80A00ADF80C00ADF810000C20E0
:1037A000ADF80E0001A90848FFF732FD012240F2F2
:1037B00025510548FFF707FD01210348FFF7C0FC2D
:1037C00006B010BD000801400038014010B50029C6
:1037D0000AD00878002807D005487844FDF780FA19
:1037E000002801D0002010BD0248784410BD000020
:1037F000360B00002E0B000021F00042A2F16052B7
:10380000B2F5801F01F0004328BFD2F17F6C0BD9C5
:103810005FEA001C43EAC20242EB507018BF7047D7
:1038200028BF20F001007047B2F5801FBCBF1846CA
:1038300070474FEA410C1CF5001F02D2084600F009
:1038400086BC70B500F0B4FA00000089FFF7F6BF3F
:103850004FF00040A0F580007047000010B591EADD
:10386000030F48BF83F0004300F10A83841A71EB11
:10387000030C05D2121943EB0C03001B61EB0C0186
:10388000DFF824E14FEA1154A4EB135C1EEA430F66
:1038900018BF9EEA445F73D023EA0E03DCF1200ECA
:1038A00021EA045143F4801332D322FA0CFE10EBC8
:1038B0000E0023FA0CFE41EB0E01CCF1200E03FAB0
:1038C0000EFE10EB0E0051F10001B1F5801FCCF19E
:1038D000200E32D201EB045112FA0EF2BDE8104074
:1038E00058BF7047401C38BF5FEA420218BF70479C
:1038F000002814BF20F0010041F100014FEA41030C
:1039000013F5001F38BF7047A1F1C04100F09EBA07
:10391000012A43EB0302ACF1200CDCF11F0E32BF95
:103920004FF0000E23FA0CF310EB030041EB0451AF
:10393000B4EB115FD0D0A1EB045101F5801149081F
:103940005FEA300001EB04510ED350F1000038BFA4
:1039500012FA0EFE08D1BDE81040C9E7401C38BF7E
:103960005FEA4202CAD1C3E7BDE810404FEA410313
:1039700013F5001F38BF7047A1F1C04100F066BACF
:103980009EEA445F08D011EA5E0FBDE8104004BF14
:1039900001F0004100207047BDE8104070B500F014
:1039A00007FA00BF64FBBE3E0000E0FF2DE9C04106
:1039B00030B4DFF8A0C23CEA111418BF3CEA13147B
:1039C00000F0EC8081EA03051CEA111444EAD57486
:1039D00018BF1CEA131500F0C780A4EB05044FF0D4
:1039E000004545EAC12145EAC32341EA505143EA73
:1039F000525304F17F74994204F500344FEAC02019
:103A00004FEAC22208BF904200F09C804FEA136543
:103A10000FF24016765D4FEA134506FB05F7C7F136
:103A2000807706FB07F74FEAD737A7FB0368764294
:103A3000C8F58038A7FB06CE38BFA8F1010807FB00
:103A400008E64FF0000EA6FB028CE6FB03CEDCF18D
:103A5000000CCEF1004E38BFAEF1010EA6FB0C58A3
:103A60004FF000074FF00005E6FB0E87A1FB08C6EC
:103A7000A0FB07CE16EB0E0645F10005E1FB07653E
:103A800015F1E04E7EBFA4F580345FEA46066D4135
:103A900016F1800745F100054FEA17274FEA066641
:103AA00047EA0567A6F1DE46B6F1805F4FEA1525C5
:103AB0001FD9384624F0010C05EBC471BCF1FE6F30
:103AC00001EB0C1102D8F0BCBDE8008124425CBFC0
:103AD00001F5801E9EEAC47F02D4F0BCBDE80081DF
:103AE000244238D4F0BCA1F1C041BDE8004100F04F
:103AF000ADB94FEAD22242EA43524FEAD323A7FBA1
:103B000002864FEAD02040EA415007FB03661EEAD6
:103B10000E0F4FEAD12105FB026658BFA6EB0056F7
:103B2000B6EB00564FEA520E4EEAC37E18EB0E0E6D
:103B300056EB530EBDD518EB02085E417F1C55F1C4
:103B40000005B6E74FF480154FF000074FF0000670
:103B50004FF00008ADE7F0BC4FF0000001F1C041AC
:103B600001F00041BDE8008111EA0C1F0CEA1315B9
:103B700000D00CE013EA0C1F00F025804FF000008D
:103B8000F0BC81EA030101F00041BDE80081F0BC16
:103B9000BDE8004181EA030100F058B9F0BCBDE87E
:103BA000004170B500F004F9097EFC3E00F007B852
:103BB00081EA03014FF0000001F00041704781EA03
:103BC000030100F043B9F0BCBDE800414FF0000034
:103BD00021497047FFFDFBF9F7F5F4F2F0EEEDEB4C
:103BE000E9E8E6E4E3E1E0DEDDDBDAD8D7D5D4D3FB
:103BF000D1D0CFCDCCCBCAC8C7C6C5C4C2C1C0BF47
:103C0000BEBDBCBBBAB9B8B7B6B5B4B3B2B1B0AF4C
:103C1000AEADACABAAA9A8A8A7A6A5A4A3A3A2A130
:103C2000A09F9F9E9D9C9C9B9A99999897979695EB
:103C300095949393929191908F8F8E8E8D8C8C8B87
:103C40008B8A89898888878786858584848383820F
:103C5000828181800000FF070000F87FDFF848C103
:103C600070B51CEA111E1EBF1CEA13159EEA0C0F4C
:103C700095EA0C0F00F06F8081EA030423EA4C13ED
:103C80004EEAD47E21EA4C1141F4801143F48013B2
:103C9000AE44A1FB024CA0FB0365AEF17F7E36195A
:103CA00055EB0C05A1FB034C4CF10003A0FB021CDF
:103CB00016EB0C06654153F10003094218BF46F0AC
:103CC000010613F4007F0BD14FEA03314FEA0530B0
:103CD000340341EA155140EA16506FF003020AE03E
:103CE0004FEAC3214FEAC520F40241EA555140EAA8
:103CF00056506FF0020202EB2E4201EB025585EAAC
:103D0000CE710AD05FEA440C18BF24F0004450F191
:103D1000000041F1000120EAD47040F2FE7C6245CF
:103D200000D270BDA84214BF4FF080444FF0404411
:103D3000002E08BF0024BEF1806FA8BFA1F1C041D2
:103D4000BDE8704080F282804FF0000001F1C04178
:103D500001F0004170479EEA0C0F0CEA131518BFE2
:103D600095EA0C0F06D04FF0000081EA030E0EF02A
:103D7000004170BD00F01CF88900013E00F007B85A
:103D800000F009B84FEA430C5FEA5C5C08D081EAB6
:103D9000030100F05BB84FEA410C5FEA5C5CF6D1CE
:103DA0004FF00000014970470000FF070000F87F56
:103DB0000EF1020E2EF0030E5EF8046B364205D4AF
:103DC000012A43EB030515F5001F12D8012841EB2A
:103DD000010C1CF5001F0CD80ED14FEAD17C15F553
:103DE000001F0CEB4C0C0CF1020C08BF4CEBD37C0D
:103DF00004E04FF0080C01E04FEAD37C0CEB4C05DB
:103E000026FA05F606F00706B6F1040C06D20EEB0C
:103E1000860CBDE870404CF0010C6047DFE80CF008
:103E2000090B02024FF000414FF00000A1F5002104
:103E300070BD19461046012851EB010418BFD4F596
:103E4000001484BF002001F0004170BD0808A0F5F7
:103E500000114FEA3101704791EA030F10B581F06C
:103E600000413FF503AD83F0004300F009B80000C6
:103E700010B591EA030F48BF83F000433FF5F6AC5D
:103E8000841A71EB030C07D212198CF0004C43EB2F
:103E90000C03001B61EB0C01DFF8A4E14FEA1154A5
:103EA000A4EB135C1EEA430F18BF9EEA445F00F0C8
:103EB000B08023EA6E03524221EA0451C3EB6E0341
:103EC00038BF5B1EDCF1200E25D322FA0CFE10EB6E
:103ED0000E0043FA0CFE41EB0E01CCF1200E03FA6A
:103EE0000EFE10EB0E0051F10001CCF1200E29D492
:103EF00012FA0EF201EB0451BDE8104058BF7047B2
:103F0000401C1CBFB2F1004F704700280CBF491C79
:103F100020F00100704712EB020E43EB030218BFC2
:103F20004FF0010E4EEA4202ACF1200CDCF11E0E05
:103F300054D943FA0CFE10EB0E0051F1FF31CCF1D5
:103F40001E0ED5D50EF1010E12FA0EFE404141EBC8
:103F5000010101EB445C5FEA5C5C10D910EBDE70A0
:103F600001EB045138BFBEF1004FBDE8104018BF4F
:103F7000704700280CBF491C20F00100704730D268
:103F80004FEAD42C11F5001124F400641BD0B1FACF
:103F900081F20B3AA41AA41ED2F12003914030FA08
:103FA00003F31943904001EBCC71002C01EB045159
:103FB000BDE81040A8BF704701F1C0414FF00000BC
:103FC00001F000417047B0FA80F310FA03F100D11C
:103FD00010BDE41A173C4805C90AE4E701EB045197
:103FE00010BD491001EB0451BDE810404FEA30000C
:103FF00002E04FF0000170474A0008BF0042F8D0CD
:10400000B2F5001F28BF704701F000414FF00000DB
:1040100070479EEA445F07D011EA5E0FBDE810408A
:1040200004BF002100207047BDE8104070B5FFF7C5
:10403000BFFE00BF40DFF63E83F0004110467047F0
:104040000000E0FF43004FEAD30C4FEA3C0C434032
:104050001FBF40070CF1605113F0FE4F70471CF07A
:10406000006F03D100200CF0004170470CF00043BA
:1040700043EA507010B540EACC0000F022F800BFCF
:10408000000000924FEA0001FFF7E0BE4FF0004150
:104090004FF00000A1F5002170470000B0FA80F356
:1040A00010FA03F2C3F19D030AD0D90501EB1220E7
:1040B000530638BF704700F1010008BF20F001002F
:1040C00070470EF1020E2EF0030E5EF8044B2442F0
:1040D00004D44FEA4102B2F17F4F11D84FEA4003B6
:1040E000B3F17F4F0CD80ED14FEAD07CB2F17F4FA5
:1040F0000CEB4C0C0CF1020C08BF4CEBD17C04E037
:104100004FF0080C01E04FEAD17C0CEB4C0324FA91
:1041100003F404F00704B4F1040C06D20EEB840C93
:10412000BDE810404CF0010C6047DFE80CF00708D8
:1041300002024FF00040A0F5800010BD084642008A
:1041400018BFD2F1807288BF00F0004010BDFF217F
:1041500041EAD050C0057047FCF719BB00000100D0
:104160000200010003000100020001000400010040
:10417000020001000300010002000100050001002F
:104180000200010003000100020001000400010020
:10419000020001000300010002000100060001000E
:1041A0000200010003000100020001000400010000
:1041B00002000100030001000200010005000100EF
:1041C00002000100030001000200010004000100E0
:1041D00002000100030001000200010007000100CD
:1041E00002000100030001000200010004000100C0
:1041F00002000100030001000200010005000100AF
:10420000020001000300010002000100040001009F
:10421000020001000300010002000100060001008D
:10422000020001000300010002000100040001007F
:10423000020001000300010002000100050001006E
:10424000020001000300010002000100040001005F
:104250000200010003000100020001000240000012
:10426000000000A00000000005400000000000C8A1
:10427000000000000C4000000000409C0000000016
:10428000194000000020BCBE0000000034400000C7
:10429000BFC91B8E00000004B5400000504BCFD0BA
:1042A0006607E2CF010000006C4100003E8251AA87
:1042B000DFEEA73401000000D9420000DCB5A0E227
:1042C0003A301F97FFFFFFFFB4450000FD25A0C84F
:1042D000E9A3C14FFFFFFFFFFF3F00000000008088
:1042E00000000000FF3F0000000000800000000010
:1042F0002C43000800000020840000006C0100082E
:10430000B043000884000020AC18000088010008B9
:104310001C00000043000000F8FFFFFF0C0000003D
:104320000E0000000F0000002E00000000A24A0452
:104330000000000000000000010203040607080955
:10434000000000000000010000000000000000006C
:10435000000000000000010203040102030406073C
:104360000809020406080000000000000000000028
:10437000000000000000000000000000000000003D
:10438000000000000000000000000000000000002D
:10439000000000000000000000000000000000001D
:1043A000000000000000000000000000000000000D
:04000005080001F1FD
:00000001FF
